{
	"contracts/oops.sol": {
		"Book": {
			"abi": [
				{
					"inputs": [],
					"name": "getDetails",
					"outputs": [
						{
							"internalType": "string",
							"name": "",
							"type": "string"
						},
						{
							"internalType": "string",
							"name": "",
							"type": "string"
						},
						{
							"internalType": "uint256",
							"name": "",
							"type": "uint256"
						}
					],
					"stateMutability": "view",
					"type": "function"
				},
				{
					"inputs": [],
					"name": "name",
					"outputs": [
						{
							"internalType": "string",
							"name": "",
							"type": "string"
						}
					],
					"stateMutability": "view",
					"type": "function"
				},
				{
					"inputs": [
						{
							"internalType": "string",
							"name": "_name",
							"type": "string"
						},
						{
							"internalType": "string",
							"name": "_author",
							"type": "string"
						},
						{
							"internalType": "uint256",
							"name": "_price",
							"type": "uint256"
						}
					],
					"name": "setDetails",
					"outputs": [],
					"stateMutability": "nonpayable",
					"type": "function"
				}
			],
			"devdoc": {
				"kind": "dev",
				"methods": {},
				"version": 1
			},
			"evm": {
				"assembly": "    /* \"contracts/oops.sol\":58:550  contract Book {... */\n  mstore(0x40, 0x80)\n  callvalue\n  dup1\n  iszero\n  tag_1\n  jumpi\n  0x00\n  dup1\n  revert\ntag_1:\n  pop\n  dataSize(sub_0)\n  dup1\n  dataOffset(sub_0)\n  0x00\n  codecopy\n  0x00\n  return\nstop\n\nsub_0: assembly {\n        /* \"contracts/oops.sol\":58:550  contract Book {... */\n      mstore(0x40, 0x80)\n      callvalue\n      dup1\n      iszero\n      tag_1\n      jumpi\n      0x00\n      dup1\n      revert\n    tag_1:\n      pop\n      jumpi(tag_2, lt(calldatasize, 0x04))\n      shr(0xe0, calldataload(0x00))\n      dup1\n      0x06fdde03\n      eq\n      tag_3\n      jumpi\n      dup1\n      0xe0be87ca\n      eq\n      tag_4\n      jumpi\n      dup1\n      0xfbbf93a0\n      eq\n      tag_5\n      jumpi\n    tag_2:\n      0x00\n      dup1\n      revert\n        /* \"contracts/oops.sol\":78:96  string public name */\n    tag_3:\n      tag_6\n      tag_7\n      jump\t// in\n    tag_6:\n      mload(0x40)\n      tag_8\n      swap2\n      swap1\n      tag_9\n      jump\t// in\n    tag_8:\n      mload(0x40)\n      dup1\n      swap2\n      sub\n      swap1\n      return\n        /* \"contracts/oops.sol\":141:341  function setDetails(... */\n    tag_4:\n      tag_10\n      0x04\n      dup1\n      calldatasize\n      sub\n      dup2\n      add\n      swap1\n      tag_11\n      swap2\n      swap1\n      tag_12\n      jump\t// in\n    tag_11:\n      tag_13\n      jump\t// in\n    tag_10:\n      stop\n        /* \"contracts/oops.sol\":347:548  function getDetails()... */\n    tag_5:\n      tag_14\n      tag_15\n      jump\t// in\n    tag_14:\n      mload(0x40)\n      tag_16\n      swap4\n      swap3\n      swap2\n      swap1\n      tag_17\n      jump\t// in\n    tag_16:\n      mload(0x40)\n      dup1\n      swap2\n      sub\n      swap1\n      return\n        /* \"contracts/oops.sol\":78:96  string public name */\n    tag_7:\n      0x00\n      dup1\n      sload\n      tag_18\n      swap1\n      tag_19\n      jump\t// in\n    tag_18:\n      dup1\n      0x1f\n      add\n      0x20\n      dup1\n      swap2\n      div\n      mul\n      0x20\n      add\n      mload(0x40)\n      swap1\n      dup2\n      add\n      0x40\n      mstore\n      dup1\n      swap3\n      swap2\n      swap1\n      dup2\n      dup2\n      mstore\n      0x20\n      add\n      dup3\n      dup1\n      sload\n      tag_20\n      swap1\n      tag_19\n      jump\t// in\n    tag_20:\n      dup1\n      iszero\n      tag_21\n      jumpi\n      dup1\n      0x1f\n      lt\n      tag_22\n      jumpi\n      0x0100\n      dup1\n      dup4\n      sload\n      div\n      mul\n      dup4\n      mstore\n      swap2\n      0x20\n      add\n      swap2\n      jump(tag_21)\n    tag_22:\n      dup3\n      add\n      swap2\n      swap1\n      0x00\n      mstore\n      keccak256(0x00, 0x20)\n      swap1\n    tag_23:\n      dup2\n      sload\n      dup2\n      mstore\n      swap1\n      0x01\n      add\n      swap1\n      0x20\n      add\n      dup1\n      dup4\n      gt\n      tag_23\n      jumpi\n      dup3\n      swap1\n      sub\n      0x1f\n      and\n      dup3\n      add\n      swap2\n    tag_21:\n      pop\n      pop\n      pop\n      pop\n      pop\n      dup2\n      jump\t// out\n        /* \"contracts/oops.sol\":141:341  function setDetails(... */\n    tag_13:\n        /* \"contracts/oops.sol\":279:284  _name */\n      dup5\n      dup5\n        /* \"contracts/oops.sol\":272:276  name */\n      0x00\n        /* \"contracts/oops.sol\":272:284  name = _name */\n      swap2\n      dup3\n      tag_25\n      swap3\n      swap2\n      swap1\n      tag_26\n      jump\t// in\n    tag_25:\n      pop\n        /* \"contracts/oops.sol\":303:310  _author */\n      dup3\n      dup3\n        /* \"contracts/oops.sol\":294:300  author */\n      0x01\n        /* \"contracts/oops.sol\":294:310  author = _author */\n      swap2\n      dup3\n      tag_27\n      swap3\n      swap2\n      swap1\n      tag_26\n      jump\t// in\n    tag_27:\n      pop\n        /* \"contracts/oops.sol\":328:334  _price */\n      dup1\n        /* \"contracts/oops.sol\":320:325  price */\n      0x02\n        /* \"contracts/oops.sol\":320:334  price = _price */\n      dup2\n      swap1\n      sstore\n      pop\n        /* \"contracts/oops.sol\":141:341  function setDetails(... */\n      pop\n      pop\n      pop\n      pop\n      pop\n      jump\t// out\n        /* \"contracts/oops.sol\":347:548  function getDetails()... */\n    tag_15:\n        /* \"contracts/oops.sol\":427:440  string memory */\n      0x60\n        /* \"contracts/oops.sol\":454:467  string memory */\n      dup1\n        /* \"contracts/oops.sol\":481:488  uint256 */\n      0x00\n        /* \"contracts/oops.sol\":521:525  name */\n      dup1\n        /* \"contracts/oops.sol\":527:533  author */\n      0x01\n        /* \"contracts/oops.sol\":535:540  price */\n      sload(0x02)\n        /* \"contracts/oops.sol\":513:541  return (name, author, price) */\n      dup3\n      dup1\n      sload\n      tag_29\n      swap1\n      tag_19\n      jump\t// in\n    tag_29:\n      dup1\n      0x1f\n      add\n      0x20\n      dup1\n      swap2\n      div\n      mul\n      0x20\n      add\n      mload(0x40)\n      swap1\n      dup2\n      add\n      0x40\n      mstore\n      dup1\n      swap3\n      swap2\n      swap1\n      dup2\n      dup2\n      mstore\n      0x20\n      add\n      dup3\n      dup1\n      sload\n      tag_30\n      swap1\n      tag_19\n      jump\t// in\n    tag_30:\n      dup1\n      iszero\n      tag_31\n      jumpi\n      dup1\n      0x1f\n      lt\n      tag_32\n      jumpi\n      0x0100\n      dup1\n      dup4\n      sload\n      div\n      mul\n      dup4\n      mstore\n      swap2\n      0x20\n      add\n      swap2\n      jump(tag_31)\n    tag_32:\n      dup3\n      add\n      swap2\n      swap1\n      0x00\n      mstore\n      keccak256(0x00, 0x20)\n      swap1\n    tag_33:\n      dup2\n      sload\n      dup2\n      mstore\n      swap1\n      0x01\n      add\n      swap1\n      0x20\n      add\n      dup1\n      dup4\n      gt\n      tag_33\n      jumpi\n      dup3\n      swap1\n      sub\n      0x1f\n      and\n      dup3\n      add\n      swap2\n    tag_31:\n      pop\n      pop\n      pop\n      pop\n      pop\n      swap3\n      pop\n      dup2\n      dup1\n      sload\n      tag_34\n      swap1\n      tag_19\n      jump\t// in\n    tag_34:\n      dup1\n      0x1f\n      add\n      0x20\n      dup1\n      swap2\n      div\n      mul\n      0x20\n      add\n      mload(0x40)\n      swap1\n      dup2\n      add\n      0x40\n      mstore\n      dup1\n      swap3\n      swap2\n      swap1\n      dup2\n      dup2\n      mstore\n      0x20\n      add\n      dup3\n      dup1\n      sload\n      tag_35\n      swap1\n      tag_19\n      jump\t// in\n    tag_35:\n      dup1\n      iszero\n      tag_36\n      jumpi\n      dup1\n      0x1f\n      lt\n      tag_37\n      jumpi\n      0x0100\n      dup1\n      dup4\n      sload\n      div\n      mul\n      dup4\n      mstore\n      swap2\n      0x20\n      add\n      swap2\n      jump(tag_36)\n    tag_37:\n      dup3\n      add\n      swap2\n      swap1\n      0x00\n      mstore\n      keccak256(0x00, 0x20)\n      swap1\n    tag_38:\n      dup2\n      sload\n      dup2\n      mstore\n      swap1\n      0x01\n      add\n      swap1\n      0x20\n      add\n      dup1\n      dup4\n      gt\n      tag_38\n      jumpi\n      dup3\n      swap1\n      sub\n      0x1f\n      and\n      dup3\n      add\n      swap2\n    tag_36:\n      pop\n      pop\n      pop\n      pop\n      pop\n      swap2\n      pop\n      swap3\n      pop\n      swap3\n      pop\n      swap3\n      pop\n        /* \"contracts/oops.sol\":347:548  function getDetails()... */\n      swap1\n      swap2\n      swap3\n      jump\t// out\n        /* \"#utility.yul\":7:106   */\n    tag_39:\n        /* \"#utility.yul\":59:65   */\n      0x00\n        /* \"#utility.yul\":93:98   */\n      dup2\n        /* \"#utility.yul\":87:99   */\n      mload\n        /* \"#utility.yul\":77:99   */\n      swap1\n      pop\n        /* \"#utility.yul\":7:106   */\n      swap2\n      swap1\n      pop\n      jump\t// out\n        /* \"#utility.yul\":112:281   */\n    tag_40:\n        /* \"#utility.yul\":196:207   */\n      0x00\n        /* \"#utility.yul\":230:236   */\n      dup3\n        /* \"#utility.yul\":225:228   */\n      dup3\n        /* \"#utility.yul\":218:237   */\n      mstore\n        /* \"#utility.yul\":270:274   */\n      0x20\n        /* \"#utility.yul\":265:268   */\n      dup3\n        /* \"#utility.yul\":261:275   */\n      add\n        /* \"#utility.yul\":246:275   */\n      swap1\n      pop\n        /* \"#utility.yul\":112:281   */\n      swap3\n      swap2\n      pop\n      pop\n      jump\t// out\n        /* \"#utility.yul\":287:426   */\n    tag_41:\n        /* \"#utility.yul\":376:382   */\n      dup3\n        /* \"#utility.yul\":371:374   */\n      dup2\n        /* \"#utility.yul\":366:369   */\n      dup4\n        /* \"#utility.yul\":360:383   */\n      mcopy\n        /* \"#utility.yul\":417:418   */\n      0x00\n        /* \"#utility.yul\":408:414   */\n      dup4\n        /* \"#utility.yul\":403:406   */\n      dup4\n        /* \"#utility.yul\":399:415   */\n      add\n        /* \"#utility.yul\":392:419   */\n      mstore\n        /* \"#utility.yul\":287:426   */\n      pop\n      pop\n      pop\n      jump\t// out\n        /* \"#utility.yul\":432:534   */\n    tag_42:\n        /* \"#utility.yul\":473:479   */\n      0x00\n        /* \"#utility.yul\":524:526   */\n      0x1f\n        /* \"#utility.yul\":520:527   */\n      not\n        /* \"#utility.yul\":515:517   */\n      0x1f\n        /* \"#utility.yul\":508:513   */\n      dup4\n        /* \"#utility.yul\":504:518   */\n      add\n        /* \"#utility.yul\":500:528   */\n      and\n        /* \"#utility.yul\":490:528   */\n      swap1\n      pop\n        /* \"#utility.yul\":432:534   */\n      swap2\n      swap1\n      pop\n      jump\t// out\n        /* \"#utility.yul\":540:917   */\n    tag_43:\n        /* \"#utility.yul\":628:631   */\n      0x00\n        /* \"#utility.yul\":656:695   */\n      tag_79\n        /* \"#utility.yul\":689:694   */\n      dup3\n        /* \"#utility.yul\":656:695   */\n      tag_39\n      jump\t// in\n    tag_79:\n        /* \"#utility.yul\":711:782   */\n      tag_80\n        /* \"#utility.yul\":775:781   */\n      dup2\n        /* \"#utility.yul\":770:773   */\n      dup6\n        /* \"#utility.yul\":711:782   */\n      tag_40\n      jump\t// in\n    tag_80:\n        /* \"#utility.yul\":704:782   */\n      swap4\n      pop\n        /* \"#utility.yul\":791:856   */\n      tag_81\n        /* \"#utility.yul\":849:855   */\n      dup2\n        /* \"#utility.yul\":844:847   */\n      dup6\n        /* \"#utility.yul\":837:841   */\n      0x20\n        /* \"#utility.yul\":830:835   */\n      dup7\n        /* \"#utility.yul\":826:842   */\n      add\n        /* \"#utility.yul\":791:856   */\n      tag_41\n      jump\t// in\n    tag_81:\n        /* \"#utility.yul\":881:910   */\n      tag_82\n        /* \"#utility.yul\":903:909   */\n      dup2\n        /* \"#utility.yul\":881:910   */\n      tag_42\n      jump\t// in\n    tag_82:\n        /* \"#utility.yul\":876:879   */\n      dup5\n        /* \"#utility.yul\":872:911   */\n      add\n        /* \"#utility.yul\":865:911   */\n      swap2\n      pop\n        /* \"#utility.yul\":632:917   */\n      pop\n        /* \"#utility.yul\":540:917   */\n      swap3\n      swap2\n      pop\n      pop\n      jump\t// out\n        /* \"#utility.yul\":923:1236   */\n    tag_9:\n        /* \"#utility.yul\":1036:1040   */\n      0x00\n        /* \"#utility.yul\":1074:1076   */\n      0x20\n        /* \"#utility.yul\":1063:1072   */\n      dup3\n        /* \"#utility.yul\":1059:1077   */\n      add\n        /* \"#utility.yul\":1051:1077   */\n      swap1\n      pop\n        /* \"#utility.yul\":1123:1132   */\n      dup2\n        /* \"#utility.yul\":1117:1121   */\n      dup2\n        /* \"#utility.yul\":1113:1133   */\n      sub\n        /* \"#utility.yul\":1109:1110   */\n      0x00\n        /* \"#utility.yul\":1098:1107   */\n      dup4\n        /* \"#utility.yul\":1094:1111   */\n      add\n        /* \"#utility.yul\":1087:1134   */\n      mstore\n        /* \"#utility.yul\":1151:1229   */\n      tag_84\n        /* \"#utility.yul\":1224:1228   */\n      dup2\n        /* \"#utility.yul\":1215:1221   */\n      dup5\n        /* \"#utility.yul\":1151:1229   */\n      tag_43\n      jump\t// in\n    tag_84:\n        /* \"#utility.yul\":1143:1229   */\n      swap1\n      pop\n        /* \"#utility.yul\":923:1236   */\n      swap3\n      swap2\n      pop\n      pop\n      jump\t// out\n        /* \"#utility.yul\":1323:1440   */\n    tag_45:\n        /* \"#utility.yul\":1432:1433   */\n      0x00\n        /* \"#utility.yul\":1429:1430   */\n      dup1\n        /* \"#utility.yul\":1422:1434   */\n      revert\n        /* \"#utility.yul\":1446:1563   */\n    tag_46:\n        /* \"#utility.yul\":1555:1556   */\n      0x00\n        /* \"#utility.yul\":1552:1553   */\n      dup1\n        /* \"#utility.yul\":1545:1557   */\n      revert\n        /* \"#utility.yul\":1569:1686   */\n    tag_47:\n        /* \"#utility.yul\":1678:1679   */\n      0x00\n        /* \"#utility.yul\":1675:1676   */\n      dup1\n        /* \"#utility.yul\":1668:1680   */\n      revert\n        /* \"#utility.yul\":1692:1809   */\n    tag_48:\n        /* \"#utility.yul\":1801:1802   */\n      0x00\n        /* \"#utility.yul\":1798:1799   */\n      dup1\n        /* \"#utility.yul\":1791:1803   */\n      revert\n        /* \"#utility.yul\":1815:1932   */\n    tag_49:\n        /* \"#utility.yul\":1924:1925   */\n      0x00\n        /* \"#utility.yul\":1921:1922   */\n      dup1\n        /* \"#utility.yul\":1914:1926   */\n      revert\n        /* \"#utility.yul\":1952:2505   */\n    tag_50:\n        /* \"#utility.yul\":2010:2018   */\n      0x00\n        /* \"#utility.yul\":2020:2026   */\n      dup1\n        /* \"#utility.yul\":2070:2073   */\n      dup4\n        /* \"#utility.yul\":2063:2067   */\n      0x1f\n        /* \"#utility.yul\":2055:2061   */\n      dup5\n        /* \"#utility.yul\":2051:2068   */\n      add\n        /* \"#utility.yul\":2047:2074   */\n      slt\n        /* \"#utility.yul\":2037:2159   */\n      tag_92\n      jumpi\n        /* \"#utility.yul\":2078:2157   */\n      tag_93\n      tag_47\n      jump\t// in\n    tag_93:\n        /* \"#utility.yul\":2037:2159   */\n    tag_92:\n        /* \"#utility.yul\":2191:2197   */\n      dup3\n        /* \"#utility.yul\":2178:2198   */\n      calldataload\n        /* \"#utility.yul\":2168:2198   */\n      swap1\n      pop\n        /* \"#utility.yul\":2221:2239   */\n      0xffffffffffffffff\n        /* \"#utility.yul\":2213:2219   */\n      dup2\n        /* \"#utility.yul\":2210:2240   */\n      gt\n        /* \"#utility.yul\":2207:2324   */\n      iszero\n      tag_94\n      jumpi\n        /* \"#utility.yul\":2243:2322   */\n      tag_95\n      tag_48\n      jump\t// in\n    tag_95:\n        /* \"#utility.yul\":2207:2324   */\n    tag_94:\n        /* \"#utility.yul\":2357:2361   */\n      0x20\n        /* \"#utility.yul\":2349:2355   */\n      dup4\n        /* \"#utility.yul\":2345:2362   */\n      add\n        /* \"#utility.yul\":2333:2362   */\n      swap2\n      pop\n        /* \"#utility.yul\":2411:2414   */\n      dup4\n        /* \"#utility.yul\":2403:2407   */\n      0x01\n        /* \"#utility.yul\":2395:2401   */\n      dup3\n        /* \"#utility.yul\":2391:2408   */\n      mul\n        /* \"#utility.yul\":2381:2389   */\n      dup4\n        /* \"#utility.yul\":2377:2409   */\n      add\n        /* \"#utility.yul\":2374:2415   */\n      gt\n        /* \"#utility.yul\":2371:2499   */\n      iszero\n      tag_96\n      jumpi\n        /* \"#utility.yul\":2418:2497   */\n      tag_97\n      tag_49\n      jump\t// in\n    tag_97:\n        /* \"#utility.yul\":2371:2499   */\n    tag_96:\n        /* \"#utility.yul\":1952:2505   */\n      swap3\n      pop\n      swap3\n      swap1\n      pop\n      jump\t// out\n        /* \"#utility.yul\":2511:2588   */\n    tag_51:\n        /* \"#utility.yul\":2548:2555   */\n      0x00\n        /* \"#utility.yul\":2577:2582   */\n      dup2\n        /* \"#utility.yul\":2566:2582   */\n      swap1\n      pop\n        /* \"#utility.yul\":2511:2588   */\n      swap2\n      swap1\n      pop\n      jump\t// out\n        /* \"#utility.yul\":2594:2716   */\n    tag_52:\n        /* \"#utility.yul\":2667:2691   */\n      tag_100\n        /* \"#utility.yul\":2685:2690   */\n      dup2\n        /* \"#utility.yul\":2667:2691   */\n      tag_51\n      jump\t// in\n    tag_100:\n        /* \"#utility.yul\":2660:2665   */\n      dup2\n        /* \"#utility.yul\":2657:2692   */\n      eq\n        /* \"#utility.yul\":2647:2710   */\n      tag_101\n      jumpi\n        /* \"#utility.yul\":2706:2707   */\n      0x00\n        /* \"#utility.yul\":2703:2704   */\n      dup1\n        /* \"#utility.yul\":2696:2708   */\n      revert\n        /* \"#utility.yul\":2647:2710   */\n    tag_101:\n        /* \"#utility.yul\":2594:2716   */\n      pop\n      jump\t// out\n        /* \"#utility.yul\":2722:2861   */\n    tag_53:\n        /* \"#utility.yul\":2768:2773   */\n      0x00\n        /* \"#utility.yul\":2806:2812   */\n      dup2\n        /* \"#utility.yul\":2793:2813   */\n      calldataload\n        /* \"#utility.yul\":2784:2813   */\n      swap1\n      pop\n        /* \"#utility.yul\":2822:2855   */\n      tag_103\n        /* \"#utility.yul\":2849:2854   */\n      dup2\n        /* \"#utility.yul\":2822:2855   */\n      tag_52\n      jump\t// in\n    tag_103:\n        /* \"#utility.yul\":2722:2861   */\n      swap3\n      swap2\n      pop\n      pop\n      jump\t// out\n        /* \"#utility.yul\":2867:3886   */\n    tag_12:\n        /* \"#utility.yul\":2968:2974   */\n      0x00\n        /* \"#utility.yul\":2976:2982   */\n      dup1\n        /* \"#utility.yul\":2984:2990   */\n      0x00\n        /* \"#utility.yul\":2992:2998   */\n      dup1\n        /* \"#utility.yul\":3000:3006   */\n      0x00\n        /* \"#utility.yul\":3049:3051   */\n      0x60\n        /* \"#utility.yul\":3037:3046   */\n      dup7\n        /* \"#utility.yul\":3028:3035   */\n      dup9\n        /* \"#utility.yul\":3024:3047   */\n      sub\n        /* \"#utility.yul\":3020:3052   */\n      slt\n        /* \"#utility.yul\":3017:3136   */\n      iszero\n      tag_105\n      jumpi\n        /* \"#utility.yul\":3055:3134   */\n      tag_106\n      tag_45\n      jump\t// in\n    tag_106:\n        /* \"#utility.yul\":3017:3136   */\n    tag_105:\n        /* \"#utility.yul\":3203:3204   */\n      0x00\n        /* \"#utility.yul\":3192:3201   */\n      dup7\n        /* \"#utility.yul\":3188:3205   */\n      add\n        /* \"#utility.yul\":3175:3206   */\n      calldataload\n        /* \"#utility.yul\":3233:3251   */\n      0xffffffffffffffff\n        /* \"#utility.yul\":3225:3231   */\n      dup2\n        /* \"#utility.yul\":3222:3252   */\n      gt\n        /* \"#utility.yul\":3219:3336   */\n      iszero\n      tag_107\n      jumpi\n        /* \"#utility.yul\":3255:3334   */\n      tag_108\n      tag_46\n      jump\t// in\n    tag_108:\n        /* \"#utility.yul\":3219:3336   */\n    tag_107:\n        /* \"#utility.yul\":3368:3433   */\n      tag_109\n        /* \"#utility.yul\":3425:3432   */\n      dup9\n        /* \"#utility.yul\":3416:3422   */\n      dup3\n        /* \"#utility.yul\":3405:3414   */\n      dup10\n        /* \"#utility.yul\":3401:3423   */\n      add\n        /* \"#utility.yul\":3368:3433   */\n      tag_50\n      jump\t// in\n    tag_109:\n        /* \"#utility.yul\":3350:3433   */\n      swap6\n      pop\n      swap6\n      pop\n        /* \"#utility.yul\":3146:3443   */\n      pop\n        /* \"#utility.yul\":3510:3512   */\n      0x20\n        /* \"#utility.yul\":3499:3508   */\n      dup7\n        /* \"#utility.yul\":3495:3513   */\n      add\n        /* \"#utility.yul\":3482:3514   */\n      calldataload\n        /* \"#utility.yul\":3541:3559   */\n      0xffffffffffffffff\n        /* \"#utility.yul\":3533:3539   */\n      dup2\n        /* \"#utility.yul\":3530:3560   */\n      gt\n        /* \"#utility.yul\":3527:3644   */\n      iszero\n      tag_110\n      jumpi\n        /* \"#utility.yul\":3563:3642   */\n      tag_111\n      tag_46\n      jump\t// in\n    tag_111:\n        /* \"#utility.yul\":3527:3644   */\n    tag_110:\n        /* \"#utility.yul\":3676:3741   */\n      tag_112\n        /* \"#utility.yul\":3733:3740   */\n      dup9\n        /* \"#utility.yul\":3724:3730   */\n      dup3\n        /* \"#utility.yul\":3713:3722   */\n      dup10\n        /* \"#utility.yul\":3709:3731   */\n      add\n        /* \"#utility.yul\":3676:3741   */\n      tag_50\n      jump\t// in\n    tag_112:\n        /* \"#utility.yul\":3658:3741   */\n      swap4\n      pop\n      swap4\n      pop\n        /* \"#utility.yul\":3453:3751   */\n      pop\n        /* \"#utility.yul\":3790:3792   */\n      0x40\n        /* \"#utility.yul\":3816:3869   */\n      tag_113\n        /* \"#utility.yul\":3861:3868   */\n      dup9\n        /* \"#utility.yul\":3852:3858   */\n      dup3\n        /* \"#utility.yul\":3841:3850   */\n      dup10\n        /* \"#utility.yul\":3837:3859   */\n      add\n        /* \"#utility.yul\":3816:3869   */\n      tag_53\n      jump\t// in\n    tag_113:\n        /* \"#utility.yul\":3806:3869   */\n      swap2\n      pop\n        /* \"#utility.yul\":3761:3879   */\n      pop\n        /* \"#utility.yul\":2867:3886   */\n      swap3\n      swap6\n      pop\n      swap3\n      swap6\n      swap1\n      swap4\n      pop\n      jump\t// out\n        /* \"#utility.yul\":3892:4010   */\n    tag_54:\n        /* \"#utility.yul\":3979:4003   */\n      tag_115\n        /* \"#utility.yul\":3997:4002   */\n      dup2\n        /* \"#utility.yul\":3979:4003   */\n      tag_51\n      jump\t// in\n    tag_115:\n        /* \"#utility.yul\":3974:3977   */\n      dup3\n        /* \"#utility.yul\":3967:4004   */\n      mstore\n        /* \"#utility.yul\":3892:4010   */\n      pop\n      pop\n      jump\t// out\n        /* \"#utility.yul\":4016:4640   */\n    tag_17:\n        /* \"#utility.yul\":4205:4209   */\n      0x00\n        /* \"#utility.yul\":4243:4245   */\n      0x60\n        /* \"#utility.yul\":4232:4241   */\n      dup3\n        /* \"#utility.yul\":4228:4246   */\n      add\n        /* \"#utility.yul\":4220:4246   */\n      swap1\n      pop\n        /* \"#utility.yul\":4292:4301   */\n      dup2\n        /* \"#utility.yul\":4286:4290   */\n      dup2\n        /* \"#utility.yul\":4282:4302   */\n      sub\n        /* \"#utility.yul\":4278:4279   */\n      0x00\n        /* \"#utility.yul\":4267:4276   */\n      dup4\n        /* \"#utility.yul\":4263:4280   */\n      add\n        /* \"#utility.yul\":4256:4303   */\n      mstore\n        /* \"#utility.yul\":4320:4398   */\n      tag_117\n        /* \"#utility.yul\":4393:4397   */\n      dup2\n        /* \"#utility.yul\":4384:4390   */\n      dup7\n        /* \"#utility.yul\":4320:4398   */\n      tag_43\n      jump\t// in\n    tag_117:\n        /* \"#utility.yul\":4312:4398   */\n      swap1\n      pop\n        /* \"#utility.yul\":4445:4454   */\n      dup2\n        /* \"#utility.yul\":4439:4443   */\n      dup2\n        /* \"#utility.yul\":4435:4455   */\n      sub\n        /* \"#utility.yul\":4430:4432   */\n      0x20\n        /* \"#utility.yul\":4419:4428   */\n      dup4\n        /* \"#utility.yul\":4415:4433   */\n      add\n        /* \"#utility.yul\":4408:4456   */\n      mstore\n        /* \"#utility.yul\":4473:4551   */\n      tag_118\n        /* \"#utility.yul\":4546:4550   */\n      dup2\n        /* \"#utility.yul\":4537:4543   */\n      dup6\n        /* \"#utility.yul\":4473:4551   */\n      tag_43\n      jump\t// in\n    tag_118:\n        /* \"#utility.yul\":4465:4551   */\n      swap1\n      pop\n        /* \"#utility.yul\":4561:4633   */\n      tag_119\n        /* \"#utility.yul\":4629:4631   */\n      0x40\n        /* \"#utility.yul\":4618:4627   */\n      dup4\n        /* \"#utility.yul\":4614:4632   */\n      add\n        /* \"#utility.yul\":4605:4611   */\n      dup5\n        /* \"#utility.yul\":4561:4633   */\n      tag_54\n      jump\t// in\n    tag_119:\n        /* \"#utility.yul\":4016:4640   */\n      swap5\n      swap4\n      pop\n      pop\n      pop\n      pop\n      jump\t// out\n        /* \"#utility.yul\":4646:4826   */\n    tag_55:\n        /* \"#utility.yul\":4694:4771   */\n      0x4e487b7100000000000000000000000000000000000000000000000000000000\n        /* \"#utility.yul\":4691:4692   */\n      0x00\n        /* \"#utility.yul\":4684:4772   */\n      mstore\n        /* \"#utility.yul\":4791:4795   */\n      0x22\n        /* \"#utility.yul\":4788:4789   */\n      0x04\n        /* \"#utility.yul\":4781:4796   */\n      mstore\n        /* \"#utility.yul\":4815:4819   */\n      0x24\n        /* \"#utility.yul\":4812:4813   */\n      0x00\n        /* \"#utility.yul\":4805:4820   */\n      revert\n        /* \"#utility.yul\":4832:5152   */\n    tag_19:\n        /* \"#utility.yul\":4876:4882   */\n      0x00\n        /* \"#utility.yul\":4913:4914   */\n      0x02\n        /* \"#utility.yul\":4907:4911   */\n      dup3\n        /* \"#utility.yul\":4903:4915   */\n      div\n        /* \"#utility.yul\":4893:4915   */\n      swap1\n      pop\n        /* \"#utility.yul\":4960:4961   */\n      0x01\n        /* \"#utility.yul\":4954:4958   */\n      dup3\n        /* \"#utility.yul\":4950:4962   */\n      and\n        /* \"#utility.yul\":4981:4999   */\n      dup1\n        /* \"#utility.yul\":4971:5052   */\n      tag_122\n      jumpi\n        /* \"#utility.yul\":5037:5041   */\n      0x7f\n        /* \"#utility.yul\":5029:5035   */\n      dup3\n        /* \"#utility.yul\":5025:5042   */\n      and\n        /* \"#utility.yul\":5015:5042   */\n      swap2\n      pop\n        /* \"#utility.yul\":4971:5052   */\n    tag_122:\n        /* \"#utility.yul\":5099:5101   */\n      0x20\n        /* \"#utility.yul\":5091:5097   */\n      dup3\n        /* \"#utility.yul\":5088:5102   */\n      lt\n        /* \"#utility.yul\":5068:5086   */\n      dup2\n        /* \"#utility.yul\":5065:5103   */\n      sub\n        /* \"#utility.yul\":5062:5146   */\n      tag_123\n      jumpi\n        /* \"#utility.yul\":5118:5136   */\n      tag_124\n      tag_55\n      jump\t// in\n    tag_124:\n        /* \"#utility.yul\":5062:5146   */\n    tag_123:\n        /* \"#utility.yul\":4883:5152   */\n      pop\n        /* \"#utility.yul\":4832:5152   */\n      swap2\n      swap1\n      pop\n      jump\t// out\n        /* \"#utility.yul\":5158:5255   */\n    tag_56:\n        /* \"#utility.yul\":5217:5223   */\n      0x00\n        /* \"#utility.yul\":5245:5248   */\n      dup3\n        /* \"#utility.yul\":5235:5248   */\n      swap1\n      pop\n        /* \"#utility.yul\":5158:5255   */\n      swap3\n      swap2\n      pop\n      pop\n      jump\t// out\n        /* \"#utility.yul\":5261:5441   */\n    tag_57:\n        /* \"#utility.yul\":5309:5386   */\n      0x4e487b7100000000000000000000000000000000000000000000000000000000\n        /* \"#utility.yul\":5306:5307   */\n      0x00\n        /* \"#utility.yul\":5299:5387   */\n      mstore\n        /* \"#utility.yul\":5406:5410   */\n      0x41\n        /* \"#utility.yul\":5403:5404   */\n      0x04\n        /* \"#utility.yul\":5396:5411   */\n      mstore\n        /* \"#utility.yul\":5430:5434   */\n      0x24\n        /* \"#utility.yul\":5427:5428   */\n      0x00\n        /* \"#utility.yul\":5420:5435   */\n      revert\n        /* \"#utility.yul\":5447:5588   */\n    tag_58:\n        /* \"#utility.yul\":5496:5500   */\n      0x00\n        /* \"#utility.yul\":5519:5522   */\n      dup2\n        /* \"#utility.yul\":5511:5522   */\n      swap1\n      pop\n        /* \"#utility.yul\":5542:5545   */\n      dup2\n        /* \"#utility.yul\":5539:5540   */\n      0x00\n        /* \"#utility.yul\":5532:5546   */\n      mstore\n        /* \"#utility.yul\":5576:5580   */\n      0x20\n        /* \"#utility.yul\":5573:5574   */\n      0x00\n        /* \"#utility.yul\":5563:5581   */\n      keccak256\n        /* \"#utility.yul\":5555:5581   */\n      swap1\n      pop\n        /* \"#utility.yul\":5447:5588   */\n      swap2\n      swap1\n      pop\n      jump\t// out\n        /* \"#utility.yul\":5594:5687   */\n    tag_59:\n        /* \"#utility.yul\":5631:5637   */\n      0x00\n        /* \"#utility.yul\":5678:5680   */\n      0x20\n        /* \"#utility.yul\":5673:5675   */\n      0x1f\n        /* \"#utility.yul\":5666:5671   */\n      dup4\n        /* \"#utility.yul\":5662:5676   */\n      add\n        /* \"#utility.yul\":5658:5681   */\n      div\n        /* \"#utility.yul\":5648:5681   */\n      swap1\n      pop\n        /* \"#utility.yul\":5594:5687   */\n      swap2\n      swap1\n      pop\n      jump\t// out\n        /* \"#utility.yul\":5693:5800   */\n    tag_60:\n        /* \"#utility.yul\":5737:5745   */\n      0x00\n        /* \"#utility.yul\":5787:5792   */\n      dup3\n        /* \"#utility.yul\":5781:5785   */\n      dup3\n        /* \"#utility.yul\":5777:5793   */\n      shl\n        /* \"#utility.yul\":5756:5793   */\n      swap1\n      pop\n        /* \"#utility.yul\":5693:5800   */\n      swap3\n      swap2\n      pop\n      pop\n      jump\t// out\n        /* \"#utility.yul\":5806:6199   */\n    tag_61:\n        /* \"#utility.yul\":5875:5881   */\n      0x00\n        /* \"#utility.yul\":5925:5926   */\n      0x08\n        /* \"#utility.yul\":5913:5923   */\n      dup4\n        /* \"#utility.yul\":5909:5927   */\n      mul\n        /* \"#utility.yul\":5948:6045   */\n      tag_131\n        /* \"#utility.yul\":5978:6044   */\n      0xffffffffffffffffffffffffffffffffffffffffffffffffffffffffffffffff\n        /* \"#utility.yul\":5967:5976   */\n      dup3\n        /* \"#utility.yul\":5948:6045   */\n      tag_60\n      jump\t// in\n    tag_131:\n        /* \"#utility.yul\":6066:6105   */\n      tag_132\n        /* \"#utility.yul\":6096:6104   */\n      dup7\n        /* \"#utility.yul\":6085:6094   */\n      dup4\n        /* \"#utility.yul\":6066:6105   */\n      tag_60\n      jump\t// in\n    tag_132:\n        /* \"#utility.yul\":6054:6105   */\n      swap6\n      pop\n        /* \"#utility.yul\":6138:6142   */\n      dup1\n        /* \"#utility.yul\":6134:6143   */\n      not\n        /* \"#utility.yul\":6127:6132   */\n      dup5\n        /* \"#utility.yul\":6123:6144   */\n      and\n        /* \"#utility.yul\":6114:6144   */\n      swap4\n      pop\n        /* \"#utility.yul\":6187:6191   */\n      dup1\n        /* \"#utility.yul\":6177:6185   */\n      dup7\n        /* \"#utility.yul\":6173:6192   */\n      and\n        /* \"#utility.yul\":6166:6171   */\n      dup5\n        /* \"#utility.yul\":6163:6193   */\n      or\n        /* \"#utility.yul\":6153:6193   */\n      swap3\n      pop\n        /* \"#utility.yul\":5882:6199   */\n      pop\n      pop\n        /* \"#utility.yul\":5806:6199   */\n      swap4\n      swap3\n      pop\n      pop\n      pop\n      jump\t// out\n        /* \"#utility.yul\":6205:6265   */\n    tag_62:\n        /* \"#utility.yul\":6233:6236   */\n      0x00\n        /* \"#utility.yul\":6254:6259   */\n      dup2\n        /* \"#utility.yul\":6247:6259   */\n      swap1\n      pop\n        /* \"#utility.yul\":6205:6265   */\n      swap2\n      swap1\n      pop\n      jump\t// out\n        /* \"#utility.yul\":6271:6413   */\n    tag_63:\n        /* \"#utility.yul\":6321:6330   */\n      0x00\n        /* \"#utility.yul\":6354:6407   */\n      tag_135\n        /* \"#utility.yul\":6372:6406   */\n      tag_136\n        /* \"#utility.yul\":6381:6405   */\n      tag_137\n        /* \"#utility.yul\":6399:6404   */\n      dup5\n        /* \"#utility.yul\":6381:6405   */\n      tag_51\n      jump\t// in\n    tag_137:\n        /* \"#utility.yul\":6372:6406   */\n      tag_62\n      jump\t// in\n    tag_136:\n        /* \"#utility.yul\":6354:6407   */\n      tag_51\n      jump\t// in\n    tag_135:\n        /* \"#utility.yul\":6341:6407   */\n      swap1\n      pop\n        /* \"#utility.yul\":6271:6413   */\n      swap2\n      swap1\n      pop\n      jump\t// out\n        /* \"#utility.yul\":6419:6494   */\n    tag_64:\n        /* \"#utility.yul\":6462:6465   */\n      0x00\n        /* \"#utility.yul\":6483:6488   */\n      dup2\n        /* \"#utility.yul\":6476:6488   */\n      swap1\n      pop\n        /* \"#utility.yul\":6419:6494   */\n      swap2\n      swap1\n      pop\n      jump\t// out\n        /* \"#utility.yul\":6500:6769   */\n    tag_65:\n        /* \"#utility.yul\":6610:6649   */\n      tag_140\n        /* \"#utility.yul\":6641:6648   */\n      dup4\n        /* \"#utility.yul\":6610:6649   */\n      tag_63\n      jump\t// in\n    tag_140:\n        /* \"#utility.yul\":6671:6762   */\n      tag_141\n        /* \"#utility.yul\":6720:6761   */\n      tag_142\n        /* \"#utility.yul\":6744:6760   */\n      dup3\n        /* \"#utility.yul\":6720:6761   */\n      tag_64\n      jump\t// in\n    tag_142:\n        /* \"#utility.yul\":6712:6718   */\n      dup5\n        /* \"#utility.yul\":6705:6709   */\n      dup5\n        /* \"#utility.yul\":6699:6710   */\n      sload\n        /* \"#utility.yul\":6671:6762   */\n      tag_61\n      jump\t// in\n    tag_141:\n        /* \"#utility.yul\":6665:6669   */\n      dup3\n        /* \"#utility.yul\":6658:6763   */\n      sstore\n        /* \"#utility.yul\":6576:6769   */\n      pop\n        /* \"#utility.yul\":6500:6769   */\n      pop\n      pop\n      pop\n      jump\t// out\n        /* \"#utility.yul\":6775:6848   */\n    tag_66:\n        /* \"#utility.yul\":6820:6823   */\n      0x00\n        /* \"#utility.yul\":6775:6848   */\n      swap1\n      jump\t// out\n        /* \"#utility.yul\":6854:7043   */\n    tag_67:\n        /* \"#utility.yul\":6931:6963   */\n      tag_145\n      tag_66\n      jump\t// in\n    tag_145:\n        /* \"#utility.yul\":6972:7037   */\n      tag_146\n        /* \"#utility.yul\":7030:7036   */\n      dup2\n        /* \"#utility.yul\":7022:7028   */\n      dup5\n        /* \"#utility.yul\":7016:7020   */\n      dup5\n        /* \"#utility.yul\":6972:7037   */\n      tag_65\n      jump\t// in\n    tag_146:\n        /* \"#utility.yul\":6907:7043   */\n      pop\n        /* \"#utility.yul\":6854:7043   */\n      pop\n      pop\n      jump\t// out\n        /* \"#utility.yul\":7049:7235   */\n    tag_68:\n        /* \"#utility.yul\":7109:7229   */\n    tag_148:\n        /* \"#utility.yul\":7126:7129   */\n      dup2\n        /* \"#utility.yul\":7119:7124   */\n      dup2\n        /* \"#utility.yul\":7116:7130   */\n      lt\n        /* \"#utility.yul\":7109:7229   */\n      iszero\n      tag_150\n      jumpi\n        /* \"#utility.yul\":7180:7219   */\n      tag_151\n        /* \"#utility.yul\":7217:7218   */\n      0x00\n        /* \"#utility.yul\":7210:7215   */\n      dup3\n        /* \"#utility.yul\":7180:7219   */\n      tag_67\n      jump\t// in\n    tag_151:\n        /* \"#utility.yul\":7153:7154   */\n      0x01\n        /* \"#utility.yul\":7146:7151   */\n      dup2\n        /* \"#utility.yul\":7142:7155   */\n      add\n        /* \"#utility.yul\":7133:7155   */\n      swap1\n      pop\n        /* \"#utility.yul\":7109:7229   */\n      jump(tag_148)\n    tag_150:\n        /* \"#utility.yul\":7049:7235   */\n      pop\n      pop\n      jump\t// out\n        /* \"#utility.yul\":7241:7784   */\n    tag_69:\n        /* \"#utility.yul\":7342:7344   */\n      0x1f\n        /* \"#utility.yul\":7337:7340   */\n      dup3\n        /* \"#utility.yul\":7334:7345   */\n      gt\n        /* \"#utility.yul\":7331:7777   */\n      iszero\n      tag_153\n      jumpi\n        /* \"#utility.yul\":7376:7414   */\n      tag_154\n        /* \"#utility.yul\":7408:7413   */\n      dup2\n        /* \"#utility.yul\":7376:7414   */\n      tag_58\n      jump\t// in\n    tag_154:\n        /* \"#utility.yul\":7460:7489   */\n      tag_155\n        /* \"#utility.yul\":7478:7488   */\n      dup5\n        /* \"#utility.yul\":7460:7489   */\n      tag_59\n      jump\t// in\n    tag_155:\n        /* \"#utility.yul\":7450:7458   */\n      dup2\n        /* \"#utility.yul\":7446:7490   */\n      add\n        /* \"#utility.yul\":7643:7645   */\n      0x20\n        /* \"#utility.yul\":7631:7641   */\n      dup6\n        /* \"#utility.yul\":7628:7646   */\n      lt\n        /* \"#utility.yul\":7625:7674   */\n      iszero\n      tag_156\n      jumpi\n        /* \"#utility.yul\":7664:7672   */\n      dup2\n        /* \"#utility.yul\":7649:7672   */\n      swap1\n      pop\n        /* \"#utility.yul\":7625:7674   */\n    tag_156:\n        /* \"#utility.yul\":7687:7767   */\n      tag_157\n        /* \"#utility.yul\":7743:7765   */\n      tag_158\n        /* \"#utility.yul\":7761:7764   */\n      dup6\n        /* \"#utility.yul\":7743:7765   */\n      tag_59\n      jump\t// in\n    tag_158:\n        /* \"#utility.yul\":7733:7741   */\n      dup4\n        /* \"#utility.yul\":7729:7766   */\n      add\n        /* \"#utility.yul\":7716:7727   */\n      dup3\n        /* \"#utility.yul\":7687:7767   */\n      tag_68\n      jump\t// in\n    tag_157:\n        /* \"#utility.yul\":7346:7777   */\n      pop\n      pop\n        /* \"#utility.yul\":7331:7777   */\n    tag_153:\n        /* \"#utility.yul\":7241:7784   */\n      pop\n      pop\n      pop\n      jump\t// out\n        /* \"#utility.yul\":7790:7907   */\n    tag_70:\n        /* \"#utility.yul\":7844:7852   */\n      0x00\n        /* \"#utility.yul\":7894:7899   */\n      dup3\n        /* \"#utility.yul\":7888:7892   */\n      dup3\n        /* \"#utility.yul\":7884:7900   */\n      shr\n        /* \"#utility.yul\":7863:7900   */\n      swap1\n      pop\n        /* \"#utility.yul\":7790:7907   */\n      swap3\n      swap2\n      pop\n      pop\n      jump\t// out\n        /* \"#utility.yul\":7913:8082   */\n    tag_71:\n        /* \"#utility.yul\":7957:7963   */\n      0x00\n        /* \"#utility.yul\":7990:8041   */\n      tag_161\n        /* \"#utility.yul\":8038:8039   */\n      0x00\n        /* \"#utility.yul\":8034:8040   */\n      not\n        /* \"#utility.yul\":8026:8031   */\n      dup5\n        /* \"#utility.yul\":8023:8024   */\n      0x08\n        /* \"#utility.yul\":8019:8032   */\n      mul\n        /* \"#utility.yul\":7990:8041   */\n      tag_70\n      jump\t// in\n    tag_161:\n        /* \"#utility.yul\":7986:8042   */\n      not\n        /* \"#utility.yul\":8071:8075   */\n      dup1\n        /* \"#utility.yul\":8065:8069   */\n      dup4\n        /* \"#utility.yul\":8061:8076   */\n      and\n        /* \"#utility.yul\":8051:8076   */\n      swap2\n      pop\n        /* \"#utility.yul\":7964:8082   */\n      pop\n        /* \"#utility.yul\":7913:8082   */\n      swap3\n      swap2\n      pop\n      pop\n      jump\t// out\n        /* \"#utility.yul\":8087:8382   */\n    tag_72:\n        /* \"#utility.yul\":8163:8167   */\n      0x00\n        /* \"#utility.yul\":8309:8338   */\n      tag_163\n        /* \"#utility.yul\":8334:8337   */\n      dup4\n        /* \"#utility.yul\":8328:8332   */\n      dup4\n        /* \"#utility.yul\":8309:8338   */\n      tag_71\n      jump\t// in\n    tag_163:\n        /* \"#utility.yul\":8301:8338   */\n      swap2\n      pop\n        /* \"#utility.yul\":8371:8374   */\n      dup3\n        /* \"#utility.yul\":8368:8369   */\n      0x02\n        /* \"#utility.yul\":8364:8375   */\n      mul\n        /* \"#utility.yul\":8358:8362   */\n      dup3\n        /* \"#utility.yul\":8355:8376   */\n      or\n        /* \"#utility.yul\":8347:8376   */\n      swap1\n      pop\n        /* \"#utility.yul\":8087:8382   */\n      swap3\n      swap2\n      pop\n      pop\n      jump\t// out\n        /* \"#utility.yul\":8387:9790   */\n    tag_26:\n        /* \"#utility.yul\":8511:8555   */\n      tag_165\n        /* \"#utility.yul\":8551:8554   */\n      dup4\n        /* \"#utility.yul\":8546:8549   */\n      dup4\n        /* \"#utility.yul\":8511:8555   */\n      tag_56\n      jump\t// in\n    tag_165:\n        /* \"#utility.yul\":8620:8638   */\n      0xffffffffffffffff\n        /* \"#utility.yul\":8612:8618   */\n      dup2\n        /* \"#utility.yul\":8609:8639   */\n      gt\n        /* \"#utility.yul\":8606:8662   */\n      iszero\n      tag_166\n      jumpi\n        /* \"#utility.yul\":8642:8660   */\n      tag_167\n      tag_57\n      jump\t// in\n    tag_167:\n        /* \"#utility.yul\":8606:8662   */\n    tag_166:\n        /* \"#utility.yul\":8686:8724   */\n      tag_168\n        /* \"#utility.yul\":8718:8722   */\n      dup3\n        /* \"#utility.yul\":8712:8723   */\n      sload\n        /* \"#utility.yul\":8686:8724   */\n      tag_19\n      jump\t// in\n    tag_168:\n        /* \"#utility.yul\":8771:8838   */\n      tag_169\n        /* \"#utility.yul\":8831:8837   */\n      dup3\n        /* \"#utility.yul\":8823:8829   */\n      dup3\n        /* \"#utility.yul\":8817:8821   */\n      dup6\n        /* \"#utility.yul\":8771:8838   */\n      tag_69\n      jump\t// in\n    tag_169:\n        /* \"#utility.yul\":8865:8866   */\n      0x00\n        /* \"#utility.yul\":8894:8896   */\n      0x1f\n        /* \"#utility.yul\":8886:8892   */\n      dup4\n        /* \"#utility.yul\":8883:8897   */\n      gt\n        /* \"#utility.yul\":8911:8912   */\n      0x01\n        /* \"#utility.yul\":8906:9538   */\n      dup2\n      eq\n      tag_171\n      jumpi\n        /* \"#utility.yul\":9582:9583   */\n      0x00\n        /* \"#utility.yul\":9599:9605   */\n      dup5\n        /* \"#utility.yul\":9596:9680   */\n      iszero\n      tag_172\n      jumpi\n        /* \"#utility.yul\":9655:9664   */\n      dup3\n        /* \"#utility.yul\":9650:9653   */\n      dup8\n        /* \"#utility.yul\":9646:9665   */\n      add\n        /* \"#utility.yul\":9633:9666   */\n      calldataload\n        /* \"#utility.yul\":9624:9666   */\n      swap1\n      pop\n        /* \"#utility.yul\":9596:9680   */\n    tag_172:\n        /* \"#utility.yul\":9706:9773   */\n      tag_173\n        /* \"#utility.yul\":9766:9772   */\n      dup6\n        /* \"#utility.yul\":9759:9764   */\n      dup3\n        /* \"#utility.yul\":9706:9773   */\n      tag_72\n      jump\t// in\n    tag_173:\n        /* \"#utility.yul\":9700:9704   */\n      dup7\n        /* \"#utility.yul\":9693:9774   */\n      sstore\n        /* \"#utility.yul\":9555:9784   */\n      pop\n        /* \"#utility.yul\":8876:9784   */\n      jump(tag_170)\n        /* \"#utility.yul\":8906:9538   */\n    tag_171:\n        /* \"#utility.yul\":8958:8962   */\n      0x1f\n        /* \"#utility.yul\":8954:8963   */\n      not\n        /* \"#utility.yul\":8946:8952   */\n      dup5\n        /* \"#utility.yul\":8942:8964   */\n      and\n        /* \"#utility.yul\":8992:9029   */\n      tag_174\n        /* \"#utility.yul\":9024:9028   */\n      dup7\n        /* \"#utility.yul\":8992:9029   */\n      tag_58\n      jump\t// in\n    tag_174:\n        /* \"#utility.yul\":9051:9052   */\n      0x00\n        /* \"#utility.yul\":9065:9280   */\n    tag_175:\n        /* \"#utility.yul\":9079:9086   */\n      dup3\n        /* \"#utility.yul\":9076:9077   */\n      dup2\n        /* \"#utility.yul\":9073:9087   */\n      lt\n        /* \"#utility.yul\":9065:9280   */\n      iszero\n      tag_177\n      jumpi\n        /* \"#utility.yul\":9165:9174   */\n      dup5\n        /* \"#utility.yul\":9160:9163   */\n      dup10\n        /* \"#utility.yul\":9156:9175   */\n      add\n        /* \"#utility.yul\":9143:9176   */\n      calldataload\n        /* \"#utility.yul\":9135:9141   */\n      dup3\n        /* \"#utility.yul\":9128:9177   */\n      sstore\n        /* \"#utility.yul\":9216:9217   */\n      0x01\n        /* \"#utility.yul\":9208:9214   */\n      dup3\n        /* \"#utility.yul\":9204:9218   */\n      add\n        /* \"#utility.yul\":9194:9218   */\n      swap2\n      pop\n        /* \"#utility.yul\":9263:9265   */\n      0x20\n        /* \"#utility.yul\":9252:9261   */\n      dup6\n        /* \"#utility.yul\":9248:9266   */\n      add\n        /* \"#utility.yul\":9235:9266   */\n      swap5\n      pop\n        /* \"#utility.yul\":9102:9106   */\n      0x20\n        /* \"#utility.yul\":9099:9100   */\n      dup2\n        /* \"#utility.yul\":9095:9107   */\n      add\n        /* \"#utility.yul\":9090:9107   */\n      swap1\n      pop\n        /* \"#utility.yul\":9065:9280   */\n      jump(tag_175)\n    tag_177:\n        /* \"#utility.yul\":9308:9314   */\n      dup7\n        /* \"#utility.yul\":9299:9306   */\n      dup4\n        /* \"#utility.yul\":9296:9315   */\n      lt\n        /* \"#utility.yul\":9293:9479   */\n      iszero\n      tag_178\n      jumpi\n        /* \"#utility.yul\":9373:9382   */\n      dup5\n        /* \"#utility.yul\":9368:9371   */\n      dup10\n        /* \"#utility.yul\":9364:9383   */\n      add\n        /* \"#utility.yul\":9351:9384   */\n      calldataload\n        /* \"#utility.yul\":9416:9464   */\n      tag_179\n        /* \"#utility.yul\":9458:9462   */\n      0x1f\n        /* \"#utility.yul\":9450:9456   */\n      dup10\n        /* \"#utility.yul\":9446:9463   */\n      and\n        /* \"#utility.yul\":9435:9444   */\n      dup3\n        /* \"#utility.yul\":9416:9464   */\n      tag_71\n      jump\t// in\n    tag_179:\n        /* \"#utility.yul\":9408:9414   */\n      dup4\n        /* \"#utility.yul\":9401:9465   */\n      sstore\n        /* \"#utility.yul\":9316:9479   */\n      pop\n        /* \"#utility.yul\":9293:9479   */\n    tag_178:\n        /* \"#utility.yul\":9525:9526   */\n      0x01\n        /* \"#utility.yul\":9521:9522   */\n      0x02\n        /* \"#utility.yul\":9513:9519   */\n      dup9\n        /* \"#utility.yul\":9509:9523   */\n      mul\n        /* \"#utility.yul\":9505:9527   */\n      add\n        /* \"#utility.yul\":9499:9503   */\n      dup9\n        /* \"#utility.yul\":9492:9528   */\n      sstore\n        /* \"#utility.yul\":8913:9538   */\n      pop\n      pop\n      pop\n        /* \"#utility.yul\":8876:9784   */\n    tag_170:\n      pop\n        /* \"#utility.yul\":8486:9790   */\n      pop\n      pop\n      pop\n        /* \"#utility.yul\":8387:9790   */\n      pop\n      pop\n      pop\n      jump\t// out\n\n    auxdata: 0xa264697066735822122043440c74dfba1025307ef4a4b858dbbf183e4e261abc8885149c1169e5b5353764736f6c634300081a0033\n}\n",
				"bytecode": {
					"linkReferences": {},
					"object": "6080604052348015600e575f80fd5b506107c58061001c5f395ff3fe608060405234801561000f575f80fd5b506004361061003f575f3560e01c806306fdde0314610043578063e0be87ca14610061578063fbbf93a01461007d575b5f80fd5b61004b61009d565b60405161005891906102f2565b60405180910390f35b61007b600480360381019061007691906103ae565b610128565b005b610085610159565b6040516100949392919061044e565b60405180910390f35b5f80546100a9906104be565b80601f01602080910402602001604051908101604052809291908181526020018280546100d5906104be565b80156101205780601f106100f757610100808354040283529160200191610120565b820191905f5260205f20905b81548152906001019060200180831161010357829003601f168201915b505050505081565b84845f91826101389291906106c2565b5082826001918261014a9291906106c2565b50806002819055505050505050565b6060805f80600160025482805461016f906104be565b80601f016020809104026020016040519081016040528092919081815260200182805461019b906104be565b80156101e65780601f106101bd576101008083540402835291602001916101e6565b820191905f5260205f20905b8154815290600101906020018083116101c957829003601f168201915b505050505092508180546101f9906104be565b80601f0160208091040260200160405190810160405280929190818152602001828054610225906104be565b80156102705780601f1061024757610100808354040283529160200191610270565b820191905f5260205f20905b81548152906001019060200180831161025357829003601f168201915b50505050509150925092509250909192565b5f81519050919050565b5f82825260208201905092915050565b8281835e5f83830152505050565b5f601f19601f8301169050919050565b5f6102c482610282565b6102ce818561028c565b93506102de81856020860161029c565b6102e7816102aa565b840191505092915050565b5f6020820190508181035f83015261030a81846102ba565b905092915050565b5f80fd5b5f80fd5b5f80fd5b5f80fd5b5f80fd5b5f8083601f84011261033b5761033a61031a565b5b8235905067ffffffffffffffff8111156103585761035761031e565b5b60208301915083600182028301111561037457610373610322565b5b9250929050565b5f819050919050565b61038d8161037b565b8114610397575f80fd5b50565b5f813590506103a881610384565b92915050565b5f805f805f606086880312156103c7576103c6610312565b5b5f86013567ffffffffffffffff8111156103e4576103e3610316565b5b6103f088828901610326565b9550955050602086013567ffffffffffffffff81111561041357610412610316565b5b61041f88828901610326565b935093505060406104328882890161039a565b9150509295509295909350565b6104488161037b565b82525050565b5f6060820190508181035f83015261046681866102ba565b9050818103602083015261047a81856102ba565b9050610489604083018461043f565b949350505050565b7f4e487b71000000000000000000000000000000000000000000000000000000005f52602260045260245ffd5b5f60028204905060018216806104d557607f821691505b6020821081036104e8576104e7610491565b5b50919050565b5f82905092915050565b7f4e487b71000000000000000000000000000000000000000000000000000000005f52604160045260245ffd5b5f819050815f5260205f209050919050565b5f6020601f8301049050919050565b5f82821b905092915050565b5f600883026105817fffffffffffffffffffffffffffffffffffffffffffffffffffffffffffffffff82610546565b61058b8683610546565b95508019841693508086168417925050509392505050565b5f819050919050565b5f6105c66105c16105bc8461037b565b6105a3565b61037b565b9050919050565b5f819050919050565b6105df836105ac565b6105f36105eb826105cd565b848454610552565b825550505050565b5f90565b6106076105fb565b6106128184846105d6565b505050565b5b818110156106355761062a5f826105ff565b600181019050610618565b5050565b601f82111561067a5761064b81610525565b61065484610537565b81016020851015610663578190505b61067761066f85610537565b830182610617565b50505b505050565b5f82821c905092915050565b5f61069a5f198460080261067f565b1980831691505092915050565b5f6106b2838361068b565b9150826002028217905092915050565b6106cc83836104ee565b67ffffffffffffffff8111156106e5576106e46104f8565b5b6106ef82546104be565b6106fa828285610639565b5f601f831160018114610727575f8415610715578287013590505b61071f85826106a7565b865550610786565b601f19841661073586610525565b5f5b8281101561075c57848901358255600182019150602085019450602081019050610737565b868310156107795784890135610775601f89168261068b565b8355505b6001600288020188555050505b5050505050505056fea264697066735822122043440c74dfba1025307ef4a4b858dbbf183e4e261abc8885149c1169e5b5353764736f6c634300081a0033",
					"opcodes": "PUSH1 0x80 PUSH1 0x40 MSTORE CALLVALUE DUP1 ISZERO PUSH1 0xE JUMPI PUSH0 DUP1 REVERT JUMPDEST POP PUSH2 0x7C5 DUP1 PUSH2 0x1C PUSH0 CODECOPY PUSH0 RETURN INVALID PUSH1 0x80 PUSH1 0x40 MSTORE CALLVALUE DUP1 ISZERO PUSH2 0xF JUMPI PUSH0 DUP1 REVERT JUMPDEST POP PUSH1 0x4 CALLDATASIZE LT PUSH2 0x3F JUMPI PUSH0 CALLDATALOAD PUSH1 0xE0 SHR DUP1 PUSH4 0x6FDDE03 EQ PUSH2 0x43 JUMPI DUP1 PUSH4 0xE0BE87CA EQ PUSH2 0x61 JUMPI DUP1 PUSH4 0xFBBF93A0 EQ PUSH2 0x7D JUMPI JUMPDEST PUSH0 DUP1 REVERT JUMPDEST PUSH2 0x4B PUSH2 0x9D JUMP JUMPDEST PUSH1 0x40 MLOAD PUSH2 0x58 SWAP2 SWAP1 PUSH2 0x2F2 JUMP JUMPDEST PUSH1 0x40 MLOAD DUP1 SWAP2 SUB SWAP1 RETURN JUMPDEST PUSH2 0x7B PUSH1 0x4 DUP1 CALLDATASIZE SUB DUP2 ADD SWAP1 PUSH2 0x76 SWAP2 SWAP1 PUSH2 0x3AE JUMP JUMPDEST PUSH2 0x128 JUMP JUMPDEST STOP JUMPDEST PUSH2 0x85 PUSH2 0x159 JUMP JUMPDEST PUSH1 0x40 MLOAD PUSH2 0x94 SWAP4 SWAP3 SWAP2 SWAP1 PUSH2 0x44E JUMP JUMPDEST PUSH1 0x40 MLOAD DUP1 SWAP2 SUB SWAP1 RETURN JUMPDEST PUSH0 DUP1 SLOAD PUSH2 0xA9 SWAP1 PUSH2 0x4BE JUMP JUMPDEST DUP1 PUSH1 0x1F ADD PUSH1 0x20 DUP1 SWAP2 DIV MUL PUSH1 0x20 ADD PUSH1 0x40 MLOAD SWAP1 DUP2 ADD PUSH1 0x40 MSTORE DUP1 SWAP3 SWAP2 SWAP1 DUP2 DUP2 MSTORE PUSH1 0x20 ADD DUP3 DUP1 SLOAD PUSH2 0xD5 SWAP1 PUSH2 0x4BE JUMP JUMPDEST DUP1 ISZERO PUSH2 0x120 JUMPI DUP1 PUSH1 0x1F LT PUSH2 0xF7 JUMPI PUSH2 0x100 DUP1 DUP4 SLOAD DIV MUL DUP4 MSTORE SWAP2 PUSH1 0x20 ADD SWAP2 PUSH2 0x120 JUMP JUMPDEST DUP3 ADD SWAP2 SWAP1 PUSH0 MSTORE PUSH1 0x20 PUSH0 KECCAK256 SWAP1 JUMPDEST DUP2 SLOAD DUP2 MSTORE SWAP1 PUSH1 0x1 ADD SWAP1 PUSH1 0x20 ADD DUP1 DUP4 GT PUSH2 0x103 JUMPI DUP3 SWAP1 SUB PUSH1 0x1F AND DUP3 ADD SWAP2 JUMPDEST POP POP POP POP POP DUP2 JUMP JUMPDEST DUP5 DUP5 PUSH0 SWAP2 DUP3 PUSH2 0x138 SWAP3 SWAP2 SWAP1 PUSH2 0x6C2 JUMP JUMPDEST POP DUP3 DUP3 PUSH1 0x1 SWAP2 DUP3 PUSH2 0x14A SWAP3 SWAP2 SWAP1 PUSH2 0x6C2 JUMP JUMPDEST POP DUP1 PUSH1 0x2 DUP2 SWAP1 SSTORE POP POP POP POP POP POP JUMP JUMPDEST PUSH1 0x60 DUP1 PUSH0 DUP1 PUSH1 0x1 PUSH1 0x2 SLOAD DUP3 DUP1 SLOAD PUSH2 0x16F SWAP1 PUSH2 0x4BE JUMP JUMPDEST DUP1 PUSH1 0x1F ADD PUSH1 0x20 DUP1 SWAP2 DIV MUL PUSH1 0x20 ADD PUSH1 0x40 MLOAD SWAP1 DUP2 ADD PUSH1 0x40 MSTORE DUP1 SWAP3 SWAP2 SWAP1 DUP2 DUP2 MSTORE PUSH1 0x20 ADD DUP3 DUP1 SLOAD PUSH2 0x19B SWAP1 PUSH2 0x4BE JUMP JUMPDEST DUP1 ISZERO PUSH2 0x1E6 JUMPI DUP1 PUSH1 0x1F LT PUSH2 0x1BD JUMPI PUSH2 0x100 DUP1 DUP4 SLOAD DIV MUL DUP4 MSTORE SWAP2 PUSH1 0x20 ADD SWAP2 PUSH2 0x1E6 JUMP JUMPDEST DUP3 ADD SWAP2 SWAP1 PUSH0 MSTORE PUSH1 0x20 PUSH0 KECCAK256 SWAP1 JUMPDEST DUP2 SLOAD DUP2 MSTORE SWAP1 PUSH1 0x1 ADD SWAP1 PUSH1 0x20 ADD DUP1 DUP4 GT PUSH2 0x1C9 JUMPI DUP3 SWAP1 SUB PUSH1 0x1F AND DUP3 ADD SWAP2 JUMPDEST POP POP POP POP POP SWAP3 POP DUP2 DUP1 SLOAD PUSH2 0x1F9 SWAP1 PUSH2 0x4BE JUMP JUMPDEST DUP1 PUSH1 0x1F ADD PUSH1 0x20 DUP1 SWAP2 DIV MUL PUSH1 0x20 ADD PUSH1 0x40 MLOAD SWAP1 DUP2 ADD PUSH1 0x40 MSTORE DUP1 SWAP3 SWAP2 SWAP1 DUP2 DUP2 MSTORE PUSH1 0x20 ADD DUP3 DUP1 SLOAD PUSH2 0x225 SWAP1 PUSH2 0x4BE JUMP JUMPDEST DUP1 ISZERO PUSH2 0x270 JUMPI DUP1 PUSH1 0x1F LT PUSH2 0x247 JUMPI PUSH2 0x100 DUP1 DUP4 SLOAD DIV MUL DUP4 MSTORE SWAP2 PUSH1 0x20 ADD SWAP2 PUSH2 0x270 JUMP JUMPDEST DUP3 ADD SWAP2 SWAP1 PUSH0 MSTORE PUSH1 0x20 PUSH0 KECCAK256 SWAP1 JUMPDEST DUP2 SLOAD DUP2 MSTORE SWAP1 PUSH1 0x1 ADD SWAP1 PUSH1 0x20 ADD DUP1 DUP4 GT PUSH2 0x253 JUMPI DUP3 SWAP1 SUB PUSH1 0x1F AND DUP3 ADD SWAP2 JUMPDEST POP POP POP POP POP SWAP2 POP SWAP3 POP SWAP3 POP SWAP3 POP SWAP1 SWAP2 SWAP3 JUMP JUMPDEST PUSH0 DUP2 MLOAD SWAP1 POP SWAP2 SWAP1 POP JUMP JUMPDEST PUSH0 DUP3 DUP3 MSTORE PUSH1 0x20 DUP3 ADD SWAP1 POP SWAP3 SWAP2 POP POP JUMP JUMPDEST DUP3 DUP2 DUP4 MCOPY PUSH0 DUP4 DUP4 ADD MSTORE POP POP POP JUMP JUMPDEST PUSH0 PUSH1 0x1F NOT PUSH1 0x1F DUP4 ADD AND SWAP1 POP SWAP2 SWAP1 POP JUMP JUMPDEST PUSH0 PUSH2 0x2C4 DUP3 PUSH2 0x282 JUMP JUMPDEST PUSH2 0x2CE DUP2 DUP6 PUSH2 0x28C JUMP JUMPDEST SWAP4 POP PUSH2 0x2DE DUP2 DUP6 PUSH1 0x20 DUP7 ADD PUSH2 0x29C JUMP JUMPDEST PUSH2 0x2E7 DUP2 PUSH2 0x2AA JUMP JUMPDEST DUP5 ADD SWAP2 POP POP SWAP3 SWAP2 POP POP JUMP JUMPDEST PUSH0 PUSH1 0x20 DUP3 ADD SWAP1 POP DUP2 DUP2 SUB PUSH0 DUP4 ADD MSTORE PUSH2 0x30A DUP2 DUP5 PUSH2 0x2BA JUMP JUMPDEST SWAP1 POP SWAP3 SWAP2 POP POP JUMP JUMPDEST PUSH0 DUP1 REVERT JUMPDEST PUSH0 DUP1 REVERT JUMPDEST PUSH0 DUP1 REVERT JUMPDEST PUSH0 DUP1 REVERT JUMPDEST PUSH0 DUP1 REVERT JUMPDEST PUSH0 DUP1 DUP4 PUSH1 0x1F DUP5 ADD SLT PUSH2 0x33B JUMPI PUSH2 0x33A PUSH2 0x31A JUMP JUMPDEST JUMPDEST DUP3 CALLDATALOAD SWAP1 POP PUSH8 0xFFFFFFFFFFFFFFFF DUP2 GT ISZERO PUSH2 0x358 JUMPI PUSH2 0x357 PUSH2 0x31E JUMP JUMPDEST JUMPDEST PUSH1 0x20 DUP4 ADD SWAP2 POP DUP4 PUSH1 0x1 DUP3 MUL DUP4 ADD GT ISZERO PUSH2 0x374 JUMPI PUSH2 0x373 PUSH2 0x322 JUMP JUMPDEST JUMPDEST SWAP3 POP SWAP3 SWAP1 POP JUMP JUMPDEST PUSH0 DUP2 SWAP1 POP SWAP2 SWAP1 POP JUMP JUMPDEST PUSH2 0x38D DUP2 PUSH2 0x37B JUMP JUMPDEST DUP2 EQ PUSH2 0x397 JUMPI PUSH0 DUP1 REVERT JUMPDEST POP JUMP JUMPDEST PUSH0 DUP2 CALLDATALOAD SWAP1 POP PUSH2 0x3A8 DUP2 PUSH2 0x384 JUMP JUMPDEST SWAP3 SWAP2 POP POP JUMP JUMPDEST PUSH0 DUP1 PUSH0 DUP1 PUSH0 PUSH1 0x60 DUP7 DUP9 SUB SLT ISZERO PUSH2 0x3C7 JUMPI PUSH2 0x3C6 PUSH2 0x312 JUMP JUMPDEST JUMPDEST PUSH0 DUP7 ADD CALLDATALOAD PUSH8 0xFFFFFFFFFFFFFFFF DUP2 GT ISZERO PUSH2 0x3E4 JUMPI PUSH2 0x3E3 PUSH2 0x316 JUMP JUMPDEST JUMPDEST PUSH2 0x3F0 DUP9 DUP3 DUP10 ADD PUSH2 0x326 JUMP JUMPDEST SWAP6 POP SWAP6 POP POP PUSH1 0x20 DUP7 ADD CALLDATALOAD PUSH8 0xFFFFFFFFFFFFFFFF DUP2 GT ISZERO PUSH2 0x413 JUMPI PUSH2 0x412 PUSH2 0x316 JUMP JUMPDEST JUMPDEST PUSH2 0x41F DUP9 DUP3 DUP10 ADD PUSH2 0x326 JUMP JUMPDEST SWAP4 POP SWAP4 POP POP PUSH1 0x40 PUSH2 0x432 DUP9 DUP3 DUP10 ADD PUSH2 0x39A JUMP JUMPDEST SWAP2 POP POP SWAP3 SWAP6 POP SWAP3 SWAP6 SWAP1 SWAP4 POP JUMP JUMPDEST PUSH2 0x448 DUP2 PUSH2 0x37B JUMP JUMPDEST DUP3 MSTORE POP POP JUMP JUMPDEST PUSH0 PUSH1 0x60 DUP3 ADD SWAP1 POP DUP2 DUP2 SUB PUSH0 DUP4 ADD MSTORE PUSH2 0x466 DUP2 DUP7 PUSH2 0x2BA JUMP JUMPDEST SWAP1 POP DUP2 DUP2 SUB PUSH1 0x20 DUP4 ADD MSTORE PUSH2 0x47A DUP2 DUP6 PUSH2 0x2BA JUMP JUMPDEST SWAP1 POP PUSH2 0x489 PUSH1 0x40 DUP4 ADD DUP5 PUSH2 0x43F JUMP JUMPDEST SWAP5 SWAP4 POP POP POP POP JUMP JUMPDEST PUSH32 0x4E487B7100000000000000000000000000000000000000000000000000000000 PUSH0 MSTORE PUSH1 0x22 PUSH1 0x4 MSTORE PUSH1 0x24 PUSH0 REVERT JUMPDEST PUSH0 PUSH1 0x2 DUP3 DIV SWAP1 POP PUSH1 0x1 DUP3 AND DUP1 PUSH2 0x4D5 JUMPI PUSH1 0x7F DUP3 AND SWAP2 POP JUMPDEST PUSH1 0x20 DUP3 LT DUP2 SUB PUSH2 0x4E8 JUMPI PUSH2 0x4E7 PUSH2 0x491 JUMP JUMPDEST JUMPDEST POP SWAP2 SWAP1 POP JUMP JUMPDEST PUSH0 DUP3 SWAP1 POP SWAP3 SWAP2 POP POP JUMP JUMPDEST PUSH32 0x4E487B7100000000000000000000000000000000000000000000000000000000 PUSH0 MSTORE PUSH1 0x41 PUSH1 0x4 MSTORE PUSH1 0x24 PUSH0 REVERT JUMPDEST PUSH0 DUP2 SWAP1 POP DUP2 PUSH0 MSTORE PUSH1 0x20 PUSH0 KECCAK256 SWAP1 POP SWAP2 SWAP1 POP JUMP JUMPDEST PUSH0 PUSH1 0x20 PUSH1 0x1F DUP4 ADD DIV SWAP1 POP SWAP2 SWAP1 POP JUMP JUMPDEST PUSH0 DUP3 DUP3 SHL SWAP1 POP SWAP3 SWAP2 POP POP JUMP JUMPDEST PUSH0 PUSH1 0x8 DUP4 MUL PUSH2 0x581 PUSH32 0xFFFFFFFFFFFFFFFFFFFFFFFFFFFFFFFFFFFFFFFFFFFFFFFFFFFFFFFFFFFFFFFF DUP3 PUSH2 0x546 JUMP JUMPDEST PUSH2 0x58B DUP7 DUP4 PUSH2 0x546 JUMP JUMPDEST SWAP6 POP DUP1 NOT DUP5 AND SWAP4 POP DUP1 DUP7 AND DUP5 OR SWAP3 POP POP POP SWAP4 SWAP3 POP POP POP JUMP JUMPDEST PUSH0 DUP2 SWAP1 POP SWAP2 SWAP1 POP JUMP JUMPDEST PUSH0 PUSH2 0x5C6 PUSH2 0x5C1 PUSH2 0x5BC DUP5 PUSH2 0x37B JUMP JUMPDEST PUSH2 0x5A3 JUMP JUMPDEST PUSH2 0x37B JUMP JUMPDEST SWAP1 POP SWAP2 SWAP1 POP JUMP JUMPDEST PUSH0 DUP2 SWAP1 POP SWAP2 SWAP1 POP JUMP JUMPDEST PUSH2 0x5DF DUP4 PUSH2 0x5AC JUMP JUMPDEST PUSH2 0x5F3 PUSH2 0x5EB DUP3 PUSH2 0x5CD JUMP JUMPDEST DUP5 DUP5 SLOAD PUSH2 0x552 JUMP JUMPDEST DUP3 SSTORE POP POP POP POP JUMP JUMPDEST PUSH0 SWAP1 JUMP JUMPDEST PUSH2 0x607 PUSH2 0x5FB JUMP JUMPDEST PUSH2 0x612 DUP2 DUP5 DUP5 PUSH2 0x5D6 JUMP JUMPDEST POP POP POP JUMP JUMPDEST JUMPDEST DUP2 DUP2 LT ISZERO PUSH2 0x635 JUMPI PUSH2 0x62A PUSH0 DUP3 PUSH2 0x5FF JUMP JUMPDEST PUSH1 0x1 DUP2 ADD SWAP1 POP PUSH2 0x618 JUMP JUMPDEST POP POP JUMP JUMPDEST PUSH1 0x1F DUP3 GT ISZERO PUSH2 0x67A JUMPI PUSH2 0x64B DUP2 PUSH2 0x525 JUMP JUMPDEST PUSH2 0x654 DUP5 PUSH2 0x537 JUMP JUMPDEST DUP2 ADD PUSH1 0x20 DUP6 LT ISZERO PUSH2 0x663 JUMPI DUP2 SWAP1 POP JUMPDEST PUSH2 0x677 PUSH2 0x66F DUP6 PUSH2 0x537 JUMP JUMPDEST DUP4 ADD DUP3 PUSH2 0x617 JUMP JUMPDEST POP POP JUMPDEST POP POP POP JUMP JUMPDEST PUSH0 DUP3 DUP3 SHR SWAP1 POP SWAP3 SWAP2 POP POP JUMP JUMPDEST PUSH0 PUSH2 0x69A PUSH0 NOT DUP5 PUSH1 0x8 MUL PUSH2 0x67F JUMP JUMPDEST NOT DUP1 DUP4 AND SWAP2 POP POP SWAP3 SWAP2 POP POP JUMP JUMPDEST PUSH0 PUSH2 0x6B2 DUP4 DUP4 PUSH2 0x68B JUMP JUMPDEST SWAP2 POP DUP3 PUSH1 0x2 MUL DUP3 OR SWAP1 POP SWAP3 SWAP2 POP POP JUMP JUMPDEST PUSH2 0x6CC DUP4 DUP4 PUSH2 0x4EE JUMP JUMPDEST PUSH8 0xFFFFFFFFFFFFFFFF DUP2 GT ISZERO PUSH2 0x6E5 JUMPI PUSH2 0x6E4 PUSH2 0x4F8 JUMP JUMPDEST JUMPDEST PUSH2 0x6EF DUP3 SLOAD PUSH2 0x4BE JUMP JUMPDEST PUSH2 0x6FA DUP3 DUP3 DUP6 PUSH2 0x639 JUMP JUMPDEST PUSH0 PUSH1 0x1F DUP4 GT PUSH1 0x1 DUP2 EQ PUSH2 0x727 JUMPI PUSH0 DUP5 ISZERO PUSH2 0x715 JUMPI DUP3 DUP8 ADD CALLDATALOAD SWAP1 POP JUMPDEST PUSH2 0x71F DUP6 DUP3 PUSH2 0x6A7 JUMP JUMPDEST DUP7 SSTORE POP PUSH2 0x786 JUMP JUMPDEST PUSH1 0x1F NOT DUP5 AND PUSH2 0x735 DUP7 PUSH2 0x525 JUMP JUMPDEST PUSH0 JUMPDEST DUP3 DUP2 LT ISZERO PUSH2 0x75C JUMPI DUP5 DUP10 ADD CALLDATALOAD DUP3 SSTORE PUSH1 0x1 DUP3 ADD SWAP2 POP PUSH1 0x20 DUP6 ADD SWAP5 POP PUSH1 0x20 DUP2 ADD SWAP1 POP PUSH2 0x737 JUMP JUMPDEST DUP7 DUP4 LT ISZERO PUSH2 0x779 JUMPI DUP5 DUP10 ADD CALLDATALOAD PUSH2 0x775 PUSH1 0x1F DUP10 AND DUP3 PUSH2 0x68B JUMP JUMPDEST DUP4 SSTORE POP JUMPDEST PUSH1 0x1 PUSH1 0x2 DUP9 MUL ADD DUP9 SSTORE POP POP POP JUMPDEST POP POP POP POP POP POP POP JUMP INVALID LOG2 PUSH5 0x6970667358 0x22 SLT KECCAK256 NUMBER PREVRANDAO 0xC PUSH21 0xDFBA1025307EF4A4B858DBBF183E4E261ABC888514 SWAP13 GT PUSH10 0xE5B5353764736F6C6343 STOP ADDMOD BYTE STOP CALLER "
				},
				"gasEstimates": {
					"creation": {
						"codeDepositCost": "397800",
						"executionCost": "434",
						"totalCost": "398234"
					},
					"external": {
						"getDetails()": "infinite",
						"name()": "infinite",
						"setDetails(string,string,uint256)": "infinite"
					}
				},
				"methodIdentifiers": {
					"getDetails()": "fbbf93a0",
					"name()": "06fdde03",
					"setDetails(string,string,uint256)": "e0be87ca"
				}
			},
			"storageLayout": {
				"storage": [
					{
						"astId": 3,
						"contract": "contracts/oops.sol:Book",
						"label": "name",
						"offset": 0,
						"slot": "0",
						"type": "t_string_storage"
					},
					{
						"astId": 5,
						"contract": "contracts/oops.sol:Book",
						"label": "author",
						"offset": 0,
						"slot": "1",
						"type": "t_string_storage"
					},
					{
						"astId": 7,
						"contract": "contracts/oops.sol:Book",
						"label": "price",
						"offset": 0,
						"slot": "2",
						"type": "t_uint256"
					}
				],
				"types": {
					"t_string_storage": {
						"encoding": "bytes",
						"label": "string",
						"numberOfBytes": "32"
					},
					"t_uint256": {
						"encoding": "inplace",
						"label": "uint256",
						"numberOfBytes": "32"
					}
				}
			},
			"userdoc": {
				"kind": "user",
				"methods": {},
				"version": 1
			}
		}
	}
}