{
	"contracts/oops.sol": {
		"Book1": {
			"abi": [
				{
					"inputs": [
						{
							"internalType": "string",
							"name": "_name",
							"type": "string"
						},
						{
							"internalType": "string",
							"name": "_author",
							"type": "string"
						},
						{
							"internalType": "uint256",
							"name": "_price",
							"type": "uint256"
						}
					],
					"name": "detailsSetter",
					"outputs": [],
					"stateMutability": "nonpayable",
					"type": "function"
				},
				{
					"inputs": [],
					"name": "getAdr",
					"outputs": [
						{
							"internalType": "contract Book",
							"name": "",
							"type": "address"
						}
					],
					"stateMutability": "view",
					"type": "function"
				},
				{
					"inputs": [],
					"name": "getterDetails",
					"outputs": [
						{
							"internalType": "string",
							"name": "",
							"type": "string"
						},
						{
							"internalType": "string",
							"name": "",
							"type": "string"
						},
						{
							"internalType": "uint256",
							"name": "",
							"type": "uint256"
						}
					],
					"stateMutability": "view",
					"type": "function"
				}
			],
			"devdoc": {
				"kind": "dev",
				"methods": {},
				"version": 1
			},
			"evm": {
				"assembly": "    /* \"contracts/oops.sol\":552:1061  contract Book1 {... */\n  mstore(0x40, 0x80)\n    /* \"contracts/oops.sol\":583:593  new Book() */\n  mload(0x40)\n  tag_1\n  swap1\n  tag_2\n  jump\t// in\ntag_1:\n  mload(0x40)\n  dup1\n  swap2\n  sub\n  swap1\n  0x00\n  create\n  dup1\n  iszero\n  dup1\n  iszero\n  tag_3\n  jumpi\n  returndatasize\n  0x00\n  dup1\n  returndatacopy\n  revert(0x00, returndatasize)\ntag_3:\n  pop\n    /* \"contracts/oops.sol\":573:593  Book b1 = new Book() */\n  0x00\n  dup1\n  0x0100\n  exp\n  dup2\n  sload\n  dup2\n  0xffffffffffffffffffffffffffffffffffffffff\n  mul\n  not\n  and\n  swap1\n  dup4\n  0xffffffffffffffffffffffffffffffffffffffff\n  and\n  mul\n  or\n  swap1\n  sstore\n  pop\n    /* \"contracts/oops.sol\":552:1061  contract Book1 {... */\n  callvalue\n  dup1\n  iszero\n  tag_4\n  jumpi\n  0x00\n  dup1\n  revert\ntag_4:\n  pop\n  jump(tag_5)\ntag_2:\n  dataSize(sub_1)\n  dup1\n  dataOffset(sub_1)\n  dup4\n  codecopy\n  add\n  swap1\n  jump\t// out\ntag_5:\n  dataSize(sub_0)\n  dup1\n  dataOffset(sub_0)\n  0x00\n  codecopy\n  0x00\n  return\nstop\n\nsub_0: assembly {\n        /* \"contracts/oops.sol\":552:1061  contract Book1 {... */\n      mstore(0x40, 0x80)\n      callvalue\n      dup1\n      iszero\n      tag_1\n      jumpi\n      0x00\n      dup1\n      revert\n    tag_1:\n      pop\n      jumpi(tag_2, lt(calldatasize, 0x04))\n      shr(0xe0, calldataload(0x00))\n      dup1\n      0x164d7d7c\n      eq\n      tag_3\n      jumpi\n      dup1\n      0x5ad899a9\n      eq\n      tag_4\n      jumpi\n      dup1\n      0xbbe70206\n      eq\n      tag_5\n      jumpi\n    tag_2:\n      0x00\n      dup1\n      revert\n        /* \"contracts/oops.sol\":600:671  function getAdr() public view returns (Book) {... */\n    tag_3:\n      tag_6\n      tag_7\n      jump\t// in\n    tag_6:\n      mload(0x40)\n      tag_8\n      swap2\n      swap1\n      tag_9\n      jump\t// in\n    tag_8:\n      mload(0x40)\n      dup1\n      swap2\n      sub\n      swap1\n      return\n        /* \"contracts/oops.sol\":677:855  function detailsSetter(... */\n    tag_4:\n      tag_10\n      0x04\n      dup1\n      calldatasize\n      sub\n      dup2\n      add\n      swap1\n      tag_11\n      swap2\n      swap1\n      tag_12\n      jump\t// in\n    tag_11:\n      tag_13\n      jump\t// in\n    tag_10:\n      stop\n        /* \"contracts/oops.sol\":861:1059  function getterDetails()... */\n    tag_5:\n      tag_14\n      tag_15\n      jump\t// in\n    tag_14:\n      mload(0x40)\n      tag_16\n      swap4\n      swap3\n      swap2\n      swap1\n      tag_17\n      jump\t// in\n    tag_16:\n      mload(0x40)\n      dup1\n      swap2\n      sub\n      swap1\n      return\n        /* \"contracts/oops.sol\":600:671  function getAdr() public view returns (Book) {... */\n    tag_7:\n        /* \"contracts/oops.sol\":639:643  Book */\n      0x00\n        /* \"contracts/oops.sol\":662:664  b1 */\n      dup1\n      0x00\n      swap1\n      sload\n      swap1\n      0x0100\n      exp\n      swap1\n      div\n      0xffffffffffffffffffffffffffffffffffffffff\n      and\n        /* \"contracts/oops.sol\":655:664  return b1 */\n      swap1\n      pop\n        /* \"contracts/oops.sol\":600:671  function getAdr() public view returns (Book) {... */\n      swap1\n      jump\t// out\n        /* \"contracts/oops.sol\":677:855  function detailsSetter(... */\n    tag_13:\n        /* \"contracts/oops.sol\":811:813  b1 */\n      0x00\n      dup1\n      sload\n      swap1\n      0x0100\n      exp\n      swap1\n      div\n      0xffffffffffffffffffffffffffffffffffffffff\n      and\n        /* \"contracts/oops.sol\":811:824  b1.setDetails */\n      0xffffffffffffffffffffffffffffffffffffffff\n      and\n      0xe0be87ca\n        /* \"contracts/oops.sol\":825:830  _name */\n      dup7\n      dup7\n        /* \"contracts/oops.sol\":832:839  _author */\n      dup7\n      dup7\n        /* \"contracts/oops.sol\":841:847  _price */\n      dup7\n        /* \"contracts/oops.sol\":811:848  b1.setDetails(_name, _author, _price) */\n      mload(0x40)\n      dup7\n      0xffffffff\n      and\n      0xe0\n      shl\n      dup2\n      mstore\n      0x04\n      add\n      tag_20\n      swap6\n      swap5\n      swap4\n      swap3\n      swap2\n      swap1\n      tag_21\n      jump\t// in\n    tag_20:\n      0x00\n      mload(0x40)\n      dup1\n      dup4\n      sub\n      dup2\n      0x00\n      dup8\n      dup1\n      extcodesize\n      iszero\n      dup1\n      iszero\n      tag_22\n      jumpi\n      0x00\n      dup1\n      revert\n    tag_22:\n      pop\n      gas\n      call\n      iszero\n      dup1\n      iszero\n      tag_24\n      jumpi\n      returndatasize\n      0x00\n      dup1\n      returndatacopy\n      revert(0x00, returndatasize)\n    tag_24:\n      pop\n      pop\n      pop\n      pop\n        /* \"contracts/oops.sol\":677:855  function detailsSetter(... */\n      pop\n      pop\n      pop\n      pop\n      pop\n      jump\t// out\n        /* \"contracts/oops.sol\":861:1059  function getterDetails()... */\n    tag_15:\n        /* \"contracts/oops.sol\":944:957  string memory */\n      0x60\n        /* \"contracts/oops.sol\":971:984  string memory */\n      dup1\n        /* \"contracts/oops.sol\":998:1005  uint256 */\n      0x00\n        /* \"contracts/oops.sol\":1037:1039  b1 */\n      dup1\n      0x00\n      swap1\n      sload\n      swap1\n      0x0100\n      exp\n      swap1\n      div\n      0xffffffffffffffffffffffffffffffffffffffff\n      and\n        /* \"contracts/oops.sol\":1037:1050  b1.getDetails */\n      0xffffffffffffffffffffffffffffffffffffffff\n      and\n      0xfbbf93a0\n        /* \"contracts/oops.sol\":1037:1052  b1.getDetails() */\n      mload(0x40)\n      dup2\n      0xffffffff\n      and\n      0xe0\n      shl\n      dup2\n      mstore\n      0x04\n      add\n      0x00\n      mload(0x40)\n      dup1\n      dup4\n      sub\n      dup2\n      dup7\n      gas\n      staticcall\n      iszero\n      dup1\n      iszero\n      tag_27\n      jumpi\n      returndatasize\n      0x00\n      dup1\n      returndatacopy\n      revert(0x00, returndatasize)\n    tag_27:\n      pop\n      pop\n      pop\n      pop\n      mload(0x40)\n      returndatasize\n      0x00\n      dup3\n      returndatacopy\n      returndatasize\n      not(0x1f)\n      0x1f\n      dup3\n      add\n      and\n      dup3\n      add\n      dup1\n      0x40\n      mstore\n      pop\n      dup2\n      add\n      swap1\n      tag_28\n      swap2\n      swap1\n      tag_29\n      jump\t// in\n    tag_28:\n        /* \"contracts/oops.sol\":1030:1052  return b1.getDetails() */\n      swap3\n      pop\n      swap3\n      pop\n      swap3\n      pop\n        /* \"contracts/oops.sol\":861:1059  function getterDetails()... */\n      swap1\n      swap2\n      swap3\n      jump\t// out\n        /* \"#utility.yul\":7:133   */\n    tag_30:\n        /* \"#utility.yul\":44:51   */\n      0x00\n        /* \"#utility.yul\":84:126   */\n      0xffffffffffffffffffffffffffffffffffffffff\n        /* \"#utility.yul\":77:82   */\n      dup3\n        /* \"#utility.yul\":73:127   */\n      and\n        /* \"#utility.yul\":62:127   */\n      swap1\n      pop\n        /* \"#utility.yul\":7:133   */\n      swap2\n      swap1\n      pop\n      jump\t// out\n        /* \"#utility.yul\":139:199   */\n    tag_31:\n        /* \"#utility.yul\":167:170   */\n      0x00\n        /* \"#utility.yul\":188:193   */\n      dup2\n        /* \"#utility.yul\":181:193   */\n      swap1\n      pop\n        /* \"#utility.yul\":139:199   */\n      swap2\n      swap1\n      pop\n      jump\t// out\n        /* \"#utility.yul\":205:347   */\n    tag_32:\n        /* \"#utility.yul\":255:264   */\n      0x00\n        /* \"#utility.yul\":288:341   */\n      tag_66\n        /* \"#utility.yul\":306:340   */\n      tag_67\n        /* \"#utility.yul\":315:339   */\n      tag_68\n        /* \"#utility.yul\":333:338   */\n      dup5\n        /* \"#utility.yul\":315:339   */\n      tag_30\n      jump\t// in\n    tag_68:\n        /* \"#utility.yul\":306:340   */\n      tag_31\n      jump\t// in\n    tag_67:\n        /* \"#utility.yul\":288:341   */\n      tag_30\n      jump\t// in\n    tag_66:\n        /* \"#utility.yul\":275:341   */\n      swap1\n      pop\n        /* \"#utility.yul\":205:347   */\n      swap2\n      swap1\n      pop\n      jump\t// out\n        /* \"#utility.yul\":353:479   */\n    tag_33:\n        /* \"#utility.yul\":403:412   */\n      0x00\n        /* \"#utility.yul\":436:473   */\n      tag_70\n        /* \"#utility.yul\":467:472   */\n      dup3\n        /* \"#utility.yul\":436:473   */\n      tag_32\n      jump\t// in\n    tag_70:\n        /* \"#utility.yul\":423:473   */\n      swap1\n      pop\n        /* \"#utility.yul\":353:479   */\n      swap2\n      swap1\n      pop\n      jump\t// out\n        /* \"#utility.yul\":485:622   */\n    tag_34:\n        /* \"#utility.yul\":546:555   */\n      0x00\n        /* \"#utility.yul\":579:616   */\n      tag_72\n        /* \"#utility.yul\":610:615   */\n      dup3\n        /* \"#utility.yul\":579:616   */\n      tag_33\n      jump\t// in\n    tag_72:\n        /* \"#utility.yul\":566:616   */\n      swap1\n      pop\n        /* \"#utility.yul\":485:622   */\n      swap2\n      swap1\n      pop\n      jump\t// out\n        /* \"#utility.yul\":628:781   */\n    tag_35:\n        /* \"#utility.yul\":726:774   */\n      tag_74\n        /* \"#utility.yul\":768:773   */\n      dup2\n        /* \"#utility.yul\":726:774   */\n      tag_34\n      jump\t// in\n    tag_74:\n        /* \"#utility.yul\":721:724   */\n      dup3\n        /* \"#utility.yul\":714:775   */\n      mstore\n        /* \"#utility.yul\":628:781   */\n      pop\n      pop\n      jump\t// out\n        /* \"#utility.yul\":787:1031   */\n    tag_9:\n        /* \"#utility.yul\":891:895   */\n      0x00\n        /* \"#utility.yul\":929:931   */\n      0x20\n        /* \"#utility.yul\":918:927   */\n      dup3\n        /* \"#utility.yul\":914:932   */\n      add\n        /* \"#utility.yul\":906:932   */\n      swap1\n      pop\n        /* \"#utility.yul\":942:1024   */\n      tag_76\n        /* \"#utility.yul\":1021:1022   */\n      0x00\n        /* \"#utility.yul\":1010:1019   */\n      dup4\n        /* \"#utility.yul\":1006:1023   */\n      add\n        /* \"#utility.yul\":997:1003   */\n      dup5\n        /* \"#utility.yul\":942:1024   */\n      tag_35\n      jump\t// in\n    tag_76:\n        /* \"#utility.yul\":787:1031   */\n      swap3\n      swap2\n      pop\n      pop\n      jump\t// out\n        /* \"#utility.yul\":1037:1112   */\n    tag_36:\n        /* \"#utility.yul\":1070:1076   */\n      0x00\n        /* \"#utility.yul\":1103:1105   */\n      0x40\n        /* \"#utility.yul\":1097:1106   */\n      mload\n        /* \"#utility.yul\":1087:1106   */\n      swap1\n      pop\n        /* \"#utility.yul\":1037:1112   */\n      swap1\n      jump\t// out\n        /* \"#utility.yul\":1118:1235   */\n    tag_37:\n        /* \"#utility.yul\":1227:1228   */\n      0x00\n        /* \"#utility.yul\":1224:1225   */\n      dup1\n        /* \"#utility.yul\":1217:1229   */\n      revert\n        /* \"#utility.yul\":1241:1358   */\n    tag_38:\n        /* \"#utility.yul\":1350:1351   */\n      0x00\n        /* \"#utility.yul\":1347:1348   */\n      dup1\n        /* \"#utility.yul\":1340:1352   */\n      revert\n        /* \"#utility.yul\":1364:1481   */\n    tag_39:\n        /* \"#utility.yul\":1473:1474   */\n      0x00\n        /* \"#utility.yul\":1470:1471   */\n      dup1\n        /* \"#utility.yul\":1463:1475   */\n      revert\n        /* \"#utility.yul\":1487:1604   */\n    tag_40:\n        /* \"#utility.yul\":1596:1597   */\n      0x00\n        /* \"#utility.yul\":1593:1594   */\n      dup1\n        /* \"#utility.yul\":1586:1598   */\n      revert\n        /* \"#utility.yul\":1610:1727   */\n    tag_41:\n        /* \"#utility.yul\":1719:1720   */\n      0x00\n        /* \"#utility.yul\":1716:1717   */\n      dup1\n        /* \"#utility.yul\":1709:1721   */\n      revert\n        /* \"#utility.yul\":1747:2300   */\n    tag_42:\n        /* \"#utility.yul\":1805:1813   */\n      0x00\n        /* \"#utility.yul\":1815:1821   */\n      dup1\n        /* \"#utility.yul\":1865:1868   */\n      dup4\n        /* \"#utility.yul\":1858:1862   */\n      0x1f\n        /* \"#utility.yul\":1850:1856   */\n      dup5\n        /* \"#utility.yul\":1846:1863   */\n      add\n        /* \"#utility.yul\":1842:1869   */\n      slt\n        /* \"#utility.yul\":1832:1954   */\n      tag_84\n      jumpi\n        /* \"#utility.yul\":1873:1952   */\n      tag_85\n      tag_39\n      jump\t// in\n    tag_85:\n        /* \"#utility.yul\":1832:1954   */\n    tag_84:\n        /* \"#utility.yul\":1986:1992   */\n      dup3\n        /* \"#utility.yul\":1973:1993   */\n      calldataload\n        /* \"#utility.yul\":1963:1993   */\n      swap1\n      pop\n        /* \"#utility.yul\":2016:2034   */\n      0xffffffffffffffff\n        /* \"#utility.yul\":2008:2014   */\n      dup2\n        /* \"#utility.yul\":2005:2035   */\n      gt\n        /* \"#utility.yul\":2002:2119   */\n      iszero\n      tag_86\n      jumpi\n        /* \"#utility.yul\":2038:2117   */\n      tag_87\n      tag_40\n      jump\t// in\n    tag_87:\n        /* \"#utility.yul\":2002:2119   */\n    tag_86:\n        /* \"#utility.yul\":2152:2156   */\n      0x20\n        /* \"#utility.yul\":2144:2150   */\n      dup4\n        /* \"#utility.yul\":2140:2157   */\n      add\n        /* \"#utility.yul\":2128:2157   */\n      swap2\n      pop\n        /* \"#utility.yul\":2206:2209   */\n      dup4\n        /* \"#utility.yul\":2198:2202   */\n      0x01\n        /* \"#utility.yul\":2190:2196   */\n      dup3\n        /* \"#utility.yul\":2186:2203   */\n      mul\n        /* \"#utility.yul\":2176:2184   */\n      dup4\n        /* \"#utility.yul\":2172:2204   */\n      add\n        /* \"#utility.yul\":2169:2210   */\n      gt\n        /* \"#utility.yul\":2166:2294   */\n      iszero\n      tag_88\n      jumpi\n        /* \"#utility.yul\":2213:2292   */\n      tag_89\n      tag_41\n      jump\t// in\n    tag_89:\n        /* \"#utility.yul\":2166:2294   */\n    tag_88:\n        /* \"#utility.yul\":1747:2300   */\n      swap3\n      pop\n      swap3\n      swap1\n      pop\n      jump\t// out\n        /* \"#utility.yul\":2306:2383   */\n    tag_43:\n        /* \"#utility.yul\":2343:2350   */\n      0x00\n        /* \"#utility.yul\":2372:2377   */\n      dup2\n        /* \"#utility.yul\":2361:2377   */\n      swap1\n      pop\n        /* \"#utility.yul\":2306:2383   */\n      swap2\n      swap1\n      pop\n      jump\t// out\n        /* \"#utility.yul\":2389:2511   */\n    tag_44:\n        /* \"#utility.yul\":2462:2486   */\n      tag_92\n        /* \"#utility.yul\":2480:2485   */\n      dup2\n        /* \"#utility.yul\":2462:2486   */\n      tag_43\n      jump\t// in\n    tag_92:\n        /* \"#utility.yul\":2455:2460   */\n      dup2\n        /* \"#utility.yul\":2452:2487   */\n      eq\n        /* \"#utility.yul\":2442:2505   */\n      tag_93\n      jumpi\n        /* \"#utility.yul\":2501:2502   */\n      0x00\n        /* \"#utility.yul\":2498:2499   */\n      dup1\n        /* \"#utility.yul\":2491:2503   */\n      revert\n        /* \"#utility.yul\":2442:2505   */\n    tag_93:\n        /* \"#utility.yul\":2389:2511   */\n      pop\n      jump\t// out\n        /* \"#utility.yul\":2517:2656   */\n    tag_45:\n        /* \"#utility.yul\":2563:2568   */\n      0x00\n        /* \"#utility.yul\":2601:2607   */\n      dup2\n        /* \"#utility.yul\":2588:2608   */\n      calldataload\n        /* \"#utility.yul\":2579:2608   */\n      swap1\n      pop\n        /* \"#utility.yul\":2617:2650   */\n      tag_95\n        /* \"#utility.yul\":2644:2649   */\n      dup2\n        /* \"#utility.yul\":2617:2650   */\n      tag_44\n      jump\t// in\n    tag_95:\n        /* \"#utility.yul\":2517:2656   */\n      swap3\n      swap2\n      pop\n      pop\n      jump\t// out\n        /* \"#utility.yul\":2662:3681   */\n    tag_12:\n        /* \"#utility.yul\":2763:2769   */\n      0x00\n        /* \"#utility.yul\":2771:2777   */\n      dup1\n        /* \"#utility.yul\":2779:2785   */\n      0x00\n        /* \"#utility.yul\":2787:2793   */\n      dup1\n        /* \"#utility.yul\":2795:2801   */\n      0x00\n        /* \"#utility.yul\":2844:2846   */\n      0x60\n        /* \"#utility.yul\":2832:2841   */\n      dup7\n        /* \"#utility.yul\":2823:2830   */\n      dup9\n        /* \"#utility.yul\":2819:2842   */\n      sub\n        /* \"#utility.yul\":2815:2847   */\n      slt\n        /* \"#utility.yul\":2812:2931   */\n      iszero\n      tag_97\n      jumpi\n        /* \"#utility.yul\":2850:2929   */\n      tag_98\n      tag_37\n      jump\t// in\n    tag_98:\n        /* \"#utility.yul\":2812:2931   */\n    tag_97:\n        /* \"#utility.yul\":2998:2999   */\n      0x00\n        /* \"#utility.yul\":2987:2996   */\n      dup7\n        /* \"#utility.yul\":2983:3000   */\n      add\n        /* \"#utility.yul\":2970:3001   */\n      calldataload\n        /* \"#utility.yul\":3028:3046   */\n      0xffffffffffffffff\n        /* \"#utility.yul\":3020:3026   */\n      dup2\n        /* \"#utility.yul\":3017:3047   */\n      gt\n        /* \"#utility.yul\":3014:3131   */\n      iszero\n      tag_99\n      jumpi\n        /* \"#utility.yul\":3050:3129   */\n      tag_100\n      tag_38\n      jump\t// in\n    tag_100:\n        /* \"#utility.yul\":3014:3131   */\n    tag_99:\n        /* \"#utility.yul\":3163:3228   */\n      tag_101\n        /* \"#utility.yul\":3220:3227   */\n      dup9\n        /* \"#utility.yul\":3211:3217   */\n      dup3\n        /* \"#utility.yul\":3200:3209   */\n      dup10\n        /* \"#utility.yul\":3196:3218   */\n      add\n        /* \"#utility.yul\":3163:3228   */\n      tag_42\n      jump\t// in\n    tag_101:\n        /* \"#utility.yul\":3145:3228   */\n      swap6\n      pop\n      swap6\n      pop\n        /* \"#utility.yul\":2941:3238   */\n      pop\n        /* \"#utility.yul\":3305:3307   */\n      0x20\n        /* \"#utility.yul\":3294:3303   */\n      dup7\n        /* \"#utility.yul\":3290:3308   */\n      add\n        /* \"#utility.yul\":3277:3309   */\n      calldataload\n        /* \"#utility.yul\":3336:3354   */\n      0xffffffffffffffff\n        /* \"#utility.yul\":3328:3334   */\n      dup2\n        /* \"#utility.yul\":3325:3355   */\n      gt\n        /* \"#utility.yul\":3322:3439   */\n      iszero\n      tag_102\n      jumpi\n        /* \"#utility.yul\":3358:3437   */\n      tag_103\n      tag_38\n      jump\t// in\n    tag_103:\n        /* \"#utility.yul\":3322:3439   */\n    tag_102:\n        /* \"#utility.yul\":3471:3536   */\n      tag_104\n        /* \"#utility.yul\":3528:3535   */\n      dup9\n        /* \"#utility.yul\":3519:3525   */\n      dup3\n        /* \"#utility.yul\":3508:3517   */\n      dup10\n        /* \"#utility.yul\":3504:3526   */\n      add\n        /* \"#utility.yul\":3471:3536   */\n      tag_42\n      jump\t// in\n    tag_104:\n        /* \"#utility.yul\":3453:3536   */\n      swap4\n      pop\n      swap4\n      pop\n        /* \"#utility.yul\":3248:3546   */\n      pop\n        /* \"#utility.yul\":3585:3587   */\n      0x40\n        /* \"#utility.yul\":3611:3664   */\n      tag_105\n        /* \"#utility.yul\":3656:3663   */\n      dup9\n        /* \"#utility.yul\":3647:3653   */\n      dup3\n        /* \"#utility.yul\":3636:3645   */\n      dup10\n        /* \"#utility.yul\":3632:3654   */\n      add\n        /* \"#utility.yul\":3611:3664   */\n      tag_45\n      jump\t// in\n    tag_105:\n        /* \"#utility.yul\":3601:3664   */\n      swap2\n      pop\n        /* \"#utility.yul\":3556:3674   */\n      pop\n        /* \"#utility.yul\":2662:3681   */\n      swap3\n      swap6\n      pop\n      swap3\n      swap6\n      swap1\n      swap4\n      pop\n      jump\t// out\n        /* \"#utility.yul\":3687:3786   */\n    tag_46:\n        /* \"#utility.yul\":3739:3745   */\n      0x00\n        /* \"#utility.yul\":3773:3778   */\n      dup2\n        /* \"#utility.yul\":3767:3779   */\n      mload\n        /* \"#utility.yul\":3757:3779   */\n      swap1\n      pop\n        /* \"#utility.yul\":3687:3786   */\n      swap2\n      swap1\n      pop\n      jump\t// out\n        /* \"#utility.yul\":3792:3961   */\n    tag_47:\n        /* \"#utility.yul\":3876:3887   */\n      0x00\n        /* \"#utility.yul\":3910:3916   */\n      dup3\n        /* \"#utility.yul\":3905:3908   */\n      dup3\n        /* \"#utility.yul\":3898:3917   */\n      mstore\n        /* \"#utility.yul\":3950:3954   */\n      0x20\n        /* \"#utility.yul\":3945:3948   */\n      dup3\n        /* \"#utility.yul\":3941:3955   */\n      add\n        /* \"#utility.yul\":3926:3955   */\n      swap1\n      pop\n        /* \"#utility.yul\":3792:3961   */\n      swap3\n      swap2\n      pop\n      pop\n      jump\t// out\n        /* \"#utility.yul\":3967:4106   */\n    tag_48:\n        /* \"#utility.yul\":4056:4062   */\n      dup3\n        /* \"#utility.yul\":4051:4054   */\n      dup2\n        /* \"#utility.yul\":4046:4049   */\n      dup4\n        /* \"#utility.yul\":4040:4063   */\n      mcopy\n        /* \"#utility.yul\":4097:4098   */\n      0x00\n        /* \"#utility.yul\":4088:4094   */\n      dup4\n        /* \"#utility.yul\":4083:4086   */\n      dup4\n        /* \"#utility.yul\":4079:4095   */\n      add\n        /* \"#utility.yul\":4072:4099   */\n      mstore\n        /* \"#utility.yul\":3967:4106   */\n      pop\n      pop\n      pop\n      jump\t// out\n        /* \"#utility.yul\":4112:4214   */\n    tag_49:\n        /* \"#utility.yul\":4153:4159   */\n      0x00\n        /* \"#utility.yul\":4204:4206   */\n      0x1f\n        /* \"#utility.yul\":4200:4207   */\n      not\n        /* \"#utility.yul\":4195:4197   */\n      0x1f\n        /* \"#utility.yul\":4188:4193   */\n      dup4\n        /* \"#utility.yul\":4184:4198   */\n      add\n        /* \"#utility.yul\":4180:4208   */\n      and\n        /* \"#utility.yul\":4170:4208   */\n      swap1\n      pop\n        /* \"#utility.yul\":4112:4214   */\n      swap2\n      swap1\n      pop\n      jump\t// out\n        /* \"#utility.yul\":4220:4597   */\n    tag_50:\n        /* \"#utility.yul\":4308:4311   */\n      0x00\n        /* \"#utility.yul\":4336:4375   */\n      tag_111\n        /* \"#utility.yul\":4369:4374   */\n      dup3\n        /* \"#utility.yul\":4336:4375   */\n      tag_46\n      jump\t// in\n    tag_111:\n        /* \"#utility.yul\":4391:4462   */\n      tag_112\n        /* \"#utility.yul\":4455:4461   */\n      dup2\n        /* \"#utility.yul\":4450:4453   */\n      dup6\n        /* \"#utility.yul\":4391:4462   */\n      tag_47\n      jump\t// in\n    tag_112:\n        /* \"#utility.yul\":4384:4462   */\n      swap4\n      pop\n        /* \"#utility.yul\":4471:4536   */\n      tag_113\n        /* \"#utility.yul\":4529:4535   */\n      dup2\n        /* \"#utility.yul\":4524:4527   */\n      dup6\n        /* \"#utility.yul\":4517:4521   */\n      0x20\n        /* \"#utility.yul\":4510:4515   */\n      dup7\n        /* \"#utility.yul\":4506:4522   */\n      add\n        /* \"#utility.yul\":4471:4536   */\n      tag_48\n      jump\t// in\n    tag_113:\n        /* \"#utility.yul\":4561:4590   */\n      tag_114\n        /* \"#utility.yul\":4583:4589   */\n      dup2\n        /* \"#utility.yul\":4561:4590   */\n      tag_49\n      jump\t// in\n    tag_114:\n        /* \"#utility.yul\":4556:4559   */\n      dup5\n        /* \"#utility.yul\":4552:4591   */\n      add\n        /* \"#utility.yul\":4545:4591   */\n      swap2\n      pop\n        /* \"#utility.yul\":4312:4597   */\n      pop\n        /* \"#utility.yul\":4220:4597   */\n      swap3\n      swap2\n      pop\n      pop\n      jump\t// out\n        /* \"#utility.yul\":4603:4721   */\n    tag_51:\n        /* \"#utility.yul\":4690:4714   */\n      tag_116\n        /* \"#utility.yul\":4708:4713   */\n      dup2\n        /* \"#utility.yul\":4690:4714   */\n      tag_43\n      jump\t// in\n    tag_116:\n        /* \"#utility.yul\":4685:4688   */\n      dup3\n        /* \"#utility.yul\":4678:4715   */\n      mstore\n        /* \"#utility.yul\":4603:4721   */\n      pop\n      pop\n      jump\t// out\n        /* \"#utility.yul\":4727:5351   */\n    tag_17:\n        /* \"#utility.yul\":4916:4920   */\n      0x00\n        /* \"#utility.yul\":4954:4956   */\n      0x60\n        /* \"#utility.yul\":4943:4952   */\n      dup3\n        /* \"#utility.yul\":4939:4957   */\n      add\n        /* \"#utility.yul\":4931:4957   */\n      swap1\n      pop\n        /* \"#utility.yul\":5003:5012   */\n      dup2\n        /* \"#utility.yul\":4997:5001   */\n      dup2\n        /* \"#utility.yul\":4993:5013   */\n      sub\n        /* \"#utility.yul\":4989:4990   */\n      0x00\n        /* \"#utility.yul\":4978:4987   */\n      dup4\n        /* \"#utility.yul\":4974:4991   */\n      add\n        /* \"#utility.yul\":4967:5014   */\n      mstore\n        /* \"#utility.yul\":5031:5109   */\n      tag_118\n        /* \"#utility.yul\":5104:5108   */\n      dup2\n        /* \"#utility.yul\":5095:5101   */\n      dup7\n        /* \"#utility.yul\":5031:5109   */\n      tag_50\n      jump\t// in\n    tag_118:\n        /* \"#utility.yul\":5023:5109   */\n      swap1\n      pop\n        /* \"#utility.yul\":5156:5165   */\n      dup2\n        /* \"#utility.yul\":5150:5154   */\n      dup2\n        /* \"#utility.yul\":5146:5166   */\n      sub\n        /* \"#utility.yul\":5141:5143   */\n      0x20\n        /* \"#utility.yul\":5130:5139   */\n      dup4\n        /* \"#utility.yul\":5126:5144   */\n      add\n        /* \"#utility.yul\":5119:5167   */\n      mstore\n        /* \"#utility.yul\":5184:5262   */\n      tag_119\n        /* \"#utility.yul\":5257:5261   */\n      dup2\n        /* \"#utility.yul\":5248:5254   */\n      dup6\n        /* \"#utility.yul\":5184:5262   */\n      tag_50\n      jump\t// in\n    tag_119:\n        /* \"#utility.yul\":5176:5262   */\n      swap1\n      pop\n        /* \"#utility.yul\":5272:5344   */\n      tag_120\n        /* \"#utility.yul\":5340:5342   */\n      0x40\n        /* \"#utility.yul\":5329:5338   */\n      dup4\n        /* \"#utility.yul\":5325:5343   */\n      add\n        /* \"#utility.yul\":5316:5322   */\n      dup5\n        /* \"#utility.yul\":5272:5344   */\n      tag_51\n      jump\t// in\n    tag_120:\n        /* \"#utility.yul\":4727:5351   */\n      swap5\n      swap4\n      pop\n      pop\n      pop\n      pop\n      jump\t// out\n        /* \"#utility.yul\":5357:5505   */\n    tag_52:\n        /* \"#utility.yul\":5455:5461   */\n      dup3\n        /* \"#utility.yul\":5450:5453   */\n      dup2\n        /* \"#utility.yul\":5445:5448   */\n      dup4\n        /* \"#utility.yul\":5432:5462   */\n      calldatacopy\n        /* \"#utility.yul\":5496:5497   */\n      0x00\n        /* \"#utility.yul\":5487:5493   */\n      dup4\n        /* \"#utility.yul\":5482:5485   */\n      dup4\n        /* \"#utility.yul\":5478:5494   */\n      add\n        /* \"#utility.yul\":5471:5498   */\n      mstore\n        /* \"#utility.yul\":5357:5505   */\n      pop\n      pop\n      pop\n      jump\t// out\n        /* \"#utility.yul\":5535:5852   */\n    tag_53:\n        /* \"#utility.yul\":5633:5636   */\n      0x00\n        /* \"#utility.yul\":5654:5725   */\n      tag_123\n        /* \"#utility.yul\":5718:5724   */\n      dup4\n        /* \"#utility.yul\":5713:5716   */\n      dup6\n        /* \"#utility.yul\":5654:5725   */\n      tag_47\n      jump\t// in\n    tag_123:\n        /* \"#utility.yul\":5647:5725   */\n      swap4\n      pop\n        /* \"#utility.yul\":5735:5791   */\n      tag_124\n        /* \"#utility.yul\":5784:5790   */\n      dup4\n        /* \"#utility.yul\":5779:5782   */\n      dup6\n        /* \"#utility.yul\":5772:5777   */\n      dup5\n        /* \"#utility.yul\":5735:5791   */\n      tag_52\n      jump\t// in\n    tag_124:\n        /* \"#utility.yul\":5816:5845   */\n      tag_125\n        /* \"#utility.yul\":5838:5844   */\n      dup4\n        /* \"#utility.yul\":5816:5845   */\n      tag_49\n      jump\t// in\n    tag_125:\n        /* \"#utility.yul\":5811:5814   */\n      dup5\n        /* \"#utility.yul\":5807:5846   */\n      add\n        /* \"#utility.yul\":5800:5846   */\n      swap1\n      pop\n        /* \"#utility.yul\":5535:5852   */\n      swap4\n      swap3\n      pop\n      pop\n      pop\n      jump\t// out\n        /* \"#utility.yul\":5858:6522   */\n    tag_21:\n        /* \"#utility.yul\":6067:6071   */\n      0x00\n        /* \"#utility.yul\":6105:6107   */\n      0x60\n        /* \"#utility.yul\":6094:6103   */\n      dup3\n        /* \"#utility.yul\":6090:6108   */\n      add\n        /* \"#utility.yul\":6082:6108   */\n      swap1\n      pop\n        /* \"#utility.yul\":6154:6163   */\n      dup2\n        /* \"#utility.yul\":6148:6152   */\n      dup2\n        /* \"#utility.yul\":6144:6164   */\n      sub\n        /* \"#utility.yul\":6140:6141   */\n      0x00\n        /* \"#utility.yul\":6129:6138   */\n      dup4\n        /* \"#utility.yul\":6125:6142   */\n      add\n        /* \"#utility.yul\":6118:6165   */\n      mstore\n        /* \"#utility.yul\":6182:6270   */\n      tag_127\n        /* \"#utility.yul\":6265:6269   */\n      dup2\n        /* \"#utility.yul\":6256:6262   */\n      dup8\n        /* \"#utility.yul\":6248:6254   */\n      dup10\n        /* \"#utility.yul\":6182:6270   */\n      tag_53\n      jump\t// in\n    tag_127:\n        /* \"#utility.yul\":6174:6270   */\n      swap1\n      pop\n        /* \"#utility.yul\":6317:6326   */\n      dup2\n        /* \"#utility.yul\":6311:6315   */\n      dup2\n        /* \"#utility.yul\":6307:6327   */\n      sub\n        /* \"#utility.yul\":6302:6304   */\n      0x20\n        /* \"#utility.yul\":6291:6300   */\n      dup4\n        /* \"#utility.yul\":6287:6305   */\n      add\n        /* \"#utility.yul\":6280:6328   */\n      mstore\n        /* \"#utility.yul\":6345:6433   */\n      tag_128\n        /* \"#utility.yul\":6428:6432   */\n      dup2\n        /* \"#utility.yul\":6419:6425   */\n      dup6\n        /* \"#utility.yul\":6411:6417   */\n      dup8\n        /* \"#utility.yul\":6345:6433   */\n      tag_53\n      jump\t// in\n    tag_128:\n        /* \"#utility.yul\":6337:6433   */\n      swap1\n      pop\n        /* \"#utility.yul\":6443:6515   */\n      tag_129\n        /* \"#utility.yul\":6511:6513   */\n      0x40\n        /* \"#utility.yul\":6500:6509   */\n      dup4\n        /* \"#utility.yul\":6496:6514   */\n      add\n        /* \"#utility.yul\":6487:6493   */\n      dup5\n        /* \"#utility.yul\":6443:6515   */\n      tag_51\n      jump\t// in\n    tag_129:\n        /* \"#utility.yul\":5858:6522   */\n      swap7\n      swap6\n      pop\n      pop\n      pop\n      pop\n      pop\n      pop\n      jump\t// out\n        /* \"#utility.yul\":6528:6645   */\n    tag_54:\n        /* \"#utility.yul\":6637:6638   */\n      0x00\n        /* \"#utility.yul\":6634:6635   */\n      dup1\n        /* \"#utility.yul\":6627:6639   */\n      revert\n        /* \"#utility.yul\":6651:6831   */\n    tag_55:\n        /* \"#utility.yul\":6699:6776   */\n      0x4e487b7100000000000000000000000000000000000000000000000000000000\n        /* \"#utility.yul\":6696:6697   */\n      0x00\n        /* \"#utility.yul\":6689:6777   */\n      mstore\n        /* \"#utility.yul\":6796:6800   */\n      0x41\n        /* \"#utility.yul\":6793:6794   */\n      0x04\n        /* \"#utility.yul\":6786:6801   */\n      mstore\n        /* \"#utility.yul\":6820:6824   */\n      0x24\n        /* \"#utility.yul\":6817:6818   */\n      0x00\n        /* \"#utility.yul\":6810:6825   */\n      revert\n        /* \"#utility.yul\":6837:7118   */\n    tag_56:\n        /* \"#utility.yul\":6920:6947   */\n      tag_133\n        /* \"#utility.yul\":6942:6946   */\n      dup3\n        /* \"#utility.yul\":6920:6947   */\n      tag_49\n      jump\t// in\n    tag_133:\n        /* \"#utility.yul\":6912:6918   */\n      dup2\n        /* \"#utility.yul\":6908:6948   */\n      add\n        /* \"#utility.yul\":7050:7056   */\n      dup2\n        /* \"#utility.yul\":7038:7048   */\n      dup2\n        /* \"#utility.yul\":7035:7057   */\n      lt\n        /* \"#utility.yul\":7014:7032   */\n      0xffffffffffffffff\n        /* \"#utility.yul\":7002:7012   */\n      dup3\n        /* \"#utility.yul\":6999:7033   */\n      gt\n        /* \"#utility.yul\":6996:7058   */\n      or\n        /* \"#utility.yul\":6993:7081   */\n      iszero\n      tag_134\n      jumpi\n        /* \"#utility.yul\":7061:7079   */\n      tag_135\n      tag_55\n      jump\t// in\n    tag_135:\n        /* \"#utility.yul\":6993:7081   */\n    tag_134:\n        /* \"#utility.yul\":7101:7111   */\n      dup1\n        /* \"#utility.yul\":7097:7099   */\n      0x40\n        /* \"#utility.yul\":7090:7112   */\n      mstore\n        /* \"#utility.yul\":6880:7118   */\n      pop\n        /* \"#utility.yul\":6837:7118   */\n      pop\n      pop\n      jump\t// out\n        /* \"#utility.yul\":7124:7253   */\n    tag_57:\n        /* \"#utility.yul\":7158:7164   */\n      0x00\n        /* \"#utility.yul\":7185:7205   */\n      tag_137\n      tag_36\n      jump\t// in\n    tag_137:\n        /* \"#utility.yul\":7175:7205   */\n      swap1\n      pop\n        /* \"#utility.yul\":7214:7247   */\n      tag_138\n        /* \"#utility.yul\":7242:7246   */\n      dup3\n        /* \"#utility.yul\":7234:7240   */\n      dup3\n        /* \"#utility.yul\":7214:7247   */\n      tag_56\n      jump\t// in\n    tag_138:\n        /* \"#utility.yul\":7124:7253   */\n      swap2\n      swap1\n      pop\n      jump\t// out\n        /* \"#utility.yul\":7259:7567   */\n    tag_58:\n        /* \"#utility.yul\":7321:7325   */\n      0x00\n        /* \"#utility.yul\":7411:7429   */\n      0xffffffffffffffff\n        /* \"#utility.yul\":7403:7409   */\n      dup3\n        /* \"#utility.yul\":7400:7430   */\n      gt\n        /* \"#utility.yul\":7397:7453   */\n      iszero\n      tag_140\n      jumpi\n        /* \"#utility.yul\":7433:7451   */\n      tag_141\n      tag_55\n      jump\t// in\n    tag_141:\n        /* \"#utility.yul\":7397:7453   */\n    tag_140:\n        /* \"#utility.yul\":7471:7500   */\n      tag_142\n        /* \"#utility.yul\":7493:7499   */\n      dup3\n        /* \"#utility.yul\":7471:7500   */\n      tag_49\n      jump\t// in\n    tag_142:\n        /* \"#utility.yul\":7463:7500   */\n      swap1\n      pop\n        /* \"#utility.yul\":7555:7559   */\n      0x20\n        /* \"#utility.yul\":7549:7553   */\n      dup2\n        /* \"#utility.yul\":7545:7560   */\n      add\n        /* \"#utility.yul\":7537:7560   */\n      swap1\n      pop\n        /* \"#utility.yul\":7259:7567   */\n      swap2\n      swap1\n      pop\n      jump\t// out\n        /* \"#utility.yul\":7573:8007   */\n    tag_59:\n        /* \"#utility.yul\":7662:7667   */\n      0x00\n        /* \"#utility.yul\":7687:7753   */\n      tag_144\n        /* \"#utility.yul\":7703:7752   */\n      tag_145\n        /* \"#utility.yul\":7745:7751   */\n      dup5\n        /* \"#utility.yul\":7703:7752   */\n      tag_58\n      jump\t// in\n    tag_145:\n        /* \"#utility.yul\":7687:7753   */\n      tag_57\n      jump\t// in\n    tag_144:\n        /* \"#utility.yul\":7678:7753   */\n      swap1\n      pop\n        /* \"#utility.yul\":7776:7782   */\n      dup3\n        /* \"#utility.yul\":7769:7774   */\n      dup2\n        /* \"#utility.yul\":7762:7783   */\n      mstore\n        /* \"#utility.yul\":7814:7818   */\n      0x20\n        /* \"#utility.yul\":7807:7812   */\n      dup2\n        /* \"#utility.yul\":7803:7819   */\n      add\n        /* \"#utility.yul\":7852:7855   */\n      dup5\n        /* \"#utility.yul\":7843:7849   */\n      dup5\n        /* \"#utility.yul\":7838:7841   */\n      dup5\n        /* \"#utility.yul\":7834:7850   */\n      add\n        /* \"#utility.yul\":7831:7856   */\n      gt\n        /* \"#utility.yul\":7828:7940   */\n      iszero\n      tag_146\n      jumpi\n        /* \"#utility.yul\":7859:7938   */\n      tag_147\n      tag_54\n      jump\t// in\n    tag_147:\n        /* \"#utility.yul\":7828:7940   */\n    tag_146:\n        /* \"#utility.yul\":7949:8001   */\n      tag_148\n        /* \"#utility.yul\":7994:8000   */\n      dup5\n        /* \"#utility.yul\":7989:7992   */\n      dup3\n        /* \"#utility.yul\":7984:7987   */\n      dup6\n        /* \"#utility.yul\":7949:8001   */\n      tag_48\n      jump\t// in\n    tag_148:\n        /* \"#utility.yul\":7668:8007   */\n      pop\n        /* \"#utility.yul\":7573:8007   */\n      swap4\n      swap3\n      pop\n      pop\n      pop\n      jump\t// out\n        /* \"#utility.yul\":8027:8382   */\n    tag_60:\n        /* \"#utility.yul\":8094:8099   */\n      0x00\n        /* \"#utility.yul\":8143:8146   */\n      dup3\n        /* \"#utility.yul\":8136:8140   */\n      0x1f\n        /* \"#utility.yul\":8128:8134   */\n      dup4\n        /* \"#utility.yul\":8124:8141   */\n      add\n        /* \"#utility.yul\":8120:8147   */\n      slt\n        /* \"#utility.yul\":8110:8232   */\n      tag_150\n      jumpi\n        /* \"#utility.yul\":8151:8230   */\n      tag_151\n      tag_39\n      jump\t// in\n    tag_151:\n        /* \"#utility.yul\":8110:8232   */\n    tag_150:\n        /* \"#utility.yul\":8261:8267   */\n      dup2\n        /* \"#utility.yul\":8255:8268   */\n      mload\n        /* \"#utility.yul\":8286:8376   */\n      tag_152\n        /* \"#utility.yul\":8372:8375   */\n      dup5\n        /* \"#utility.yul\":8364:8370   */\n      dup3\n        /* \"#utility.yul\":8357:8361   */\n      0x20\n        /* \"#utility.yul\":8349:8355   */\n      dup7\n        /* \"#utility.yul\":8345:8362   */\n      add\n        /* \"#utility.yul\":8286:8376   */\n      tag_59\n      jump\t// in\n    tag_152:\n        /* \"#utility.yul\":8277:8376   */\n      swap2\n      pop\n        /* \"#utility.yul\":8100:8382   */\n      pop\n        /* \"#utility.yul\":8027:8382   */\n      swap3\n      swap2\n      pop\n      pop\n      jump\t// out\n        /* \"#utility.yul\":8388:8531   */\n    tag_61:\n        /* \"#utility.yul\":8445:8450   */\n      0x00\n        /* \"#utility.yul\":8476:8482   */\n      dup2\n        /* \"#utility.yul\":8470:8483   */\n      mload\n        /* \"#utility.yul\":8461:8483   */\n      swap1\n      pop\n        /* \"#utility.yul\":8492:8525   */\n      tag_154\n        /* \"#utility.yul\":8519:8524   */\n      dup2\n        /* \"#utility.yul\":8492:8525   */\n      tag_44\n      jump\t// in\n    tag_154:\n        /* \"#utility.yul\":8388:8531   */\n      swap3\n      swap2\n      pop\n      pop\n      jump\t// out\n        /* \"#utility.yul\":8537:9546   */\n    tag_29:\n        /* \"#utility.yul\":8645:8651   */\n      0x00\n        /* \"#utility.yul\":8653:8659   */\n      dup1\n        /* \"#utility.yul\":8661:8667   */\n      0x00\n        /* \"#utility.yul\":8710:8712   */\n      0x60\n        /* \"#utility.yul\":8698:8707   */\n      dup5\n        /* \"#utility.yul\":8689:8696   */\n      dup7\n        /* \"#utility.yul\":8685:8708   */\n      sub\n        /* \"#utility.yul\":8681:8713   */\n      slt\n        /* \"#utility.yul\":8678:8797   */\n      iszero\n      tag_156\n      jumpi\n        /* \"#utility.yul\":8716:8795   */\n      tag_157\n      tag_37\n      jump\t// in\n    tag_157:\n        /* \"#utility.yul\":8678:8797   */\n    tag_156:\n        /* \"#utility.yul\":8857:8858   */\n      0x00\n        /* \"#utility.yul\":8846:8855   */\n      dup5\n        /* \"#utility.yul\":8842:8859   */\n      add\n        /* \"#utility.yul\":8836:8860   */\n      mload\n        /* \"#utility.yul\":8887:8905   */\n      0xffffffffffffffff\n        /* \"#utility.yul\":8879:8885   */\n      dup2\n        /* \"#utility.yul\":8876:8906   */\n      gt\n        /* \"#utility.yul\":8873:8990   */\n      iszero\n      tag_158\n      jumpi\n        /* \"#utility.yul\":8909:8988   */\n      tag_159\n      tag_38\n      jump\t// in\n    tag_159:\n        /* \"#utility.yul\":8873:8990   */\n    tag_158:\n        /* \"#utility.yul\":9014:9088   */\n      tag_160\n        /* \"#utility.yul\":9080:9087   */\n      dup7\n        /* \"#utility.yul\":9071:9077   */\n      dup3\n        /* \"#utility.yul\":9060:9069   */\n      dup8\n        /* \"#utility.yul\":9056:9078   */\n      add\n        /* \"#utility.yul\":9014:9088   */\n      tag_60\n      jump\t// in\n    tag_160:\n        /* \"#utility.yul\":9004:9088   */\n      swap4\n      pop\n        /* \"#utility.yul\":8807:9098   */\n      pop\n        /* \"#utility.yul\":9158:9160   */\n      0x20\n        /* \"#utility.yul\":9147:9156   */\n      dup5\n        /* \"#utility.yul\":9143:9161   */\n      add\n        /* \"#utility.yul\":9137:9162   */\n      mload\n        /* \"#utility.yul\":9189:9207   */\n      0xffffffffffffffff\n        /* \"#utility.yul\":9181:9187   */\n      dup2\n        /* \"#utility.yul\":9178:9208   */\n      gt\n        /* \"#utility.yul\":9175:9292   */\n      iszero\n      tag_161\n      jumpi\n        /* \"#utility.yul\":9211:9290   */\n      tag_162\n      tag_38\n      jump\t// in\n    tag_162:\n        /* \"#utility.yul\":9175:9292   */\n    tag_161:\n        /* \"#utility.yul\":9316:9390   */\n      tag_163\n        /* \"#utility.yul\":9382:9389   */\n      dup7\n        /* \"#utility.yul\":9373:9379   */\n      dup3\n        /* \"#utility.yul\":9362:9371   */\n      dup8\n        /* \"#utility.yul\":9358:9380   */\n      add\n        /* \"#utility.yul\":9316:9390   */\n      tag_60\n      jump\t// in\n    tag_163:\n        /* \"#utility.yul\":9306:9390   */\n      swap3\n      pop\n        /* \"#utility.yul\":9108:9400   */\n      pop\n        /* \"#utility.yul\":9439:9441   */\n      0x40\n        /* \"#utility.yul\":9465:9529   */\n      tag_164\n        /* \"#utility.yul\":9521:9528   */\n      dup7\n        /* \"#utility.yul\":9512:9518   */\n      dup3\n        /* \"#utility.yul\":9501:9510   */\n      dup8\n        /* \"#utility.yul\":9497:9519   */\n      add\n        /* \"#utility.yul\":9465:9529   */\n      tag_61\n      jump\t// in\n    tag_164:\n        /* \"#utility.yul\":9455:9529   */\n      swap2\n      pop\n        /* \"#utility.yul\":9410:9539   */\n      pop\n        /* \"#utility.yul\":8537:9546   */\n      swap3\n      pop\n      swap3\n      pop\n      swap3\n      jump\t// out\n\n    auxdata: 0xa2646970667358221220598867d3f8e0ba8b8285de3dbde7dffd5bcf61fc6d8bcf9bda120e019114f70864736f6c634300081a0033\n}\n\nsub_1: assembly {\n        /* \"contracts/oops.sol\":58:550  contract Book {... */\n      mstore(0x40, 0x80)\n      callvalue\n      dup1\n      iszero\n      tag_1\n      jumpi\n      0x00\n      dup1\n      revert\n    tag_1:\n      pop\n      dataSize(sub_0)\n      dup1\n      dataOffset(sub_0)\n      0x00\n      codecopy\n      0x00\n      return\n    stop\n\n    sub_0: assembly {\n            /* \"contracts/oops.sol\":58:550  contract Book {... */\n          mstore(0x40, 0x80)\n          callvalue\n          dup1\n          iszero\n          tag_1\n          jumpi\n          0x00\n          dup1\n          revert\n        tag_1:\n          pop\n          jumpi(tag_2, lt(calldatasize, 0x04))\n          shr(0xe0, calldataload(0x00))\n          dup1\n          0x06fdde03\n          eq\n          tag_3\n          jumpi\n          dup1\n          0xe0be87ca\n          eq\n          tag_4\n          jumpi\n          dup1\n          0xfbbf93a0\n          eq\n          tag_5\n          jumpi\n        tag_2:\n          0x00\n          dup1\n          revert\n            /* \"contracts/oops.sol\":78:96  string public name */\n        tag_3:\n          tag_6\n          tag_7\n          jump\t// in\n        tag_6:\n          mload(0x40)\n          tag_8\n          swap2\n          swap1\n          tag_9\n          jump\t// in\n        tag_8:\n          mload(0x40)\n          dup1\n          swap2\n          sub\n          swap1\n          return\n            /* \"contracts/oops.sol\":141:341  function setDetails(... */\n        tag_4:\n          tag_10\n          0x04\n          dup1\n          calldatasize\n          sub\n          dup2\n          add\n          swap1\n          tag_11\n          swap2\n          swap1\n          tag_12\n          jump\t// in\n        tag_11:\n          tag_13\n          jump\t// in\n        tag_10:\n          stop\n            /* \"contracts/oops.sol\":347:548  function getDetails()... */\n        tag_5:\n          tag_14\n          tag_15\n          jump\t// in\n        tag_14:\n          mload(0x40)\n          tag_16\n          swap4\n          swap3\n          swap2\n          swap1\n          tag_17\n          jump\t// in\n        tag_16:\n          mload(0x40)\n          dup1\n          swap2\n          sub\n          swap1\n          return\n            /* \"contracts/oops.sol\":78:96  string public name */\n        tag_7:\n          0x00\n          dup1\n          sload\n          tag_18\n          swap1\n          tag_19\n          jump\t// in\n        tag_18:\n          dup1\n          0x1f\n          add\n          0x20\n          dup1\n          swap2\n          div\n          mul\n          0x20\n          add\n          mload(0x40)\n          swap1\n          dup2\n          add\n          0x40\n          mstore\n          dup1\n          swap3\n          swap2\n          swap1\n          dup2\n          dup2\n          mstore\n          0x20\n          add\n          dup3\n          dup1\n          sload\n          tag_20\n          swap1\n          tag_19\n          jump\t// in\n        tag_20:\n          dup1\n          iszero\n          tag_21\n          jumpi\n          dup1\n          0x1f\n          lt\n          tag_22\n          jumpi\n          0x0100\n          dup1\n          dup4\n          sload\n          div\n          mul\n          dup4\n          mstore\n          swap2\n          0x20\n          add\n          swap2\n          jump(tag_21)\n        tag_22:\n          dup3\n          add\n          swap2\n          swap1\n          0x00\n          mstore\n          keccak256(0x00, 0x20)\n          swap1\n        tag_23:\n          dup2\n          sload\n          dup2\n          mstore\n          swap1\n          0x01\n          add\n          swap1\n          0x20\n          add\n          dup1\n          dup4\n          gt\n          tag_23\n          jumpi\n          dup3\n          swap1\n          sub\n          0x1f\n          and\n          dup3\n          add\n          swap2\n        tag_21:\n          pop\n          pop\n          pop\n          pop\n          pop\n          dup2\n          jump\t// out\n            /* \"contracts/oops.sol\":141:341  function setDetails(... */\n        tag_13:\n            /* \"contracts/oops.sol\":279:284  _name */\n          dup5\n          dup5\n            /* \"contracts/oops.sol\":272:276  name */\n          0x00\n            /* \"contracts/oops.sol\":272:284  name = _name */\n          swap2\n          dup3\n          tag_25\n          swap3\n          swap2\n          swap1\n          tag_26\n          jump\t// in\n        tag_25:\n          pop\n            /* \"contracts/oops.sol\":303:310  _author */\n          dup3\n          dup3\n            /* \"contracts/oops.sol\":294:300  author */\n          0x01\n            /* \"contracts/oops.sol\":294:310  author = _author */\n          swap2\n          dup3\n          tag_27\n          swap3\n          swap2\n          swap1\n          tag_26\n          jump\t// in\n        tag_27:\n          pop\n            /* \"contracts/oops.sol\":328:334  _price */\n          dup1\n            /* \"contracts/oops.sol\":320:325  price */\n          0x02\n            /* \"contracts/oops.sol\":320:334  price = _price */\n          dup2\n          swap1\n          sstore\n          pop\n            /* \"contracts/oops.sol\":141:341  function setDetails(... */\n          pop\n          pop\n          pop\n          pop\n          pop\n          jump\t// out\n            /* \"contracts/oops.sol\":347:548  function getDetails()... */\n        tag_15:\n            /* \"contracts/oops.sol\":427:440  string memory */\n          0x60\n            /* \"contracts/oops.sol\":454:467  string memory */\n          dup1\n            /* \"contracts/oops.sol\":481:488  uint256 */\n          0x00\n            /* \"contracts/oops.sol\":521:525  name */\n          dup1\n            /* \"contracts/oops.sol\":527:533  author */\n          0x01\n            /* \"contracts/oops.sol\":535:540  price */\n          sload(0x02)\n            /* \"contracts/oops.sol\":513:541  return (name, author, price) */\n          dup3\n          dup1\n          sload\n          tag_29\n          swap1\n          tag_19\n          jump\t// in\n        tag_29:\n          dup1\n          0x1f\n          add\n          0x20\n          dup1\n          swap2\n          div\n          mul\n          0x20\n          add\n          mload(0x40)\n          swap1\n          dup2\n          add\n          0x40\n          mstore\n          dup1\n          swap3\n          swap2\n          swap1\n          dup2\n          dup2\n          mstore\n          0x20\n          add\n          dup3\n          dup1\n          sload\n          tag_30\n          swap1\n          tag_19\n          jump\t// in\n        tag_30:\n          dup1\n          iszero\n          tag_31\n          jumpi\n          dup1\n          0x1f\n          lt\n          tag_32\n          jumpi\n          0x0100\n          dup1\n          dup4\n          sload\n          div\n          mul\n          dup4\n          mstore\n          swap2\n          0x20\n          add\n          swap2\n          jump(tag_31)\n        tag_32:\n          dup3\n          add\n          swap2\n          swap1\n          0x00\n          mstore\n          keccak256(0x00, 0x20)\n          swap1\n        tag_33:\n          dup2\n          sload\n          dup2\n          mstore\n          swap1\n          0x01\n          add\n          swap1\n          0x20\n          add\n          dup1\n          dup4\n          gt\n          tag_33\n          jumpi\n          dup3\n          swap1\n          sub\n          0x1f\n          and\n          dup3\n          add\n          swap2\n        tag_31:\n          pop\n          pop\n          pop\n          pop\n          pop\n          swap3\n          pop\n          dup2\n          dup1\n          sload\n          tag_34\n          swap1\n          tag_19\n          jump\t// in\n        tag_34:\n          dup1\n          0x1f\n          add\n          0x20\n          dup1\n          swap2\n          div\n          mul\n          0x20\n          add\n          mload(0x40)\n          swap1\n          dup2\n          add\n          0x40\n          mstore\n          dup1\n          swap3\n          swap2\n          swap1\n          dup2\n          dup2\n          mstore\n          0x20\n          add\n          dup3\n          dup1\n          sload\n          tag_35\n          swap1\n          tag_19\n          jump\t// in\n        tag_35:\n          dup1\n          iszero\n          tag_36\n          jumpi\n          dup1\n          0x1f\n          lt\n          tag_37\n          jumpi\n          0x0100\n          dup1\n          dup4\n          sload\n          div\n          mul\n          dup4\n          mstore\n          swap2\n          0x20\n          add\n          swap2\n          jump(tag_36)\n        tag_37:\n          dup3\n          add\n          swap2\n          swap1\n          0x00\n          mstore\n          keccak256(0x00, 0x20)\n          swap1\n        tag_38:\n          dup2\n          sload\n          dup2\n          mstore\n          swap1\n          0x01\n          add\n          swap1\n          0x20\n          add\n          dup1\n          dup4\n          gt\n          tag_38\n          jumpi\n          dup3\n          swap1\n          sub\n          0x1f\n          and\n          dup3\n          add\n          swap2\n        tag_36:\n          pop\n          pop\n          pop\n          pop\n          pop\n          swap2\n          pop\n          swap3\n          pop\n          swap3\n          pop\n          swap3\n          pop\n            /* \"contracts/oops.sol\":347:548  function getDetails()... */\n          swap1\n          swap2\n          swap3\n          jump\t// out\n            /* \"#utility.yul\":7:106   */\n        tag_39:\n            /* \"#utility.yul\":59:65   */\n          0x00\n            /* \"#utility.yul\":93:98   */\n          dup2\n            /* \"#utility.yul\":87:99   */\n          mload\n            /* \"#utility.yul\":77:99   */\n          swap1\n          pop\n            /* \"#utility.yul\":7:106   */\n          swap2\n          swap1\n          pop\n          jump\t// out\n            /* \"#utility.yul\":112:281   */\n        tag_40:\n            /* \"#utility.yul\":196:207   */\n          0x00\n            /* \"#utility.yul\":230:236   */\n          dup3\n            /* \"#utility.yul\":225:228   */\n          dup3\n            /* \"#utility.yul\":218:237   */\n          mstore\n            /* \"#utility.yul\":270:274   */\n          0x20\n            /* \"#utility.yul\":265:268   */\n          dup3\n            /* \"#utility.yul\":261:275   */\n          add\n            /* \"#utility.yul\":246:275   */\n          swap1\n          pop\n            /* \"#utility.yul\":112:281   */\n          swap3\n          swap2\n          pop\n          pop\n          jump\t// out\n            /* \"#utility.yul\":287:426   */\n        tag_41:\n            /* \"#utility.yul\":376:382   */\n          dup3\n            /* \"#utility.yul\":371:374   */\n          dup2\n            /* \"#utility.yul\":366:369   */\n          dup4\n            /* \"#utility.yul\":360:383   */\n          mcopy\n            /* \"#utility.yul\":417:418   */\n          0x00\n            /* \"#utility.yul\":408:414   */\n          dup4\n            /* \"#utility.yul\":403:406   */\n          dup4\n            /* \"#utility.yul\":399:415   */\n          add\n            /* \"#utility.yul\":392:419   */\n          mstore\n            /* \"#utility.yul\":287:426   */\n          pop\n          pop\n          pop\n          jump\t// out\n            /* \"#utility.yul\":432:534   */\n        tag_42:\n            /* \"#utility.yul\":473:479   */\n          0x00\n            /* \"#utility.yul\":524:526   */\n          0x1f\n            /* \"#utility.yul\":520:527   */\n          not\n            /* \"#utility.yul\":515:517   */\n          0x1f\n            /* \"#utility.yul\":508:513   */\n          dup4\n            /* \"#utility.yul\":504:518   */\n          add\n            /* \"#utility.yul\":500:528   */\n          and\n            /* \"#utility.yul\":490:528   */\n          swap1\n          pop\n            /* \"#utility.yul\":432:534   */\n          swap2\n          swap1\n          pop\n          jump\t// out\n            /* \"#utility.yul\":540:917   */\n        tag_43:\n            /* \"#utility.yul\":628:631   */\n          0x00\n            /* \"#utility.yul\":656:695   */\n          tag_79\n            /* \"#utility.yul\":689:694   */\n          dup3\n            /* \"#utility.yul\":656:695   */\n          tag_39\n          jump\t// in\n        tag_79:\n            /* \"#utility.yul\":711:782   */\n          tag_80\n            /* \"#utility.yul\":775:781   */\n          dup2\n            /* \"#utility.yul\":770:773   */\n          dup6\n            /* \"#utility.yul\":711:782   */\n          tag_40\n          jump\t// in\n        tag_80:\n            /* \"#utility.yul\":704:782   */\n          swap4\n          pop\n            /* \"#utility.yul\":791:856   */\n          tag_81\n            /* \"#utility.yul\":849:855   */\n          dup2\n            /* \"#utility.yul\":844:847   */\n          dup6\n            /* \"#utility.yul\":837:841   */\n          0x20\n            /* \"#utility.yul\":830:835   */\n          dup7\n            /* \"#utility.yul\":826:842   */\n          add\n            /* \"#utility.yul\":791:856   */\n          tag_41\n          jump\t// in\n        tag_81:\n            /* \"#utility.yul\":881:910   */\n          tag_82\n            /* \"#utility.yul\":903:909   */\n          dup2\n            /* \"#utility.yul\":881:910   */\n          tag_42\n          jump\t// in\n        tag_82:\n            /* \"#utility.yul\":876:879   */\n          dup5\n            /* \"#utility.yul\":872:911   */\n          add\n            /* \"#utility.yul\":865:911   */\n          swap2\n          pop\n            /* \"#utility.yul\":632:917   */\n          pop\n            /* \"#utility.yul\":540:917   */\n          swap3\n          swap2\n          pop\n          pop\n          jump\t// out\n            /* \"#utility.yul\":923:1236   */\n        tag_9:\n            /* \"#utility.yul\":1036:1040   */\n          0x00\n            /* \"#utility.yul\":1074:1076   */\n          0x20\n            /* \"#utility.yul\":1063:1072   */\n          dup3\n            /* \"#utility.yul\":1059:1077   */\n          add\n            /* \"#utility.yul\":1051:1077   */\n          swap1\n          pop\n            /* \"#utility.yul\":1123:1132   */\n          dup2\n            /* \"#utility.yul\":1117:1121   */\n          dup2\n            /* \"#utility.yul\":1113:1133   */\n          sub\n            /* \"#utility.yul\":1109:1110   */\n          0x00\n            /* \"#utility.yul\":1098:1107   */\n          dup4\n            /* \"#utility.yul\":1094:1111   */\n          add\n            /* \"#utility.yul\":1087:1134   */\n          mstore\n            /* \"#utility.yul\":1151:1229   */\n          tag_84\n            /* \"#utility.yul\":1224:1228   */\n          dup2\n            /* \"#utility.yul\":1215:1221   */\n          dup5\n            /* \"#utility.yul\":1151:1229   */\n          tag_43\n          jump\t// in\n        tag_84:\n            /* \"#utility.yul\":1143:1229   */\n          swap1\n          pop\n            /* \"#utility.yul\":923:1236   */\n          swap3\n          swap2\n          pop\n          pop\n          jump\t// out\n            /* \"#utility.yul\":1323:1440   */\n        tag_45:\n            /* \"#utility.yul\":1432:1433   */\n          0x00\n            /* \"#utility.yul\":1429:1430   */\n          dup1\n            /* \"#utility.yul\":1422:1434   */\n          revert\n            /* \"#utility.yul\":1446:1563   */\n        tag_46:\n            /* \"#utility.yul\":1555:1556   */\n          0x00\n            /* \"#utility.yul\":1552:1553   */\n          dup1\n            /* \"#utility.yul\":1545:1557   */\n          revert\n            /* \"#utility.yul\":1569:1686   */\n        tag_47:\n            /* \"#utility.yul\":1678:1679   */\n          0x00\n            /* \"#utility.yul\":1675:1676   */\n          dup1\n            /* \"#utility.yul\":1668:1680   */\n          revert\n            /* \"#utility.yul\":1692:1809   */\n        tag_48:\n            /* \"#utility.yul\":1801:1802   */\n          0x00\n            /* \"#utility.yul\":1798:1799   */\n          dup1\n            /* \"#utility.yul\":1791:1803   */\n          revert\n            /* \"#utility.yul\":1815:1932   */\n        tag_49:\n            /* \"#utility.yul\":1924:1925   */\n          0x00\n            /* \"#utility.yul\":1921:1922   */\n          dup1\n            /* \"#utility.yul\":1914:1926   */\n          revert\n            /* \"#utility.yul\":1952:2505   */\n        tag_50:\n            /* \"#utility.yul\":2010:2018   */\n          0x00\n            /* \"#utility.yul\":2020:2026   */\n          dup1\n            /* \"#utility.yul\":2070:2073   */\n          dup4\n            /* \"#utility.yul\":2063:2067   */\n          0x1f\n            /* \"#utility.yul\":2055:2061   */\n          dup5\n            /* \"#utility.yul\":2051:2068   */\n          add\n            /* \"#utility.yul\":2047:2074   */\n          slt\n            /* \"#utility.yul\":2037:2159   */\n          tag_92\n          jumpi\n            /* \"#utility.yul\":2078:2157   */\n          tag_93\n          tag_47\n          jump\t// in\n        tag_93:\n            /* \"#utility.yul\":2037:2159   */\n        tag_92:\n            /* \"#utility.yul\":2191:2197   */\n          dup3\n            /* \"#utility.yul\":2178:2198   */\n          calldataload\n            /* \"#utility.yul\":2168:2198   */\n          swap1\n          pop\n            /* \"#utility.yul\":2221:2239   */\n          0xffffffffffffffff\n            /* \"#utility.yul\":2213:2219   */\n          dup2\n            /* \"#utility.yul\":2210:2240   */\n          gt\n            /* \"#utility.yul\":2207:2324   */\n          iszero\n          tag_94\n          jumpi\n            /* \"#utility.yul\":2243:2322   */\n          tag_95\n          tag_48\n          jump\t// in\n        tag_95:\n            /* \"#utility.yul\":2207:2324   */\n        tag_94:\n            /* \"#utility.yul\":2357:2361   */\n          0x20\n            /* \"#utility.yul\":2349:2355   */\n          dup4\n            /* \"#utility.yul\":2345:2362   */\n          add\n            /* \"#utility.yul\":2333:2362   */\n          swap2\n          pop\n            /* \"#utility.yul\":2411:2414   */\n          dup4\n            /* \"#utility.yul\":2403:2407   */\n          0x01\n            /* \"#utility.yul\":2395:2401   */\n          dup3\n            /* \"#utility.yul\":2391:2408   */\n          mul\n            /* \"#utility.yul\":2381:2389   */\n          dup4\n            /* \"#utility.yul\":2377:2409   */\n          add\n            /* \"#utility.yul\":2374:2415   */\n          gt\n            /* \"#utility.yul\":2371:2499   */\n          iszero\n          tag_96\n          jumpi\n            /* \"#utility.yul\":2418:2497   */\n          tag_97\n          tag_49\n          jump\t// in\n        tag_97:\n            /* \"#utility.yul\":2371:2499   */\n        tag_96:\n            /* \"#utility.yul\":1952:2505   */\n          swap3\n          pop\n          swap3\n          swap1\n          pop\n          jump\t// out\n            /* \"#utility.yul\":2511:2588   */\n        tag_51:\n            /* \"#utility.yul\":2548:2555   */\n          0x00\n            /* \"#utility.yul\":2577:2582   */\n          dup2\n            /* \"#utility.yul\":2566:2582   */\n          swap1\n          pop\n            /* \"#utility.yul\":2511:2588   */\n          swap2\n          swap1\n          pop\n          jump\t// out\n            /* \"#utility.yul\":2594:2716   */\n        tag_52:\n            /* \"#utility.yul\":2667:2691   */\n          tag_100\n            /* \"#utility.yul\":2685:2690   */\n          dup2\n            /* \"#utility.yul\":2667:2691   */\n          tag_51\n          jump\t// in\n        tag_100:\n            /* \"#utility.yul\":2660:2665   */\n          dup2\n            /* \"#utility.yul\":2657:2692   */\n          eq\n            /* \"#utility.yul\":2647:2710   */\n          tag_101\n          jumpi\n            /* \"#utility.yul\":2706:2707   */\n          0x00\n            /* \"#utility.yul\":2703:2704   */\n          dup1\n            /* \"#utility.yul\":2696:2708   */\n          revert\n            /* \"#utility.yul\":2647:2710   */\n        tag_101:\n            /* \"#utility.yul\":2594:2716   */\n          pop\n          jump\t// out\n            /* \"#utility.yul\":2722:2861   */\n        tag_53:\n            /* \"#utility.yul\":2768:2773   */\n          0x00\n            /* \"#utility.yul\":2806:2812   */\n          dup2\n            /* \"#utility.yul\":2793:2813   */\n          calldataload\n            /* \"#utility.yul\":2784:2813   */\n          swap1\n          pop\n            /* \"#utility.yul\":2822:2855   */\n          tag_103\n            /* \"#utility.yul\":2849:2854   */\n          dup2\n            /* \"#utility.yul\":2822:2855   */\n          tag_52\n          jump\t// in\n        tag_103:\n            /* \"#utility.yul\":2722:2861   */\n          swap3\n          swap2\n          pop\n          pop\n          jump\t// out\n            /* \"#utility.yul\":2867:3886   */\n        tag_12:\n            /* \"#utility.yul\":2968:2974   */\n          0x00\n            /* \"#utility.yul\":2976:2982   */\n          dup1\n            /* \"#utility.yul\":2984:2990   */\n          0x00\n            /* \"#utility.yul\":2992:2998   */\n          dup1\n            /* \"#utility.yul\":3000:3006   */\n          0x00\n            /* \"#utility.yul\":3049:3051   */\n          0x60\n            /* \"#utility.yul\":3037:3046   */\n          dup7\n            /* \"#utility.yul\":3028:3035   */\n          dup9\n            /* \"#utility.yul\":3024:3047   */\n          sub\n            /* \"#utility.yul\":3020:3052   */\n          slt\n            /* \"#utility.yul\":3017:3136   */\n          iszero\n          tag_105\n          jumpi\n            /* \"#utility.yul\":3055:3134   */\n          tag_106\n          tag_45\n          jump\t// in\n        tag_106:\n            /* \"#utility.yul\":3017:3136   */\n        tag_105:\n            /* \"#utility.yul\":3203:3204   */\n          0x00\n            /* \"#utility.yul\":3192:3201   */\n          dup7\n            /* \"#utility.yul\":3188:3205   */\n          add\n            /* \"#utility.yul\":3175:3206   */\n          calldataload\n            /* \"#utility.yul\":3233:3251   */\n          0xffffffffffffffff\n            /* \"#utility.yul\":3225:3231   */\n          dup2\n            /* \"#utility.yul\":3222:3252   */\n          gt\n            /* \"#utility.yul\":3219:3336   */\n          iszero\n          tag_107\n          jumpi\n            /* \"#utility.yul\":3255:3334   */\n          tag_108\n          tag_46\n          jump\t// in\n        tag_108:\n            /* \"#utility.yul\":3219:3336   */\n        tag_107:\n            /* \"#utility.yul\":3368:3433   */\n          tag_109\n            /* \"#utility.yul\":3425:3432   */\n          dup9\n            /* \"#utility.yul\":3416:3422   */\n          dup3\n            /* \"#utility.yul\":3405:3414   */\n          dup10\n            /* \"#utility.yul\":3401:3423   */\n          add\n            /* \"#utility.yul\":3368:3433   */\n          tag_50\n          jump\t// in\n        tag_109:\n            /* \"#utility.yul\":3350:3433   */\n          swap6\n          pop\n          swap6\n          pop\n            /* \"#utility.yul\":3146:3443   */\n          pop\n            /* \"#utility.yul\":3510:3512   */\n          0x20\n            /* \"#utility.yul\":3499:3508   */\n          dup7\n            /* \"#utility.yul\":3495:3513   */\n          add\n            /* \"#utility.yul\":3482:3514   */\n          calldataload\n            /* \"#utility.yul\":3541:3559   */\n          0xffffffffffffffff\n            /* \"#utility.yul\":3533:3539   */\n          dup2\n            /* \"#utility.yul\":3530:3560   */\n          gt\n            /* \"#utility.yul\":3527:3644   */\n          iszero\n          tag_110\n          jumpi\n            /* \"#utility.yul\":3563:3642   */\n          tag_111\n          tag_46\n          jump\t// in\n        tag_111:\n            /* \"#utility.yul\":3527:3644   */\n        tag_110:\n            /* \"#utility.yul\":3676:3741   */\n          tag_112\n            /* \"#utility.yul\":3733:3740   */\n          dup9\n            /* \"#utility.yul\":3724:3730   */\n          dup3\n            /* \"#utility.yul\":3713:3722   */\n          dup10\n            /* \"#utility.yul\":3709:3731   */\n          add\n            /* \"#utility.yul\":3676:3741   */\n          tag_50\n          jump\t// in\n        tag_112:\n            /* \"#utility.yul\":3658:3741   */\n          swap4\n          pop\n          swap4\n          pop\n            /* \"#utility.yul\":3453:3751   */\n          pop\n            /* \"#utility.yul\":3790:3792   */\n          0x40\n            /* \"#utility.yul\":3816:3869   */\n          tag_113\n            /* \"#utility.yul\":3861:3868   */\n          dup9\n            /* \"#utility.yul\":3852:3858   */\n          dup3\n            /* \"#utility.yul\":3841:3850   */\n          dup10\n            /* \"#utility.yul\":3837:3859   */\n          add\n            /* \"#utility.yul\":3816:3869   */\n          tag_53\n          jump\t// in\n        tag_113:\n            /* \"#utility.yul\":3806:3869   */\n          swap2\n          pop\n            /* \"#utility.yul\":3761:3879   */\n          pop\n            /* \"#utility.yul\":2867:3886   */\n          swap3\n          swap6\n          pop\n          swap3\n          swap6\n          swap1\n          swap4\n          pop\n          jump\t// out\n            /* \"#utility.yul\":3892:4010   */\n        tag_54:\n            /* \"#utility.yul\":3979:4003   */\n          tag_115\n            /* \"#utility.yul\":3997:4002   */\n          dup2\n            /* \"#utility.yul\":3979:4003   */\n          tag_51\n          jump\t// in\n        tag_115:\n            /* \"#utility.yul\":3974:3977   */\n          dup3\n            /* \"#utility.yul\":3967:4004   */\n          mstore\n            /* \"#utility.yul\":3892:4010   */\n          pop\n          pop\n          jump\t// out\n            /* \"#utility.yul\":4016:4640   */\n        tag_17:\n            /* \"#utility.yul\":4205:4209   */\n          0x00\n            /* \"#utility.yul\":4243:4245   */\n          0x60\n            /* \"#utility.yul\":4232:4241   */\n          dup3\n            /* \"#utility.yul\":4228:4246   */\n          add\n            /* \"#utility.yul\":4220:4246   */\n          swap1\n          pop\n            /* \"#utility.yul\":4292:4301   */\n          dup2\n            /* \"#utility.yul\":4286:4290   */\n          dup2\n            /* \"#utility.yul\":4282:4302   */\n          sub\n            /* \"#utility.yul\":4278:4279   */\n          0x00\n            /* \"#utility.yul\":4267:4276   */\n          dup4\n            /* \"#utility.yul\":4263:4280   */\n          add\n            /* \"#utility.yul\":4256:4303   */\n          mstore\n            /* \"#utility.yul\":4320:4398   */\n          tag_117\n            /* \"#utility.yul\":4393:4397   */\n          dup2\n            /* \"#utility.yul\":4384:4390   */\n          dup7\n            /* \"#utility.yul\":4320:4398   */\n          tag_43\n          jump\t// in\n        tag_117:\n            /* \"#utility.yul\":4312:4398   */\n          swap1\n          pop\n            /* \"#utility.yul\":4445:4454   */\n          dup2\n            /* \"#utility.yul\":4439:4443   */\n          dup2\n            /* \"#utility.yul\":4435:4455   */\n          sub\n            /* \"#utility.yul\":4430:4432   */\n          0x20\n            /* \"#utility.yul\":4419:4428   */\n          dup4\n            /* \"#utility.yul\":4415:4433   */\n          add\n            /* \"#utility.yul\":4408:4456   */\n          mstore\n            /* \"#utility.yul\":4473:4551   */\n          tag_118\n            /* \"#utility.yul\":4546:4550   */\n          dup2\n            /* \"#utility.yul\":4537:4543   */\n          dup6\n            /* \"#utility.yul\":4473:4551   */\n          tag_43\n          jump\t// in\n        tag_118:\n            /* \"#utility.yul\":4465:4551   */\n          swap1\n          pop\n            /* \"#utility.yul\":4561:4633   */\n          tag_119\n            /* \"#utility.yul\":4629:4631   */\n          0x40\n            /* \"#utility.yul\":4618:4627   */\n          dup4\n            /* \"#utility.yul\":4614:4632   */\n          add\n            /* \"#utility.yul\":4605:4611   */\n          dup5\n            /* \"#utility.yul\":4561:4633   */\n          tag_54\n          jump\t// in\n        tag_119:\n            /* \"#utility.yul\":4016:4640   */\n          swap5\n          swap4\n          pop\n          pop\n          pop\n          pop\n          jump\t// out\n            /* \"#utility.yul\":4646:4826   */\n        tag_55:\n            /* \"#utility.yul\":4694:4771   */\n          0x4e487b7100000000000000000000000000000000000000000000000000000000\n            /* \"#utility.yul\":4691:4692   */\n          0x00\n            /* \"#utility.yul\":4684:4772   */\n          mstore\n            /* \"#utility.yul\":4791:4795   */\n          0x22\n            /* \"#utility.yul\":4788:4789   */\n          0x04\n            /* \"#utility.yul\":4781:4796   */\n          mstore\n            /* \"#utility.yul\":4815:4819   */\n          0x24\n            /* \"#utility.yul\":4812:4813   */\n          0x00\n            /* \"#utility.yul\":4805:4820   */\n          revert\n            /* \"#utility.yul\":4832:5152   */\n        tag_19:\n            /* \"#utility.yul\":4876:4882   */\n          0x00\n            /* \"#utility.yul\":4913:4914   */\n          0x02\n            /* \"#utility.yul\":4907:4911   */\n          dup3\n            /* \"#utility.yul\":4903:4915   */\n          div\n            /* \"#utility.yul\":4893:4915   */\n          swap1\n          pop\n            /* \"#utility.yul\":4960:4961   */\n          0x01\n            /* \"#utility.yul\":4954:4958   */\n          dup3\n            /* \"#utility.yul\":4950:4962   */\n          and\n            /* \"#utility.yul\":4981:4999   */\n          dup1\n            /* \"#utility.yul\":4971:5052   */\n          tag_122\n          jumpi\n            /* \"#utility.yul\":5037:5041   */\n          0x7f\n            /* \"#utility.yul\":5029:5035   */\n          dup3\n            /* \"#utility.yul\":5025:5042   */\n          and\n            /* \"#utility.yul\":5015:5042   */\n          swap2\n          pop\n            /* \"#utility.yul\":4971:5052   */\n        tag_122:\n            /* \"#utility.yul\":5099:5101   */\n          0x20\n            /* \"#utility.yul\":5091:5097   */\n          dup3\n            /* \"#utility.yul\":5088:5102   */\n          lt\n            /* \"#utility.yul\":5068:5086   */\n          dup2\n            /* \"#utility.yul\":5065:5103   */\n          sub\n            /* \"#utility.yul\":5062:5146   */\n          tag_123\n          jumpi\n            /* \"#utility.yul\":5118:5136   */\n          tag_124\n          tag_55\n          jump\t// in\n        tag_124:\n            /* \"#utility.yul\":5062:5146   */\n        tag_123:\n            /* \"#utility.yul\":4883:5152   */\n          pop\n            /* \"#utility.yul\":4832:5152   */\n          swap2\n          swap1\n          pop\n          jump\t// out\n            /* \"#utility.yul\":5158:5255   */\n        tag_56:\n            /* \"#utility.yul\":5217:5223   */\n          0x00\n            /* \"#utility.yul\":5245:5248   */\n          dup3\n            /* \"#utility.yul\":5235:5248   */\n          swap1\n          pop\n            /* \"#utility.yul\":5158:5255   */\n          swap3\n          swap2\n          pop\n          pop\n          jump\t// out\n            /* \"#utility.yul\":5261:5441   */\n        tag_57:\n            /* \"#utility.yul\":5309:5386   */\n          0x4e487b7100000000000000000000000000000000000000000000000000000000\n            /* \"#utility.yul\":5306:5307   */\n          0x00\n            /* \"#utility.yul\":5299:5387   */\n          mstore\n            /* \"#utility.yul\":5406:5410   */\n          0x41\n            /* \"#utility.yul\":5403:5404   */\n          0x04\n            /* \"#utility.yul\":5396:5411   */\n          mstore\n            /* \"#utility.yul\":5430:5434   */\n          0x24\n            /* \"#utility.yul\":5427:5428   */\n          0x00\n            /* \"#utility.yul\":5420:5435   */\n          revert\n            /* \"#utility.yul\":5447:5588   */\n        tag_58:\n            /* \"#utility.yul\":5496:5500   */\n          0x00\n            /* \"#utility.yul\":5519:5522   */\n          dup2\n            /* \"#utility.yul\":5511:5522   */\n          swap1\n          pop\n            /* \"#utility.yul\":5542:5545   */\n          dup2\n            /* \"#utility.yul\":5539:5540   */\n          0x00\n            /* \"#utility.yul\":5532:5546   */\n          mstore\n            /* \"#utility.yul\":5576:5580   */\n          0x20\n            /* \"#utility.yul\":5573:5574   */\n          0x00\n            /* \"#utility.yul\":5563:5581   */\n          keccak256\n            /* \"#utility.yul\":5555:5581   */\n          swap1\n          pop\n            /* \"#utility.yul\":5447:5588   */\n          swap2\n          swap1\n          pop\n          jump\t// out\n            /* \"#utility.yul\":5594:5687   */\n        tag_59:\n            /* \"#utility.yul\":5631:5637   */\n          0x00\n            /* \"#utility.yul\":5678:5680   */\n          0x20\n            /* \"#utility.yul\":5673:5675   */\n          0x1f\n            /* \"#utility.yul\":5666:5671   */\n          dup4\n            /* \"#utility.yul\":5662:5676   */\n          add\n            /* \"#utility.yul\":5658:5681   */\n          div\n            /* \"#utility.yul\":5648:5681   */\n          swap1\n          pop\n            /* \"#utility.yul\":5594:5687   */\n          swap2\n          swap1\n          pop\n          jump\t// out\n            /* \"#utility.yul\":5693:5800   */\n        tag_60:\n            /* \"#utility.yul\":5737:5745   */\n          0x00\n            /* \"#utility.yul\":5787:5792   */\n          dup3\n            /* \"#utility.yul\":5781:5785   */\n          dup3\n            /* \"#utility.yul\":5777:5793   */\n          shl\n            /* \"#utility.yul\":5756:5793   */\n          swap1\n          pop\n            /* \"#utility.yul\":5693:5800   */\n          swap3\n          swap2\n          pop\n          pop\n          jump\t// out\n            /* \"#utility.yul\":5806:6199   */\n        tag_61:\n            /* \"#utility.yul\":5875:5881   */\n          0x00\n            /* \"#utility.yul\":5925:5926   */\n          0x08\n            /* \"#utility.yul\":5913:5923   */\n          dup4\n            /* \"#utility.yul\":5909:5927   */\n          mul\n            /* \"#utility.yul\":5948:6045   */\n          tag_131\n            /* \"#utility.yul\":5978:6044   */\n          0xffffffffffffffffffffffffffffffffffffffffffffffffffffffffffffffff\n            /* \"#utility.yul\":5967:5976   */\n          dup3\n            /* \"#utility.yul\":5948:6045   */\n          tag_60\n          jump\t// in\n        tag_131:\n            /* \"#utility.yul\":6066:6105   */\n          tag_132\n            /* \"#utility.yul\":6096:6104   */\n          dup7\n            /* \"#utility.yul\":6085:6094   */\n          dup4\n            /* \"#utility.yul\":6066:6105   */\n          tag_60\n          jump\t// in\n        tag_132:\n            /* \"#utility.yul\":6054:6105   */\n          swap6\n          pop\n            /* \"#utility.yul\":6138:6142   */\n          dup1\n            /* \"#utility.yul\":6134:6143   */\n          not\n            /* \"#utility.yul\":6127:6132   */\n          dup5\n            /* \"#utility.yul\":6123:6144   */\n          and\n            /* \"#utility.yul\":6114:6144   */\n          swap4\n          pop\n            /* \"#utility.yul\":6187:6191   */\n          dup1\n            /* \"#utility.yul\":6177:6185   */\n          dup7\n            /* \"#utility.yul\":6173:6192   */\n          and\n            /* \"#utility.yul\":6166:6171   */\n          dup5\n            /* \"#utility.yul\":6163:6193   */\n          or\n            /* \"#utility.yul\":6153:6193   */\n          swap3\n          pop\n            /* \"#utility.yul\":5882:6199   */\n          pop\n          pop\n            /* \"#utility.yul\":5806:6199   */\n          swap4\n          swap3\n          pop\n          pop\n          pop\n          jump\t// out\n            /* \"#utility.yul\":6205:6265   */\n        tag_62:\n            /* \"#utility.yul\":6233:6236   */\n          0x00\n            /* \"#utility.yul\":6254:6259   */\n          dup2\n            /* \"#utility.yul\":6247:6259   */\n          swap1\n          pop\n            /* \"#utility.yul\":6205:6265   */\n          swap2\n          swap1\n          pop\n          jump\t// out\n            /* \"#utility.yul\":6271:6413   */\n        tag_63:\n            /* \"#utility.yul\":6321:6330   */\n          0x00\n            /* \"#utility.yul\":6354:6407   */\n          tag_135\n            /* \"#utility.yul\":6372:6406   */\n          tag_136\n            /* \"#utility.yul\":6381:6405   */\n          tag_137\n            /* \"#utility.yul\":6399:6404   */\n          dup5\n            /* \"#utility.yul\":6381:6405   */\n          tag_51\n          jump\t// in\n        tag_137:\n            /* \"#utility.yul\":6372:6406   */\n          tag_62\n          jump\t// in\n        tag_136:\n            /* \"#utility.yul\":6354:6407   */\n          tag_51\n          jump\t// in\n        tag_135:\n            /* \"#utility.yul\":6341:6407   */\n          swap1\n          pop\n            /* \"#utility.yul\":6271:6413   */\n          swap2\n          swap1\n          pop\n          jump\t// out\n            /* \"#utility.yul\":6419:6494   */\n        tag_64:\n            /* \"#utility.yul\":6462:6465   */\n          0x00\n            /* \"#utility.yul\":6483:6488   */\n          dup2\n            /* \"#utility.yul\":6476:6488   */\n          swap1\n          pop\n            /* \"#utility.yul\":6419:6494   */\n          swap2\n          swap1\n          pop\n          jump\t// out\n            /* \"#utility.yul\":6500:6769   */\n        tag_65:\n            /* \"#utility.yul\":6610:6649   */\n          tag_140\n            /* \"#utility.yul\":6641:6648   */\n          dup4\n            /* \"#utility.yul\":6610:6649   */\n          tag_63\n          jump\t// in\n        tag_140:\n            /* \"#utility.yul\":6671:6762   */\n          tag_141\n            /* \"#utility.yul\":6720:6761   */\n          tag_142\n            /* \"#utility.yul\":6744:6760   */\n          dup3\n            /* \"#utility.yul\":6720:6761   */\n          tag_64\n          jump\t// in\n        tag_142:\n            /* \"#utility.yul\":6712:6718   */\n          dup5\n            /* \"#utility.yul\":6705:6709   */\n          dup5\n            /* \"#utility.yul\":6699:6710   */\n          sload\n            /* \"#utility.yul\":6671:6762   */\n          tag_61\n          jump\t// in\n        tag_141:\n            /* \"#utility.yul\":6665:6669   */\n          dup3\n            /* \"#utility.yul\":6658:6763   */\n          sstore\n            /* \"#utility.yul\":6576:6769   */\n          pop\n            /* \"#utility.yul\":6500:6769   */\n          pop\n          pop\n          pop\n          jump\t// out\n            /* \"#utility.yul\":6775:6848   */\n        tag_66:\n            /* \"#utility.yul\":6820:6823   */\n          0x00\n            /* \"#utility.yul\":6775:6848   */\n          swap1\n          jump\t// out\n            /* \"#utility.yul\":6854:7043   */\n        tag_67:\n            /* \"#utility.yul\":6931:6963   */\n          tag_145\n          tag_66\n          jump\t// in\n        tag_145:\n            /* \"#utility.yul\":6972:7037   */\n          tag_146\n            /* \"#utility.yul\":7030:7036   */\n          dup2\n            /* \"#utility.yul\":7022:7028   */\n          dup5\n            /* \"#utility.yul\":7016:7020   */\n          dup5\n            /* \"#utility.yul\":6972:7037   */\n          tag_65\n          jump\t// in\n        tag_146:\n            /* \"#utility.yul\":6907:7043   */\n          pop\n            /* \"#utility.yul\":6854:7043   */\n          pop\n          pop\n          jump\t// out\n            /* \"#utility.yul\":7049:7235   */\n        tag_68:\n            /* \"#utility.yul\":7109:7229   */\n        tag_148:\n            /* \"#utility.yul\":7126:7129   */\n          dup2\n            /* \"#utility.yul\":7119:7124   */\n          dup2\n            /* \"#utility.yul\":7116:7130   */\n          lt\n            /* \"#utility.yul\":7109:7229   */\n          iszero\n          tag_150\n          jumpi\n            /* \"#utility.yul\":7180:7219   */\n          tag_151\n            /* \"#utility.yul\":7217:7218   */\n          0x00\n            /* \"#utility.yul\":7210:7215   */\n          dup3\n            /* \"#utility.yul\":7180:7219   */\n          tag_67\n          jump\t// in\n        tag_151:\n            /* \"#utility.yul\":7153:7154   */\n          0x01\n            /* \"#utility.yul\":7146:7151   */\n          dup2\n            /* \"#utility.yul\":7142:7155   */\n          add\n            /* \"#utility.yul\":7133:7155   */\n          swap1\n          pop\n            /* \"#utility.yul\":7109:7229   */\n          jump(tag_148)\n        tag_150:\n            /* \"#utility.yul\":7049:7235   */\n          pop\n          pop\n          jump\t// out\n            /* \"#utility.yul\":7241:7784   */\n        tag_69:\n            /* \"#utility.yul\":7342:7344   */\n          0x1f\n            /* \"#utility.yul\":7337:7340   */\n          dup3\n            /* \"#utility.yul\":7334:7345   */\n          gt\n            /* \"#utility.yul\":7331:7777   */\n          iszero\n          tag_153\n          jumpi\n            /* \"#utility.yul\":7376:7414   */\n          tag_154\n            /* \"#utility.yul\":7408:7413   */\n          dup2\n            /* \"#utility.yul\":7376:7414   */\n          tag_58\n          jump\t// in\n        tag_154:\n            /* \"#utility.yul\":7460:7489   */\n          tag_155\n            /* \"#utility.yul\":7478:7488   */\n          dup5\n            /* \"#utility.yul\":7460:7489   */\n          tag_59\n          jump\t// in\n        tag_155:\n            /* \"#utility.yul\":7450:7458   */\n          dup2\n            /* \"#utility.yul\":7446:7490   */\n          add\n            /* \"#utility.yul\":7643:7645   */\n          0x20\n            /* \"#utility.yul\":7631:7641   */\n          dup6\n            /* \"#utility.yul\":7628:7646   */\n          lt\n            /* \"#utility.yul\":7625:7674   */\n          iszero\n          tag_156\n          jumpi\n            /* \"#utility.yul\":7664:7672   */\n          dup2\n            /* \"#utility.yul\":7649:7672   */\n          swap1\n          pop\n            /* \"#utility.yul\":7625:7674   */\n        tag_156:\n            /* \"#utility.yul\":7687:7767   */\n          tag_157\n            /* \"#utility.yul\":7743:7765   */\n          tag_158\n            /* \"#utility.yul\":7761:7764   */\n          dup6\n            /* \"#utility.yul\":7743:7765   */\n          tag_59\n          jump\t// in\n        tag_158:\n            /* \"#utility.yul\":7733:7741   */\n          dup4\n            /* \"#utility.yul\":7729:7766   */\n          add\n            /* \"#utility.yul\":7716:7727   */\n          dup3\n            /* \"#utility.yul\":7687:7767   */\n          tag_68\n          jump\t// in\n        tag_157:\n            /* \"#utility.yul\":7346:7777   */\n          pop\n          pop\n            /* \"#utility.yul\":7331:7777   */\n        tag_153:\n            /* \"#utility.yul\":7241:7784   */\n          pop\n          pop\n          pop\n          jump\t// out\n            /* \"#utility.yul\":7790:7907   */\n        tag_70:\n            /* \"#utility.yul\":7844:7852   */\n          0x00\n            /* \"#utility.yul\":7894:7899   */\n          dup3\n            /* \"#utility.yul\":7888:7892   */\n          dup3\n            /* \"#utility.yul\":7884:7900   */\n          shr\n            /* \"#utility.yul\":7863:7900   */\n          swap1\n          pop\n            /* \"#utility.yul\":7790:7907   */\n          swap3\n          swap2\n          pop\n          pop\n          jump\t// out\n            /* \"#utility.yul\":7913:8082   */\n        tag_71:\n            /* \"#utility.yul\":7957:7963   */\n          0x00\n            /* \"#utility.yul\":7990:8041   */\n          tag_161\n            /* \"#utility.yul\":8038:8039   */\n          0x00\n            /* \"#utility.yul\":8034:8040   */\n          not\n            /* \"#utility.yul\":8026:8031   */\n          dup5\n            /* \"#utility.yul\":8023:8024   */\n          0x08\n            /* \"#utility.yul\":8019:8032   */\n          mul\n            /* \"#utility.yul\":7990:8041   */\n          tag_70\n          jump\t// in\n        tag_161:\n            /* \"#utility.yul\":7986:8042   */\n          not\n            /* \"#utility.yul\":8071:8075   */\n          dup1\n            /* \"#utility.yul\":8065:8069   */\n          dup4\n            /* \"#utility.yul\":8061:8076   */\n          and\n            /* \"#utility.yul\":8051:8076   */\n          swap2\n          pop\n            /* \"#utility.yul\":7964:8082   */\n          pop\n            /* \"#utility.yul\":7913:8082   */\n          swap3\n          swap2\n          pop\n          pop\n          jump\t// out\n            /* \"#utility.yul\":8087:8382   */\n        tag_72:\n            /* \"#utility.yul\":8163:8167   */\n          0x00\n            /* \"#utility.yul\":8309:8338   */\n          tag_163\n            /* \"#utility.yul\":8334:8337   */\n          dup4\n            /* \"#utility.yul\":8328:8332   */\n          dup4\n            /* \"#utility.yul\":8309:8338   */\n          tag_71\n          jump\t// in\n        tag_163:\n            /* \"#utility.yul\":8301:8338   */\n          swap2\n          pop\n            /* \"#utility.yul\":8371:8374   */\n          dup3\n            /* \"#utility.yul\":8368:8369   */\n          0x02\n            /* \"#utility.yul\":8364:8375   */\n          mul\n            /* \"#utility.yul\":8358:8362   */\n          dup3\n            /* \"#utility.yul\":8355:8376   */\n          or\n            /* \"#utility.yul\":8347:8376   */\n          swap1\n          pop\n            /* \"#utility.yul\":8087:8382   */\n          swap3\n          swap2\n          pop\n          pop\n          jump\t// out\n            /* \"#utility.yul\":8387:9790   */\n        tag_26:\n            /* \"#utility.yul\":8511:8555   */\n          tag_165\n            /* \"#utility.yul\":8551:8554   */\n          dup4\n            /* \"#utility.yul\":8546:8549   */\n          dup4\n            /* \"#utility.yul\":8511:8555   */\n          tag_56\n          jump\t// in\n        tag_165:\n            /* \"#utility.yul\":8620:8638   */\n          0xffffffffffffffff\n            /* \"#utility.yul\":8612:8618   */\n          dup2\n            /* \"#utility.yul\":8609:8639   */\n          gt\n            /* \"#utility.yul\":8606:8662   */\n          iszero\n          tag_166\n          jumpi\n            /* \"#utility.yul\":8642:8660   */\n          tag_167\n          tag_57\n          jump\t// in\n        tag_167:\n            /* \"#utility.yul\":8606:8662   */\n        tag_166:\n            /* \"#utility.yul\":8686:8724   */\n          tag_168\n            /* \"#utility.yul\":8718:8722   */\n          dup3\n            /* \"#utility.yul\":8712:8723   */\n          sload\n            /* \"#utility.yul\":8686:8724   */\n          tag_19\n          jump\t// in\n        tag_168:\n            /* \"#utility.yul\":8771:8838   */\n          tag_169\n            /* \"#utility.yul\":8831:8837   */\n          dup3\n            /* \"#utility.yul\":8823:8829   */\n          dup3\n            /* \"#utility.yul\":8817:8821   */\n          dup6\n            /* \"#utility.yul\":8771:8838   */\n          tag_69\n          jump\t// in\n        tag_169:\n            /* \"#utility.yul\":8865:8866   */\n          0x00\n            /* \"#utility.yul\":8894:8896   */\n          0x1f\n            /* \"#utility.yul\":8886:8892   */\n          dup4\n            /* \"#utility.yul\":8883:8897   */\n          gt\n            /* \"#utility.yul\":8911:8912   */\n          0x01\n            /* \"#utility.yul\":8906:9538   */\n          dup2\n          eq\n          tag_171\n          jumpi\n            /* \"#utility.yul\":9582:9583   */\n          0x00\n            /* \"#utility.yul\":9599:9605   */\n          dup5\n            /* \"#utility.yul\":9596:9680   */\n          iszero\n          tag_172\n          jumpi\n            /* \"#utility.yul\":9655:9664   */\n          dup3\n            /* \"#utility.yul\":9650:9653   */\n          dup8\n            /* \"#utility.yul\":9646:9665   */\n          add\n            /* \"#utility.yul\":9633:9666   */\n          calldataload\n            /* \"#utility.yul\":9624:9666   */\n          swap1\n          pop\n            /* \"#utility.yul\":9596:9680   */\n        tag_172:\n            /* \"#utility.yul\":9706:9773   */\n          tag_173\n            /* \"#utility.yul\":9766:9772   */\n          dup6\n            /* \"#utility.yul\":9759:9764   */\n          dup3\n            /* \"#utility.yul\":9706:9773   */\n          tag_72\n          jump\t// in\n        tag_173:\n            /* \"#utility.yul\":9700:9704   */\n          dup7\n            /* \"#utility.yul\":9693:9774   */\n          sstore\n            /* \"#utility.yul\":9555:9784   */\n          pop\n            /* \"#utility.yul\":8876:9784   */\n          jump(tag_170)\n            /* \"#utility.yul\":8906:9538   */\n        tag_171:\n            /* \"#utility.yul\":8958:8962   */\n          0x1f\n            /* \"#utility.yul\":8954:8963   */\n          not\n            /* \"#utility.yul\":8946:8952   */\n          dup5\n            /* \"#utility.yul\":8942:8964   */\n          and\n            /* \"#utility.yul\":8992:9029   */\n          tag_174\n            /* \"#utility.yul\":9024:9028   */\n          dup7\n            /* \"#utility.yul\":8992:9029   */\n          tag_58\n          jump\t// in\n        tag_174:\n            /* \"#utility.yul\":9051:9052   */\n          0x00\n            /* \"#utility.yul\":9065:9280   */\n        tag_175:\n            /* \"#utility.yul\":9079:9086   */\n          dup3\n            /* \"#utility.yul\":9076:9077   */\n          dup2\n            /* \"#utility.yul\":9073:9087   */\n          lt\n            /* \"#utility.yul\":9065:9280   */\n          iszero\n          tag_177\n          jumpi\n            /* \"#utility.yul\":9165:9174   */\n          dup5\n            /* \"#utility.yul\":9160:9163   */\n          dup10\n            /* \"#utility.yul\":9156:9175   */\n          add\n            /* \"#utility.yul\":9143:9176   */\n          calldataload\n            /* \"#utility.yul\":9135:9141   */\n          dup3\n            /* \"#utility.yul\":9128:9177   */\n          sstore\n            /* \"#utility.yul\":9216:9217   */\n          0x01\n            /* \"#utility.yul\":9208:9214   */\n          dup3\n            /* \"#utility.yul\":9204:9218   */\n          add\n            /* \"#utility.yul\":9194:9218   */\n          swap2\n          pop\n            /* \"#utility.yul\":9263:9265   */\n          0x20\n            /* \"#utility.yul\":9252:9261   */\n          dup6\n            /* \"#utility.yul\":9248:9266   */\n          add\n            /* \"#utility.yul\":9235:9266   */\n          swap5\n          pop\n            /* \"#utility.yul\":9102:9106   */\n          0x20\n            /* \"#utility.yul\":9099:9100   */\n          dup2\n            /* \"#utility.yul\":9095:9107   */\n          add\n            /* \"#utility.yul\":9090:9107   */\n          swap1\n          pop\n            /* \"#utility.yul\":9065:9280   */\n          jump(tag_175)\n        tag_177:\n            /* \"#utility.yul\":9308:9314   */\n          dup7\n            /* \"#utility.yul\":9299:9306   */\n          dup4\n            /* \"#utility.yul\":9296:9315   */\n          lt\n            /* \"#utility.yul\":9293:9479   */\n          iszero\n          tag_178\n          jumpi\n            /* \"#utility.yul\":9373:9382   */\n          dup5\n            /* \"#utility.yul\":9368:9371   */\n          dup10\n            /* \"#utility.yul\":9364:9383   */\n          add\n            /* \"#utility.yul\":9351:9384   */\n          calldataload\n            /* \"#utility.yul\":9416:9464   */\n          tag_179\n            /* \"#utility.yul\":9458:9462   */\n          0x1f\n            /* \"#utility.yul\":9450:9456   */\n          dup10\n            /* \"#utility.yul\":9446:9463   */\n          and\n            /* \"#utility.yul\":9435:9444   */\n          dup3\n            /* \"#utility.yul\":9416:9464   */\n          tag_71\n          jump\t// in\n        tag_179:\n            /* \"#utility.yul\":9408:9414   */\n          dup4\n            /* \"#utility.yul\":9401:9465   */\n          sstore\n            /* \"#utility.yul\":9316:9479   */\n          pop\n            /* \"#utility.yul\":9293:9479   */\n        tag_178:\n            /* \"#utility.yul\":9525:9526   */\n          0x01\n            /* \"#utility.yul\":9521:9522   */\n          0x02\n            /* \"#utility.yul\":9513:9519   */\n          dup9\n            /* \"#utility.yul\":9509:9523   */\n          mul\n            /* \"#utility.yul\":9505:9527   */\n          add\n            /* \"#utility.yul\":9499:9503   */\n          dup9\n            /* \"#utility.yul\":9492:9528   */\n          sstore\n            /* \"#utility.yul\":8913:9538   */\n          pop\n          pop\n          pop\n            /* \"#utility.yul\":8876:9784   */\n        tag_170:\n          pop\n            /* \"#utility.yul\":8486:9790   */\n          pop\n          pop\n          pop\n            /* \"#utility.yul\":8387:9790   */\n          pop\n          pop\n          pop\n          jump\t// out\n\n        auxdata: 0xa264697066735822122043440c74dfba1025307ef4a4b858dbbf183e4e261abc8885149c1169e5b5353764736f6c634300081a0033\n    }\n}\n",
				"bytecode": {
					"linkReferences": {},
					"object": "6080604052604051600e906074565b604051809103905ff0801580156026573d5f803e3d5ffd5b505f806101000a81548173ffffffffffffffffffffffffffffffffffffffff021916908373ffffffffffffffffffffffffffffffffffffffff160217905550348015606f575f80fd5b506081565b6107e18061077d83390190565b6106ef8061008e5f395ff3fe608060405234801561000f575f80fd5b506004361061003f575f3560e01c8063164d7d7c146100435780635ad899a914610061578063bbe702061461007d575b5f80fd5b61004b61009d565b6040516100589190610271565b60405180910390f35b61007b6004803603810190610076919061032f565b6100c4565b005b610085610158565b6040516100949392919061043f565b60405180910390f35b5f805f9054906101000a900473ffffffffffffffffffffffffffffffffffffffff16905090565b5f8054906101000a900473ffffffffffffffffffffffffffffffffffffffff1673ffffffffffffffffffffffffffffffffffffffff1663e0be87ca86868686866040518663ffffffff1660e01b81526004016101249594939291906104bc565b5f604051808303815f87803b15801561013b575f80fd5b505af115801561014d573d5f803e3d5ffd5b505050505050505050565b6060805f805f9054906101000a900473ffffffffffffffffffffffffffffffffffffffff1673ffffffffffffffffffffffffffffffffffffffff1663fbbf93a06040518163ffffffff1660e01b81526004015f60405180830381865afa1580156101c4573d5f803e3d5ffd5b505050506040513d5f823e3d601f19601f820116820180604052508101906101ec9190610631565b925092509250909192565b5f73ffffffffffffffffffffffffffffffffffffffff82169050919050565b5f819050919050565b5f61023961023461022f846101f7565b610216565b6101f7565b9050919050565b5f61024a8261021f565b9050919050565b5f61025b82610240565b9050919050565b61026b81610251565b82525050565b5f6020820190506102845f830184610262565b92915050565b5f604051905090565b5f80fd5b5f80fd5b5f80fd5b5f80fd5b5f80fd5b5f8083601f8401126102bc576102bb61029b565b5b8235905067ffffffffffffffff8111156102d9576102d861029f565b5b6020830191508360018202830111156102f5576102f46102a3565b5b9250929050565b5f819050919050565b61030e816102fc565b8114610318575f80fd5b50565b5f8135905061032981610305565b92915050565b5f805f805f6060868803121561034857610347610293565b5b5f86013567ffffffffffffffff81111561036557610364610297565b5b610371888289016102a7565b9550955050602086013567ffffffffffffffff81111561039457610393610297565b5b6103a0888289016102a7565b935093505060406103b38882890161031b565b9150509295509295909350565b5f81519050919050565b5f82825260208201905092915050565b8281835e5f83830152505050565b5f601f19601f8301169050919050565b5f610402826103c0565b61040c81856103ca565b935061041c8185602086016103da565b610425816103e8565b840191505092915050565b610439816102fc565b82525050565b5f6060820190508181035f83015261045781866103f8565b9050818103602083015261046b81856103f8565b905061047a6040830184610430565b949350505050565b828183375f83830152505050565b5f61049b83856103ca565b93506104a8838584610482565b6104b1836103e8565b840190509392505050565b5f6060820190508181035f8301526104d5818789610490565b905081810360208301526104ea818587610490565b90506104f96040830184610430565b9695505050505050565b5f80fd5b7f4e487b71000000000000000000000000000000000000000000000000000000005f52604160045260245ffd5b61053d826103e8565b810181811067ffffffffffffffff8211171561055c5761055b610507565b5b80604052505050565b5f61056e61028a565b905061057a8282610534565b919050565b5f67ffffffffffffffff82111561059957610598610507565b5b6105a2826103e8565b9050602081019050919050565b5f6105c16105bc8461057f565b610565565b9050828152602081018484840111156105dd576105dc610503565b5b6105e88482856103da565b509392505050565b5f82601f8301126106045761060361029b565b5b81516106148482602086016105af565b91505092915050565b5f8151905061062b81610305565b92915050565b5f805f6060848603121561064857610647610293565b5b5f84015167ffffffffffffffff81111561066557610664610297565b5b610671868287016105f0565b935050602084015167ffffffffffffffff81111561069257610691610297565b5b61069e868287016105f0565b92505060406106af8682870161061d565b915050925092509256fea2646970667358221220598867d3f8e0ba8b8285de3dbde7dffd5bcf61fc6d8bcf9bda120e019114f70864736f6c634300081a00336080604052348015600e575f80fd5b506107c58061001c5f395ff3fe608060405234801561000f575f80fd5b506004361061003f575f3560e01c806306fdde0314610043578063e0be87ca14610061578063fbbf93a01461007d575b5f80fd5b61004b61009d565b60405161005891906102f2565b60405180910390f35b61007b600480360381019061007691906103ae565b610128565b005b610085610159565b6040516100949392919061044e565b60405180910390f35b5f80546100a9906104be565b80601f01602080910402602001604051908101604052809291908181526020018280546100d5906104be565b80156101205780601f106100f757610100808354040283529160200191610120565b820191905f5260205f20905b81548152906001019060200180831161010357829003601f168201915b505050505081565b84845f91826101389291906106c2565b5082826001918261014a9291906106c2565b50806002819055505050505050565b6060805f80600160025482805461016f906104be565b80601f016020809104026020016040519081016040528092919081815260200182805461019b906104be565b80156101e65780601f106101bd576101008083540402835291602001916101e6565b820191905f5260205f20905b8154815290600101906020018083116101c957829003601f168201915b505050505092508180546101f9906104be565b80601f0160208091040260200160405190810160405280929190818152602001828054610225906104be565b80156102705780601f1061024757610100808354040283529160200191610270565b820191905f5260205f20905b81548152906001019060200180831161025357829003601f168201915b50505050509150925092509250909192565b5f81519050919050565b5f82825260208201905092915050565b8281835e5f83830152505050565b5f601f19601f8301169050919050565b5f6102c482610282565b6102ce818561028c565b93506102de81856020860161029c565b6102e7816102aa565b840191505092915050565b5f6020820190508181035f83015261030a81846102ba565b905092915050565b5f80fd5b5f80fd5b5f80fd5b5f80fd5b5f80fd5b5f8083601f84011261033b5761033a61031a565b5b8235905067ffffffffffffffff8111156103585761035761031e565b5b60208301915083600182028301111561037457610373610322565b5b9250929050565b5f819050919050565b61038d8161037b565b8114610397575f80fd5b50565b5f813590506103a881610384565b92915050565b5f805f805f606086880312156103c7576103c6610312565b5b5f86013567ffffffffffffffff8111156103e4576103e3610316565b5b6103f088828901610326565b9550955050602086013567ffffffffffffffff81111561041357610412610316565b5b61041f88828901610326565b935093505060406104328882890161039a565b9150509295509295909350565b6104488161037b565b82525050565b5f6060820190508181035f83015261046681866102ba565b9050818103602083015261047a81856102ba565b9050610489604083018461043f565b949350505050565b7f4e487b71000000000000000000000000000000000000000000000000000000005f52602260045260245ffd5b5f60028204905060018216806104d557607f821691505b6020821081036104e8576104e7610491565b5b50919050565b5f82905092915050565b7f4e487b71000000000000000000000000000000000000000000000000000000005f52604160045260245ffd5b5f819050815f5260205f209050919050565b5f6020601f8301049050919050565b5f82821b905092915050565b5f600883026105817fffffffffffffffffffffffffffffffffffffffffffffffffffffffffffffffff82610546565b61058b8683610546565b95508019841693508086168417925050509392505050565b5f819050919050565b5f6105c66105c16105bc8461037b565b6105a3565b61037b565b9050919050565b5f819050919050565b6105df836105ac565b6105f36105eb826105cd565b848454610552565b825550505050565b5f90565b6106076105fb565b6106128184846105d6565b505050565b5b818110156106355761062a5f826105ff565b600181019050610618565b5050565b601f82111561067a5761064b81610525565b61065484610537565b81016020851015610663578190505b61067761066f85610537565b830182610617565b50505b505050565b5f82821c905092915050565b5f61069a5f198460080261067f565b1980831691505092915050565b5f6106b2838361068b565b9150826002028217905092915050565b6106cc83836104ee565b67ffffffffffffffff8111156106e5576106e46104f8565b5b6106ef82546104be565b6106fa828285610639565b5f601f831160018114610727575f8415610715578287013590505b61071f85826106a7565b865550610786565b601f19841661073586610525565b5f5b8281101561075c57848901358255600182019150602085019450602081019050610737565b868310156107795784890135610775601f89168261068b565b8355505b6001600288020188555050505b5050505050505056fea264697066735822122043440c74dfba1025307ef4a4b858dbbf183e4e261abc8885149c1169e5b5353764736f6c634300081a0033",
					"opcodes": "PUSH1 0x80 PUSH1 0x40 MSTORE PUSH1 0x40 MLOAD PUSH1 0xE SWAP1 PUSH1 0x74 JUMP JUMPDEST PUSH1 0x40 MLOAD DUP1 SWAP2 SUB SWAP1 PUSH0 CREATE DUP1 ISZERO DUP1 ISZERO PUSH1 0x26 JUMPI RETURNDATASIZE PUSH0 DUP1 RETURNDATACOPY RETURNDATASIZE PUSH0 REVERT JUMPDEST POP PUSH0 DUP1 PUSH2 0x100 EXP DUP2 SLOAD DUP2 PUSH20 0xFFFFFFFFFFFFFFFFFFFFFFFFFFFFFFFFFFFFFFFF MUL NOT AND SWAP1 DUP4 PUSH20 0xFFFFFFFFFFFFFFFFFFFFFFFFFFFFFFFFFFFFFFFF AND MUL OR SWAP1 SSTORE POP CALLVALUE DUP1 ISZERO PUSH1 0x6F JUMPI PUSH0 DUP1 REVERT JUMPDEST POP PUSH1 0x81 JUMP JUMPDEST PUSH2 0x7E1 DUP1 PUSH2 0x77D DUP4 CODECOPY ADD SWAP1 JUMP JUMPDEST PUSH2 0x6EF DUP1 PUSH2 0x8E PUSH0 CODECOPY PUSH0 RETURN INVALID PUSH1 0x80 PUSH1 0x40 MSTORE CALLVALUE DUP1 ISZERO PUSH2 0xF JUMPI PUSH0 DUP1 REVERT JUMPDEST POP PUSH1 0x4 CALLDATASIZE LT PUSH2 0x3F JUMPI PUSH0 CALLDATALOAD PUSH1 0xE0 SHR DUP1 PUSH4 0x164D7D7C EQ PUSH2 0x43 JUMPI DUP1 PUSH4 0x5AD899A9 EQ PUSH2 0x61 JUMPI DUP1 PUSH4 0xBBE70206 EQ PUSH2 0x7D JUMPI JUMPDEST PUSH0 DUP1 REVERT JUMPDEST PUSH2 0x4B PUSH2 0x9D JUMP JUMPDEST PUSH1 0x40 MLOAD PUSH2 0x58 SWAP2 SWAP1 PUSH2 0x271 JUMP JUMPDEST PUSH1 0x40 MLOAD DUP1 SWAP2 SUB SWAP1 RETURN JUMPDEST PUSH2 0x7B PUSH1 0x4 DUP1 CALLDATASIZE SUB DUP2 ADD SWAP1 PUSH2 0x76 SWAP2 SWAP1 PUSH2 0x32F JUMP JUMPDEST PUSH2 0xC4 JUMP JUMPDEST STOP JUMPDEST PUSH2 0x85 PUSH2 0x158 JUMP JUMPDEST PUSH1 0x40 MLOAD PUSH2 0x94 SWAP4 SWAP3 SWAP2 SWAP1 PUSH2 0x43F JUMP JUMPDEST PUSH1 0x40 MLOAD DUP1 SWAP2 SUB SWAP1 RETURN JUMPDEST PUSH0 DUP1 PUSH0 SWAP1 SLOAD SWAP1 PUSH2 0x100 EXP SWAP1 DIV PUSH20 0xFFFFFFFFFFFFFFFFFFFFFFFFFFFFFFFFFFFFFFFF AND SWAP1 POP SWAP1 JUMP JUMPDEST PUSH0 DUP1 SLOAD SWAP1 PUSH2 0x100 EXP SWAP1 DIV PUSH20 0xFFFFFFFFFFFFFFFFFFFFFFFFFFFFFFFFFFFFFFFF AND PUSH20 0xFFFFFFFFFFFFFFFFFFFFFFFFFFFFFFFFFFFFFFFF AND PUSH4 0xE0BE87CA DUP7 DUP7 DUP7 DUP7 DUP7 PUSH1 0x40 MLOAD DUP7 PUSH4 0xFFFFFFFF AND PUSH1 0xE0 SHL DUP2 MSTORE PUSH1 0x4 ADD PUSH2 0x124 SWAP6 SWAP5 SWAP4 SWAP3 SWAP2 SWAP1 PUSH2 0x4BC JUMP JUMPDEST PUSH0 PUSH1 0x40 MLOAD DUP1 DUP4 SUB DUP2 PUSH0 DUP8 DUP1 EXTCODESIZE ISZERO DUP1 ISZERO PUSH2 0x13B JUMPI PUSH0 DUP1 REVERT JUMPDEST POP GAS CALL ISZERO DUP1 ISZERO PUSH2 0x14D JUMPI RETURNDATASIZE PUSH0 DUP1 RETURNDATACOPY RETURNDATASIZE PUSH0 REVERT JUMPDEST POP POP POP POP POP POP POP POP POP JUMP JUMPDEST PUSH1 0x60 DUP1 PUSH0 DUP1 PUSH0 SWAP1 SLOAD SWAP1 PUSH2 0x100 EXP SWAP1 DIV PUSH20 0xFFFFFFFFFFFFFFFFFFFFFFFFFFFFFFFFFFFFFFFF AND PUSH20 0xFFFFFFFFFFFFFFFFFFFFFFFFFFFFFFFFFFFFFFFF AND PUSH4 0xFBBF93A0 PUSH1 0x40 MLOAD DUP2 PUSH4 0xFFFFFFFF AND PUSH1 0xE0 SHL DUP2 MSTORE PUSH1 0x4 ADD PUSH0 PUSH1 0x40 MLOAD DUP1 DUP4 SUB DUP2 DUP7 GAS STATICCALL ISZERO DUP1 ISZERO PUSH2 0x1C4 JUMPI RETURNDATASIZE PUSH0 DUP1 RETURNDATACOPY RETURNDATASIZE PUSH0 REVERT JUMPDEST POP POP POP POP PUSH1 0x40 MLOAD RETURNDATASIZE PUSH0 DUP3 RETURNDATACOPY RETURNDATASIZE PUSH1 0x1F NOT PUSH1 0x1F DUP3 ADD AND DUP3 ADD DUP1 PUSH1 0x40 MSTORE POP DUP2 ADD SWAP1 PUSH2 0x1EC SWAP2 SWAP1 PUSH2 0x631 JUMP JUMPDEST SWAP3 POP SWAP3 POP SWAP3 POP SWAP1 SWAP2 SWAP3 JUMP JUMPDEST PUSH0 PUSH20 0xFFFFFFFFFFFFFFFFFFFFFFFFFFFFFFFFFFFFFFFF DUP3 AND SWAP1 POP SWAP2 SWAP1 POP JUMP JUMPDEST PUSH0 DUP2 SWAP1 POP SWAP2 SWAP1 POP JUMP JUMPDEST PUSH0 PUSH2 0x239 PUSH2 0x234 PUSH2 0x22F DUP5 PUSH2 0x1F7 JUMP JUMPDEST PUSH2 0x216 JUMP JUMPDEST PUSH2 0x1F7 JUMP JUMPDEST SWAP1 POP SWAP2 SWAP1 POP JUMP JUMPDEST PUSH0 PUSH2 0x24A DUP3 PUSH2 0x21F JUMP JUMPDEST SWAP1 POP SWAP2 SWAP1 POP JUMP JUMPDEST PUSH0 PUSH2 0x25B DUP3 PUSH2 0x240 JUMP JUMPDEST SWAP1 POP SWAP2 SWAP1 POP JUMP JUMPDEST PUSH2 0x26B DUP2 PUSH2 0x251 JUMP JUMPDEST DUP3 MSTORE POP POP JUMP JUMPDEST PUSH0 PUSH1 0x20 DUP3 ADD SWAP1 POP PUSH2 0x284 PUSH0 DUP4 ADD DUP5 PUSH2 0x262 JUMP JUMPDEST SWAP3 SWAP2 POP POP JUMP JUMPDEST PUSH0 PUSH1 0x40 MLOAD SWAP1 POP SWAP1 JUMP JUMPDEST PUSH0 DUP1 REVERT JUMPDEST PUSH0 DUP1 REVERT JUMPDEST PUSH0 DUP1 REVERT JUMPDEST PUSH0 DUP1 REVERT JUMPDEST PUSH0 DUP1 REVERT JUMPDEST PUSH0 DUP1 DUP4 PUSH1 0x1F DUP5 ADD SLT PUSH2 0x2BC JUMPI PUSH2 0x2BB PUSH2 0x29B JUMP JUMPDEST JUMPDEST DUP3 CALLDATALOAD SWAP1 POP PUSH8 0xFFFFFFFFFFFFFFFF DUP2 GT ISZERO PUSH2 0x2D9 JUMPI PUSH2 0x2D8 PUSH2 0x29F JUMP JUMPDEST JUMPDEST PUSH1 0x20 DUP4 ADD SWAP2 POP DUP4 PUSH1 0x1 DUP3 MUL DUP4 ADD GT ISZERO PUSH2 0x2F5 JUMPI PUSH2 0x2F4 PUSH2 0x2A3 JUMP JUMPDEST JUMPDEST SWAP3 POP SWAP3 SWAP1 POP JUMP JUMPDEST PUSH0 DUP2 SWAP1 POP SWAP2 SWAP1 POP JUMP JUMPDEST PUSH2 0x30E DUP2 PUSH2 0x2FC JUMP JUMPDEST DUP2 EQ PUSH2 0x318 JUMPI PUSH0 DUP1 REVERT JUMPDEST POP JUMP JUMPDEST PUSH0 DUP2 CALLDATALOAD SWAP1 POP PUSH2 0x329 DUP2 PUSH2 0x305 JUMP JUMPDEST SWAP3 SWAP2 POP POP JUMP JUMPDEST PUSH0 DUP1 PUSH0 DUP1 PUSH0 PUSH1 0x60 DUP7 DUP9 SUB SLT ISZERO PUSH2 0x348 JUMPI PUSH2 0x347 PUSH2 0x293 JUMP JUMPDEST JUMPDEST PUSH0 DUP7 ADD CALLDATALOAD PUSH8 0xFFFFFFFFFFFFFFFF DUP2 GT ISZERO PUSH2 0x365 JUMPI PUSH2 0x364 PUSH2 0x297 JUMP JUMPDEST JUMPDEST PUSH2 0x371 DUP9 DUP3 DUP10 ADD PUSH2 0x2A7 JUMP JUMPDEST SWAP6 POP SWAP6 POP POP PUSH1 0x20 DUP7 ADD CALLDATALOAD PUSH8 0xFFFFFFFFFFFFFFFF DUP2 GT ISZERO PUSH2 0x394 JUMPI PUSH2 0x393 PUSH2 0x297 JUMP JUMPDEST JUMPDEST PUSH2 0x3A0 DUP9 DUP3 DUP10 ADD PUSH2 0x2A7 JUMP JUMPDEST SWAP4 POP SWAP4 POP POP PUSH1 0x40 PUSH2 0x3B3 DUP9 DUP3 DUP10 ADD PUSH2 0x31B JUMP JUMPDEST SWAP2 POP POP SWAP3 SWAP6 POP SWAP3 SWAP6 SWAP1 SWAP4 POP JUMP JUMPDEST PUSH0 DUP2 MLOAD SWAP1 POP SWAP2 SWAP1 POP JUMP JUMPDEST PUSH0 DUP3 DUP3 MSTORE PUSH1 0x20 DUP3 ADD SWAP1 POP SWAP3 SWAP2 POP POP JUMP JUMPDEST DUP3 DUP2 DUP4 MCOPY PUSH0 DUP4 DUP4 ADD MSTORE POP POP POP JUMP JUMPDEST PUSH0 PUSH1 0x1F NOT PUSH1 0x1F DUP4 ADD AND SWAP1 POP SWAP2 SWAP1 POP JUMP JUMPDEST PUSH0 PUSH2 0x402 DUP3 PUSH2 0x3C0 JUMP JUMPDEST PUSH2 0x40C DUP2 DUP6 PUSH2 0x3CA JUMP JUMPDEST SWAP4 POP PUSH2 0x41C DUP2 DUP6 PUSH1 0x20 DUP7 ADD PUSH2 0x3DA JUMP JUMPDEST PUSH2 0x425 DUP2 PUSH2 0x3E8 JUMP JUMPDEST DUP5 ADD SWAP2 POP POP SWAP3 SWAP2 POP POP JUMP JUMPDEST PUSH2 0x439 DUP2 PUSH2 0x2FC JUMP JUMPDEST DUP3 MSTORE POP POP JUMP JUMPDEST PUSH0 PUSH1 0x60 DUP3 ADD SWAP1 POP DUP2 DUP2 SUB PUSH0 DUP4 ADD MSTORE PUSH2 0x457 DUP2 DUP7 PUSH2 0x3F8 JUMP JUMPDEST SWAP1 POP DUP2 DUP2 SUB PUSH1 0x20 DUP4 ADD MSTORE PUSH2 0x46B DUP2 DUP6 PUSH2 0x3F8 JUMP JUMPDEST SWAP1 POP PUSH2 0x47A PUSH1 0x40 DUP4 ADD DUP5 PUSH2 0x430 JUMP JUMPDEST SWAP5 SWAP4 POP POP POP POP JUMP JUMPDEST DUP3 DUP2 DUP4 CALLDATACOPY PUSH0 DUP4 DUP4 ADD MSTORE POP POP POP JUMP JUMPDEST PUSH0 PUSH2 0x49B DUP4 DUP6 PUSH2 0x3CA JUMP JUMPDEST SWAP4 POP PUSH2 0x4A8 DUP4 DUP6 DUP5 PUSH2 0x482 JUMP JUMPDEST PUSH2 0x4B1 DUP4 PUSH2 0x3E8 JUMP JUMPDEST DUP5 ADD SWAP1 POP SWAP4 SWAP3 POP POP POP JUMP JUMPDEST PUSH0 PUSH1 0x60 DUP3 ADD SWAP1 POP DUP2 DUP2 SUB PUSH0 DUP4 ADD MSTORE PUSH2 0x4D5 DUP2 DUP8 DUP10 PUSH2 0x490 JUMP JUMPDEST SWAP1 POP DUP2 DUP2 SUB PUSH1 0x20 DUP4 ADD MSTORE PUSH2 0x4EA DUP2 DUP6 DUP8 PUSH2 0x490 JUMP JUMPDEST SWAP1 POP PUSH2 0x4F9 PUSH1 0x40 DUP4 ADD DUP5 PUSH2 0x430 JUMP JUMPDEST SWAP7 SWAP6 POP POP POP POP POP POP JUMP JUMPDEST PUSH0 DUP1 REVERT JUMPDEST PUSH32 0x4E487B7100000000000000000000000000000000000000000000000000000000 PUSH0 MSTORE PUSH1 0x41 PUSH1 0x4 MSTORE PUSH1 0x24 PUSH0 REVERT JUMPDEST PUSH2 0x53D DUP3 PUSH2 0x3E8 JUMP JUMPDEST DUP2 ADD DUP2 DUP2 LT PUSH8 0xFFFFFFFFFFFFFFFF DUP3 GT OR ISZERO PUSH2 0x55C JUMPI PUSH2 0x55B PUSH2 0x507 JUMP JUMPDEST JUMPDEST DUP1 PUSH1 0x40 MSTORE POP POP POP JUMP JUMPDEST PUSH0 PUSH2 0x56E PUSH2 0x28A JUMP JUMPDEST SWAP1 POP PUSH2 0x57A DUP3 DUP3 PUSH2 0x534 JUMP JUMPDEST SWAP2 SWAP1 POP JUMP JUMPDEST PUSH0 PUSH8 0xFFFFFFFFFFFFFFFF DUP3 GT ISZERO PUSH2 0x599 JUMPI PUSH2 0x598 PUSH2 0x507 JUMP JUMPDEST JUMPDEST PUSH2 0x5A2 DUP3 PUSH2 0x3E8 JUMP JUMPDEST SWAP1 POP PUSH1 0x20 DUP2 ADD SWAP1 POP SWAP2 SWAP1 POP JUMP JUMPDEST PUSH0 PUSH2 0x5C1 PUSH2 0x5BC DUP5 PUSH2 0x57F JUMP JUMPDEST PUSH2 0x565 JUMP JUMPDEST SWAP1 POP DUP3 DUP2 MSTORE PUSH1 0x20 DUP2 ADD DUP5 DUP5 DUP5 ADD GT ISZERO PUSH2 0x5DD JUMPI PUSH2 0x5DC PUSH2 0x503 JUMP JUMPDEST JUMPDEST PUSH2 0x5E8 DUP5 DUP3 DUP6 PUSH2 0x3DA JUMP JUMPDEST POP SWAP4 SWAP3 POP POP POP JUMP JUMPDEST PUSH0 DUP3 PUSH1 0x1F DUP4 ADD SLT PUSH2 0x604 JUMPI PUSH2 0x603 PUSH2 0x29B JUMP JUMPDEST JUMPDEST DUP2 MLOAD PUSH2 0x614 DUP5 DUP3 PUSH1 0x20 DUP7 ADD PUSH2 0x5AF JUMP JUMPDEST SWAP2 POP POP SWAP3 SWAP2 POP POP JUMP JUMPDEST PUSH0 DUP2 MLOAD SWAP1 POP PUSH2 0x62B DUP2 PUSH2 0x305 JUMP JUMPDEST SWAP3 SWAP2 POP POP JUMP JUMPDEST PUSH0 DUP1 PUSH0 PUSH1 0x60 DUP5 DUP7 SUB SLT ISZERO PUSH2 0x648 JUMPI PUSH2 0x647 PUSH2 0x293 JUMP JUMPDEST JUMPDEST PUSH0 DUP5 ADD MLOAD PUSH8 0xFFFFFFFFFFFFFFFF DUP2 GT ISZERO PUSH2 0x665 JUMPI PUSH2 0x664 PUSH2 0x297 JUMP JUMPDEST JUMPDEST PUSH2 0x671 DUP7 DUP3 DUP8 ADD PUSH2 0x5F0 JUMP JUMPDEST SWAP4 POP POP PUSH1 0x20 DUP5 ADD MLOAD PUSH8 0xFFFFFFFFFFFFFFFF DUP2 GT ISZERO PUSH2 0x692 JUMPI PUSH2 0x691 PUSH2 0x297 JUMP JUMPDEST JUMPDEST PUSH2 0x69E DUP7 DUP3 DUP8 ADD PUSH2 0x5F0 JUMP JUMPDEST SWAP3 POP POP PUSH1 0x40 PUSH2 0x6AF DUP7 DUP3 DUP8 ADD PUSH2 0x61D JUMP JUMPDEST SWAP2 POP POP SWAP3 POP SWAP3 POP SWAP3 JUMP INVALID LOG2 PUSH5 0x6970667358 0x22 SLT KECCAK256 MSIZE DUP9 PUSH8 0xD3F8E0BA8B8285DE RETURNDATASIZE 0xBD 0xE7 0xDF REVERT JUMPDEST 0xCF PUSH2 0xFC6D DUP12 0xCF SWAP12 0xDA SLT 0xE ADD SWAP2 EQ 0xF7 ADDMOD PUSH5 0x736F6C6343 STOP ADDMOD BYTE STOP CALLER PUSH1 0x80 PUSH1 0x40 MSTORE CALLVALUE DUP1 ISZERO PUSH1 0xE JUMPI PUSH0 DUP1 REVERT JUMPDEST POP PUSH2 0x7C5 DUP1 PUSH2 0x1C PUSH0 CODECOPY PUSH0 RETURN INVALID PUSH1 0x80 PUSH1 0x40 MSTORE CALLVALUE DUP1 ISZERO PUSH2 0xF JUMPI PUSH0 DUP1 REVERT JUMPDEST POP PUSH1 0x4 CALLDATASIZE LT PUSH2 0x3F JUMPI PUSH0 CALLDATALOAD PUSH1 0xE0 SHR DUP1 PUSH4 0x6FDDE03 EQ PUSH2 0x43 JUMPI DUP1 PUSH4 0xE0BE87CA EQ PUSH2 0x61 JUMPI DUP1 PUSH4 0xFBBF93A0 EQ PUSH2 0x7D JUMPI JUMPDEST PUSH0 DUP1 REVERT JUMPDEST PUSH2 0x4B PUSH2 0x9D JUMP JUMPDEST PUSH1 0x40 MLOAD PUSH2 0x58 SWAP2 SWAP1 PUSH2 0x2F2 JUMP JUMPDEST PUSH1 0x40 MLOAD DUP1 SWAP2 SUB SWAP1 RETURN JUMPDEST PUSH2 0x7B PUSH1 0x4 DUP1 CALLDATASIZE SUB DUP2 ADD SWAP1 PUSH2 0x76 SWAP2 SWAP1 PUSH2 0x3AE JUMP JUMPDEST PUSH2 0x128 JUMP JUMPDEST STOP JUMPDEST PUSH2 0x85 PUSH2 0x159 JUMP JUMPDEST PUSH1 0x40 MLOAD PUSH2 0x94 SWAP4 SWAP3 SWAP2 SWAP1 PUSH2 0x44E JUMP JUMPDEST PUSH1 0x40 MLOAD DUP1 SWAP2 SUB SWAP1 RETURN JUMPDEST PUSH0 DUP1 SLOAD PUSH2 0xA9 SWAP1 PUSH2 0x4BE JUMP JUMPDEST DUP1 PUSH1 0x1F ADD PUSH1 0x20 DUP1 SWAP2 DIV MUL PUSH1 0x20 ADD PUSH1 0x40 MLOAD SWAP1 DUP2 ADD PUSH1 0x40 MSTORE DUP1 SWAP3 SWAP2 SWAP1 DUP2 DUP2 MSTORE PUSH1 0x20 ADD DUP3 DUP1 SLOAD PUSH2 0xD5 SWAP1 PUSH2 0x4BE JUMP JUMPDEST DUP1 ISZERO PUSH2 0x120 JUMPI DUP1 PUSH1 0x1F LT PUSH2 0xF7 JUMPI PUSH2 0x100 DUP1 DUP4 SLOAD DIV MUL DUP4 MSTORE SWAP2 PUSH1 0x20 ADD SWAP2 PUSH2 0x120 JUMP JUMPDEST DUP3 ADD SWAP2 SWAP1 PUSH0 MSTORE PUSH1 0x20 PUSH0 KECCAK256 SWAP1 JUMPDEST DUP2 SLOAD DUP2 MSTORE SWAP1 PUSH1 0x1 ADD SWAP1 PUSH1 0x20 ADD DUP1 DUP4 GT PUSH2 0x103 JUMPI DUP3 SWAP1 SUB PUSH1 0x1F AND DUP3 ADD SWAP2 JUMPDEST POP POP POP POP POP DUP2 JUMP JUMPDEST DUP5 DUP5 PUSH0 SWAP2 DUP3 PUSH2 0x138 SWAP3 SWAP2 SWAP1 PUSH2 0x6C2 JUMP JUMPDEST POP DUP3 DUP3 PUSH1 0x1 SWAP2 DUP3 PUSH2 0x14A SWAP3 SWAP2 SWAP1 PUSH2 0x6C2 JUMP JUMPDEST POP DUP1 PUSH1 0x2 DUP2 SWAP1 SSTORE POP POP POP POP POP POP JUMP JUMPDEST PUSH1 0x60 DUP1 PUSH0 DUP1 PUSH1 0x1 PUSH1 0x2 SLOAD DUP3 DUP1 SLOAD PUSH2 0x16F SWAP1 PUSH2 0x4BE JUMP JUMPDEST DUP1 PUSH1 0x1F ADD PUSH1 0x20 DUP1 SWAP2 DIV MUL PUSH1 0x20 ADD PUSH1 0x40 MLOAD SWAP1 DUP2 ADD PUSH1 0x40 MSTORE DUP1 SWAP3 SWAP2 SWAP1 DUP2 DUP2 MSTORE PUSH1 0x20 ADD DUP3 DUP1 SLOAD PUSH2 0x19B SWAP1 PUSH2 0x4BE JUMP JUMPDEST DUP1 ISZERO PUSH2 0x1E6 JUMPI DUP1 PUSH1 0x1F LT PUSH2 0x1BD JUMPI PUSH2 0x100 DUP1 DUP4 SLOAD DIV MUL DUP4 MSTORE SWAP2 PUSH1 0x20 ADD SWAP2 PUSH2 0x1E6 JUMP JUMPDEST DUP3 ADD SWAP2 SWAP1 PUSH0 MSTORE PUSH1 0x20 PUSH0 KECCAK256 SWAP1 JUMPDEST DUP2 SLOAD DUP2 MSTORE SWAP1 PUSH1 0x1 ADD SWAP1 PUSH1 0x20 ADD DUP1 DUP4 GT PUSH2 0x1C9 JUMPI DUP3 SWAP1 SUB PUSH1 0x1F AND DUP3 ADD SWAP2 JUMPDEST POP POP POP POP POP SWAP3 POP DUP2 DUP1 SLOAD PUSH2 0x1F9 SWAP1 PUSH2 0x4BE JUMP JUMPDEST DUP1 PUSH1 0x1F ADD PUSH1 0x20 DUP1 SWAP2 DIV MUL PUSH1 0x20 ADD PUSH1 0x40 MLOAD SWAP1 DUP2 ADD PUSH1 0x40 MSTORE DUP1 SWAP3 SWAP2 SWAP1 DUP2 DUP2 MSTORE PUSH1 0x20 ADD DUP3 DUP1 SLOAD PUSH2 0x225 SWAP1 PUSH2 0x4BE JUMP JUMPDEST DUP1 ISZERO PUSH2 0x270 JUMPI DUP1 PUSH1 0x1F LT PUSH2 0x247 JUMPI PUSH2 0x100 DUP1 DUP4 SLOAD DIV MUL DUP4 MSTORE SWAP2 PUSH1 0x20 ADD SWAP2 PUSH2 0x270 JUMP JUMPDEST DUP3 ADD SWAP2 SWAP1 PUSH0 MSTORE PUSH1 0x20 PUSH0 KECCAK256 SWAP1 JUMPDEST DUP2 SLOAD DUP2 MSTORE SWAP1 PUSH1 0x1 ADD SWAP1 PUSH1 0x20 ADD DUP1 DUP4 GT PUSH2 0x253 JUMPI DUP3 SWAP1 SUB PUSH1 0x1F AND DUP3 ADD SWAP2 JUMPDEST POP POP POP POP POP SWAP2 POP SWAP3 POP SWAP3 POP SWAP3 POP SWAP1 SWAP2 SWAP3 JUMP JUMPDEST PUSH0 DUP2 MLOAD SWAP1 POP SWAP2 SWAP1 POP JUMP JUMPDEST PUSH0 DUP3 DUP3 MSTORE PUSH1 0x20 DUP3 ADD SWAP1 POP SWAP3 SWAP2 POP POP JUMP JUMPDEST DUP3 DUP2 DUP4 MCOPY PUSH0 DUP4 DUP4 ADD MSTORE POP POP POP JUMP JUMPDEST PUSH0 PUSH1 0x1F NOT PUSH1 0x1F DUP4 ADD AND SWAP1 POP SWAP2 SWAP1 POP JUMP JUMPDEST PUSH0 PUSH2 0x2C4 DUP3 PUSH2 0x282 JUMP JUMPDEST PUSH2 0x2CE DUP2 DUP6 PUSH2 0x28C JUMP JUMPDEST SWAP4 POP PUSH2 0x2DE DUP2 DUP6 PUSH1 0x20 DUP7 ADD PUSH2 0x29C JUMP JUMPDEST PUSH2 0x2E7 DUP2 PUSH2 0x2AA JUMP JUMPDEST DUP5 ADD SWAP2 POP POP SWAP3 SWAP2 POP POP JUMP JUMPDEST PUSH0 PUSH1 0x20 DUP3 ADD SWAP1 POP DUP2 DUP2 SUB PUSH0 DUP4 ADD MSTORE PUSH2 0x30A DUP2 DUP5 PUSH2 0x2BA JUMP JUMPDEST SWAP1 POP SWAP3 SWAP2 POP POP JUMP JUMPDEST PUSH0 DUP1 REVERT JUMPDEST PUSH0 DUP1 REVERT JUMPDEST PUSH0 DUP1 REVERT JUMPDEST PUSH0 DUP1 REVERT JUMPDEST PUSH0 DUP1 REVERT JUMPDEST PUSH0 DUP1 DUP4 PUSH1 0x1F DUP5 ADD SLT PUSH2 0x33B JUMPI PUSH2 0x33A PUSH2 0x31A JUMP JUMPDEST JUMPDEST DUP3 CALLDATALOAD SWAP1 POP PUSH8 0xFFFFFFFFFFFFFFFF DUP2 GT ISZERO PUSH2 0x358 JUMPI PUSH2 0x357 PUSH2 0x31E JUMP JUMPDEST JUMPDEST PUSH1 0x20 DUP4 ADD SWAP2 POP DUP4 PUSH1 0x1 DUP3 MUL DUP4 ADD GT ISZERO PUSH2 0x374 JUMPI PUSH2 0x373 PUSH2 0x322 JUMP JUMPDEST JUMPDEST SWAP3 POP SWAP3 SWAP1 POP JUMP JUMPDEST PUSH0 DUP2 SWAP1 POP SWAP2 SWAP1 POP JUMP JUMPDEST PUSH2 0x38D DUP2 PUSH2 0x37B JUMP JUMPDEST DUP2 EQ PUSH2 0x397 JUMPI PUSH0 DUP1 REVERT JUMPDEST POP JUMP JUMPDEST PUSH0 DUP2 CALLDATALOAD SWAP1 POP PUSH2 0x3A8 DUP2 PUSH2 0x384 JUMP JUMPDEST SWAP3 SWAP2 POP POP JUMP JUMPDEST PUSH0 DUP1 PUSH0 DUP1 PUSH0 PUSH1 0x60 DUP7 DUP9 SUB SLT ISZERO PUSH2 0x3C7 JUMPI PUSH2 0x3C6 PUSH2 0x312 JUMP JUMPDEST JUMPDEST PUSH0 DUP7 ADD CALLDATALOAD PUSH8 0xFFFFFFFFFFFFFFFF DUP2 GT ISZERO PUSH2 0x3E4 JUMPI PUSH2 0x3E3 PUSH2 0x316 JUMP JUMPDEST JUMPDEST PUSH2 0x3F0 DUP9 DUP3 DUP10 ADD PUSH2 0x326 JUMP JUMPDEST SWAP6 POP SWAP6 POP POP PUSH1 0x20 DUP7 ADD CALLDATALOAD PUSH8 0xFFFFFFFFFFFFFFFF DUP2 GT ISZERO PUSH2 0x413 JUMPI PUSH2 0x412 PUSH2 0x316 JUMP JUMPDEST JUMPDEST PUSH2 0x41F DUP9 DUP3 DUP10 ADD PUSH2 0x326 JUMP JUMPDEST SWAP4 POP SWAP4 POP POP PUSH1 0x40 PUSH2 0x432 DUP9 DUP3 DUP10 ADD PUSH2 0x39A JUMP JUMPDEST SWAP2 POP POP SWAP3 SWAP6 POP SWAP3 SWAP6 SWAP1 SWAP4 POP JUMP JUMPDEST PUSH2 0x448 DUP2 PUSH2 0x37B JUMP JUMPDEST DUP3 MSTORE POP POP JUMP JUMPDEST PUSH0 PUSH1 0x60 DUP3 ADD SWAP1 POP DUP2 DUP2 SUB PUSH0 DUP4 ADD MSTORE PUSH2 0x466 DUP2 DUP7 PUSH2 0x2BA JUMP JUMPDEST SWAP1 POP DUP2 DUP2 SUB PUSH1 0x20 DUP4 ADD MSTORE PUSH2 0x47A DUP2 DUP6 PUSH2 0x2BA JUMP JUMPDEST SWAP1 POP PUSH2 0x489 PUSH1 0x40 DUP4 ADD DUP5 PUSH2 0x43F JUMP JUMPDEST SWAP5 SWAP4 POP POP POP POP JUMP JUMPDEST PUSH32 0x4E487B7100000000000000000000000000000000000000000000000000000000 PUSH0 MSTORE PUSH1 0x22 PUSH1 0x4 MSTORE PUSH1 0x24 PUSH0 REVERT JUMPDEST PUSH0 PUSH1 0x2 DUP3 DIV SWAP1 POP PUSH1 0x1 DUP3 AND DUP1 PUSH2 0x4D5 JUMPI PUSH1 0x7F DUP3 AND SWAP2 POP JUMPDEST PUSH1 0x20 DUP3 LT DUP2 SUB PUSH2 0x4E8 JUMPI PUSH2 0x4E7 PUSH2 0x491 JUMP JUMPDEST JUMPDEST POP SWAP2 SWAP1 POP JUMP JUMPDEST PUSH0 DUP3 SWAP1 POP SWAP3 SWAP2 POP POP JUMP JUMPDEST PUSH32 0x4E487B7100000000000000000000000000000000000000000000000000000000 PUSH0 MSTORE PUSH1 0x41 PUSH1 0x4 MSTORE PUSH1 0x24 PUSH0 REVERT JUMPDEST PUSH0 DUP2 SWAP1 POP DUP2 PUSH0 MSTORE PUSH1 0x20 PUSH0 KECCAK256 SWAP1 POP SWAP2 SWAP1 POP JUMP JUMPDEST PUSH0 PUSH1 0x20 PUSH1 0x1F DUP4 ADD DIV SWAP1 POP SWAP2 SWAP1 POP JUMP JUMPDEST PUSH0 DUP3 DUP3 SHL SWAP1 POP SWAP3 SWAP2 POP POP JUMP JUMPDEST PUSH0 PUSH1 0x8 DUP4 MUL PUSH2 0x581 PUSH32 0xFFFFFFFFFFFFFFFFFFFFFFFFFFFFFFFFFFFFFFFFFFFFFFFFFFFFFFFFFFFFFFFF DUP3 PUSH2 0x546 JUMP JUMPDEST PUSH2 0x58B DUP7 DUP4 PUSH2 0x546 JUMP JUMPDEST SWAP6 POP DUP1 NOT DUP5 AND SWAP4 POP DUP1 DUP7 AND DUP5 OR SWAP3 POP POP POP SWAP4 SWAP3 POP POP POP JUMP JUMPDEST PUSH0 DUP2 SWAP1 POP SWAP2 SWAP1 POP JUMP JUMPDEST PUSH0 PUSH2 0x5C6 PUSH2 0x5C1 PUSH2 0x5BC DUP5 PUSH2 0x37B JUMP JUMPDEST PUSH2 0x5A3 JUMP JUMPDEST PUSH2 0x37B JUMP JUMPDEST SWAP1 POP SWAP2 SWAP1 POP JUMP JUMPDEST PUSH0 DUP2 SWAP1 POP SWAP2 SWAP1 POP JUMP JUMPDEST PUSH2 0x5DF DUP4 PUSH2 0x5AC JUMP JUMPDEST PUSH2 0x5F3 PUSH2 0x5EB DUP3 PUSH2 0x5CD JUMP JUMPDEST DUP5 DUP5 SLOAD PUSH2 0x552 JUMP JUMPDEST DUP3 SSTORE POP POP POP POP JUMP JUMPDEST PUSH0 SWAP1 JUMP JUMPDEST PUSH2 0x607 PUSH2 0x5FB JUMP JUMPDEST PUSH2 0x612 DUP2 DUP5 DUP5 PUSH2 0x5D6 JUMP JUMPDEST POP POP POP JUMP JUMPDEST JUMPDEST DUP2 DUP2 LT ISZERO PUSH2 0x635 JUMPI PUSH2 0x62A PUSH0 DUP3 PUSH2 0x5FF JUMP JUMPDEST PUSH1 0x1 DUP2 ADD SWAP1 POP PUSH2 0x618 JUMP JUMPDEST POP POP JUMP JUMPDEST PUSH1 0x1F DUP3 GT ISZERO PUSH2 0x67A JUMPI PUSH2 0x64B DUP2 PUSH2 0x525 JUMP JUMPDEST PUSH2 0x654 DUP5 PUSH2 0x537 JUMP JUMPDEST DUP2 ADD PUSH1 0x20 DUP6 LT ISZERO PUSH2 0x663 JUMPI DUP2 SWAP1 POP JUMPDEST PUSH2 0x677 PUSH2 0x66F DUP6 PUSH2 0x537 JUMP JUMPDEST DUP4 ADD DUP3 PUSH2 0x617 JUMP JUMPDEST POP POP JUMPDEST POP POP POP JUMP JUMPDEST PUSH0 DUP3 DUP3 SHR SWAP1 POP SWAP3 SWAP2 POP POP JUMP JUMPDEST PUSH0 PUSH2 0x69A PUSH0 NOT DUP5 PUSH1 0x8 MUL PUSH2 0x67F JUMP JUMPDEST NOT DUP1 DUP4 AND SWAP2 POP POP SWAP3 SWAP2 POP POP JUMP JUMPDEST PUSH0 PUSH2 0x6B2 DUP4 DUP4 PUSH2 0x68B JUMP JUMPDEST SWAP2 POP DUP3 PUSH1 0x2 MUL DUP3 OR SWAP1 POP SWAP3 SWAP2 POP POP JUMP JUMPDEST PUSH2 0x6CC DUP4 DUP4 PUSH2 0x4EE JUMP JUMPDEST PUSH8 0xFFFFFFFFFFFFFFFF DUP2 GT ISZERO PUSH2 0x6E5 JUMPI PUSH2 0x6E4 PUSH2 0x4F8 JUMP JUMPDEST JUMPDEST PUSH2 0x6EF DUP3 SLOAD PUSH2 0x4BE JUMP JUMPDEST PUSH2 0x6FA DUP3 DUP3 DUP6 PUSH2 0x639 JUMP JUMPDEST PUSH0 PUSH1 0x1F DUP4 GT PUSH1 0x1 DUP2 EQ PUSH2 0x727 JUMPI PUSH0 DUP5 ISZERO PUSH2 0x715 JUMPI DUP3 DUP8 ADD CALLDATALOAD SWAP1 POP JUMPDEST PUSH2 0x71F DUP6 DUP3 PUSH2 0x6A7 JUMP JUMPDEST DUP7 SSTORE POP PUSH2 0x786 JUMP JUMPDEST PUSH1 0x1F NOT DUP5 AND PUSH2 0x735 DUP7 PUSH2 0x525 JUMP JUMPDEST PUSH0 JUMPDEST DUP3 DUP2 LT ISZERO PUSH2 0x75C JUMPI DUP5 DUP10 ADD CALLDATALOAD DUP3 SSTORE PUSH1 0x1 DUP3 ADD SWAP2 POP PUSH1 0x20 DUP6 ADD SWAP5 POP PUSH1 0x20 DUP2 ADD SWAP1 POP PUSH2 0x737 JUMP JUMPDEST DUP7 DUP4 LT ISZERO PUSH2 0x779 JUMPI DUP5 DUP10 ADD CALLDATALOAD PUSH2 0x775 PUSH1 0x1F DUP10 AND DUP3 PUSH2 0x68B JUMP JUMPDEST DUP4 SSTORE POP JUMPDEST PUSH1 0x1 PUSH1 0x2 DUP9 MUL ADD DUP9 SSTORE POP POP POP JUMPDEST POP POP POP POP POP POP POP JUMP INVALID LOG2 PUSH5 0x6970667358 0x22 SLT KECCAK256 NUMBER PREVRANDAO 0xC PUSH21 0xDFBA1025307EF4A4B858DBBF183E4E261ABC888514 SWAP13 GT PUSH10 0xE5B5353764736F6C6343 STOP ADDMOD BYTE STOP CALLER "
				},
				"gasEstimates": {
					"creation": {
						"codeDepositCost": "355000",
						"executionCost": "infinite",
						"totalCost": "infinite"
					},
					"external": {
						"detailsSetter(string,string,uint256)": "infinite",
						"getAdr()": "infinite",
						"getterDetails()": "infinite"
					}
				},
				"methodIdentifiers": {
					"detailsSetter(string,string,uint256)": "5ad899a9",
					"getAdr()": "164d7d7c",
					"getterDetails()": "bbe70206"
				}
			},
			"storageLayout": {
				"storage": [
					{
						"astId": 52,
						"contract": "contracts/oops.sol:Book1",
						"label": "b1",
						"offset": 0,
						"slot": "0",
						"type": "t_contract(Book)45"
					}
				],
				"types": {
					"t_contract(Book)45": {
						"encoding": "inplace",
						"label": "contract Book",
						"numberOfBytes": "20"
					}
				}
			},
			"userdoc": {
				"kind": "user",
				"methods": {},
				"version": 1
			}
		}
	}
}