{
	"contracts/voting.sol": {
		"Vote": {
			"abi": [
				{
					"inputs": [],
					"stateMutability": "nonpayable",
					"type": "constructor"
				},
				{
					"inputs": [],
					"name": "announceVotingResult",
					"outputs": [],
					"stateMutability": "nonpayable",
					"type": "function"
				},
				{
					"inputs": [
						{
							"internalType": "uint256",
							"name": "_voterId",
							"type": "uint256"
						},
						{
							"internalType": "uint256",
							"name": "_candidateId",
							"type": "uint256"
						}
					],
					"name": "castVote",
					"outputs": [],
					"stateMutability": "nonpayable",
					"type": "function"
				},
				{
					"inputs": [],
					"name": "emergencyStopVoting",
					"outputs": [],
					"stateMutability": "nonpayable",
					"type": "function"
				},
				{
					"inputs": [],
					"name": "getCandidateList",
					"outputs": [
						{
							"components": [
								{
									"internalType": "string",
									"name": "name",
									"type": "string"
								},
								{
									"internalType": "string",
									"name": "party",
									"type": "string"
								},
								{
									"internalType": "uint256",
									"name": "age",
									"type": "uint256"
								},
								{
									"internalType": "enum Vote.Gender",
									"name": "gender",
									"type": "uint8"
								},
								{
									"internalType": "uint256",
									"name": "candidateId",
									"type": "uint256"
								},
								{
									"internalType": "address",
									"name": "candidateAddress",
									"type": "address"
								},
								{
									"internalType": "uint256",
									"name": "votes",
									"type": "uint256"
								}
							],
							"internalType": "struct Vote.Candidate[]",
							"name": "",
							"type": "tuple[]"
						}
					],
					"stateMutability": "view",
					"type": "function"
				},
				{
					"inputs": [],
					"name": "getVoterList",
					"outputs": [
						{
							"components": [
								{
									"internalType": "string",
									"name": "name",
									"type": "string"
								},
								{
									"internalType": "uint256",
									"name": "age",
									"type": "uint256"
								},
								{
									"internalType": "uint256",
									"name": "voterId",
									"type": "uint256"
								},
								{
									"internalType": "enum Vote.Gender",
									"name": "gender",
									"type": "uint8"
								},
								{
									"internalType": "uint256",
									"name": "voteCandidateId",
									"type": "uint256"
								},
								{
									"internalType": "address",
									"name": "voterAddress",
									"type": "address"
								}
							],
							"internalType": "struct Vote.Voter[]",
							"name": "",
							"type": "tuple[]"
						}
					],
					"stateMutability": "view",
					"type": "function"
				},
				{
					"inputs": [],
					"name": "getVotingStatus",
					"outputs": [
						{
							"internalType": "enum Vote.VotingStatus",
							"name": "",
							"type": "uint8"
						}
					],
					"stateMutability": "view",
					"type": "function"
				},
				{
					"inputs": [
						{
							"internalType": "string",
							"name": "_name",
							"type": "string"
						},
						{
							"internalType": "string",
							"name": "_party",
							"type": "string"
						},
						{
							"internalType": "uint256",
							"name": "_age",
							"type": "uint256"
						},
						{
							"internalType": "enum Vote.Gender",
							"name": "_gender",
							"type": "uint8"
						}
					],
					"name": "registerCandidate",
					"outputs": [],
					"stateMutability": "nonpayable",
					"type": "function"
				},
				{
					"inputs": [
						{
							"internalType": "string",
							"name": "_name",
							"type": "string"
						},
						{
							"internalType": "uint256",
							"name": "_age",
							"type": "uint256"
						},
						{
							"internalType": "enum Vote.Gender",
							"name": "_gender",
							"type": "uint8"
						}
					],
					"name": "registerVoter",
					"outputs": [],
					"stateMutability": "nonpayable",
					"type": "function"
				},
				{
					"inputs": [
						{
							"internalType": "uint256",
							"name": "_startTime",
							"type": "uint256"
						},
						{
							"internalType": "uint256",
							"name": "_endTime",
							"type": "uint256"
						}
					],
					"name": "setVotingPeriod",
					"outputs": [],
					"stateMutability": "nonpayable",
					"type": "function"
				},
				{
					"inputs": [],
					"name": "winner",
					"outputs": [
						{
							"internalType": "address",
							"name": "",
							"type": "address"
						}
					],
					"stateMutability": "view",
					"type": "function"
				}
			],
			"devdoc": {
				"kind": "dev",
				"methods": {},
				"version": 1
			},
			"evm": {
				"assembly": "    /* \"contracts/voting.sol\":59:5965  contract Vote {... */\n  mstore(0x40, 0x80)\n    /* \"contracts/voting.sol\":586:587  1 */\n  0x01\n    /* \"contracts/voting.sol\":564:587  uint256 nextVoterId = 1 */\n  0x02\n  sstore\n    /* \"contracts/voting.sol\":619:620  1 */\n  0x01\n    /* \"contracts/voting.sol\":593:620  uint256 nextCandidateId = 1 */\n  0x03\n  sstore\n    /* \"contracts/voting.sol\":995:1057  constructor() {... */\n  callvalue\n  dup1\n  iszero\n  tag_1\n  jumpi\n  0x00\n  dup1\n  revert\ntag_1:\n  pop\n    /* \"contracts/voting.sol\":1040:1050  msg.sender */\n  caller\n    /* \"contracts/voting.sol\":1019:1037  electionCommission */\n  0x00\n  dup1\n    /* \"contracts/voting.sol\":1019:1050  electionCommission = msg.sender */\n  0x0100\n  exp\n  dup2\n  sload\n  dup2\n  0xffffffffffffffffffffffffffffffffffffffff\n  mul\n  not\n  and\n  swap1\n  dup4\n  0xffffffffffffffffffffffffffffffffffffffff\n  and\n  mul\n  or\n  swap1\n  sstore\n  pop\n    /* \"contracts/voting.sol\":59:5965  contract Vote {... */\n  dataSize(sub_0)\n  dup1\n  dataOffset(sub_0)\n  0x00\n  codecopy\n  0x00\n  return\nstop\n\nsub_0: assembly {\n        /* \"contracts/voting.sol\":59:5965  contract Vote {... */\n      mstore(0x40, 0x80)\n      callvalue\n      dup1\n      iszero\n      tag_1\n      jumpi\n      0x00\n      dup1\n      revert\n    tag_1:\n      pop\n      jumpi(tag_2, lt(calldatasize, 0x04))\n      shr(0xe0, calldataload(0x00))\n      dup1\n      0x9fa4e440\n      gt\n      tag_13\n      jumpi\n      dup1\n      0x9fa4e440\n      eq\n      tag_8\n      jumpi\n      dup1\n      0xa15a36c7\n      eq\n      tag_9\n      jumpi\n      dup1\n      0xb28d92ae\n      eq\n      tag_10\n      jumpi\n      dup1\n      0xdfbf53ae\n      eq\n      tag_11\n      jumpi\n      dup1\n      0xfdbc4006\n      eq\n      tag_12\n      jumpi\n      jump(tag_2)\n    tag_13:\n      dup1\n      0x2c0a3f89\n      eq\n      tag_3\n      jumpi\n      dup1\n      0x581c281c\n      eq\n      tag_4\n      jumpi\n      dup1\n      0x6ce2ccc0\n      eq\n      tag_5\n      jumpi\n      dup1\n      0x81ba732f\n      eq\n      tag_6\n      jumpi\n      dup1\n      0x982c777d\n      eq\n      tag_7\n      jumpi\n    tag_2:\n      0x00\n      dup1\n      revert\n        /* \"contracts/voting.sol\":4091:4822  function castVote(uint256 _voterId, uint256 _candidateId)... */\n    tag_3:\n      tag_14\n      0x04\n      dup1\n      calldatasize\n      sub\n      dup2\n      add\n      swap1\n      tag_15\n      swap2\n      swap1\n      tag_16\n      jump\t// in\n    tag_15:\n      tag_17\n      jump\t// in\n    tag_14:\n      stop\n        /* \"contracts/voting.sol\":5142:5458  function getVotingStatus() public view returns (VotingStatus) {... */\n    tag_4:\n      tag_18\n      tag_19\n      jump\t// in\n    tag_18:\n      mload(0x40)\n      tag_20\n      swap2\n      swap1\n      tag_21\n      jump\t// in\n    tag_20:\n      mload(0x40)\n      dup1\n      swap2\n      sub\n      swap1\n      return\n        /* \"contracts/voting.sol\":5464:5868  function announceVotingResult() external onlyCommissioner {... */\n    tag_5:\n      tag_22\n      tag_23\n      jump\t// in\n    tag_22:\n      stop\n        /* \"contracts/voting.sol\":3296:3809  function registerVoter(... */\n    tag_6:\n      tag_24\n      0x04\n      dup1\n      calldatasize\n      sub\n      dup2\n      add\n      swap1\n      tag_25\n      swap2\n      swap1\n      tag_26\n      jump\t// in\n    tag_25:\n      tag_27\n      jump\t// in\n    tag_24:\n      stop\n        /* \"contracts/voting.sol\":1380:2240  function registerCandidate(... */\n    tag_7:\n      tag_28\n      0x04\n      dup1\n      calldatasize\n      sub\n      dup2\n      add\n      swap1\n      tag_29\n      swap2\n      swap1\n      tag_30\n      jump\t// in\n    tag_29:\n      tag_31\n      jump\t// in\n    tag_28:\n      stop\n        /* \"contracts/voting.sol\":5874:5963  function emergencyStopVoting() public onlyCommissioner {... */\n    tag_8:\n      tag_32\n      tag_33\n      jump\t// in\n    tag_32:\n      stop\n        /* \"contracts/voting.sol\":4828:5136  function setVotingPeriod(uint256 _startTime, uint256 _endTime)... */\n    tag_9:\n      tag_34\n      0x04\n      dup1\n      calldatasize\n      sub\n      dup2\n      add\n      swap1\n      tag_35\n      swap2\n      swap1\n      tag_16\n      jump\t// in\n    tag_35:\n      tag_36\n      jump\t// in\n    tag_34:\n      stop\n        /* \"contracts/voting.sol\":3815:4085  function getVoterList() public view returns (Voter[] memory) {... */\n    tag_10:\n      tag_37\n      tag_38\n      jump\t// in\n    tag_37:\n      mload(0x40)\n      tag_39\n      swap2\n      swap1\n      tag_40\n      jump\t// in\n    tag_39:\n      mload(0x40)\n      dup1\n      swap2\n      sub\n      swap1\n      return\n        /* \"contracts/voting.sol\":537:558  address public winner */\n    tag_11:\n      tag_41\n      tag_42\n      jump\t// in\n    tag_41:\n      mload(0x40)\n      tag_43\n      swap2\n      swap1\n      tag_44\n      jump\t// in\n    tag_43:\n      mload(0x40)\n      dup1\n      swap2\n      sub\n      swap1\n      return\n        /* \"contracts/voting.sol\":2711:3017  function getCandidateList() public view returns (Candidate[] memory) {... */\n    tag_12:\n      tag_45\n      tag_46\n      jump\t// in\n    tag_45:\n      mload(0x40)\n      tag_47\n      swap2\n      swap1\n      tag_48\n      jump\t// in\n    tag_47:\n      mload(0x40)\n      dup1\n      swap2\n      sub\n      swap1\n      return\n        /* \"contracts/voting.sol\":4091:4822  function castVote(uint256 _voterId, uint256 _candidateId)... */\n    tag_17:\n        /* \"contracts/voting.sol\":1123:1130  endTime */\n      sload(0x05)\n        /* \"contracts/voting.sol\":1105:1120  block.timestamp */\n      timestamp\n        /* \"contracts/voting.sol\":1105:1130  block.timestamp < endTime */\n      lt\n        /* \"contracts/voting.sol\":1105:1145  block.timestamp < endTime || !stopVoting */\n      dup1\n      tag_50\n      jumpi\n      pop\n        /* \"contracts/voting.sol\":1135:1145  stopVoting */\n      0x06\n      0x00\n      swap1\n      sload\n      swap1\n      0x0100\n      exp\n      swap1\n      div\n      0xff\n      and\n        /* \"contracts/voting.sol\":1134:1145  !stopVoting */\n      iszero\n        /* \"contracts/voting.sol\":1105:1145  block.timestamp < endTime || !stopVoting */\n    tag_50:\n        /* \"contracts/voting.sol\":1097:1166  require(block.timestamp < endTime || !stopVoting, \"Voting is Over !\") */\n      tag_51\n      jumpi\n      mload(0x40)\n      0x08c379a000000000000000000000000000000000000000000000000000000000\n      dup2\n      mstore\n      0x04\n      add\n      tag_52\n      swap1\n      tag_53\n      jump\t// in\n    tag_52:\n      mload(0x40)\n      dup1\n      swap2\n      sub\n      swap1\n      revert\n    tag_51:\n        /* \"contracts/voting.sol\":4201:4225  address candidateAddress */\n      0x00\n        /* \"contracts/voting.sol\":4228:4244  candidateDetails */\n      0x08\n        /* \"contracts/voting.sol\":4228:4258  candidateDetails[_candidateId] */\n      0x00\n        /* \"contracts/voting.sol\":4245:4257  _candidateId */\n      dup4\n        /* \"contracts/voting.sol\":4228:4258  candidateDetails[_candidateId] */\n      dup2\n      mstore\n      0x20\n      add\n      swap1\n      dup2\n      mstore\n      0x20\n      add\n      0x00\n      keccak256\n        /* \"contracts/voting.sol\":4228:4288  candidateDetails[_candidateId]... */\n      0x05\n      add\n      0x00\n      swap1\n      sload\n      swap1\n      0x0100\n      exp\n      swap1\n      div\n      0xffffffffffffffffffffffffffffffffffffffff\n      and\n        /* \"contracts/voting.sol\":4201:4288  address candidateAddress = candidateDetails[_candidateId]... */\n      swap1\n      pop\n        /* \"contracts/voting.sol\":4362:4363  0 */\n      0x00\n        /* \"contracts/voting.sol\":4320:4332  voterDetails */\n      0x07\n        /* \"contracts/voting.sol\":4320:4342  voterDetails[_voterId] */\n      0x00\n        /* \"contracts/voting.sol\":4333:4341  _voterId */\n      dup6\n        /* \"contracts/voting.sol\":4320:4342  voterDetails[_voterId] */\n      dup2\n      mstore\n      0x20\n      add\n      swap1\n      dup2\n      mstore\n      0x20\n      add\n      0x00\n      keccak256\n        /* \"contracts/voting.sol\":4320:4358  voterDetails[_voterId].voteCandidateId */\n      0x04\n      add\n      sload\n        /* \"contracts/voting.sol\":4320:4363  voterDetails[_voterId].voteCandidateId == 0 */\n      eq\n        /* \"contracts/voting.sol\":4299:4422  require(... */\n      tag_55\n      jumpi\n      mload(0x40)\n      0x08c379a000000000000000000000000000000000000000000000000000000000\n      dup2\n      mstore\n      0x04\n      add\n      tag_56\n      swap1\n      tag_57\n      jump\t// in\n    tag_56:\n      mload(0x40)\n      dup1\n      swap2\n      sub\n      swap1\n      revert\n    tag_55:\n        /* \"contracts/voting.sol\":4492:4502  msg.sender */\n      caller\n        /* \"contracts/voting.sol\":4453:4502  voterDetails[_voterId].voterAddress == msg.sender */\n      0xffffffffffffffffffffffffffffffffffffffff\n      and\n        /* \"contracts/voting.sol\":4453:4465  voterDetails */\n      0x07\n        /* \"contracts/voting.sol\":4453:4475  voterDetails[_voterId] */\n      0x00\n        /* \"contracts/voting.sol\":4466:4474  _voterId */\n      dup6\n        /* \"contracts/voting.sol\":4453:4475  voterDetails[_voterId] */\n      dup2\n      mstore\n      0x20\n      add\n      swap1\n      dup2\n      mstore\n      0x20\n      add\n      0x00\n      keccak256\n        /* \"contracts/voting.sol\":4453:4488  voterDetails[_voterId].voterAddress */\n      0x05\n      add\n      0x00\n      swap1\n      sload\n      swap1\n      0x0100\n      exp\n      swap1\n      div\n      0xffffffffffffffffffffffffffffffffffffffff\n      and\n        /* \"contracts/voting.sol\":4453:4502  voterDetails[_voterId].voterAddress == msg.sender */\n      0xffffffffffffffffffffffffffffffffffffffff\n      and\n      eq\n        /* \"contracts/voting.sol\":4432:4574  require(... */\n      tag_58\n      jumpi\n      mload(0x40)\n      0x08c379a000000000000000000000000000000000000000000000000000000000\n      dup2\n      mstore\n      0x04\n      add\n      tag_59\n      swap1\n      tag_60\n      jump\t// in\n    tag_59:\n      mload(0x40)\n      dup1\n      swap2\n      sub\n      swap1\n      revert\n    tag_58:\n        /* \"contracts/voting.sol\":4605:4644  isCandidateRegistered(candidateAddress) */\n      tag_61\n        /* \"contracts/voting.sol\":4627:4643  candidateAddress */\n      dup2\n        /* \"contracts/voting.sol\":4605:4626  isCandidateRegistered */\n      tag_62\n        /* \"contracts/voting.sol\":4605:4644  isCandidateRegistered(candidateAddress) */\n      jump\t// in\n    tag_61:\n        /* \"contracts/voting.sol\":4584:4704  require(... */\n      tag_63\n      jumpi\n      mload(0x40)\n      0x08c379a000000000000000000000000000000000000000000000000000000000\n      dup2\n      mstore\n      0x04\n      add\n      tag_64\n      swap1\n      tag_65\n      jump\t// in\n    tag_64:\n      mload(0x40)\n      dup1\n      swap2\n      sub\n      swap1\n      revert\n    tag_63:\n        /* \"contracts/voting.sol\":4755:4767  _candidateId */\n      dup2\n        /* \"contracts/voting.sol\":4714:4726  voterDetails */\n      0x07\n        /* \"contracts/voting.sol\":4714:4736  voterDetails[_voterId] */\n      0x00\n        /* \"contracts/voting.sol\":4727:4735  _voterId */\n      dup6\n        /* \"contracts/voting.sol\":4714:4736  voterDetails[_voterId] */\n      dup2\n      mstore\n      0x20\n      add\n      swap1\n      dup2\n      mstore\n      0x20\n      add\n      0x00\n      keccak256\n        /* \"contracts/voting.sol\":4714:4752  voterDetails[_voterId].voteCandidateId */\n      0x04\n      add\n        /* \"contracts/voting.sol\":4714:4767  voterDetails[_voterId].voteCandidateId = _candidateId */\n      dup2\n      swap1\n      sstore\n      pop\n        /* \"contracts/voting.sol\":4777:4793  candidateDetails */\n      0x08\n        /* \"contracts/voting.sol\":4777:4807  candidateDetails[_candidateId] */\n      0x00\n        /* \"contracts/voting.sol\":4794:4806  _candidateId */\n      dup4\n        /* \"contracts/voting.sol\":4777:4807  candidateDetails[_candidateId] */\n      dup2\n      mstore\n      0x20\n      add\n      swap1\n      dup2\n      mstore\n      0x20\n      add\n      0x00\n      keccak256\n        /* \"contracts/voting.sol\":4777:4813  candidateDetails[_candidateId].votes */\n      0x06\n      add\n      0x00\n        /* \"contracts/voting.sol\":4777:4815  candidateDetails[_candidateId].votes++ */\n      dup2\n      sload\n      dup1\n      swap3\n      swap2\n      swap1\n      tag_66\n      swap1\n      tag_67\n      jump\t// in\n    tag_66:\n      swap2\n      swap1\n      pop\n      sstore\n      pop\n        /* \"contracts/voting.sol\":4191:4822  {... */\n      pop\n        /* \"contracts/voting.sol\":4091:4822  function castVote(uint256 _voterId, uint256 _candidateId)... */\n      pop\n      pop\n      jump\t// out\n        /* \"contracts/voting.sol\":5142:5458  function getVotingStatus() public view returns (VotingStatus) {... */\n    tag_19:\n        /* \"contracts/voting.sol\":5190:5202  VotingStatus */\n      0x00\n        /* \"contracts/voting.sol\":5231:5232  0 */\n      dup1\n        /* \"contracts/voting.sol\":5218:5227  startTime */\n      sload(0x04)\n        /* \"contracts/voting.sol\":5218:5232  startTime == 0 */\n      sub\n        /* \"contracts/voting.sol\":5214:5452  if (startTime == 0) {... */\n      tag_69\n      jumpi\n        /* \"contracts/voting.sol\":5255:5278  VotingStatus.NotStarted */\n      0x00\n        /* \"contracts/voting.sol\":5248:5278  return VotingStatus.NotStarted */\n      swap1\n      pop\n      jump(tag_68)\n        /* \"contracts/voting.sol\":5214:5452  if (startTime == 0) {... */\n    tag_69:\n        /* \"contracts/voting.sol\":5309:5324  block.timestamp */\n      timestamp\n        /* \"contracts/voting.sol\":5299:5306  endTime */\n      sload(0x05)\n        /* \"contracts/voting.sol\":5299:5324  endTime > block.timestamp */\n      gt\n        /* \"contracts/voting.sol\":5299:5339  endTime > block.timestamp && !stopVoting */\n      dup1\n      iszero\n      tag_71\n      jumpi\n      pop\n        /* \"contracts/voting.sol\":5329:5339  stopVoting */\n      0x06\n      0x00\n      swap1\n      sload\n      swap1\n      0x0100\n      exp\n      swap1\n      div\n      0xff\n      and\n        /* \"contracts/voting.sol\":5328:5339  !stopVoting */\n      iszero\n        /* \"contracts/voting.sol\":5299:5339  endTime > block.timestamp && !stopVoting */\n    tag_71:\n        /* \"contracts/voting.sol\":5295:5452  if (endTime > block.timestamp && !stopVoting) {... */\n      iszero\n      tag_72\n      jumpi\n        /* \"contracts/voting.sol\":5362:5385  VotingStatus.InProgress */\n      0x01\n        /* \"contracts/voting.sol\":5355:5385  return VotingStatus.InProgress */\n      swap1\n      pop\n      jump(tag_68)\n        /* \"contracts/voting.sol\":5295:5452  if (endTime > block.timestamp && !stopVoting) {... */\n    tag_72:\n        /* \"contracts/voting.sol\":5423:5441  VotingStatus.Ended */\n      0x02\n        /* \"contracts/voting.sol\":5416:5441  return VotingStatus.Ended */\n      swap1\n      pop\n        /* \"contracts/voting.sol\":5142:5458  function getVotingStatus() public view returns (VotingStatus) {... */\n    tag_68:\n      swap1\n      jump\t// out\n        /* \"contracts/voting.sol\":5464:5868  function announceVotingResult() external onlyCommissioner {... */\n    tag_23:\n        /* \"contracts/voting.sol\":1263:1281  electionCommission */\n      0x00\n      dup1\n      sload\n      swap1\n      0x0100\n      exp\n      swap1\n      div\n      0xffffffffffffffffffffffffffffffffffffffff\n      and\n        /* \"contracts/voting.sol\":1249:1281  msg.sender == electionCommission */\n      0xffffffffffffffffffffffffffffffffffffffff\n      and\n        /* \"contracts/voting.sol\":1249:1259  msg.sender */\n      caller\n        /* \"contracts/voting.sol\":1249:1281  msg.sender == electionCommission */\n      0xffffffffffffffffffffffffffffffffffffffff\n      and\n      eq\n        /* \"contracts/voting.sol\":1228:1356  require(... */\n      tag_75\n      jumpi\n      mload(0x40)\n      0x08c379a000000000000000000000000000000000000000000000000000000000\n      dup2\n      mstore\n      0x04\n      add\n      tag_76\n      swap1\n      tag_77\n      jump\t// in\n    tag_76:\n      mload(0x40)\n      dup1\n      swap2\n      sub\n      swap1\n      revert\n    tag_75:\n        /* \"contracts/voting.sol\":5559:5560  3 */\n      0x03\n        /* \"contracts/voting.sol\":5540:5555  nextCandidateId */\n      dup1\n      sload\n        /* \"contracts/voting.sol\":5540:5560  nextCandidateId == 3 */\n      eq\n        /* \"contracts/voting.sol\":5532:5599  require(nextCandidateId == 3, \"Not enough candidates registered !\") */\n      tag_79\n      jumpi\n      mload(0x40)\n      0x08c379a000000000000000000000000000000000000000000000000000000000\n      dup2\n      mstore\n      0x04\n      add\n      tag_80\n      swap1\n      tag_81\n      jump\t// in\n    tag_80:\n      mload(0x40)\n      dup1\n      swap2\n      sub\n      swap1\n      revert\n    tag_79:\n        /* \"contracts/voting.sol\":5610:5631  Candidate memory can1 */\n      0x00\n        /* \"contracts/voting.sol\":5634:5650  candidateDetails */\n      0x08\n        /* \"contracts/voting.sol\":5634:5653  candidateDetails[1] */\n      0x00\n        /* \"contracts/voting.sol\":5651:5652  1 */\n      0x01\n        /* \"contracts/voting.sol\":5634:5653  candidateDetails[1] */\n      dup2\n      mstore\n      0x20\n      add\n      swap1\n      dup2\n      mstore\n      0x20\n      add\n      0x00\n      keccak256\n        /* \"contracts/voting.sol\":5610:5653  Candidate memory can1 = candidateDetails[1] */\n      mload(0x40)\n      dup1\n      0xe0\n      add\n      0x40\n      mstore\n      swap1\n      dup2\n      0x00\n      dup3\n      add\n      dup1\n      sload\n      tag_82\n      swap1\n      tag_83\n      jump\t// in\n    tag_82:\n      dup1\n      0x1f\n      add\n      0x20\n      dup1\n      swap2\n      div\n      mul\n      0x20\n      add\n      mload(0x40)\n      swap1\n      dup2\n      add\n      0x40\n      mstore\n      dup1\n      swap3\n      swap2\n      swap1\n      dup2\n      dup2\n      mstore\n      0x20\n      add\n      dup3\n      dup1\n      sload\n      tag_84\n      swap1\n      tag_83\n      jump\t// in\n    tag_84:\n      dup1\n      iszero\n      tag_85\n      jumpi\n      dup1\n      0x1f\n      lt\n      tag_86\n      jumpi\n      0x0100\n      dup1\n      dup4\n      sload\n      div\n      mul\n      dup4\n      mstore\n      swap2\n      0x20\n      add\n      swap2\n      jump(tag_85)\n    tag_86:\n      dup3\n      add\n      swap2\n      swap1\n      0x00\n      mstore\n      keccak256(0x00, 0x20)\n      swap1\n    tag_87:\n      dup2\n      sload\n      dup2\n      mstore\n      swap1\n      0x01\n      add\n      swap1\n      0x20\n      add\n      dup1\n      dup4\n      gt\n      tag_87\n      jumpi\n      dup3\n      swap1\n      sub\n      0x1f\n      and\n      dup3\n      add\n      swap2\n    tag_85:\n      pop\n      pop\n      pop\n      pop\n      pop\n      dup2\n      mstore\n      0x20\n      add\n      0x01\n      dup3\n      add\n      dup1\n      sload\n      tag_88\n      swap1\n      tag_83\n      jump\t// in\n    tag_88:\n      dup1\n      0x1f\n      add\n      0x20\n      dup1\n      swap2\n      div\n      mul\n      0x20\n      add\n      mload(0x40)\n      swap1\n      dup2\n      add\n      0x40\n      mstore\n      dup1\n      swap3\n      swap2\n      swap1\n      dup2\n      dup2\n      mstore\n      0x20\n      add\n      dup3\n      dup1\n      sload\n      tag_89\n      swap1\n      tag_83\n      jump\t// in\n    tag_89:\n      dup1\n      iszero\n      tag_90\n      jumpi\n      dup1\n      0x1f\n      lt\n      tag_91\n      jumpi\n      0x0100\n      dup1\n      dup4\n      sload\n      div\n      mul\n      dup4\n      mstore\n      swap2\n      0x20\n      add\n      swap2\n      jump(tag_90)\n    tag_91:\n      dup3\n      add\n      swap2\n      swap1\n      0x00\n      mstore\n      keccak256(0x00, 0x20)\n      swap1\n    tag_92:\n      dup2\n      sload\n      dup2\n      mstore\n      swap1\n      0x01\n      add\n      swap1\n      0x20\n      add\n      dup1\n      dup4\n      gt\n      tag_92\n      jumpi\n      dup3\n      swap1\n      sub\n      0x1f\n      and\n      dup3\n      add\n      swap2\n    tag_90:\n      pop\n      pop\n      pop\n      pop\n      pop\n      dup2\n      mstore\n      0x20\n      add\n      0x02\n      dup3\n      add\n      sload\n      dup2\n      mstore\n      0x20\n      add\n      0x03\n      dup3\n      add\n      0x00\n      swap1\n      sload\n      swap1\n      0x0100\n      exp\n      swap1\n      div\n      0xff\n      and\n      0x03\n      dup2\n      gt\n      iszero\n      tag_93\n      jumpi\n      tag_94\n      tag_95\n      jump\t// in\n    tag_94:\n    tag_93:\n      0x03\n      dup2\n      gt\n      iszero\n      tag_96\n      jumpi\n      tag_97\n      tag_95\n      jump\t// in\n    tag_97:\n    tag_96:\n      dup2\n      mstore\n      0x20\n      add\n      0x04\n      dup3\n      add\n      sload\n      dup2\n      mstore\n      0x20\n      add\n      0x05\n      dup3\n      add\n      0x00\n      swap1\n      sload\n      swap1\n      0x0100\n      exp\n      swap1\n      div\n      0xffffffffffffffffffffffffffffffffffffffff\n      and\n      0xffffffffffffffffffffffffffffffffffffffff\n      and\n      0xffffffffffffffffffffffffffffffffffffffff\n      and\n      dup2\n      mstore\n      0x20\n      add\n      0x06\n      dup3\n      add\n      sload\n      dup2\n      mstore\n      pop\n      pop\n      swap1\n      pop\n        /* \"contracts/voting.sol\":5663:5684  Candidate memory can2 */\n      0x00\n        /* \"contracts/voting.sol\":5687:5703  candidateDetails */\n      0x08\n        /* \"contracts/voting.sol\":5687:5706  candidateDetails[2] */\n      0x00\n        /* \"contracts/voting.sol\":5704:5705  2 */\n      0x02\n        /* \"contracts/voting.sol\":5687:5706  candidateDetails[2] */\n      dup2\n      mstore\n      0x20\n      add\n      swap1\n      dup2\n      mstore\n      0x20\n      add\n      0x00\n      keccak256\n        /* \"contracts/voting.sol\":5663:5706  Candidate memory can2 = candidateDetails[2] */\n      mload(0x40)\n      dup1\n      0xe0\n      add\n      0x40\n      mstore\n      swap1\n      dup2\n      0x00\n      dup3\n      add\n      dup1\n      sload\n      tag_98\n      swap1\n      tag_83\n      jump\t// in\n    tag_98:\n      dup1\n      0x1f\n      add\n      0x20\n      dup1\n      swap2\n      div\n      mul\n      0x20\n      add\n      mload(0x40)\n      swap1\n      dup2\n      add\n      0x40\n      mstore\n      dup1\n      swap3\n      swap2\n      swap1\n      dup2\n      dup2\n      mstore\n      0x20\n      add\n      dup3\n      dup1\n      sload\n      tag_99\n      swap1\n      tag_83\n      jump\t// in\n    tag_99:\n      dup1\n      iszero\n      tag_100\n      jumpi\n      dup1\n      0x1f\n      lt\n      tag_101\n      jumpi\n      0x0100\n      dup1\n      dup4\n      sload\n      div\n      mul\n      dup4\n      mstore\n      swap2\n      0x20\n      add\n      swap2\n      jump(tag_100)\n    tag_101:\n      dup3\n      add\n      swap2\n      swap1\n      0x00\n      mstore\n      keccak256(0x00, 0x20)\n      swap1\n    tag_102:\n      dup2\n      sload\n      dup2\n      mstore\n      swap1\n      0x01\n      add\n      swap1\n      0x20\n      add\n      dup1\n      dup4\n      gt\n      tag_102\n      jumpi\n      dup3\n      swap1\n      sub\n      0x1f\n      and\n      dup3\n      add\n      swap2\n    tag_100:\n      pop\n      pop\n      pop\n      pop\n      pop\n      dup2\n      mstore\n      0x20\n      add\n      0x01\n      dup3\n      add\n      dup1\n      sload\n      tag_103\n      swap1\n      tag_83\n      jump\t// in\n    tag_103:\n      dup1\n      0x1f\n      add\n      0x20\n      dup1\n      swap2\n      div\n      mul\n      0x20\n      add\n      mload(0x40)\n      swap1\n      dup2\n      add\n      0x40\n      mstore\n      dup1\n      swap3\n      swap2\n      swap1\n      dup2\n      dup2\n      mstore\n      0x20\n      add\n      dup3\n      dup1\n      sload\n      tag_104\n      swap1\n      tag_83\n      jump\t// in\n    tag_104:\n      dup1\n      iszero\n      tag_105\n      jumpi\n      dup1\n      0x1f\n      lt\n      tag_106\n      jumpi\n      0x0100\n      dup1\n      dup4\n      sload\n      div\n      mul\n      dup4\n      mstore\n      swap2\n      0x20\n      add\n      swap2\n      jump(tag_105)\n    tag_106:\n      dup3\n      add\n      swap2\n      swap1\n      0x00\n      mstore\n      keccak256(0x00, 0x20)\n      swap1\n    tag_107:\n      dup2\n      sload\n      dup2\n      mstore\n      swap1\n      0x01\n      add\n      swap1\n      0x20\n      add\n      dup1\n      dup4\n      gt\n      tag_107\n      jumpi\n      dup3\n      swap1\n      sub\n      0x1f\n      and\n      dup3\n      add\n      swap2\n    tag_105:\n      pop\n      pop\n      pop\n      pop\n      pop\n      dup2\n      mstore\n      0x20\n      add\n      0x02\n      dup3\n      add\n      sload\n      dup2\n      mstore\n      0x20\n      add\n      0x03\n      dup3\n      add\n      0x00\n      swap1\n      sload\n      swap1\n      0x0100\n      exp\n      swap1\n      div\n      0xff\n      and\n      0x03\n      dup2\n      gt\n      iszero\n      tag_108\n      jumpi\n      tag_109\n      tag_95\n      jump\t// in\n    tag_109:\n    tag_108:\n      0x03\n      dup2\n      gt\n      iszero\n      tag_110\n      jumpi\n      tag_111\n      tag_95\n      jump\t// in\n    tag_111:\n    tag_110:\n      dup2\n      mstore\n      0x20\n      add\n      0x04\n      dup3\n      add\n      sload\n      dup2\n      mstore\n      0x20\n      add\n      0x05\n      dup3\n      add\n      0x00\n      swap1\n      sload\n      swap1\n      0x0100\n      exp\n      swap1\n      div\n      0xffffffffffffffffffffffffffffffffffffffff\n      and\n      0xffffffffffffffffffffffffffffffffffffffff\n      and\n      0xffffffffffffffffffffffffffffffffffffffff\n      and\n      dup2\n      mstore\n      0x20\n      add\n      0x06\n      dup3\n      add\n      sload\n      dup2\n      mstore\n      pop\n      pop\n      swap1\n      pop\n        /* \"contracts/voting.sol\":5734:5738  can2 */\n      dup1\n        /* \"contracts/voting.sol\":5734:5744  can2.votes */\n      0xc0\n      add\n      mload\n        /* \"contracts/voting.sol\":5721:5725  can1 */\n      dup3\n        /* \"contracts/voting.sol\":5721:5731  can1.votes */\n      0xc0\n      add\n      mload\n        /* \"contracts/voting.sol\":5721:5744  can1.votes > can2.votes */\n      gt\n        /* \"contracts/voting.sol\":5717:5862  if (can1.votes > can2.votes) {... */\n      iszero\n      tag_112\n      jumpi\n        /* \"contracts/voting.sol\":5769:5773  can1 */\n      dup2\n        /* \"contracts/voting.sol\":5769:5790  can1.candidateAddress */\n      0xa0\n      add\n      mload\n        /* \"contracts/voting.sol\":5760:5766  winner */\n      0x01\n      0x00\n        /* \"contracts/voting.sol\":5760:5790  winner = can1.candidateAddress */\n      0x0100\n      exp\n      dup2\n      sload\n      dup2\n      0xffffffffffffffffffffffffffffffffffffffff\n      mul\n      not\n      and\n      swap1\n      dup4\n      0xffffffffffffffffffffffffffffffffffffffff\n      and\n      mul\n      or\n      swap1\n      sstore\n      pop\n        /* \"contracts/voting.sol\":5717:5862  if (can1.votes > can2.votes) {... */\n      jump(tag_113)\n    tag_112:\n        /* \"contracts/voting.sol\":5830:5834  can2 */\n      dup1\n        /* \"contracts/voting.sol\":5830:5851  can2.candidateAddress */\n      0xa0\n      add\n      mload\n        /* \"contracts/voting.sol\":5821:5827  winner */\n      0x01\n      0x00\n        /* \"contracts/voting.sol\":5821:5851  winner = can2.candidateAddress */\n      0x0100\n      exp\n      dup2\n      sload\n      dup2\n      0xffffffffffffffffffffffffffffffffffffffff\n      mul\n      not\n      and\n      swap1\n      dup4\n      0xffffffffffffffffffffffffffffffffffffffff\n      and\n      mul\n      or\n      swap1\n      sstore\n      pop\n        /* \"contracts/voting.sol\":5717:5862  if (can1.votes > can2.votes) {... */\n    tag_113:\n        /* \"contracts/voting.sol\":5522:5868  {... */\n      pop\n      pop\n        /* \"contracts/voting.sol\":5464:5868  function announceVotingResult() external onlyCommissioner {... */\n      jump\t// out\n        /* \"contracts/voting.sol\":3296:3809  function registerVoter(... */\n    tag_27:\n        /* \"contracts/voting.sol\":3436:3438  18 */\n      0x12\n        /* \"contracts/voting.sol\":3429:3433  _age */\n      dup3\n        /* \"contracts/voting.sol\":3429:3438  _age > 18 */\n      gt\n        /* \"contracts/voting.sol\":3421:3474  require(_age > 18, \"You are undeage to be a voter !\") */\n      tag_115\n      jumpi\n      mload(0x40)\n      0x08c379a000000000000000000000000000000000000000000000000000000000\n      dup2\n      mstore\n      0x04\n      add\n      tag_116\n      swap1\n      tag_117\n      jump\t// in\n    tag_116:\n      mload(0x40)\n      dup1\n      swap2\n      sub\n      swap1\n      revert\n    tag_115:\n        /* \"contracts/voting.sol\":3506:3535  isVoterRegistered(msg.sender) */\n      tag_118\n        /* \"contracts/voting.sol\":3524:3534  msg.sender */\n      caller\n        /* \"contracts/voting.sol\":3506:3523  isVoterRegistered */\n      tag_119\n        /* \"contracts/voting.sol\":3506:3535  isVoterRegistered(msg.sender) */\n      jump\t// in\n    tag_118:\n        /* \"contracts/voting.sol\":3505:3535  !isVoterRegistered(msg.sender) */\n      iszero\n        /* \"contracts/voting.sol\":3484:3603  require(... */\n      tag_120\n      jumpi\n      mload(0x40)\n      0x08c379a000000000000000000000000000000000000000000000000000000000\n      dup2\n      mstore\n      0x04\n      add\n      tag_121\n      swap1\n      tag_122\n      jump\t// in\n    tag_121:\n      mload(0x40)\n      dup1\n      swap2\n      sub\n      swap1\n      revert\n    tag_120:\n        /* \"contracts/voting.sol\":3642:3779  Voter(... */\n      mload(0x40)\n      dup1\n      0xc0\n      add\n      0x40\n      mstore\n      dup1\n        /* \"contracts/voting.sol\":3661:3666  _name */\n      dup6\n      dup6\n        /* \"contracts/voting.sol\":3642:3779  Voter(... */\n      dup1\n      dup1\n      0x1f\n      add\n      0x20\n      dup1\n      swap2\n      div\n      mul\n      0x20\n      add\n      mload(0x40)\n      swap1\n      dup2\n      add\n      0x40\n      mstore\n      dup1\n      swap4\n      swap3\n      swap2\n      swap1\n      dup2\n      dup2\n      mstore\n      0x20\n      add\n      dup4\n      dup4\n      dup1\n      dup3\n      dup5\n      calldatacopy\n      0x00\n      dup2\n      dup5\n      add\n      mstore\n      not(0x1f)\n      0x1f\n      dup3\n      add\n      and\n      swap1\n      pop\n      dup1\n      dup4\n      add\n      swap3\n      pop\n      pop\n      pop\n      pop\n      pop\n      pop\n      pop\n      dup2\n      mstore\n      0x20\n      add\n        /* \"contracts/voting.sol\":3680:3684  _age */\n      dup4\n        /* \"contracts/voting.sol\":3642:3779  Voter(... */\n      dup2\n      mstore\n      0x20\n      add\n        /* \"contracts/voting.sol\":3698:3709  nextVoterId */\n      sload(0x02)\n        /* \"contracts/voting.sol\":3642:3779  Voter(... */\n      dup2\n      mstore\n      0x20\n      add\n        /* \"contracts/voting.sol\":3723:3730  _gender */\n      dup3\n        /* \"contracts/voting.sol\":3642:3779  Voter(... */\n      0x03\n      dup2\n      gt\n      iszero\n      tag_123\n      jumpi\n      tag_124\n      tag_95\n      jump\t// in\n    tag_124:\n    tag_123:\n      dup2\n      mstore\n      0x20\n      add\n        /* \"contracts/voting.sol\":3744:3745  0 */\n      0x00\n        /* \"contracts/voting.sol\":3642:3779  Voter(... */\n      dup2\n      mstore\n      0x20\n      add\n        /* \"contracts/voting.sol\":3759:3769  msg.sender */\n      caller\n        /* \"contracts/voting.sol\":3642:3779  Voter(... */\n      0xffffffffffffffffffffffffffffffffffffffff\n      and\n      dup2\n      mstore\n      pop\n        /* \"contracts/voting.sol\":3614:3626  voterDetails */\n      0x07\n        /* \"contracts/voting.sol\":3614:3639  voterDetails[nextVoterId] */\n      0x00\n        /* \"contracts/voting.sol\":3627:3638  nextVoterId */\n      sload(0x02)\n        /* \"contracts/voting.sol\":3614:3639  voterDetails[nextVoterId] */\n      dup2\n      mstore\n      0x20\n      add\n      swap1\n      dup2\n      mstore\n      0x20\n      add\n      0x00\n      keccak256\n        /* \"contracts/voting.sol\":3614:3779  voterDetails[nextVoterId] = Voter(... */\n      0x00\n      dup3\n      add\n      mload\n      dup2\n      0x00\n      add\n      swap1\n      dup2\n      tag_125\n      swap2\n      swap1\n      tag_126\n      jump\t// in\n    tag_125:\n      pop\n      0x20\n      dup3\n      add\n      mload\n      dup2\n      0x01\n      add\n      sstore\n      0x40\n      dup3\n      add\n      mload\n      dup2\n      0x02\n      add\n      sstore\n      0x60\n      dup3\n      add\n      mload\n      dup2\n      0x03\n      add\n      exp(0x0100, 0x00)\n      dup2\n      sload\n      dup2\n      0xff\n      mul\n      not\n      and\n      swap1\n      dup4\n      0x03\n      dup2\n      gt\n      iszero\n      tag_127\n      jumpi\n      tag_128\n      tag_95\n      jump\t// in\n    tag_128:\n    tag_127:\n      mul\n      or\n      swap1\n      sstore\n      pop\n      0x80\n      dup3\n      add\n      mload\n      dup2\n      0x04\n      add\n      sstore\n      0xa0\n      dup3\n      add\n      mload\n      dup2\n      0x05\n      add\n      exp(0x0100, 0x00)\n      dup2\n      sload\n      dup2\n      0xffffffffffffffffffffffffffffffffffffffff\n      mul\n      not\n      and\n      swap1\n      dup4\n      0xffffffffffffffffffffffffffffffffffffffff\n      and\n      mul\n      or\n      swap1\n      sstore\n      pop\n      swap1\n      pop\n      pop\n        /* \"contracts/voting.sol\":3789:3800  nextVoterId */\n      0x02\n      0x00\n        /* \"contracts/voting.sol\":3789:3802  nextVoterId++ */\n      dup2\n      sload\n      dup1\n      swap3\n      swap2\n      swap1\n      tag_129\n      swap1\n      tag_67\n      jump\t// in\n    tag_129:\n      swap2\n      swap1\n      pop\n      sstore\n      pop\n        /* \"contracts/voting.sol\":3296:3809  function registerVoter(... */\n      pop\n      pop\n      pop\n      pop\n      jump\t// out\n        /* \"contracts/voting.sol\":1380:2240  function registerCandidate(... */\n    tag_31:\n        /* \"contracts/voting.sol\":1123:1130  endTime */\n      sload(0x05)\n        /* \"contracts/voting.sol\":1105:1120  block.timestamp */\n      timestamp\n        /* \"contracts/voting.sol\":1105:1130  block.timestamp < endTime */\n      lt\n        /* \"contracts/voting.sol\":1105:1145  block.timestamp < endTime || !stopVoting */\n      dup1\n      tag_131\n      jumpi\n      pop\n        /* \"contracts/voting.sol\":1135:1145  stopVoting */\n      0x06\n      0x00\n      swap1\n      sload\n      swap1\n      0x0100\n      exp\n      swap1\n      div\n      0xff\n      and\n        /* \"contracts/voting.sol\":1134:1145  !stopVoting */\n      iszero\n        /* \"contracts/voting.sol\":1105:1145  block.timestamp < endTime || !stopVoting */\n    tag_131:\n        /* \"contracts/voting.sol\":1097:1166  require(block.timestamp < endTime || !stopVoting, \"Voting is Over !\") */\n      tag_132\n      jumpi\n      mload(0x40)\n      0x08c379a000000000000000000000000000000000000000000000000000000000\n      dup2\n      mstore\n      0x04\n      add\n      tag_133\n      swap1\n      tag_53\n      jump\t// in\n    tag_133:\n      mload(0x40)\n      dup1\n      swap2\n      sub\n      swap1\n      revert\n    tag_132:\n        /* \"contracts/voting.sol\":1582:1584  18 */\n      0x12\n        /* \"contracts/voting.sol\":1575:1579  _age */\n      dup3\n        /* \"contracts/voting.sol\":1575:1584  _age > 18 */\n      gt\n        /* \"contracts/voting.sol\":1575:1597  _age > 18 && _age < 60 */\n      dup1\n      iszero\n      tag_135\n      jumpi\n      pop\n        /* \"contracts/voting.sol\":1595:1597  60 */\n      0x3c\n        /* \"contracts/voting.sol\":1588:1592  _age */\n      dup3\n        /* \"contracts/voting.sol\":1588:1597  _age < 60 */\n      lt\n        /* \"contracts/voting.sol\":1575:1597  _age > 18 && _age < 60 */\n    tag_135:\n        /* \"contracts/voting.sol\":1554:1668  require(... */\n      tag_136\n      jumpi\n      mload(0x40)\n      0x08c379a000000000000000000000000000000000000000000000000000000000\n      dup2\n      mstore\n      0x04\n      add\n      tag_137\n      swap1\n      tag_138\n      jump\t// in\n    tag_137:\n      mload(0x40)\n      dup1\n      swap2\n      sub\n      swap1\n      revert\n    tag_136:\n        /* \"contracts/voting.sol\":1700:1733  isCandidateRegistered(msg.sender) */\n      tag_139\n        /* \"contracts/voting.sol\":1722:1732  msg.sender */\n      caller\n        /* \"contracts/voting.sol\":1700:1721  isCandidateRegistered */\n      tag_62\n        /* \"contracts/voting.sol\":1700:1733  isCandidateRegistered(msg.sender) */\n      jump\t// in\n    tag_139:\n        /* \"contracts/voting.sol\":1699:1733  !isCandidateRegistered(msg.sender) */\n      iszero\n        /* \"contracts/voting.sol\":1678:1788  require(... */\n      tag_140\n      jumpi\n      mload(0x40)\n      0x08c379a000000000000000000000000000000000000000000000000000000000\n      dup2\n      mstore\n      0x04\n      add\n      tag_141\n      swap1\n      tag_142\n      jump\t// in\n    tag_141:\n      mload(0x40)\n      dup1\n      swap2\n      sub\n      swap1\n      revert\n    tag_140:\n        /* \"contracts/voting.sol\":1824:1825  3 */\n      0x03\n        /* \"contracts/voting.sol\":1806:1821  nextCandidateId */\n      dup1\n      sload\n        /* \"contracts/voting.sol\":1806:1825  nextCandidateId < 3 */\n      lt\n        /* \"contracts/voting.sol\":1798:1862  require(nextCandidateId < 3, \"Candidate registration is full !\") */\n      tag_143\n      jumpi\n      mload(0x40)\n      0x08c379a000000000000000000000000000000000000000000000000000000000\n      dup2\n      mstore\n      0x04\n      add\n      tag_144\n      swap1\n      tag_145\n      jump\t// in\n    tag_144:\n      mload(0x40)\n      dup1\n      swap2\n      sub\n      swap1\n      revert\n    tag_143:\n        /* \"contracts/voting.sol\":1907:1925  electionCommission */\n      0x00\n      dup1\n      sload\n      swap1\n      0x0100\n      exp\n      swap1\n      div\n      0xffffffffffffffffffffffffffffffffffffffff\n      and\n        /* \"contracts/voting.sol\":1893:1925  msg.sender != electionCommission */\n      0xffffffffffffffffffffffffffffffffffffffff\n      and\n        /* \"contracts/voting.sol\":1893:1903  msg.sender */\n      caller\n        /* \"contracts/voting.sol\":1893:1925  msg.sender != electionCommission */\n      0xffffffffffffffffffffffffffffffffffffffff\n      and\n      sub\n        /* \"contracts/voting.sol\":1872:1994  require(... */\n      tag_146\n      jumpi\n      mload(0x40)\n      0x08c379a000000000000000000000000000000000000000000000000000000000\n      dup2\n      mstore\n      0x04\n      add\n      tag_147\n      swap1\n      tag_148\n      jump\t// in\n    tag_147:\n      mload(0x40)\n      dup1\n      swap2\n      sub\n      swap1\n      revert\n    tag_146:\n        /* \"contracts/voting.sol\":2041:2206  Candidate(... */\n      mload(0x40)\n      dup1\n      0xe0\n      add\n      0x40\n      mstore\n      dup1\n        /* \"contracts/voting.sol\":2064:2069  _name */\n      dup8\n      dup8\n        /* \"contracts/voting.sol\":2041:2206  Candidate(... */\n      dup1\n      dup1\n      0x1f\n      add\n      0x20\n      dup1\n      swap2\n      div\n      mul\n      0x20\n      add\n      mload(0x40)\n      swap1\n      dup2\n      add\n      0x40\n      mstore\n      dup1\n      swap4\n      swap3\n      swap2\n      swap1\n      dup2\n      dup2\n      mstore\n      0x20\n      add\n      dup4\n      dup4\n      dup1\n      dup3\n      dup5\n      calldatacopy\n      0x00\n      dup2\n      dup5\n      add\n      mstore\n      not(0x1f)\n      0x1f\n      dup3\n      add\n      and\n      swap1\n      pop\n      dup1\n      dup4\n      add\n      swap3\n      pop\n      pop\n      pop\n      pop\n      pop\n      pop\n      pop\n      dup2\n      mstore\n      0x20\n      add\n        /* \"contracts/voting.sol\":2083:2089  _party */\n      dup6\n      dup6\n        /* \"contracts/voting.sol\":2041:2206  Candidate(... */\n      dup1\n      dup1\n      0x1f\n      add\n      0x20\n      dup1\n      swap2\n      div\n      mul\n      0x20\n      add\n      mload(0x40)\n      swap1\n      dup2\n      add\n      0x40\n      mstore\n      dup1\n      swap4\n      swap3\n      swap2\n      swap1\n      dup2\n      dup2\n      mstore\n      0x20\n      add\n      dup4\n      dup4\n      dup1\n      dup3\n      dup5\n      calldatacopy\n      0x00\n      dup2\n      dup5\n      add\n      mstore\n      not(0x1f)\n      0x1f\n      dup3\n      add\n      and\n      swap1\n      pop\n      dup1\n      dup4\n      add\n      swap3\n      pop\n      pop\n      pop\n      pop\n      pop\n      pop\n      pop\n      dup2\n      mstore\n      0x20\n      add\n        /* \"contracts/voting.sol\":2103:2107  _age */\n      dup4\n        /* \"contracts/voting.sol\":2041:2206  Candidate(... */\n      dup2\n      mstore\n      0x20\n      add\n        /* \"contracts/voting.sol\":2121:2128  _gender */\n      dup3\n        /* \"contracts/voting.sol\":2041:2206  Candidate(... */\n      0x03\n      dup2\n      gt\n      iszero\n      tag_149\n      jumpi\n      tag_150\n      tag_95\n      jump\t// in\n    tag_150:\n    tag_149:\n      dup2\n      mstore\n      0x20\n      add\n        /* \"contracts/voting.sol\":2142:2157  nextCandidateId */\n      sload(0x03)\n        /* \"contracts/voting.sol\":2041:2206  Candidate(... */\n      dup2\n      mstore\n      0x20\n      add\n        /* \"contracts/voting.sol\":2171:2181  msg.sender */\n      caller\n        /* \"contracts/voting.sol\":2041:2206  Candidate(... */\n      0xffffffffffffffffffffffffffffffffffffffff\n      and\n      dup2\n      mstore\n      0x20\n      add\n        /* \"contracts/voting.sol\":2195:2196  0 */\n      0x00\n        /* \"contracts/voting.sol\":2041:2206  Candidate(... */\n      dup2\n      mstore\n      pop\n        /* \"contracts/voting.sol\":2005:2021  candidateDetails */\n      0x08\n        /* \"contracts/voting.sol\":2005:2038  candidateDetails[nextCandidateId] */\n      0x00\n        /* \"contracts/voting.sol\":2022:2037  nextCandidateId */\n      sload(0x03)\n        /* \"contracts/voting.sol\":2005:2038  candidateDetails[nextCandidateId] */\n      dup2\n      mstore\n      0x20\n      add\n      swap1\n      dup2\n      mstore\n      0x20\n      add\n      0x00\n      keccak256\n        /* \"contracts/voting.sol\":2005:2206  candidateDetails[nextCandidateId] = Candidate(... */\n      0x00\n      dup3\n      add\n      mload\n      dup2\n      0x00\n      add\n      swap1\n      dup2\n      tag_151\n      swap2\n      swap1\n      tag_126\n      jump\t// in\n    tag_151:\n      pop\n      0x20\n      dup3\n      add\n      mload\n      dup2\n      0x01\n      add\n      swap1\n      dup2\n      tag_152\n      swap2\n      swap1\n      tag_126\n      jump\t// in\n    tag_152:\n      pop\n      0x40\n      dup3\n      add\n      mload\n      dup2\n      0x02\n      add\n      sstore\n      0x60\n      dup3\n      add\n      mload\n      dup2\n      0x03\n      add\n      exp(0x0100, 0x00)\n      dup2\n      sload\n      dup2\n      0xff\n      mul\n      not\n      and\n      swap1\n      dup4\n      0x03\n      dup2\n      gt\n      iszero\n      tag_153\n      jumpi\n      tag_154\n      tag_95\n      jump\t// in\n    tag_154:\n    tag_153:\n      mul\n      or\n      swap1\n      sstore\n      pop\n      0x80\n      dup3\n      add\n      mload\n      dup2\n      0x04\n      add\n      sstore\n      0xa0\n      dup3\n      add\n      mload\n      dup2\n      0x05\n      add\n      exp(0x0100, 0x00)\n      dup2\n      sload\n      dup2\n      0xffffffffffffffffffffffffffffffffffffffff\n      mul\n      not\n      and\n      swap1\n      dup4\n      0xffffffffffffffffffffffffffffffffffffffff\n      and\n      mul\n      or\n      swap1\n      sstore\n      pop\n      0xc0\n      dup3\n      add\n      mload\n      dup2\n      0x06\n      add\n      sstore\n      swap1\n      pop\n      pop\n        /* \"contracts/voting.sol\":2216:2231  nextCandidateId */\n      0x03\n      0x00\n        /* \"contracts/voting.sol\":2216:2233  nextCandidateId++ */\n      dup2\n      sload\n      dup1\n      swap3\n      swap2\n      swap1\n      tag_155\n      swap1\n      tag_67\n      jump\t// in\n    tag_155:\n      swap2\n      swap1\n      pop\n      sstore\n      pop\n        /* \"contracts/voting.sol\":1380:2240  function registerCandidate(... */\n      pop\n      pop\n      pop\n      pop\n      pop\n      pop\n      jump\t// out\n        /* \"contracts/voting.sol\":5874:5963  function emergencyStopVoting() public onlyCommissioner {... */\n    tag_33:\n        /* \"contracts/voting.sol\":1263:1281  electionCommission */\n      0x00\n      dup1\n      sload\n      swap1\n      0x0100\n      exp\n      swap1\n      div\n      0xffffffffffffffffffffffffffffffffffffffff\n      and\n        /* \"contracts/voting.sol\":1249:1281  msg.sender == electionCommission */\n      0xffffffffffffffffffffffffffffffffffffffff\n      and\n        /* \"contracts/voting.sol\":1249:1259  msg.sender */\n      caller\n        /* \"contracts/voting.sol\":1249:1281  msg.sender == electionCommission */\n      0xffffffffffffffffffffffffffffffffffffffff\n      and\n      eq\n        /* \"contracts/voting.sol\":1228:1356  require(... */\n      tag_157\n      jumpi\n      mload(0x40)\n      0x08c379a000000000000000000000000000000000000000000000000000000000\n      dup2\n      mstore\n      0x04\n      add\n      tag_158\n      swap1\n      tag_77\n      jump\t// in\n    tag_158:\n      mload(0x40)\n      dup1\n      swap2\n      sub\n      swap1\n      revert\n    tag_157:\n        /* \"contracts/voting.sol\":5952:5956  true */\n      0x01\n        /* \"contracts/voting.sol\":5939:5949  stopVoting */\n      0x06\n      0x00\n        /* \"contracts/voting.sol\":5939:5956  stopVoting = true */\n      0x0100\n      exp\n      dup2\n      sload\n      dup2\n      0xff\n      mul\n      not\n      and\n      swap1\n      dup4\n      iszero\n      iszero\n      mul\n      or\n      swap1\n      sstore\n      pop\n        /* \"contracts/voting.sol\":5874:5963  function emergencyStopVoting() public onlyCommissioner {... */\n      jump\t// out\n        /* \"contracts/voting.sol\":4828:5136  function setVotingPeriod(uint256 _startTime, uint256 _endTime)... */\n    tag_36:\n        /* \"contracts/voting.sol\":1263:1281  electionCommission */\n      0x00\n      dup1\n      sload\n      swap1\n      0x0100\n      exp\n      swap1\n      div\n      0xffffffffffffffffffffffffffffffffffffffff\n      and\n        /* \"contracts/voting.sol\":1249:1281  msg.sender == electionCommission */\n      0xffffffffffffffffffffffffffffffffffffffff\n      and\n        /* \"contracts/voting.sol\":1249:1259  msg.sender */\n      caller\n        /* \"contracts/voting.sol\":1249:1281  msg.sender == electionCommission */\n      0xffffffffffffffffffffffffffffffffffffffff\n      and\n      eq\n        /* \"contracts/voting.sol\":1228:1356  require(... */\n      tag_161\n      jumpi\n      mload(0x40)\n      0x08c379a000000000000000000000000000000000000000000000000000000000\n      dup2\n      mstore\n      0x04\n      add\n      tag_162\n      swap1\n      tag_77\n      jump\t// in\n    tag_162:\n      mload(0x40)\n      dup1\n      swap2\n      sub\n      swap1\n      revert\n    tag_161:\n        /* \"contracts/voting.sol\":1123:1130  endTime */\n      sload(0x05)\n        /* \"contracts/voting.sol\":1105:1120  block.timestamp */\n      timestamp\n        /* \"contracts/voting.sol\":1105:1130  block.timestamp < endTime */\n      lt\n        /* \"contracts/voting.sol\":1105:1145  block.timestamp < endTime || !stopVoting */\n      dup1\n      tag_164\n      jumpi\n      pop\n        /* \"contracts/voting.sol\":1135:1145  stopVoting */\n      0x06\n      0x00\n      swap1\n      sload\n      swap1\n      0x0100\n      exp\n      swap1\n      div\n      0xff\n      and\n        /* \"contracts/voting.sol\":1134:1145  !stopVoting */\n      iszero\n        /* \"contracts/voting.sol\":1105:1145  block.timestamp < endTime || !stopVoting */\n    tag_164:\n        /* \"contracts/voting.sol\":1097:1166  require(block.timestamp < endTime || !stopVoting, \"Voting is Over !\") */\n      tag_165\n      jumpi\n      mload(0x40)\n      0x08c379a000000000000000000000000000000000000000000000000000000000\n      dup2\n      mstore\n      0x04\n      add\n      tag_166\n      swap1\n      tag_53\n      jump\t// in\n    tag_166:\n      mload(0x40)\n      dup1\n      swap2\n      sub\n      swap1\n      revert\n    tag_165:\n        /* \"contracts/voting.sol\":4987:4991  3600 */\n      0x0e10\n        /* \"contracts/voting.sol\":4976:4984  _endTime */\n      dup2\n        /* \"contracts/voting.sol\":4976:4991  _endTime > 3600 */\n      gt\n        /* \"contracts/voting.sol\":4968:5039  require(_endTime > 3600, \"Endtime duration must be more than 1 hour !\") */\n      tag_168\n      jumpi\n      mload(0x40)\n      0x08c379a000000000000000000000000000000000000000000000000000000000\n      dup2\n      mstore\n      0x04\n      add\n      tag_169\n      swap1\n      tag_170\n      jump\t// in\n    tag_169:\n      mload(0x40)\n      dup1\n      swap2\n      sub\n      swap1\n      revert\n    tag_168:\n        /* \"contracts/voting.sol\":5079:5089  _startTime */\n      dup2\n        /* \"contracts/voting.sol\":5061:5076  block.timestamp */\n      timestamp\n        /* \"contracts/voting.sol\":5061:5089  block.timestamp + _startTime */\n      tag_171\n      swap2\n      swap1\n      tag_172\n      jump\t// in\n    tag_171:\n        /* \"contracts/voting.sol\":5049:5058  startTime */\n      0x04\n        /* \"contracts/voting.sol\":5049:5089  startTime = block.timestamp + _startTime */\n      dup2\n      swap1\n      sstore\n      pop\n        /* \"contracts/voting.sol\":5121:5129  _endTime */\n      dup1\n        /* \"contracts/voting.sol\":5109:5118  startTime */\n      sload(0x04)\n        /* \"contracts/voting.sol\":5109:5129  startTime + _endTime */\n      tag_173\n      swap2\n      swap1\n      tag_172\n      jump\t// in\n    tag_173:\n        /* \"contracts/voting.sol\":5099:5106  endTime */\n      0x05\n        /* \"contracts/voting.sol\":5099:5129  endTime = startTime + _endTime */\n      dup2\n      swap1\n      sstore\n      pop\n        /* \"contracts/voting.sol\":4828:5136  function setVotingPeriod(uint256 _startTime, uint256 _endTime)... */\n      pop\n      pop\n      jump\t// out\n        /* \"contracts/voting.sol\":3815:4085  function getVoterList() public view returns (Voter[] memory) {... */\n    tag_38:\n        /* \"contracts/voting.sol\":3860:3874  Voter[] memory */\n      0x60\n        /* \"contracts/voting.sol\":3886:3907  Voter[] memory voters */\n      0x00\n        /* \"contracts/voting.sol\":3936:3937  1 */\n      0x01\n        /* \"contracts/voting.sol\":3922:3933  nextVoterId */\n      sload(0x02)\n        /* \"contracts/voting.sol\":3922:3937  nextVoterId - 1 */\n      tag_175\n      swap2\n      swap1\n      tag_176\n      jump\t// in\n    tag_175:\n        /* \"contracts/voting.sol\":3910:3938  new Voter[](nextVoterId - 1) */\n      0xffffffffffffffff\n      dup2\n      gt\n      iszero\n      tag_177\n      jumpi\n      tag_178\n      tag_179\n      jump\t// in\n    tag_178:\n    tag_177:\n      mload(0x40)\n      swap1\n      dup1\n      dup3\n      mstore\n      dup1\n      0x20\n      mul\n      0x20\n      add\n      dup3\n      add\n      0x40\n      mstore\n      dup1\n      iszero\n      tag_180\n      jumpi\n      dup2\n      0x20\n      add\n    tag_181:\n      tag_182\n      tag_183\n      jump\t// in\n    tag_182:\n      dup2\n      mstore\n      0x20\n      add\n      swap1\n      0x01\n      swap1\n      sub\n      swap1\n      dup2\n      tag_181\n      jumpi\n      swap1\n      pop\n    tag_180:\n      pop\n        /* \"contracts/voting.sol\":3886:3938  Voter[] memory voters = new Voter[](nextVoterId - 1) */\n      swap1\n      pop\n        /* \"contracts/voting.sol\":3954:3963  uint256 i */\n      0x00\n        /* \"contracts/voting.sol\":3949:4055  for (uint256 i = 0; i < nextCandidateId - 1; i++) {... */\n    tag_184:\n        /* \"contracts/voting.sol\":3991:3992  1 */\n      0x01\n        /* \"contracts/voting.sol\":3973:3988  nextCandidateId */\n      sload(0x03)\n        /* \"contracts/voting.sol\":3973:3992  nextCandidateId - 1 */\n      tag_187\n      swap2\n      swap1\n      tag_176\n      jump\t// in\n    tag_187:\n        /* \"contracts/voting.sol\":3969:3970  i */\n      dup2\n        /* \"contracts/voting.sol\":3969:3992  i < nextCandidateId - 1 */\n      lt\n        /* \"contracts/voting.sol\":3949:4055  for (uint256 i = 0; i < nextCandidateId - 1; i++) {... */\n      iszero\n      tag_185\n      jumpi\n        /* \"contracts/voting.sol\":4025:4037  voterDetails */\n      0x07\n        /* \"contracts/voting.sol\":4025:4044  voterDetails[i + 1] */\n      0x00\n        /* \"contracts/voting.sol\":4042:4043  1 */\n      0x01\n        /* \"contracts/voting.sol\":4038:4039  i */\n      dup4\n        /* \"contracts/voting.sol\":4038:4043  i + 1 */\n      tag_188\n      swap2\n      swap1\n      tag_172\n      jump\t// in\n    tag_188:\n        /* \"contracts/voting.sol\":4025:4044  voterDetails[i + 1] */\n      dup2\n      mstore\n      0x20\n      add\n      swap1\n      dup2\n      mstore\n      0x20\n      add\n      0x00\n      keccak256\n        /* \"contracts/voting.sol\":4013:4044  voters[i] = voterDetails[i + 1] */\n      mload(0x40)\n      dup1\n      0xc0\n      add\n      0x40\n      mstore\n      swap1\n      dup2\n      0x00\n      dup3\n      add\n      dup1\n      sload\n      tag_189\n      swap1\n      tag_83\n      jump\t// in\n    tag_189:\n      dup1\n      0x1f\n      add\n      0x20\n      dup1\n      swap2\n      div\n      mul\n      0x20\n      add\n      mload(0x40)\n      swap1\n      dup2\n      add\n      0x40\n      mstore\n      dup1\n      swap3\n      swap2\n      swap1\n      dup2\n      dup2\n      mstore\n      0x20\n      add\n      dup3\n      dup1\n      sload\n      tag_190\n      swap1\n      tag_83\n      jump\t// in\n    tag_190:\n      dup1\n      iszero\n      tag_191\n      jumpi\n      dup1\n      0x1f\n      lt\n      tag_192\n      jumpi\n      0x0100\n      dup1\n      dup4\n      sload\n      div\n      mul\n      dup4\n      mstore\n      swap2\n      0x20\n      add\n      swap2\n      jump(tag_191)\n    tag_192:\n      dup3\n      add\n      swap2\n      swap1\n      0x00\n      mstore\n      keccak256(0x00, 0x20)\n      swap1\n    tag_193:\n      dup2\n      sload\n      dup2\n      mstore\n      swap1\n      0x01\n      add\n      swap1\n      0x20\n      add\n      dup1\n      dup4\n      gt\n      tag_193\n      jumpi\n      dup3\n      swap1\n      sub\n      0x1f\n      and\n      dup3\n      add\n      swap2\n    tag_191:\n      pop\n      pop\n      pop\n      pop\n      pop\n      dup2\n      mstore\n      0x20\n      add\n      0x01\n      dup3\n      add\n      sload\n      dup2\n      mstore\n      0x20\n      add\n      0x02\n      dup3\n      add\n      sload\n      dup2\n      mstore\n      0x20\n      add\n      0x03\n      dup3\n      add\n      0x00\n      swap1\n      sload\n      swap1\n      0x0100\n      exp\n      swap1\n      div\n      0xff\n      and\n      0x03\n      dup2\n      gt\n      iszero\n      tag_194\n      jumpi\n      tag_195\n      tag_95\n      jump\t// in\n    tag_195:\n    tag_194:\n      0x03\n      dup2\n      gt\n      iszero\n      tag_196\n      jumpi\n      tag_197\n      tag_95\n      jump\t// in\n    tag_197:\n    tag_196:\n      dup2\n      mstore\n      0x20\n      add\n      0x04\n      dup3\n      add\n      sload\n      dup2\n      mstore\n      0x20\n      add\n      0x05\n      dup3\n      add\n      0x00\n      swap1\n      sload\n      swap1\n      0x0100\n      exp\n      swap1\n      div\n      0xffffffffffffffffffffffffffffffffffffffff\n      and\n      0xffffffffffffffffffffffffffffffffffffffff\n      and\n      0xffffffffffffffffffffffffffffffffffffffff\n      and\n      dup2\n      mstore\n      pop\n      pop\n        /* \"contracts/voting.sol\":4013:4019  voters */\n      dup3\n        /* \"contracts/voting.sol\":4020:4021  i */\n      dup3\n        /* \"contracts/voting.sol\":4013:4022  voters[i] */\n      dup2\n      mload\n      dup2\n      lt\n      tag_198\n      jumpi\n      tag_199\n      tag_200\n      jump\t// in\n    tag_199:\n    tag_198:\n      0x20\n      mul\n      0x20\n      add\n      add\n        /* \"contracts/voting.sol\":4013:4044  voters[i] = voterDetails[i + 1] */\n      dup2\n      swap1\n      mstore\n      pop\n        /* \"contracts/voting.sol\":3994:3997  i++ */\n      dup1\n      dup1\n      0x01\n      add\n      swap2\n      pop\n      pop\n        /* \"contracts/voting.sol\":3949:4055  for (uint256 i = 0; i < nextCandidateId - 1; i++) {... */\n      jump(tag_184)\n    tag_185:\n      pop\n        /* \"contracts/voting.sol\":4072:4078  voters */\n      dup1\n        /* \"contracts/voting.sol\":4065:4078  return voters */\n      swap2\n      pop\n      pop\n        /* \"contracts/voting.sol\":3815:4085  function getVoterList() public view returns (Voter[] memory) {... */\n      swap1\n      jump\t// out\n        /* \"contracts/voting.sol\":537:558  address public winner */\n    tag_42:\n      0x01\n      0x00\n      swap1\n      sload\n      swap1\n      0x0100\n      exp\n      swap1\n      div\n      0xffffffffffffffffffffffffffffffffffffffff\n      and\n      dup2\n      jump\t// out\n        /* \"contracts/voting.sol\":2711:3017  function getCandidateList() public view returns (Candidate[] memory) {... */\n    tag_46:\n        /* \"contracts/voting.sol\":2760:2778  Candidate[] memory */\n      0x60\n        /* \"contracts/voting.sol\":2790:2819  Candidate[] memory candidates */\n      0x00\n        /* \"contracts/voting.sol\":2856:2857  1 */\n      0x01\n        /* \"contracts/voting.sol\":2838:2853  nextCandidateId */\n      sload(0x03)\n        /* \"contracts/voting.sol\":2838:2857  nextCandidateId - 1 */\n      tag_202\n      swap2\n      swap1\n      tag_176\n      jump\t// in\n    tag_202:\n        /* \"contracts/voting.sol\":2822:2858  new Candidate[](nextCandidateId - 1) */\n      0xffffffffffffffff\n      dup2\n      gt\n      iszero\n      tag_203\n      jumpi\n      tag_204\n      tag_179\n      jump\t// in\n    tag_204:\n    tag_203:\n      mload(0x40)\n      swap1\n      dup1\n      dup3\n      mstore\n      dup1\n      0x20\n      mul\n      0x20\n      add\n      dup3\n      add\n      0x40\n      mstore\n      dup1\n      iszero\n      tag_205\n      jumpi\n      dup2\n      0x20\n      add\n    tag_206:\n      tag_207\n      tag_208\n      jump\t// in\n    tag_207:\n      dup2\n      mstore\n      0x20\n      add\n      swap1\n      0x01\n      swap1\n      sub\n      swap1\n      dup2\n      tag_206\n      jumpi\n      swap1\n      pop\n    tag_205:\n      pop\n        /* \"contracts/voting.sol\":2790:2858  Candidate[] memory candidates = new Candidate[](nextCandidateId - 1) */\n      swap1\n      pop\n        /* \"contracts/voting.sol\":2874:2883  uint256 i */\n      0x00\n        /* \"contracts/voting.sol\":2869:2983  for (uint256 i = 0; i < nextCandidateId - 1; i++) {... */\n    tag_209:\n        /* \"contracts/voting.sol\":2911:2912  1 */\n      0x01\n        /* \"contracts/voting.sol\":2893:2908  nextCandidateId */\n      sload(0x03)\n        /* \"contracts/voting.sol\":2893:2912  nextCandidateId - 1 */\n      tag_212\n      swap2\n      swap1\n      tag_176\n      jump\t// in\n    tag_212:\n        /* \"contracts/voting.sol\":2889:2890  i */\n      dup2\n        /* \"contracts/voting.sol\":2889:2912  i < nextCandidateId - 1 */\n      lt\n        /* \"contracts/voting.sol\":2869:2983  for (uint256 i = 0; i < nextCandidateId - 1; i++) {... */\n      iszero\n      tag_210\n      jumpi\n        /* \"contracts/voting.sol\":2949:2965  candidateDetails */\n      0x08\n        /* \"contracts/voting.sol\":2949:2972  candidateDetails[i + 1] */\n      0x00\n        /* \"contracts/voting.sol\":2970:2971  1 */\n      0x01\n        /* \"contracts/voting.sol\":2966:2967  i */\n      dup4\n        /* \"contracts/voting.sol\":2966:2971  i + 1 */\n      tag_213\n      swap2\n      swap1\n      tag_172\n      jump\t// in\n    tag_213:\n        /* \"contracts/voting.sol\":2949:2972  candidateDetails[i + 1] */\n      dup2\n      mstore\n      0x20\n      add\n      swap1\n      dup2\n      mstore\n      0x20\n      add\n      0x00\n      keccak256\n        /* \"contracts/voting.sol\":2933:2972  candidates[i] = candidateDetails[i + 1] */\n      mload(0x40)\n      dup1\n      0xe0\n      add\n      0x40\n      mstore\n      swap1\n      dup2\n      0x00\n      dup3\n      add\n      dup1\n      sload\n      tag_214\n      swap1\n      tag_83\n      jump\t// in\n    tag_214:\n      dup1\n      0x1f\n      add\n      0x20\n      dup1\n      swap2\n      div\n      mul\n      0x20\n      add\n      mload(0x40)\n      swap1\n      dup2\n      add\n      0x40\n      mstore\n      dup1\n      swap3\n      swap2\n      swap1\n      dup2\n      dup2\n      mstore\n      0x20\n      add\n      dup3\n      dup1\n      sload\n      tag_215\n      swap1\n      tag_83\n      jump\t// in\n    tag_215:\n      dup1\n      iszero\n      tag_216\n      jumpi\n      dup1\n      0x1f\n      lt\n      tag_217\n      jumpi\n      0x0100\n      dup1\n      dup4\n      sload\n      div\n      mul\n      dup4\n      mstore\n      swap2\n      0x20\n      add\n      swap2\n      jump(tag_216)\n    tag_217:\n      dup3\n      add\n      swap2\n      swap1\n      0x00\n      mstore\n      keccak256(0x00, 0x20)\n      swap1\n    tag_218:\n      dup2\n      sload\n      dup2\n      mstore\n      swap1\n      0x01\n      add\n      swap1\n      0x20\n      add\n      dup1\n      dup4\n      gt\n      tag_218\n      jumpi\n      dup3\n      swap1\n      sub\n      0x1f\n      and\n      dup3\n      add\n      swap2\n    tag_216:\n      pop\n      pop\n      pop\n      pop\n      pop\n      dup2\n      mstore\n      0x20\n      add\n      0x01\n      dup3\n      add\n      dup1\n      sload\n      tag_219\n      swap1\n      tag_83\n      jump\t// in\n    tag_219:\n      dup1\n      0x1f\n      add\n      0x20\n      dup1\n      swap2\n      div\n      mul\n      0x20\n      add\n      mload(0x40)\n      swap1\n      dup2\n      add\n      0x40\n      mstore\n      dup1\n      swap3\n      swap2\n      swap1\n      dup2\n      dup2\n      mstore\n      0x20\n      add\n      dup3\n      dup1\n      sload\n      tag_220\n      swap1\n      tag_83\n      jump\t// in\n    tag_220:\n      dup1\n      iszero\n      tag_221\n      jumpi\n      dup1\n      0x1f\n      lt\n      tag_222\n      jumpi\n      0x0100\n      dup1\n      dup4\n      sload\n      div\n      mul\n      dup4\n      mstore\n      swap2\n      0x20\n      add\n      swap2\n      jump(tag_221)\n    tag_222:\n      dup3\n      add\n      swap2\n      swap1\n      0x00\n      mstore\n      keccak256(0x00, 0x20)\n      swap1\n    tag_223:\n      dup2\n      sload\n      dup2\n      mstore\n      swap1\n      0x01\n      add\n      swap1\n      0x20\n      add\n      dup1\n      dup4\n      gt\n      tag_223\n      jumpi\n      dup3\n      swap1\n      sub\n      0x1f\n      and\n      dup3\n      add\n      swap2\n    tag_221:\n      pop\n      pop\n      pop\n      pop\n      pop\n      dup2\n      mstore\n      0x20\n      add\n      0x02\n      dup3\n      add\n      sload\n      dup2\n      mstore\n      0x20\n      add\n      0x03\n      dup3\n      add\n      0x00\n      swap1\n      sload\n      swap1\n      0x0100\n      exp\n      swap1\n      div\n      0xff\n      and\n      0x03\n      dup2\n      gt\n      iszero\n      tag_224\n      jumpi\n      tag_225\n      tag_95\n      jump\t// in\n    tag_225:\n    tag_224:\n      0x03\n      dup2\n      gt\n      iszero\n      tag_226\n      jumpi\n      tag_227\n      tag_95\n      jump\t// in\n    tag_227:\n    tag_226:\n      dup2\n      mstore\n      0x20\n      add\n      0x04\n      dup3\n      add\n      sload\n      dup2\n      mstore\n      0x20\n      add\n      0x05\n      dup3\n      add\n      0x00\n      swap1\n      sload\n      swap1\n      0x0100\n      exp\n      swap1\n      div\n      0xffffffffffffffffffffffffffffffffffffffff\n      and\n      0xffffffffffffffffffffffffffffffffffffffff\n      and\n      0xffffffffffffffffffffffffffffffffffffffff\n      and\n      dup2\n      mstore\n      0x20\n      add\n      0x06\n      dup3\n      add\n      sload\n      dup2\n      mstore\n      pop\n      pop\n        /* \"contracts/voting.sol\":2933:2943  candidates */\n      dup3\n        /* \"contracts/voting.sol\":2944:2945  i */\n      dup3\n        /* \"contracts/voting.sol\":2933:2946  candidates[i] */\n      dup2\n      mload\n      dup2\n      lt\n      tag_228\n      jumpi\n      tag_229\n      tag_200\n      jump\t// in\n    tag_229:\n    tag_228:\n      0x20\n      mul\n      0x20\n      add\n      add\n        /* \"contracts/voting.sol\":2933:2972  candidates[i] = candidateDetails[i + 1] */\n      dup2\n      swap1\n      mstore\n      pop\n        /* \"contracts/voting.sol\":2914:2917  i++ */\n      dup1\n      dup1\n      0x01\n      add\n      swap2\n      pop\n      pop\n        /* \"contracts/voting.sol\":2869:2983  for (uint256 i = 0; i < nextCandidateId - 1; i++) {... */\n      jump(tag_209)\n    tag_210:\n      pop\n        /* \"contracts/voting.sol\":3000:3010  candidates */\n      dup1\n        /* \"contracts/voting.sol\":2993:3010  return candidates */\n      swap2\n      pop\n      pop\n        /* \"contracts/voting.sol\":2711:3017  function getCandidateList() public view returns (Candidate[] memory) {... */\n      swap1\n      jump\t// out\n        /* \"contracts/voting.sol\":2246:2705  function isCandidateRegistered(address _person)... */\n    tag_62:\n        /* \"contracts/voting.sol\":2341:2345  bool */\n      0x00\n        /* \"contracts/voting.sol\":2366:2375  uint256 i */\n      dup1\n        /* \"contracts/voting.sol\":2378:2379  1 */\n      0x01\n        /* \"contracts/voting.sol\":2366:2379  uint256 i = 1 */\n      swap1\n      pop\n        /* \"contracts/voting.sol\":2361:2677  for (uint256 i = 1; i <= nextCandidateId; i++) {... */\n    tag_231:\n        /* \"contracts/voting.sol\":2386:2401  nextCandidateId */\n      sload(0x03)\n        /* \"contracts/voting.sol\":2381:2382  i */\n      dup2\n        /* \"contracts/voting.sol\":2381:2401  i <= nextCandidateId */\n      gt\n        /* \"contracts/voting.sol\":2361:2677  for (uint256 i = 1; i <= nextCandidateId; i++) {... */\n      tag_232\n      jumpi\n        /* \"contracts/voting.sol\":2483:2490  _person */\n      dup3\n        /* \"contracts/voting.sol\":2443:2490  candidateDetails[i].candidateAddress == _person */\n      0xffffffffffffffffffffffffffffffffffffffff\n      and\n        /* \"contracts/voting.sol\":2443:2459  candidateDetails */\n      0x08\n        /* \"contracts/voting.sol\":2443:2462  candidateDetails[i] */\n      0x00\n        /* \"contracts/voting.sol\":2460:2461  i */\n      dup4\n        /* \"contracts/voting.sol\":2443:2462  candidateDetails[i] */\n      dup2\n      mstore\n      0x20\n      add\n      swap1\n      dup2\n      mstore\n      0x20\n      add\n      0x00\n      keccak256\n        /* \"contracts/voting.sol\":2443:2479  candidateDetails[i].candidateAddress */\n      0x05\n      add\n      0x00\n      swap1\n      sload\n      swap1\n      0x0100\n      exp\n      swap1\n      div\n      0xffffffffffffffffffffffffffffffffffffffff\n      and\n        /* \"contracts/voting.sol\":2443:2490  candidateDetails[i].candidateAddress == _person */\n      0xffffffffffffffffffffffffffffffffffffffff\n      and\n      eq\n        /* \"contracts/voting.sol\":2443:2608  candidateDetails[i].candidateAddress == _person &&... */\n      dup1\n      iszero\n      tag_234\n      jumpi\n      pop\n        /* \"contracts/voting.sol\":2566:2608  0x0000000000000000000000000000000000000000 */\n      0x00\n        /* \"contracts/voting.sol\":2510:2608  candidateDetails[i].candidateAddress !=... */\n      0xffffffffffffffffffffffffffffffffffffffff\n      and\n        /* \"contracts/voting.sol\":2510:2526  candidateDetails */\n      0x08\n        /* \"contracts/voting.sol\":2510:2529  candidateDetails[i] */\n      0x00\n        /* \"contracts/voting.sol\":2527:2528  i */\n      dup4\n        /* \"contracts/voting.sol\":2510:2529  candidateDetails[i] */\n      dup2\n      mstore\n      0x20\n      add\n      swap1\n      dup2\n      mstore\n      0x20\n      add\n      0x00\n      keccak256\n        /* \"contracts/voting.sol\":2510:2546  candidateDetails[i].candidateAddress */\n      0x05\n      add\n      0x00\n      swap1\n      sload\n      swap1\n      0x0100\n      exp\n      swap1\n      div\n      0xffffffffffffffffffffffffffffffffffffffff\n      and\n        /* \"contracts/voting.sol\":2510:2608  candidateDetails[i].candidateAddress !=... */\n      0xffffffffffffffffffffffffffffffffffffffff\n      and\n      eq\n      iszero\n        /* \"contracts/voting.sol\":2443:2608  candidateDetails[i].candidateAddress == _person &&... */\n    tag_234:\n        /* \"contracts/voting.sol\":2422:2667  if (... */\n      iszero\n      tag_235\n      jumpi\n        /* \"contracts/voting.sol\":2648:2652  true */\n      0x01\n        /* \"contracts/voting.sol\":2641:2652  return true */\n      swap2\n      pop\n      pop\n      jump(tag_230)\n        /* \"contracts/voting.sol\":2422:2667  if (... */\n    tag_235:\n        /* \"contracts/voting.sol\":2403:2406  i++ */\n      dup1\n      dup1\n      tag_236\n      swap1\n      tag_67\n      jump\t// in\n    tag_236:\n      swap2\n      pop\n      pop\n        /* \"contracts/voting.sol\":2361:2677  for (uint256 i = 1; i <= nextCandidateId; i++) {... */\n      jump(tag_231)\n    tag_232:\n      pop\n        /* \"contracts/voting.sol\":2693:2698  false */\n      0x00\n        /* \"contracts/voting.sol\":2686:2698  return false */\n      swap1\n      pop\n        /* \"contracts/voting.sol\":2246:2705  function isCandidateRegistered(address _person)... */\n    tag_230:\n      swap2\n      swap1\n      pop\n      jump\t// out\n        /* \"contracts/voting.sol\":3023:3290  function isVoterRegistered(address _person) internal view returns (bool) {... */\n    tag_119:\n        /* \"contracts/voting.sol\":3090:3094  bool */\n      0x00\n        /* \"contracts/voting.sol\":3111:3120  uint256 i */\n      dup1\n        /* \"contracts/voting.sol\":3123:3124  1 */\n      0x01\n        /* \"contracts/voting.sol\":3111:3124  uint256 i = 1 */\n      swap1\n      pop\n        /* \"contracts/voting.sol\":3106:3262  for (uint256 i = 1; i <= nextVoterId; i++) {... */\n    tag_238:\n        /* \"contracts/voting.sol\":3131:3142  nextVoterId */\n      sload(0x02)\n        /* \"contracts/voting.sol\":3126:3127  i */\n      dup2\n        /* \"contracts/voting.sol\":3126:3142  i <= nextVoterId */\n      gt\n        /* \"contracts/voting.sol\":3106:3262  for (uint256 i = 1; i <= nextVoterId; i++) {... */\n      tag_239\n      jumpi\n        /* \"contracts/voting.sol\":3199:3206  _person */\n      dup3\n        /* \"contracts/voting.sol\":3167:3206  voterDetails[i].voterAddress == _person */\n      0xffffffffffffffffffffffffffffffffffffffff\n      and\n        /* \"contracts/voting.sol\":3167:3179  voterDetails */\n      0x07\n        /* \"contracts/voting.sol\":3167:3182  voterDetails[i] */\n      0x00\n        /* \"contracts/voting.sol\":3180:3181  i */\n      dup4\n        /* \"contracts/voting.sol\":3167:3182  voterDetails[i] */\n      dup2\n      mstore\n      0x20\n      add\n      swap1\n      dup2\n      mstore\n      0x20\n      add\n      0x00\n      keccak256\n        /* \"contracts/voting.sol\":3167:3195  voterDetails[i].voterAddress */\n      0x05\n      add\n      0x00\n      swap1\n      sload\n      swap1\n      0x0100\n      exp\n      swap1\n      div\n      0xffffffffffffffffffffffffffffffffffffffff\n      and\n        /* \"contracts/voting.sol\":3167:3206  voterDetails[i].voterAddress == _person */\n      0xffffffffffffffffffffffffffffffffffffffff\n      and\n      sub\n        /* \"contracts/voting.sol\":3163:3252  if (voterDetails[i].voterAddress == _person) {... */\n      tag_241\n      jumpi\n        /* \"contracts/voting.sol\":3233:3237  true */\n      0x01\n        /* \"contracts/voting.sol\":3226:3237  return true */\n      swap2\n      pop\n      pop\n      jump(tag_237)\n        /* \"contracts/voting.sol\":3163:3252  if (voterDetails[i].voterAddress == _person) {... */\n    tag_241:\n        /* \"contracts/voting.sol\":3144:3147  i++ */\n      dup1\n      dup1\n      tag_242\n      swap1\n      tag_67\n      jump\t// in\n    tag_242:\n      swap2\n      pop\n      pop\n        /* \"contracts/voting.sol\":3106:3262  for (uint256 i = 1; i <= nextVoterId; i++) {... */\n      jump(tag_238)\n    tag_239:\n      pop\n        /* \"contracts/voting.sol\":3278:3283  false */\n      0x00\n        /* \"contracts/voting.sol\":3271:3283  return false */\n      swap1\n      pop\n        /* \"contracts/voting.sol\":3023:3290  function isVoterRegistered(address _person) internal view returns (bool) {... */\n    tag_237:\n      swap2\n      swap1\n      pop\n      jump\t// out\n    tag_183:\n      mload(0x40)\n      dup1\n      0xc0\n      add\n      0x40\n      mstore\n      dup1\n      0x60\n      dup2\n      mstore\n      0x20\n      add\n      0x00\n      dup2\n      mstore\n      0x20\n      add\n      0x00\n      dup2\n      mstore\n      0x20\n      add\n      0x00\n      0x03\n      dup2\n      gt\n      iszero\n      tag_243\n      jumpi\n      tag_244\n      tag_95\n      jump\t// in\n    tag_244:\n    tag_243:\n      dup2\n      mstore\n      0x20\n      add\n      0x00\n      dup2\n      mstore\n      0x20\n      add\n      and(0xffffffffffffffffffffffffffffffffffffffff, 0x00)\n      dup2\n      mstore\n      pop\n      swap1\n      jump\t// out\n    tag_208:\n      mload(0x40)\n      dup1\n      0xe0\n      add\n      0x40\n      mstore\n      dup1\n      0x60\n      dup2\n      mstore\n      0x20\n      add\n      0x60\n      dup2\n      mstore\n      0x20\n      add\n      0x00\n      dup2\n      mstore\n      0x20\n      add\n      0x00\n      0x03\n      dup2\n      gt\n      iszero\n      tag_245\n      jumpi\n      tag_246\n      tag_95\n      jump\t// in\n    tag_246:\n    tag_245:\n      dup2\n      mstore\n      0x20\n      add\n      0x00\n      dup2\n      mstore\n      0x20\n      add\n      and(0xffffffffffffffffffffffffffffffffffffffff, 0x00)\n      dup2\n      mstore\n      0x20\n      add\n      0x00\n      dup2\n      mstore\n      pop\n      swap1\n      jump\t// out\n        /* \"#utility.yul\":88:205   */\n    tag_248:\n        /* \"#utility.yul\":197:198   */\n      0x00\n        /* \"#utility.yul\":194:195   */\n      dup1\n        /* \"#utility.yul\":187:199   */\n      revert\n        /* \"#utility.yul\":211:328   */\n    tag_249:\n        /* \"#utility.yul\":320:321   */\n      0x00\n        /* \"#utility.yul\":317:318   */\n      dup1\n        /* \"#utility.yul\":310:322   */\n      revert\n        /* \"#utility.yul\":334:411   */\n    tag_250:\n        /* \"#utility.yul\":371:378   */\n      0x00\n        /* \"#utility.yul\":400:405   */\n      dup2\n        /* \"#utility.yul\":389:405   */\n      swap1\n      pop\n        /* \"#utility.yul\":334:411   */\n      swap2\n      swap1\n      pop\n      jump\t// out\n        /* \"#utility.yul\":417:539   */\n    tag_251:\n        /* \"#utility.yul\":490:514   */\n      tag_341\n        /* \"#utility.yul\":508:513   */\n      dup2\n        /* \"#utility.yul\":490:514   */\n      tag_250\n      jump\t// in\n    tag_341:\n        /* \"#utility.yul\":483:488   */\n      dup2\n        /* \"#utility.yul\":480:515   */\n      eq\n        /* \"#utility.yul\":470:533   */\n      tag_342\n      jumpi\n        /* \"#utility.yul\":529:530   */\n      0x00\n        /* \"#utility.yul\":526:527   */\n      dup1\n        /* \"#utility.yul\":519:531   */\n      revert\n        /* \"#utility.yul\":470:533   */\n    tag_342:\n        /* \"#utility.yul\":417:539   */\n      pop\n      jump\t// out\n        /* \"#utility.yul\":545:684   */\n    tag_252:\n        /* \"#utility.yul\":591:596   */\n      0x00\n        /* \"#utility.yul\":629:635   */\n      dup2\n        /* \"#utility.yul\":616:636   */\n      calldataload\n        /* \"#utility.yul\":607:636   */\n      swap1\n      pop\n        /* \"#utility.yul\":645:678   */\n      tag_344\n        /* \"#utility.yul\":672:677   */\n      dup2\n        /* \"#utility.yul\":645:678   */\n      tag_251\n      jump\t// in\n    tag_344:\n        /* \"#utility.yul\":545:684   */\n      swap3\n      swap2\n      pop\n      pop\n      jump\t// out\n        /* \"#utility.yul\":690:1164   */\n    tag_16:\n        /* \"#utility.yul\":758:764   */\n      0x00\n        /* \"#utility.yul\":766:772   */\n      dup1\n        /* \"#utility.yul\":815:817   */\n      0x40\n        /* \"#utility.yul\":803:812   */\n      dup4\n        /* \"#utility.yul\":794:801   */\n      dup6\n        /* \"#utility.yul\":790:813   */\n      sub\n        /* \"#utility.yul\":786:818   */\n      slt\n        /* \"#utility.yul\":783:902   */\n      iszero\n      tag_346\n      jumpi\n        /* \"#utility.yul\":821:900   */\n      tag_347\n      tag_248\n      jump\t// in\n    tag_347:\n        /* \"#utility.yul\":783:902   */\n    tag_346:\n        /* \"#utility.yul\":941:942   */\n      0x00\n        /* \"#utility.yul\":966:1019   */\n      tag_348\n        /* \"#utility.yul\":1011:1018   */\n      dup6\n        /* \"#utility.yul\":1002:1008   */\n      dup3\n        /* \"#utility.yul\":991:1000   */\n      dup7\n        /* \"#utility.yul\":987:1009   */\n      add\n        /* \"#utility.yul\":966:1019   */\n      tag_252\n      jump\t// in\n    tag_348:\n        /* \"#utility.yul\":956:1019   */\n      swap3\n      pop\n        /* \"#utility.yul\":912:1029   */\n      pop\n        /* \"#utility.yul\":1068:1070   */\n      0x20\n        /* \"#utility.yul\":1094:1147   */\n      tag_349\n        /* \"#utility.yul\":1139:1146   */\n      dup6\n        /* \"#utility.yul\":1130:1136   */\n      dup3\n        /* \"#utility.yul\":1119:1128   */\n      dup7\n        /* \"#utility.yul\":1115:1137   */\n      add\n        /* \"#utility.yul\":1094:1147   */\n      tag_252\n      jump\t// in\n    tag_349:\n        /* \"#utility.yul\":1084:1147   */\n      swap2\n      pop\n        /* \"#utility.yul\":1039:1157   */\n      pop\n        /* \"#utility.yul\":690:1164   */\n      swap3\n      pop\n      swap3\n      swap1\n      pop\n      jump\t// out\n        /* \"#utility.yul\":1170:1350   */\n    tag_95:\n        /* \"#utility.yul\":1218:1295   */\n      0x4e487b7100000000000000000000000000000000000000000000000000000000\n        /* \"#utility.yul\":1215:1216   */\n      0x00\n        /* \"#utility.yul\":1208:1296   */\n      mstore\n        /* \"#utility.yul\":1315:1319   */\n      0x21\n        /* \"#utility.yul\":1312:1313   */\n      0x04\n        /* \"#utility.yul\":1305:1320   */\n      mstore\n        /* \"#utility.yul\":1339:1343   */\n      0x24\n        /* \"#utility.yul\":1336:1337   */\n      0x00\n        /* \"#utility.yul\":1329:1344   */\n      revert\n        /* \"#utility.yul\":1356:1476   */\n    tag_253:\n        /* \"#utility.yul\":1444:1445   */\n      0x03\n        /* \"#utility.yul\":1437:1442   */\n      dup2\n        /* \"#utility.yul\":1434:1446   */\n      lt\n        /* \"#utility.yul\":1424:1470   */\n      tag_352\n      jumpi\n        /* \"#utility.yul\":1450:1468   */\n      tag_353\n      tag_95\n      jump\t// in\n    tag_353:\n        /* \"#utility.yul\":1424:1470   */\n    tag_352:\n        /* \"#utility.yul\":1356:1476   */\n      pop\n      jump\t// out\n        /* \"#utility.yul\":1482:1623   */\n    tag_254:\n        /* \"#utility.yul\":1534:1541   */\n      0x00\n        /* \"#utility.yul\":1563:1568   */\n      dup2\n        /* \"#utility.yul\":1552:1568   */\n      swap1\n      pop\n        /* \"#utility.yul\":1569:1617   */\n      tag_355\n        /* \"#utility.yul\":1611:1616   */\n      dup3\n        /* \"#utility.yul\":1569:1617   */\n      tag_253\n      jump\t// in\n    tag_355:\n        /* \"#utility.yul\":1482:1623   */\n      swap2\n      swap1\n      pop\n      jump\t// out\n        /* \"#utility.yul\":1629:1770   */\n    tag_255:\n        /* \"#utility.yul\":1692:1701   */\n      0x00\n        /* \"#utility.yul\":1725:1764   */\n      tag_357\n        /* \"#utility.yul\":1758:1763   */\n      dup3\n        /* \"#utility.yul\":1725:1764   */\n      tag_254\n      jump\t// in\n    tag_357:\n        /* \"#utility.yul\":1712:1764   */\n      swap1\n      pop\n        /* \"#utility.yul\":1629:1770   */\n      swap2\n      swap1\n      pop\n      jump\t// out\n        /* \"#utility.yul\":1776:1933   */\n    tag_256:\n        /* \"#utility.yul\":1876:1926   */\n      tag_359\n        /* \"#utility.yul\":1920:1925   */\n      dup2\n        /* \"#utility.yul\":1876:1926   */\n      tag_255\n      jump\t// in\n    tag_359:\n        /* \"#utility.yul\":1871:1874   */\n      dup3\n        /* \"#utility.yul\":1864:1927   */\n      mstore\n        /* \"#utility.yul\":1776:1933   */\n      pop\n      pop\n      jump\t// out\n        /* \"#utility.yul\":1939:2187   */\n    tag_21:\n        /* \"#utility.yul\":2045:2049   */\n      0x00\n        /* \"#utility.yul\":2083:2085   */\n      0x20\n        /* \"#utility.yul\":2072:2081   */\n      dup3\n        /* \"#utility.yul\":2068:2086   */\n      add\n        /* \"#utility.yul\":2060:2086   */\n      swap1\n      pop\n        /* \"#utility.yul\":2096:2180   */\n      tag_361\n        /* \"#utility.yul\":2177:2178   */\n      0x00\n        /* \"#utility.yul\":2166:2175   */\n      dup4\n        /* \"#utility.yul\":2162:2179   */\n      add\n        /* \"#utility.yul\":2153:2159   */\n      dup5\n        /* \"#utility.yul\":2096:2180   */\n      tag_256\n      jump\t// in\n    tag_361:\n        /* \"#utility.yul\":1939:2187   */\n      swap3\n      swap2\n      pop\n      pop\n      jump\t// out\n        /* \"#utility.yul\":2193:2310   */\n    tag_257:\n        /* \"#utility.yul\":2302:2303   */\n      0x00\n        /* \"#utility.yul\":2299:2300   */\n      dup1\n        /* \"#utility.yul\":2292:2304   */\n      revert\n        /* \"#utility.yul\":2316:2433   */\n    tag_258:\n        /* \"#utility.yul\":2425:2426   */\n      0x00\n        /* \"#utility.yul\":2422:2423   */\n      dup1\n        /* \"#utility.yul\":2415:2427   */\n      revert\n        /* \"#utility.yul\":2439:2556   */\n    tag_259:\n        /* \"#utility.yul\":2548:2549   */\n      0x00\n        /* \"#utility.yul\":2545:2546   */\n      dup1\n        /* \"#utility.yul\":2538:2550   */\n      revert\n        /* \"#utility.yul\":2576:3129   */\n    tag_260:\n        /* \"#utility.yul\":2634:2642   */\n      0x00\n        /* \"#utility.yul\":2644:2650   */\n      dup1\n        /* \"#utility.yul\":2694:2697   */\n      dup4\n        /* \"#utility.yul\":2687:2691   */\n      0x1f\n        /* \"#utility.yul\":2679:2685   */\n      dup5\n        /* \"#utility.yul\":2675:2692   */\n      add\n        /* \"#utility.yul\":2671:2698   */\n      slt\n        /* \"#utility.yul\":2661:2783   */\n      tag_366\n      jumpi\n        /* \"#utility.yul\":2702:2781   */\n      tag_367\n      tag_257\n      jump\t// in\n    tag_367:\n        /* \"#utility.yul\":2661:2783   */\n    tag_366:\n        /* \"#utility.yul\":2815:2821   */\n      dup3\n        /* \"#utility.yul\":2802:2822   */\n      calldataload\n        /* \"#utility.yul\":2792:2822   */\n      swap1\n      pop\n        /* \"#utility.yul\":2845:2863   */\n      0xffffffffffffffff\n        /* \"#utility.yul\":2837:2843   */\n      dup2\n        /* \"#utility.yul\":2834:2864   */\n      gt\n        /* \"#utility.yul\":2831:2948   */\n      iszero\n      tag_368\n      jumpi\n        /* \"#utility.yul\":2867:2946   */\n      tag_369\n      tag_258\n      jump\t// in\n    tag_369:\n        /* \"#utility.yul\":2831:2948   */\n    tag_368:\n        /* \"#utility.yul\":2981:2985   */\n      0x20\n        /* \"#utility.yul\":2973:2979   */\n      dup4\n        /* \"#utility.yul\":2969:2986   */\n      add\n        /* \"#utility.yul\":2957:2986   */\n      swap2\n      pop\n        /* \"#utility.yul\":3035:3038   */\n      dup4\n        /* \"#utility.yul\":3027:3031   */\n      0x01\n        /* \"#utility.yul\":3019:3025   */\n      dup3\n        /* \"#utility.yul\":3015:3032   */\n      mul\n        /* \"#utility.yul\":3005:3013   */\n      dup4\n        /* \"#utility.yul\":3001:3033   */\n      add\n        /* \"#utility.yul\":2998:3039   */\n      gt\n        /* \"#utility.yul\":2995:3123   */\n      iszero\n      tag_370\n      jumpi\n        /* \"#utility.yul\":3042:3121   */\n      tag_371\n      tag_259\n      jump\t// in\n    tag_371:\n        /* \"#utility.yul\":2995:3123   */\n    tag_370:\n        /* \"#utility.yul\":2576:3129   */\n      swap3\n      pop\n      swap3\n      swap1\n      pop\n      jump\t// out\n        /* \"#utility.yul\":3135:3243   */\n    tag_261:\n        /* \"#utility.yul\":3217:3218   */\n      0x04\n        /* \"#utility.yul\":3210:3215   */\n      dup2\n        /* \"#utility.yul\":3207:3219   */\n      lt\n        /* \"#utility.yul\":3197:3237   */\n      tag_373\n      jumpi\n        /* \"#utility.yul\":3233:3234   */\n      0x00\n        /* \"#utility.yul\":3230:3231   */\n      dup1\n        /* \"#utility.yul\":3223:3235   */\n      revert\n        /* \"#utility.yul\":3197:3237   */\n    tag_373:\n        /* \"#utility.yul\":3135:3243   */\n      pop\n      jump\t// out\n        /* \"#utility.yul\":3249:3406   */\n    tag_262:\n        /* \"#utility.yul\":3304:3309   */\n      0x00\n        /* \"#utility.yul\":3342:3348   */\n      dup2\n        /* \"#utility.yul\":3329:3349   */\n      calldataload\n        /* \"#utility.yul\":3320:3349   */\n      swap1\n      pop\n        /* \"#utility.yul\":3358:3400   */\n      tag_375\n        /* \"#utility.yul\":3394:3399   */\n      dup2\n        /* \"#utility.yul\":3358:3400   */\n      tag_261\n      jump\t// in\n    tag_375:\n        /* \"#utility.yul\":3249:3406   */\n      swap3\n      swap2\n      pop\n      pop\n      jump\t// out\n        /* \"#utility.yul\":3412:4249   */\n    tag_26:\n        /* \"#utility.yul\":3510:3516   */\n      0x00\n        /* \"#utility.yul\":3518:3524   */\n      dup1\n        /* \"#utility.yul\":3526:3532   */\n      0x00\n        /* \"#utility.yul\":3534:3540   */\n      dup1\n        /* \"#utility.yul\":3583:3585   */\n      0x60\n        /* \"#utility.yul\":3571:3580   */\n      dup6\n        /* \"#utility.yul\":3562:3569   */\n      dup8\n        /* \"#utility.yul\":3558:3581   */\n      sub\n        /* \"#utility.yul\":3554:3586   */\n      slt\n        /* \"#utility.yul\":3551:3670   */\n      iszero\n      tag_377\n      jumpi\n        /* \"#utility.yul\":3589:3668   */\n      tag_378\n      tag_248\n      jump\t// in\n    tag_378:\n        /* \"#utility.yul\":3551:3670   */\n    tag_377:\n        /* \"#utility.yul\":3737:3738   */\n      0x00\n        /* \"#utility.yul\":3726:3735   */\n      dup6\n        /* \"#utility.yul\":3722:3739   */\n      add\n        /* \"#utility.yul\":3709:3740   */\n      calldataload\n        /* \"#utility.yul\":3767:3785   */\n      0xffffffffffffffff\n        /* \"#utility.yul\":3759:3765   */\n      dup2\n        /* \"#utility.yul\":3756:3786   */\n      gt\n        /* \"#utility.yul\":3753:3870   */\n      iszero\n      tag_379\n      jumpi\n        /* \"#utility.yul\":3789:3868   */\n      tag_380\n      tag_249\n      jump\t// in\n    tag_380:\n        /* \"#utility.yul\":3753:3870   */\n    tag_379:\n        /* \"#utility.yul\":3902:3967   */\n      tag_381\n        /* \"#utility.yul\":3959:3966   */\n      dup8\n        /* \"#utility.yul\":3950:3956   */\n      dup3\n        /* \"#utility.yul\":3939:3948   */\n      dup9\n        /* \"#utility.yul\":3935:3957   */\n      add\n        /* \"#utility.yul\":3902:3967   */\n      tag_260\n      jump\t// in\n    tag_381:\n        /* \"#utility.yul\":3884:3967   */\n      swap5\n      pop\n      swap5\n      pop\n        /* \"#utility.yul\":3680:3977   */\n      pop\n        /* \"#utility.yul\":4016:4018   */\n      0x20\n        /* \"#utility.yul\":4042:4095   */\n      tag_382\n        /* \"#utility.yul\":4087:4094   */\n      dup8\n        /* \"#utility.yul\":4078:4084   */\n      dup3\n        /* \"#utility.yul\":4067:4076   */\n      dup9\n        /* \"#utility.yul\":4063:4085   */\n      add\n        /* \"#utility.yul\":4042:4095   */\n      tag_252\n      jump\t// in\n    tag_382:\n        /* \"#utility.yul\":4032:4095   */\n      swap3\n      pop\n        /* \"#utility.yul\":3987:4105   */\n      pop\n        /* \"#utility.yul\":4144:4146   */\n      0x40\n        /* \"#utility.yul\":4170:4232   */\n      tag_383\n        /* \"#utility.yul\":4224:4231   */\n      dup8\n        /* \"#utility.yul\":4215:4221   */\n      dup3\n        /* \"#utility.yul\":4204:4213   */\n      dup9\n        /* \"#utility.yul\":4200:4222   */\n      add\n        /* \"#utility.yul\":4170:4232   */\n      tag_262\n      jump\t// in\n    tag_383:\n        /* \"#utility.yul\":4160:4232   */\n      swap2\n      pop\n        /* \"#utility.yul\":4115:4242   */\n      pop\n        /* \"#utility.yul\":3412:4249   */\n      swap3\n      swap6\n      swap2\n      swap5\n      pop\n      swap3\n      pop\n      jump\t// out\n        /* \"#utility.yul\":4255:5438   */\n    tag_30:\n        /* \"#utility.yul\":4374:4380   */\n      0x00\n        /* \"#utility.yul\":4382:4388   */\n      dup1\n        /* \"#utility.yul\":4390:4396   */\n      0x00\n        /* \"#utility.yul\":4398:4404   */\n      dup1\n        /* \"#utility.yul\":4406:4412   */\n      0x00\n        /* \"#utility.yul\":4414:4420   */\n      dup1\n        /* \"#utility.yul\":4463:4466   */\n      0x80\n        /* \"#utility.yul\":4451:4460   */\n      dup8\n        /* \"#utility.yul\":4442:4449   */\n      dup10\n        /* \"#utility.yul\":4438:4461   */\n      sub\n        /* \"#utility.yul\":4434:4467   */\n      slt\n        /* \"#utility.yul\":4431:4551   */\n      iszero\n      tag_385\n      jumpi\n        /* \"#utility.yul\":4470:4549   */\n      tag_386\n      tag_248\n      jump\t// in\n    tag_386:\n        /* \"#utility.yul\":4431:4551   */\n    tag_385:\n        /* \"#utility.yul\":4618:4619   */\n      0x00\n        /* \"#utility.yul\":4607:4616   */\n      dup8\n        /* \"#utility.yul\":4603:4620   */\n      add\n        /* \"#utility.yul\":4590:4621   */\n      calldataload\n        /* \"#utility.yul\":4648:4666   */\n      0xffffffffffffffff\n        /* \"#utility.yul\":4640:4646   */\n      dup2\n        /* \"#utility.yul\":4637:4667   */\n      gt\n        /* \"#utility.yul\":4634:4751   */\n      iszero\n      tag_387\n      jumpi\n        /* \"#utility.yul\":4670:4749   */\n      tag_388\n      tag_249\n      jump\t// in\n    tag_388:\n        /* \"#utility.yul\":4634:4751   */\n    tag_387:\n        /* \"#utility.yul\":4783:4848   */\n      tag_389\n        /* \"#utility.yul\":4840:4847   */\n      dup10\n        /* \"#utility.yul\":4831:4837   */\n      dup3\n        /* \"#utility.yul\":4820:4829   */\n      dup11\n        /* \"#utility.yul\":4816:4838   */\n      add\n        /* \"#utility.yul\":4783:4848   */\n      tag_260\n      jump\t// in\n    tag_389:\n        /* \"#utility.yul\":4765:4848   */\n      swap7\n      pop\n      swap7\n      pop\n        /* \"#utility.yul\":4561:4858   */\n      pop\n        /* \"#utility.yul\":4925:4927   */\n      0x20\n        /* \"#utility.yul\":4914:4923   */\n      dup8\n        /* \"#utility.yul\":4910:4928   */\n      add\n        /* \"#utility.yul\":4897:4929   */\n      calldataload\n        /* \"#utility.yul\":4956:4974   */\n      0xffffffffffffffff\n        /* \"#utility.yul\":4948:4954   */\n      dup2\n        /* \"#utility.yul\":4945:4975   */\n      gt\n        /* \"#utility.yul\":4942:5059   */\n      iszero\n      tag_390\n      jumpi\n        /* \"#utility.yul\":4978:5057   */\n      tag_391\n      tag_249\n      jump\t// in\n    tag_391:\n        /* \"#utility.yul\":4942:5059   */\n    tag_390:\n        /* \"#utility.yul\":5091:5156   */\n      tag_392\n        /* \"#utility.yul\":5148:5155   */\n      dup10\n        /* \"#utility.yul\":5139:5145   */\n      dup3\n        /* \"#utility.yul\":5128:5137   */\n      dup11\n        /* \"#utility.yul\":5124:5146   */\n      add\n        /* \"#utility.yul\":5091:5156   */\n      tag_260\n      jump\t// in\n    tag_392:\n        /* \"#utility.yul\":5073:5156   */\n      swap5\n      pop\n      swap5\n      pop\n        /* \"#utility.yul\":4868:5166   */\n      pop\n        /* \"#utility.yul\":5205:5207   */\n      0x40\n        /* \"#utility.yul\":5231:5284   */\n      tag_393\n        /* \"#utility.yul\":5276:5283   */\n      dup10\n        /* \"#utility.yul\":5267:5273   */\n      dup3\n        /* \"#utility.yul\":5256:5265   */\n      dup11\n        /* \"#utility.yul\":5252:5274   */\n      add\n        /* \"#utility.yul\":5231:5284   */\n      tag_252\n      jump\t// in\n    tag_393:\n        /* \"#utility.yul\":5221:5284   */\n      swap3\n      pop\n        /* \"#utility.yul\":5176:5294   */\n      pop\n        /* \"#utility.yul\":5333:5335   */\n      0x60\n        /* \"#utility.yul\":5359:5421   */\n      tag_394\n        /* \"#utility.yul\":5413:5420   */\n      dup10\n        /* \"#utility.yul\":5404:5410   */\n      dup3\n        /* \"#utility.yul\":5393:5402   */\n      dup11\n        /* \"#utility.yul\":5389:5411   */\n      add\n        /* \"#utility.yul\":5359:5421   */\n      tag_262\n      jump\t// in\n    tag_394:\n        /* \"#utility.yul\":5349:5421   */\n      swap2\n      pop\n        /* \"#utility.yul\":5304:5431   */\n      pop\n        /* \"#utility.yul\":4255:5438   */\n      swap3\n      swap6\n      pop\n      swap3\n      swap6\n      pop\n      swap3\n      swap6\n      jump\t// out\n        /* \"#utility.yul\":5444:5579   */\n    tag_263:\n        /* \"#utility.yul\":5532:5538   */\n      0x00\n        /* \"#utility.yul\":5566:5571   */\n      dup2\n        /* \"#utility.yul\":5560:5572   */\n      mload\n        /* \"#utility.yul\":5550:5572   */\n      swap1\n      pop\n        /* \"#utility.yul\":5444:5579   */\n      swap2\n      swap1\n      pop\n      jump\t// out\n        /* \"#utility.yul\":5585:5790   */\n    tag_264:\n        /* \"#utility.yul\":5705:5716   */\n      0x00\n        /* \"#utility.yul\":5739:5745   */\n      dup3\n        /* \"#utility.yul\":5734:5737   */\n      dup3\n        /* \"#utility.yul\":5727:5746   */\n      mstore\n        /* \"#utility.yul\":5779:5783   */\n      0x20\n        /* \"#utility.yul\":5774:5777   */\n      dup3\n        /* \"#utility.yul\":5770:5784   */\n      add\n        /* \"#utility.yul\":5755:5784   */\n      swap1\n      pop\n        /* \"#utility.yul\":5585:5790   */\n      swap3\n      swap2\n      pop\n      pop\n      jump\t// out\n        /* \"#utility.yul\":5796:5949   */\n    tag_265:\n        /* \"#utility.yul\":5884:5888   */\n      0x00\n        /* \"#utility.yul\":5907:5910   */\n      dup2\n        /* \"#utility.yul\":5899:5910   */\n      swap1\n      pop\n        /* \"#utility.yul\":5937:5941   */\n      0x20\n        /* \"#utility.yul\":5932:5935   */\n      dup3\n        /* \"#utility.yul\":5928:5942   */\n      add\n        /* \"#utility.yul\":5920:5942   */\n      swap1\n      pop\n        /* \"#utility.yul\":5796:5949   */\n      swap2\n      swap1\n      pop\n      jump\t// out\n        /* \"#utility.yul\":5955:6054   */\n    tag_266:\n        /* \"#utility.yul\":6007:6013   */\n      0x00\n        /* \"#utility.yul\":6041:6046   */\n      dup2\n        /* \"#utility.yul\":6035:6047   */\n      mload\n        /* \"#utility.yul\":6025:6047   */\n      swap1\n      pop\n        /* \"#utility.yul\":5955:6054   */\n      swap2\n      swap1\n      pop\n      jump\t// out\n        /* \"#utility.yul\":6060:6219   */\n    tag_267:\n        /* \"#utility.yul\":6134:6145   */\n      0x00\n        /* \"#utility.yul\":6168:6174   */\n      dup3\n        /* \"#utility.yul\":6163:6166   */\n      dup3\n        /* \"#utility.yul\":6156:6175   */\n      mstore\n        /* \"#utility.yul\":6208:6212   */\n      0x20\n        /* \"#utility.yul\":6203:6206   */\n      dup3\n        /* \"#utility.yul\":6199:6213   */\n      add\n        /* \"#utility.yul\":6184:6213   */\n      swap1\n      pop\n        /* \"#utility.yul\":6060:6219   */\n      swap3\n      swap2\n      pop\n      pop\n      jump\t// out\n        /* \"#utility.yul\":6225:6364   */\n    tag_268:\n        /* \"#utility.yul\":6314:6320   */\n      dup3\n        /* \"#utility.yul\":6309:6312   */\n      dup2\n        /* \"#utility.yul\":6304:6307   */\n      dup4\n        /* \"#utility.yul\":6298:6321   */\n      mcopy\n        /* \"#utility.yul\":6355:6356   */\n      0x00\n        /* \"#utility.yul\":6346:6352   */\n      dup4\n        /* \"#utility.yul\":6341:6344   */\n      dup4\n        /* \"#utility.yul\":6337:6353   */\n      add\n        /* \"#utility.yul\":6330:6357   */\n      mstore\n        /* \"#utility.yul\":6225:6364   */\n      pop\n      pop\n      pop\n      jump\t// out\n        /* \"#utility.yul\":6370:6472   */\n    tag_269:\n        /* \"#utility.yul\":6411:6417   */\n      0x00\n        /* \"#utility.yul\":6462:6464   */\n      0x1f\n        /* \"#utility.yul\":6458:6465   */\n      not\n        /* \"#utility.yul\":6453:6455   */\n      0x1f\n        /* \"#utility.yul\":6446:6451   */\n      dup4\n        /* \"#utility.yul\":6442:6456   */\n      add\n        /* \"#utility.yul\":6438:6466   */\n      and\n        /* \"#utility.yul\":6428:6466   */\n      swap1\n      pop\n        /* \"#utility.yul\":6370:6472   */\n      swap2\n      swap1\n      pop\n      jump\t// out\n        /* \"#utility.yul\":6478:6835   */\n    tag_270:\n        /* \"#utility.yul\":6556:6559   */\n      0x00\n        /* \"#utility.yul\":6584:6623   */\n      tag_403\n        /* \"#utility.yul\":6617:6622   */\n      dup3\n        /* \"#utility.yul\":6584:6623   */\n      tag_266\n      jump\t// in\n    tag_403:\n        /* \"#utility.yul\":6639:6700   */\n      tag_404\n        /* \"#utility.yul\":6693:6699   */\n      dup2\n        /* \"#utility.yul\":6688:6691   */\n      dup6\n        /* \"#utility.yul\":6639:6700   */\n      tag_267\n      jump\t// in\n    tag_404:\n        /* \"#utility.yul\":6632:6700   */\n      swap4\n      pop\n        /* \"#utility.yul\":6709:6774   */\n      tag_405\n        /* \"#utility.yul\":6767:6773   */\n      dup2\n        /* \"#utility.yul\":6762:6765   */\n      dup6\n        /* \"#utility.yul\":6755:6759   */\n      0x20\n        /* \"#utility.yul\":6748:6753   */\n      dup7\n        /* \"#utility.yul\":6744:6760   */\n      add\n        /* \"#utility.yul\":6709:6774   */\n      tag_268\n      jump\t// in\n    tag_405:\n        /* \"#utility.yul\":6799:6828   */\n      tag_406\n        /* \"#utility.yul\":6821:6827   */\n      dup2\n        /* \"#utility.yul\":6799:6828   */\n      tag_269\n      jump\t// in\n    tag_406:\n        /* \"#utility.yul\":6794:6797   */\n      dup5\n        /* \"#utility.yul\":6790:6829   */\n      add\n        /* \"#utility.yul\":6783:6829   */\n      swap2\n      pop\n        /* \"#utility.yul\":6560:6835   */\n      pop\n        /* \"#utility.yul\":6478:6835   */\n      swap3\n      swap2\n      pop\n      pop\n      jump\t// out\n        /* \"#utility.yul\":6841:6949   */\n    tag_271:\n        /* \"#utility.yul\":6918:6942   */\n      tag_408\n        /* \"#utility.yul\":6936:6941   */\n      dup2\n        /* \"#utility.yul\":6918:6942   */\n      tag_250\n      jump\t// in\n    tag_408:\n        /* \"#utility.yul\":6913:6916   */\n      dup3\n        /* \"#utility.yul\":6906:6943   */\n      mstore\n        /* \"#utility.yul\":6841:6949   */\n      pop\n      pop\n      jump\t// out\n        /* \"#utility.yul\":6955:7069   */\n    tag_272:\n        /* \"#utility.yul\":7037:7038   */\n      0x04\n        /* \"#utility.yul\":7030:7035   */\n      dup2\n        /* \"#utility.yul\":7027:7039   */\n      lt\n        /* \"#utility.yul\":7017:7063   */\n      tag_410\n      jumpi\n        /* \"#utility.yul\":7043:7061   */\n      tag_411\n      tag_95\n      jump\t// in\n    tag_411:\n        /* \"#utility.yul\":7017:7063   */\n    tag_410:\n        /* \"#utility.yul\":6955:7069   */\n      pop\n      jump\t// out\n        /* \"#utility.yul\":7075:7204   */\n    tag_273:\n        /* \"#utility.yul\":7121:7128   */\n      0x00\n        /* \"#utility.yul\":7150:7155   */\n      dup2\n        /* \"#utility.yul\":7139:7155   */\n      swap1\n      pop\n        /* \"#utility.yul\":7156:7198   */\n      tag_413\n        /* \"#utility.yul\":7192:7197   */\n      dup3\n        /* \"#utility.yul\":7156:7198   */\n      tag_272\n      jump\t// in\n    tag_413:\n        /* \"#utility.yul\":7075:7204   */\n      swap2\n      swap1\n      pop\n      jump\t// out\n        /* \"#utility.yul\":7210:7339   */\n    tag_274:\n        /* \"#utility.yul\":7267:7276   */\n      0x00\n        /* \"#utility.yul\":7300:7333   */\n      tag_415\n        /* \"#utility.yul\":7327:7332   */\n      dup3\n        /* \"#utility.yul\":7300:7333   */\n      tag_273\n      jump\t// in\n    tag_415:\n        /* \"#utility.yul\":7287:7333   */\n      swap1\n      pop\n        /* \"#utility.yul\":7210:7339   */\n      swap2\n      swap1\n      pop\n      jump\t// out\n        /* \"#utility.yul\":7345:7480   */\n    tag_275:\n        /* \"#utility.yul\":7429:7473   */\n      tag_417\n        /* \"#utility.yul\":7467:7472   */\n      dup2\n        /* \"#utility.yul\":7429:7473   */\n      tag_274\n      jump\t// in\n    tag_417:\n        /* \"#utility.yul\":7424:7427   */\n      dup3\n        /* \"#utility.yul\":7417:7474   */\n      mstore\n        /* \"#utility.yul\":7345:7480   */\n      pop\n      pop\n      jump\t// out\n        /* \"#utility.yul\":7486:7612   */\n    tag_276:\n        /* \"#utility.yul\":7523:7530   */\n      0x00\n        /* \"#utility.yul\":7563:7605   */\n      0xffffffffffffffffffffffffffffffffffffffff\n        /* \"#utility.yul\":7556:7561   */\n      dup3\n        /* \"#utility.yul\":7552:7606   */\n      and\n        /* \"#utility.yul\":7541:7606   */\n      swap1\n      pop\n        /* \"#utility.yul\":7486:7612   */\n      swap2\n      swap1\n      pop\n      jump\t// out\n        /* \"#utility.yul\":7618:7714   */\n    tag_277:\n        /* \"#utility.yul\":7655:7662   */\n      0x00\n        /* \"#utility.yul\":7684:7708   */\n      tag_420\n        /* \"#utility.yul\":7702:7707   */\n      dup3\n        /* \"#utility.yul\":7684:7708   */\n      tag_276\n      jump\t// in\n    tag_420:\n        /* \"#utility.yul\":7673:7708   */\n      swap1\n      pop\n        /* \"#utility.yul\":7618:7714   */\n      swap2\n      swap1\n      pop\n      jump\t// out\n        /* \"#utility.yul\":7720:7828   */\n    tag_278:\n        /* \"#utility.yul\":7797:7821   */\n      tag_422\n        /* \"#utility.yul\":7815:7820   */\n      dup2\n        /* \"#utility.yul\":7797:7821   */\n      tag_277\n      jump\t// in\n    tag_422:\n        /* \"#utility.yul\":7792:7795   */\n      dup3\n        /* \"#utility.yul\":7785:7822   */\n      mstore\n        /* \"#utility.yul\":7720:7828   */\n      pop\n      pop\n      jump\t// out\n        /* \"#utility.yul\":7880:9194   */\n    tag_279:\n        /* \"#utility.yul\":7981:7984   */\n      0x00\n        /* \"#utility.yul\":8017:8021   */\n      0xc0\n        /* \"#utility.yul\":8012:8015   */\n      dup4\n        /* \"#utility.yul\":8008:8022   */\n      add\n        /* \"#utility.yul\":8104:8108   */\n      0x00\n        /* \"#utility.yul\":8097:8102   */\n      dup4\n        /* \"#utility.yul\":8093:8109   */\n      add\n        /* \"#utility.yul\":8087:8110   */\n      mload\n        /* \"#utility.yul\":8157:8160   */\n      dup5\n        /* \"#utility.yul\":8151:8155   */\n      dup3\n        /* \"#utility.yul\":8147:8161   */\n      sub\n        /* \"#utility.yul\":8140:8144   */\n      0x00\n        /* \"#utility.yul\":8135:8138   */\n      dup7\n        /* \"#utility.yul\":8131:8145   */\n      add\n        /* \"#utility.yul\":8124:8162   */\n      mstore\n        /* \"#utility.yul\":8183:8256   */\n      tag_424\n        /* \"#utility.yul\":8251:8255   */\n      dup3\n        /* \"#utility.yul\":8237:8249   */\n      dup3\n        /* \"#utility.yul\":8183:8256   */\n      tag_270\n      jump\t// in\n    tag_424:\n        /* \"#utility.yul\":8175:8256   */\n      swap2\n      pop\n        /* \"#utility.yul\":8032:8267   */\n      pop\n        /* \"#utility.yul\":8348:8352   */\n      0x20\n        /* \"#utility.yul\":8341:8346   */\n      dup4\n        /* \"#utility.yul\":8337:8353   */\n      add\n        /* \"#utility.yul\":8331:8354   */\n      mload\n        /* \"#utility.yul\":8367:8430   */\n      tag_425\n        /* \"#utility.yul\":8424:8428   */\n      0x20\n        /* \"#utility.yul\":8419:8422   */\n      dup7\n        /* \"#utility.yul\":8415:8429   */\n      add\n        /* \"#utility.yul\":8401:8413   */\n      dup3\n        /* \"#utility.yul\":8367:8430   */\n      tag_271\n      jump\t// in\n    tag_425:\n        /* \"#utility.yul\":8277:8440   */\n      pop\n        /* \"#utility.yul\":8525:8529   */\n      0x40\n        /* \"#utility.yul\":8518:8523   */\n      dup4\n        /* \"#utility.yul\":8514:8530   */\n      add\n        /* \"#utility.yul\":8508:8531   */\n      mload\n        /* \"#utility.yul\":8544:8607   */\n      tag_426\n        /* \"#utility.yul\":8601:8605   */\n      0x40\n        /* \"#utility.yul\":8596:8599   */\n      dup7\n        /* \"#utility.yul\":8592:8606   */\n      add\n        /* \"#utility.yul\":8578:8590   */\n      dup3\n        /* \"#utility.yul\":8544:8607   */\n      tag_271\n      jump\t// in\n    tag_426:\n        /* \"#utility.yul\":8450:8617   */\n      pop\n        /* \"#utility.yul\":8701:8705   */\n      0x60\n        /* \"#utility.yul\":8694:8699   */\n      dup4\n        /* \"#utility.yul\":8690:8706   */\n      add\n        /* \"#utility.yul\":8684:8707   */\n      mload\n        /* \"#utility.yul\":8720:8790   */\n      tag_427\n        /* \"#utility.yul\":8784:8788   */\n      0x60\n        /* \"#utility.yul\":8779:8782   */\n      dup7\n        /* \"#utility.yul\":8775:8789   */\n      add\n        /* \"#utility.yul\":8761:8773   */\n      dup3\n        /* \"#utility.yul\":8720:8790   */\n      tag_275\n      jump\t// in\n    tag_427:\n        /* \"#utility.yul\":8627:8800   */\n      pop\n        /* \"#utility.yul\":8893:8897   */\n      0x80\n        /* \"#utility.yul\":8886:8891   */\n      dup4\n        /* \"#utility.yul\":8882:8898   */\n      add\n        /* \"#utility.yul\":8876:8899   */\n      mload\n        /* \"#utility.yul\":8912:8975   */\n      tag_428\n        /* \"#utility.yul\":8969:8973   */\n      0x80\n        /* \"#utility.yul\":8964:8967   */\n      dup7\n        /* \"#utility.yul\":8960:8974   */\n      add\n        /* \"#utility.yul\":8946:8958   */\n      dup3\n        /* \"#utility.yul\":8912:8975   */\n      tag_271\n      jump\t// in\n    tag_428:\n        /* \"#utility.yul\":8810:8985   */\n      pop\n        /* \"#utility.yul\":9075:9079   */\n      0xa0\n        /* \"#utility.yul\":9068:9073   */\n      dup4\n        /* \"#utility.yul\":9064:9080   */\n      add\n        /* \"#utility.yul\":9058:9081   */\n      mload\n        /* \"#utility.yul\":9094:9157   */\n      tag_429\n        /* \"#utility.yul\":9151:9155   */\n      0xa0\n        /* \"#utility.yul\":9146:9149   */\n      dup7\n        /* \"#utility.yul\":9142:9156   */\n      add\n        /* \"#utility.yul\":9128:9140   */\n      dup3\n        /* \"#utility.yul\":9094:9157   */\n      tag_278\n      jump\t// in\n    tag_429:\n        /* \"#utility.yul\":8995:9167   */\n      pop\n        /* \"#utility.yul\":9184:9188   */\n      dup1\n        /* \"#utility.yul\":9177:9188   */\n      swap2\n      pop\n        /* \"#utility.yul\":7986:9194   */\n      pop\n        /* \"#utility.yul\":7880:9194   */\n      swap3\n      swap2\n      pop\n      pop\n      jump\t// out\n        /* \"#utility.yul\":9200:9440   */\n    tag_280:\n        /* \"#utility.yul\":9311:9321   */\n      0x00\n        /* \"#utility.yul\":9346:9434   */\n      tag_431\n        /* \"#utility.yul\":9430:9433   */\n      dup4\n        /* \"#utility.yul\":9422:9428   */\n      dup4\n        /* \"#utility.yul\":9346:9434   */\n      tag_279\n      jump\t// in\n    tag_431:\n        /* \"#utility.yul\":9332:9434   */\n      swap1\n      pop\n        /* \"#utility.yul\":9200:9440   */\n      swap3\n      swap2\n      pop\n      pop\n      jump\t// out\n        /* \"#utility.yul\":9446:9580   */\n    tag_281:\n        /* \"#utility.yul\":9537:9541   */\n      0x00\n        /* \"#utility.yul\":9569:9573   */\n      0x20\n        /* \"#utility.yul\":9564:9567   */\n      dup3\n        /* \"#utility.yul\":9560:9574   */\n      add\n        /* \"#utility.yul\":9552:9574   */\n      swap1\n      pop\n        /* \"#utility.yul\":9446:9580   */\n      swap2\n      swap1\n      pop\n      jump\t// out\n        /* \"#utility.yul\":9636:10715   */\n    tag_282:\n        /* \"#utility.yul\":9797:9800   */\n      0x00\n        /* \"#utility.yul\":9826:9901   */\n      tag_434\n        /* \"#utility.yul\":9895:9900   */\n      dup3\n        /* \"#utility.yul\":9826:9901   */\n      tag_263\n      jump\t// in\n    tag_434:\n        /* \"#utility.yul\":9917:10024   */\n      tag_435\n        /* \"#utility.yul\":10017:10023   */\n      dup2\n        /* \"#utility.yul\":10012:10015   */\n      dup6\n        /* \"#utility.yul\":9917:10024   */\n      tag_264\n      jump\t// in\n    tag_435:\n        /* \"#utility.yul\":9910:10024   */\n      swap4\n      pop\n        /* \"#utility.yul\":10050:10053   */\n      dup4\n        /* \"#utility.yul\":10095:10099   */\n      0x20\n        /* \"#utility.yul\":10087:10093   */\n      dup3\n        /* \"#utility.yul\":10083:10100   */\n      mul\n        /* \"#utility.yul\":10078:10081   */\n      dup6\n        /* \"#utility.yul\":10074:10101   */\n      add\n        /* \"#utility.yul\":10125:10202   */\n      tag_436\n        /* \"#utility.yul\":10196:10201   */\n      dup6\n        /* \"#utility.yul\":10125:10202   */\n      tag_265\n      jump\t// in\n    tag_436:\n        /* \"#utility.yul\":10225:10232   */\n      dup1\n        /* \"#utility.yul\":10256:10257   */\n      0x00\n        /* \"#utility.yul\":10241:10670   */\n    tag_437:\n        /* \"#utility.yul\":10266:10272   */\n      dup6\n        /* \"#utility.yul\":10263:10264   */\n      dup2\n        /* \"#utility.yul\":10260:10273   */\n      lt\n        /* \"#utility.yul\":10241:10670   */\n      iszero\n      tag_439\n      jumpi\n        /* \"#utility.yul\":10337:10346   */\n      dup5\n        /* \"#utility.yul\":10331:10335   */\n      dup5\n        /* \"#utility.yul\":10327:10347   */\n      sub\n        /* \"#utility.yul\":10322:10325   */\n      dup10\n        /* \"#utility.yul\":10315:10348   */\n      mstore\n        /* \"#utility.yul\":10388:10394   */\n      dup2\n        /* \"#utility.yul\":10382:10395   */\n      mload\n        /* \"#utility.yul\":10416:10522   */\n      tag_440\n        /* \"#utility.yul\":10517:10521   */\n      dup6\n        /* \"#utility.yul\":10502:10515   */\n      dup3\n        /* \"#utility.yul\":10416:10522   */\n      tag_280\n      jump\t// in\n    tag_440:\n        /* \"#utility.yul\":10408:10522   */\n      swap5\n      pop\n        /* \"#utility.yul\":10545:10626   */\n      tag_441\n        /* \"#utility.yul\":10619:10625   */\n      dup4\n        /* \"#utility.yul\":10545:10626   */\n      tag_281\n      jump\t// in\n    tag_441:\n        /* \"#utility.yul\":10535:10626   */\n      swap3\n      pop\n        /* \"#utility.yul\":10655:10659   */\n      0x20\n        /* \"#utility.yul\":10650:10653   */\n      dup11\n        /* \"#utility.yul\":10646:10660   */\n      add\n        /* \"#utility.yul\":10639:10660   */\n      swap10\n      pop\n        /* \"#utility.yul\":10301:10670   */\n      pop\n        /* \"#utility.yul\":10288:10289   */\n      0x01\n        /* \"#utility.yul\":10285:10286   */\n      dup2\n        /* \"#utility.yul\":10281:10290   */\n      add\n        /* \"#utility.yul\":10276:10290   */\n      swap1\n      pop\n        /* \"#utility.yul\":10241:10670   */\n      jump(tag_437)\n    tag_439:\n        /* \"#utility.yul\":10245:10259   */\n      pop\n        /* \"#utility.yul\":10686:10690   */\n      dup3\n        /* \"#utility.yul\":10679:10690   */\n      swap8\n      pop\n        /* \"#utility.yul\":10706:10709   */\n      dup8\n        /* \"#utility.yul\":10699:10709   */\n      swap6\n      pop\n        /* \"#utility.yul\":9802:10715   */\n      pop\n      pop\n      pop\n      pop\n      pop\n        /* \"#utility.yul\":9636:10715   */\n      swap3\n      swap2\n      pop\n      pop\n      jump\t// out\n        /* \"#utility.yul\":10721:11178   */\n    tag_40:\n        /* \"#utility.yul\":10906:10910   */\n      0x00\n        /* \"#utility.yul\":10944:10946   */\n      0x20\n        /* \"#utility.yul\":10933:10942   */\n      dup3\n        /* \"#utility.yul\":10929:10947   */\n      add\n        /* \"#utility.yul\":10921:10947   */\n      swap1\n      pop\n        /* \"#utility.yul\":10993:11002   */\n      dup2\n        /* \"#utility.yul\":10987:10991   */\n      dup2\n        /* \"#utility.yul\":10983:11003   */\n      sub\n        /* \"#utility.yul\":10979:10980   */\n      0x00\n        /* \"#utility.yul\":10968:10977   */\n      dup4\n        /* \"#utility.yul\":10964:10981   */\n      add\n        /* \"#utility.yul\":10957:11004   */\n      mstore\n        /* \"#utility.yul\":11021:11171   */\n      tag_443\n        /* \"#utility.yul\":11166:11170   */\n      dup2\n        /* \"#utility.yul\":11157:11163   */\n      dup5\n        /* \"#utility.yul\":11021:11171   */\n      tag_282\n      jump\t// in\n    tag_443:\n        /* \"#utility.yul\":11013:11171   */\n      swap1\n      pop\n        /* \"#utility.yul\":10721:11178   */\n      swap3\n      swap2\n      pop\n      pop\n      jump\t// out\n        /* \"#utility.yul\":11184:11302   */\n    tag_283:\n        /* \"#utility.yul\":11271:11295   */\n      tag_445\n        /* \"#utility.yul\":11289:11294   */\n      dup2\n        /* \"#utility.yul\":11271:11295   */\n      tag_277\n      jump\t// in\n    tag_445:\n        /* \"#utility.yul\":11266:11269   */\n      dup3\n        /* \"#utility.yul\":11259:11296   */\n      mstore\n        /* \"#utility.yul\":11184:11302   */\n      pop\n      pop\n      jump\t// out\n        /* \"#utility.yul\":11308:11530   */\n    tag_44:\n        /* \"#utility.yul\":11401:11405   */\n      0x00\n        /* \"#utility.yul\":11439:11441   */\n      0x20\n        /* \"#utility.yul\":11428:11437   */\n      dup3\n        /* \"#utility.yul\":11424:11442   */\n      add\n        /* \"#utility.yul\":11416:11442   */\n      swap1\n      pop\n        /* \"#utility.yul\":11452:11523   */\n      tag_447\n        /* \"#utility.yul\":11520:11521   */\n      0x00\n        /* \"#utility.yul\":11509:11518   */\n      dup4\n        /* \"#utility.yul\":11505:11522   */\n      add\n        /* \"#utility.yul\":11496:11502   */\n      dup5\n        /* \"#utility.yul\":11452:11523   */\n      tag_283\n      jump\t// in\n    tag_447:\n        /* \"#utility.yul\":11308:11530   */\n      swap3\n      swap2\n      pop\n      pop\n      jump\t// out\n        /* \"#utility.yul\":11536:11675   */\n    tag_284:\n        /* \"#utility.yul\":11628:11634   */\n      0x00\n        /* \"#utility.yul\":11662:11667   */\n      dup2\n        /* \"#utility.yul\":11656:11668   */\n      mload\n        /* \"#utility.yul\":11646:11668   */\n      swap1\n      pop\n        /* \"#utility.yul\":11536:11675   */\n      swap2\n      swap1\n      pop\n      jump\t// out\n        /* \"#utility.yul\":11681:11890   */\n    tag_285:\n        /* \"#utility.yul\":11805:11816   */\n      0x00\n        /* \"#utility.yul\":11839:11845   */\n      dup3\n        /* \"#utility.yul\":11834:11837   */\n      dup3\n        /* \"#utility.yul\":11827:11846   */\n      mstore\n        /* \"#utility.yul\":11879:11883   */\n      0x20\n        /* \"#utility.yul\":11874:11877   */\n      dup3\n        /* \"#utility.yul\":11870:11884   */\n      add\n        /* \"#utility.yul\":11855:11884   */\n      swap1\n      pop\n        /* \"#utility.yul\":11681:11890   */\n      swap3\n      swap2\n      pop\n      pop\n      jump\t// out\n        /* \"#utility.yul\":11896:12053   */\n    tag_286:\n        /* \"#utility.yul\":11988:11992   */\n      0x00\n        /* \"#utility.yul\":12011:12014   */\n      dup2\n        /* \"#utility.yul\":12003:12014   */\n      swap1\n      pop\n        /* \"#utility.yul\":12041:12045   */\n      0x20\n        /* \"#utility.yul\":12036:12039   */\n      dup3\n        /* \"#utility.yul\":12032:12046   */\n      add\n        /* \"#utility.yul\":12024:12046   */\n      swap1\n      pop\n        /* \"#utility.yul\":11896:12053   */\n      swap2\n      swap1\n      pop\n      jump\t// out\n        /* \"#utility.yul\":12113:13679   */\n    tag_287:\n        /* \"#utility.yul\":12222:12225   */\n      0x00\n        /* \"#utility.yul\":12258:12262   */\n      0xe0\n        /* \"#utility.yul\":12253:12256   */\n      dup4\n        /* \"#utility.yul\":12249:12263   */\n      add\n        /* \"#utility.yul\":12345:12349   */\n      0x00\n        /* \"#utility.yul\":12338:12343   */\n      dup4\n        /* \"#utility.yul\":12334:12350   */\n      add\n        /* \"#utility.yul\":12328:12351   */\n      mload\n        /* \"#utility.yul\":12398:12401   */\n      dup5\n        /* \"#utility.yul\":12392:12396   */\n      dup3\n        /* \"#utility.yul\":12388:12402   */\n      sub\n        /* \"#utility.yul\":12381:12385   */\n      0x00\n        /* \"#utility.yul\":12376:12379   */\n      dup7\n        /* \"#utility.yul\":12372:12386   */\n      add\n        /* \"#utility.yul\":12365:12403   */\n      mstore\n        /* \"#utility.yul\":12424:12497   */\n      tag_452\n        /* \"#utility.yul\":12492:12496   */\n      dup3\n        /* \"#utility.yul\":12478:12490   */\n      dup3\n        /* \"#utility.yul\":12424:12497   */\n      tag_270\n      jump\t// in\n    tag_452:\n        /* \"#utility.yul\":12416:12497   */\n      swap2\n      pop\n        /* \"#utility.yul\":12273:12508   */\n      pop\n        /* \"#utility.yul\":12591:12595   */\n      0x20\n        /* \"#utility.yul\":12584:12589   */\n      dup4\n        /* \"#utility.yul\":12580:12596   */\n      add\n        /* \"#utility.yul\":12574:12597   */\n      mload\n        /* \"#utility.yul\":12644:12647   */\n      dup5\n        /* \"#utility.yul\":12638:12642   */\n      dup3\n        /* \"#utility.yul\":12634:12648   */\n      sub\n        /* \"#utility.yul\":12627:12631   */\n      0x20\n        /* \"#utility.yul\":12622:12625   */\n      dup7\n        /* \"#utility.yul\":12618:12632   */\n      add\n        /* \"#utility.yul\":12611:12649   */\n      mstore\n        /* \"#utility.yul\":12670:12743   */\n      tag_453\n        /* \"#utility.yul\":12738:12742   */\n      dup3\n        /* \"#utility.yul\":12724:12736   */\n      dup3\n        /* \"#utility.yul\":12670:12743   */\n      tag_270\n      jump\t// in\n    tag_453:\n        /* \"#utility.yul\":12662:12743   */\n      swap2\n      pop\n        /* \"#utility.yul\":12518:12754   */\n      pop\n        /* \"#utility.yul\":12835:12839   */\n      0x40\n        /* \"#utility.yul\":12828:12833   */\n      dup4\n        /* \"#utility.yul\":12824:12840   */\n      add\n        /* \"#utility.yul\":12818:12841   */\n      mload\n        /* \"#utility.yul\":12854:12917   */\n      tag_454\n        /* \"#utility.yul\":12911:12915   */\n      0x40\n        /* \"#utility.yul\":12906:12909   */\n      dup7\n        /* \"#utility.yul\":12902:12916   */\n      add\n        /* \"#utility.yul\":12888:12900   */\n      dup3\n        /* \"#utility.yul\":12854:12917   */\n      tag_271\n      jump\t// in\n    tag_454:\n        /* \"#utility.yul\":12764:12927   */\n      pop\n        /* \"#utility.yul\":13011:13015   */\n      0x60\n        /* \"#utility.yul\":13004:13009   */\n      dup4\n        /* \"#utility.yul\":13000:13016   */\n      add\n        /* \"#utility.yul\":12994:13017   */\n      mload\n        /* \"#utility.yul\":13030:13100   */\n      tag_455\n        /* \"#utility.yul\":13094:13098   */\n      0x60\n        /* \"#utility.yul\":13089:13092   */\n      dup7\n        /* \"#utility.yul\":13085:13099   */\n      add\n        /* \"#utility.yul\":13071:13083   */\n      dup3\n        /* \"#utility.yul\":13030:13100   */\n      tag_275\n      jump\t// in\n    tag_455:\n        /* \"#utility.yul\":12937:13110   */\n      pop\n        /* \"#utility.yul\":13199:13203   */\n      0x80\n        /* \"#utility.yul\":13192:13197   */\n      dup4\n        /* \"#utility.yul\":13188:13204   */\n      add\n        /* \"#utility.yul\":13182:13205   */\n      mload\n        /* \"#utility.yul\":13218:13281   */\n      tag_456\n        /* \"#utility.yul\":13275:13279   */\n      0x80\n        /* \"#utility.yul\":13270:13273   */\n      dup7\n        /* \"#utility.yul\":13266:13280   */\n      add\n        /* \"#utility.yul\":13252:13264   */\n      dup3\n        /* \"#utility.yul\":13218:13281   */\n      tag_271\n      jump\t// in\n    tag_456:\n        /* \"#utility.yul\":13120:13291   */\n      pop\n        /* \"#utility.yul\":13385:13389   */\n      0xa0\n        /* \"#utility.yul\":13378:13383   */\n      dup4\n        /* \"#utility.yul\":13374:13390   */\n      add\n        /* \"#utility.yul\":13368:13391   */\n      mload\n        /* \"#utility.yul\":13404:13467   */\n      tag_457\n        /* \"#utility.yul\":13461:13465   */\n      0xa0\n        /* \"#utility.yul\":13456:13459   */\n      dup7\n        /* \"#utility.yul\":13452:13466   */\n      add\n        /* \"#utility.yul\":13438:13450   */\n      dup3\n        /* \"#utility.yul\":13404:13467   */\n      tag_278\n      jump\t// in\n    tag_457:\n        /* \"#utility.yul\":13301:13477   */\n      pop\n        /* \"#utility.yul\":13560:13564   */\n      0xc0\n        /* \"#utility.yul\":13553:13558   */\n      dup4\n        /* \"#utility.yul\":13549:13565   */\n      add\n        /* \"#utility.yul\":13543:13566   */\n      mload\n        /* \"#utility.yul\":13579:13642   */\n      tag_458\n        /* \"#utility.yul\":13636:13640   */\n      0xc0\n        /* \"#utility.yul\":13631:13634   */\n      dup7\n        /* \"#utility.yul\":13627:13641   */\n      add\n        /* \"#utility.yul\":13613:13625   */\n      dup3\n        /* \"#utility.yul\":13579:13642   */\n      tag_271\n      jump\t// in\n    tag_458:\n        /* \"#utility.yul\":13487:13652   */\n      pop\n        /* \"#utility.yul\":13669:13673   */\n      dup1\n        /* \"#utility.yul\":13662:13673   */\n      swap2\n      pop\n        /* \"#utility.yul\":12227:13679   */\n      pop\n        /* \"#utility.yul\":12113:13679   */\n      swap3\n      swap2\n      pop\n      pop\n      jump\t// out\n        /* \"#utility.yul\":13685:13941   */\n    tag_288:\n        /* \"#utility.yul\":13804:13814   */\n      0x00\n        /* \"#utility.yul\":13839:13935   */\n      tag_460\n        /* \"#utility.yul\":13931:13934   */\n      dup4\n        /* \"#utility.yul\":13923:13929   */\n      dup4\n        /* \"#utility.yul\":13839:13935   */\n      tag_287\n      jump\t// in\n    tag_460:\n        /* \"#utility.yul\":13825:13935   */\n      swap1\n      pop\n        /* \"#utility.yul\":13685:13941   */\n      swap3\n      swap2\n      pop\n      pop\n      jump\t// out\n        /* \"#utility.yul\":13947:14085   */\n    tag_289:\n        /* \"#utility.yul\":14042:14046   */\n      0x00\n        /* \"#utility.yul\":14074:14078   */\n      0x20\n        /* \"#utility.yul\":14069:14072   */\n      dup3\n        /* \"#utility.yul\":14065:14079   */\n      add\n        /* \"#utility.yul\":14057:14079   */\n      swap1\n      pop\n        /* \"#utility.yul\":13947:14085   */\n      swap2\n      swap1\n      pop\n      jump\t// out\n        /* \"#utility.yul\":14149:15260   */\n    tag_290:\n        /* \"#utility.yul\":14318:14321   */\n      0x00\n        /* \"#utility.yul\":14347:14426   */\n      tag_463\n        /* \"#utility.yul\":14420:14425   */\n      dup3\n        /* \"#utility.yul\":14347:14426   */\n      tag_284\n      jump\t// in\n    tag_463:\n        /* \"#utility.yul\":14442:14553   */\n      tag_464\n        /* \"#utility.yul\":14546:14552   */\n      dup2\n        /* \"#utility.yul\":14541:14544   */\n      dup6\n        /* \"#utility.yul\":14442:14553   */\n      tag_285\n      jump\t// in\n    tag_464:\n        /* \"#utility.yul\":14435:14553   */\n      swap4\n      pop\n        /* \"#utility.yul\":14579:14582   */\n      dup4\n        /* \"#utility.yul\":14624:14628   */\n      0x20\n        /* \"#utility.yul\":14616:14622   */\n      dup3\n        /* \"#utility.yul\":14612:14629   */\n      mul\n        /* \"#utility.yul\":14607:14610   */\n      dup6\n        /* \"#utility.yul\":14603:14630   */\n      add\n        /* \"#utility.yul\":14654:14735   */\n      tag_465\n        /* \"#utility.yul\":14729:14734   */\n      dup6\n        /* \"#utility.yul\":14654:14735   */\n      tag_286\n      jump\t// in\n    tag_465:\n        /* \"#utility.yul\":14758:14765   */\n      dup1\n        /* \"#utility.yul\":14789:14790   */\n      0x00\n        /* \"#utility.yul\":14774:15215   */\n    tag_466:\n        /* \"#utility.yul\":14799:14805   */\n      dup6\n        /* \"#utility.yul\":14796:14797   */\n      dup2\n        /* \"#utility.yul\":14793:14806   */\n      lt\n        /* \"#utility.yul\":14774:15215   */\n      iszero\n      tag_468\n      jumpi\n        /* \"#utility.yul\":14870:14879   */\n      dup5\n        /* \"#utility.yul\":14864:14868   */\n      dup5\n        /* \"#utility.yul\":14860:14880   */\n      sub\n        /* \"#utility.yul\":14855:14858   */\n      dup10\n        /* \"#utility.yul\":14848:14881   */\n      mstore\n        /* \"#utility.yul\":14921:14927   */\n      dup2\n        /* \"#utility.yul\":14915:14928   */\n      mload\n        /* \"#utility.yul\":14949:15063   */\n      tag_469\n        /* \"#utility.yul\":15058:15062   */\n      dup6\n        /* \"#utility.yul\":15043:15056   */\n      dup3\n        /* \"#utility.yul\":14949:15063   */\n      tag_288\n      jump\t// in\n    tag_469:\n        /* \"#utility.yul\":14941:15063   */\n      swap5\n      pop\n        /* \"#utility.yul\":15086:15171   */\n      tag_470\n        /* \"#utility.yul\":15164:15170   */\n      dup4\n        /* \"#utility.yul\":15086:15171   */\n      tag_289\n      jump\t// in\n    tag_470:\n        /* \"#utility.yul\":15076:15171   */\n      swap3\n      pop\n        /* \"#utility.yul\":15200:15204   */\n      0x20\n        /* \"#utility.yul\":15195:15198   */\n      dup11\n        /* \"#utility.yul\":15191:15205   */\n      add\n        /* \"#utility.yul\":15184:15205   */\n      swap10\n      pop\n        /* \"#utility.yul\":14834:15215   */\n      pop\n        /* \"#utility.yul\":14821:14822   */\n      0x01\n        /* \"#utility.yul\":14818:14819   */\n      dup2\n        /* \"#utility.yul\":14814:14823   */\n      add\n        /* \"#utility.yul\":14809:14823   */\n      swap1\n      pop\n        /* \"#utility.yul\":14774:15215   */\n      jump(tag_466)\n    tag_468:\n        /* \"#utility.yul\":14778:14792   */\n      pop\n        /* \"#utility.yul\":15231:15235   */\n      dup3\n        /* \"#utility.yul\":15224:15235   */\n      swap8\n      pop\n        /* \"#utility.yul\":15251:15254   */\n      dup8\n        /* \"#utility.yul\":15244:15254   */\n      swap6\n      pop\n        /* \"#utility.yul\":14323:15260   */\n      pop\n      pop\n      pop\n      pop\n      pop\n        /* \"#utility.yul\":14149:15260   */\n      swap3\n      swap2\n      pop\n      pop\n      jump\t// out\n        /* \"#utility.yul\":15266:15739   */\n    tag_48:\n        /* \"#utility.yul\":15459:15463   */\n      0x00\n        /* \"#utility.yul\":15497:15499   */\n      0x20\n        /* \"#utility.yul\":15486:15495   */\n      dup3\n        /* \"#utility.yul\":15482:15500   */\n      add\n        /* \"#utility.yul\":15474:15500   */\n      swap1\n      pop\n        /* \"#utility.yul\":15546:15555   */\n      dup2\n        /* \"#utility.yul\":15540:15544   */\n      dup2\n        /* \"#utility.yul\":15536:15556   */\n      sub\n        /* \"#utility.yul\":15532:15533   */\n      0x00\n        /* \"#utility.yul\":15521:15530   */\n      dup4\n        /* \"#utility.yul\":15517:15534   */\n      add\n        /* \"#utility.yul\":15510:15557   */\n      mstore\n        /* \"#utility.yul\":15574:15732   */\n      tag_472\n        /* \"#utility.yul\":15727:15731   */\n      dup2\n        /* \"#utility.yul\":15718:15724   */\n      dup5\n        /* \"#utility.yul\":15574:15732   */\n      tag_290\n      jump\t// in\n    tag_472:\n        /* \"#utility.yul\":15566:15732   */\n      swap1\n      pop\n        /* \"#utility.yul\":15266:15739   */\n      swap3\n      swap2\n      pop\n      pop\n      jump\t// out\n        /* \"#utility.yul\":15745:15914   */\n    tag_291:\n        /* \"#utility.yul\":15829:15840   */\n      0x00\n        /* \"#utility.yul\":15863:15869   */\n      dup3\n        /* \"#utility.yul\":15858:15861   */\n      dup3\n        /* \"#utility.yul\":15851:15870   */\n      mstore\n        /* \"#utility.yul\":15903:15907   */\n      0x20\n        /* \"#utility.yul\":15898:15901   */\n      dup3\n        /* \"#utility.yul\":15894:15908   */\n      add\n        /* \"#utility.yul\":15879:15908   */\n      swap1\n      pop\n        /* \"#utility.yul\":15745:15914   */\n      swap3\n      swap2\n      pop\n      pop\n      jump\t// out\n        /* \"#utility.yul\":15920:16086   */\n    tag_292:\n        /* \"#utility.yul\":16060:16078   */\n      0x566f74696e67206973204f766572202100000000000000000000000000000000\n        /* \"#utility.yul\":16056:16057   */\n      0x00\n        /* \"#utility.yul\":16048:16054   */\n      dup3\n        /* \"#utility.yul\":16044:16058   */\n      add\n        /* \"#utility.yul\":16037:16079   */\n      mstore\n        /* \"#utility.yul\":15920:16086   */\n      pop\n      jump\t// out\n        /* \"#utility.yul\":16092:16458   */\n    tag_293:\n        /* \"#utility.yul\":16234:16237   */\n      0x00\n        /* \"#utility.yul\":16255:16322   */\n      tag_476\n        /* \"#utility.yul\":16319:16321   */\n      0x10\n        /* \"#utility.yul\":16314:16317   */\n      dup4\n        /* \"#utility.yul\":16255:16322   */\n      tag_291\n      jump\t// in\n    tag_476:\n        /* \"#utility.yul\":16248:16322   */\n      swap2\n      pop\n        /* \"#utility.yul\":16331:16424   */\n      tag_477\n        /* \"#utility.yul\":16420:16423   */\n      dup3\n        /* \"#utility.yul\":16331:16424   */\n      tag_292\n      jump\t// in\n    tag_477:\n        /* \"#utility.yul\":16449:16451   */\n      0x20\n        /* \"#utility.yul\":16444:16447   */\n      dup3\n        /* \"#utility.yul\":16440:16452   */\n      add\n        /* \"#utility.yul\":16433:16452   */\n      swap1\n      pop\n        /* \"#utility.yul\":16092:16458   */\n      swap2\n      swap1\n      pop\n      jump\t// out\n        /* \"#utility.yul\":16464:16883   */\n    tag_53:\n        /* \"#utility.yul\":16630:16634   */\n      0x00\n        /* \"#utility.yul\":16668:16670   */\n      0x20\n        /* \"#utility.yul\":16657:16666   */\n      dup3\n        /* \"#utility.yul\":16653:16671   */\n      add\n        /* \"#utility.yul\":16645:16671   */\n      swap1\n      pop\n        /* \"#utility.yul\":16717:16726   */\n      dup2\n        /* \"#utility.yul\":16711:16715   */\n      dup2\n        /* \"#utility.yul\":16707:16727   */\n      sub\n        /* \"#utility.yul\":16703:16704   */\n      0x00\n        /* \"#utility.yul\":16692:16701   */\n      dup4\n        /* \"#utility.yul\":16688:16705   */\n      add\n        /* \"#utility.yul\":16681:16728   */\n      mstore\n        /* \"#utility.yul\":16745:16876   */\n      tag_479\n        /* \"#utility.yul\":16871:16875   */\n      dup2\n        /* \"#utility.yul\":16745:16876   */\n      tag_293\n      jump\t// in\n    tag_479:\n        /* \"#utility.yul\":16737:16876   */\n      swap1\n      pop\n        /* \"#utility.yul\":16464:16883   */\n      swap2\n      swap1\n      pop\n      jump\t// out\n        /* \"#utility.yul\":16889:17109   */\n    tag_294:\n        /* \"#utility.yul\":17029:17063   */\n      0x596f75206861766520616c72656164792063617374656420616e20766f746520\n        /* \"#utility.yul\":17025:17026   */\n      0x00\n        /* \"#utility.yul\":17017:17023   */\n      dup3\n        /* \"#utility.yul\":17013:17027   */\n      add\n        /* \"#utility.yul\":17006:17064   */\n      mstore\n        /* \"#utility.yul\":17098:17101   */\n      0x2100000000000000000000000000000000000000000000000000000000000000\n        /* \"#utility.yul\":17093:17095   */\n      0x20\n        /* \"#utility.yul\":17085:17091   */\n      dup3\n        /* \"#utility.yul\":17081:17096   */\n      add\n        /* \"#utility.yul\":17074:17102   */\n      mstore\n        /* \"#utility.yul\":16889:17109   */\n      pop\n      jump\t// out\n        /* \"#utility.yul\":17115:17481   */\n    tag_295:\n        /* \"#utility.yul\":17257:17260   */\n      0x00\n        /* \"#utility.yul\":17278:17345   */\n      tag_482\n        /* \"#utility.yul\":17342:17344   */\n      0x21\n        /* \"#utility.yul\":17337:17340   */\n      dup4\n        /* \"#utility.yul\":17278:17345   */\n      tag_291\n      jump\t// in\n    tag_482:\n        /* \"#utility.yul\":17271:17345   */\n      swap2\n      pop\n        /* \"#utility.yul\":17354:17447   */\n      tag_483\n        /* \"#utility.yul\":17443:17446   */\n      dup3\n        /* \"#utility.yul\":17354:17447   */\n      tag_294\n      jump\t// in\n    tag_483:\n        /* \"#utility.yul\":17472:17474   */\n      0x40\n        /* \"#utility.yul\":17467:17470   */\n      dup3\n        /* \"#utility.yul\":17463:17475   */\n      add\n        /* \"#utility.yul\":17456:17475   */\n      swap1\n      pop\n        /* \"#utility.yul\":17115:17481   */\n      swap2\n      swap1\n      pop\n      jump\t// out\n        /* \"#utility.yul\":17487:17906   */\n    tag_57:\n        /* \"#utility.yul\":17653:17657   */\n      0x00\n        /* \"#utility.yul\":17691:17693   */\n      0x20\n        /* \"#utility.yul\":17680:17689   */\n      dup3\n        /* \"#utility.yul\":17676:17694   */\n      add\n        /* \"#utility.yul\":17668:17694   */\n      swap1\n      pop\n        /* \"#utility.yul\":17740:17749   */\n      dup2\n        /* \"#utility.yul\":17734:17738   */\n      dup2\n        /* \"#utility.yul\":17730:17750   */\n      sub\n        /* \"#utility.yul\":17726:17727   */\n      0x00\n        /* \"#utility.yul\":17715:17724   */\n      dup4\n        /* \"#utility.yul\":17711:17728   */\n      add\n        /* \"#utility.yul\":17704:17751   */\n      mstore\n        /* \"#utility.yul\":17768:17899   */\n      tag_485\n        /* \"#utility.yul\":17894:17898   */\n      dup2\n        /* \"#utility.yul\":17768:17899   */\n      tag_295\n      jump\t// in\n    tag_485:\n        /* \"#utility.yul\":17760:17899   */\n      swap1\n      pop\n        /* \"#utility.yul\":17487:17906   */\n      swap2\n      swap1\n      pop\n      jump\t// out\n        /* \"#utility.yul\":17912:18145   */\n    tag_296:\n        /* \"#utility.yul\":18052:18086   */\n      0x506c6561736520566f74652077697468207468652073616d6520726567697374\n        /* \"#utility.yul\":18048:18049   */\n      0x00\n        /* \"#utility.yul\":18040:18046   */\n      dup3\n        /* \"#utility.yul\":18036:18050   */\n      add\n        /* \"#utility.yul\":18029:18087   */\n      mstore\n        /* \"#utility.yul\":18121:18137   */\n      0x6572656420766f7465722069642e000000000000000000000000000000000000\n        /* \"#utility.yul\":18116:18118   */\n      0x20\n        /* \"#utility.yul\":18108:18114   */\n      dup3\n        /* \"#utility.yul\":18104:18119   */\n      add\n        /* \"#utility.yul\":18097:18138   */\n      mstore\n        /* \"#utility.yul\":17912:18145   */\n      pop\n      jump\t// out\n        /* \"#utility.yul\":18151:18517   */\n    tag_297:\n        /* \"#utility.yul\":18293:18296   */\n      0x00\n        /* \"#utility.yul\":18314:18381   */\n      tag_488\n        /* \"#utility.yul\":18378:18380   */\n      0x2e\n        /* \"#utility.yul\":18373:18376   */\n      dup4\n        /* \"#utility.yul\":18314:18381   */\n      tag_291\n      jump\t// in\n    tag_488:\n        /* \"#utility.yul\":18307:18381   */\n      swap2\n      pop\n        /* \"#utility.yul\":18390:18483   */\n      tag_489\n        /* \"#utility.yul\":18479:18482   */\n      dup3\n        /* \"#utility.yul\":18390:18483   */\n      tag_296\n      jump\t// in\n    tag_489:\n        /* \"#utility.yul\":18508:18510   */\n      0x40\n        /* \"#utility.yul\":18503:18506   */\n      dup3\n        /* \"#utility.yul\":18499:18511   */\n      add\n        /* \"#utility.yul\":18492:18511   */\n      swap1\n      pop\n        /* \"#utility.yul\":18151:18517   */\n      swap2\n      swap1\n      pop\n      jump\t// out\n        /* \"#utility.yul\":18523:18942   */\n    tag_60:\n        /* \"#utility.yul\":18689:18693   */\n      0x00\n        /* \"#utility.yul\":18727:18729   */\n      0x20\n        /* \"#utility.yul\":18716:18725   */\n      dup3\n        /* \"#utility.yul\":18712:18730   */\n      add\n        /* \"#utility.yul\":18704:18730   */\n      swap1\n      pop\n        /* \"#utility.yul\":18776:18785   */\n      dup2\n        /* \"#utility.yul\":18770:18774   */\n      dup2\n        /* \"#utility.yul\":18766:18786   */\n      sub\n        /* \"#utility.yul\":18762:18763   */\n      0x00\n        /* \"#utility.yul\":18751:18760   */\n      dup4\n        /* \"#utility.yul\":18747:18764   */\n      add\n        /* \"#utility.yul\":18740:18787   */\n      mstore\n        /* \"#utility.yul\":18804:18935   */\n      tag_491\n        /* \"#utility.yul\":18930:18934   */\n      dup2\n        /* \"#utility.yul\":18804:18935   */\n      tag_297\n      jump\t// in\n    tag_491:\n        /* \"#utility.yul\":18796:18935   */\n      swap1\n      pop\n        /* \"#utility.yul\":18523:18942   */\n      swap2\n      swap1\n      pop\n      jump\t// out\n        /* \"#utility.yul\":18948:19169   */\n    tag_298:\n        /* \"#utility.yul\":19088:19122   */\n      0x546869732043616e646964617465206973206e6f742072656769737465726564\n        /* \"#utility.yul\":19084:19085   */\n      0x00\n        /* \"#utility.yul\":19076:19082   */\n      dup3\n        /* \"#utility.yul\":19072:19086   */\n      add\n        /* \"#utility.yul\":19065:19123   */\n      mstore\n        /* \"#utility.yul\":19157:19161   */\n      0x2021000000000000000000000000000000000000000000000000000000000000\n        /* \"#utility.yul\":19152:19154   */\n      0x20\n        /* \"#utility.yul\":19144:19150   */\n      dup3\n        /* \"#utility.yul\":19140:19155   */\n      add\n        /* \"#utility.yul\":19133:19162   */\n      mstore\n        /* \"#utility.yul\":18948:19169   */\n      pop\n      jump\t// out\n        /* \"#utility.yul\":19175:19541   */\n    tag_299:\n        /* \"#utility.yul\":19317:19320   */\n      0x00\n        /* \"#utility.yul\":19338:19405   */\n      tag_494\n        /* \"#utility.yul\":19402:19404   */\n      0x22\n        /* \"#utility.yul\":19397:19400   */\n      dup4\n        /* \"#utility.yul\":19338:19405   */\n      tag_291\n      jump\t// in\n    tag_494:\n        /* \"#utility.yul\":19331:19405   */\n      swap2\n      pop\n        /* \"#utility.yul\":19414:19507   */\n      tag_495\n        /* \"#utility.yul\":19503:19506   */\n      dup3\n        /* \"#utility.yul\":19414:19507   */\n      tag_298\n      jump\t// in\n    tag_495:\n        /* \"#utility.yul\":19532:19534   */\n      0x40\n        /* \"#utility.yul\":19527:19530   */\n      dup3\n        /* \"#utility.yul\":19523:19535   */\n      add\n        /* \"#utility.yul\":19516:19535   */\n      swap1\n      pop\n        /* \"#utility.yul\":19175:19541   */\n      swap2\n      swap1\n      pop\n      jump\t// out\n        /* \"#utility.yul\":19547:19966   */\n    tag_65:\n        /* \"#utility.yul\":19713:19717   */\n      0x00\n        /* \"#utility.yul\":19751:19753   */\n      0x20\n        /* \"#utility.yul\":19740:19749   */\n      dup3\n        /* \"#utility.yul\":19736:19754   */\n      add\n        /* \"#utility.yul\":19728:19754   */\n      swap1\n      pop\n        /* \"#utility.yul\":19800:19809   */\n      dup2\n        /* \"#utility.yul\":19794:19798   */\n      dup2\n        /* \"#utility.yul\":19790:19810   */\n      sub\n        /* \"#utility.yul\":19786:19787   */\n      0x00\n        /* \"#utility.yul\":19775:19784   */\n      dup4\n        /* \"#utility.yul\":19771:19788   */\n      add\n        /* \"#utility.yul\":19764:19811   */\n      mstore\n        /* \"#utility.yul\":19828:19959   */\n      tag_497\n        /* \"#utility.yul\":19954:19958   */\n      dup2\n        /* \"#utility.yul\":19828:19959   */\n      tag_299\n      jump\t// in\n    tag_497:\n        /* \"#utility.yul\":19820:19959   */\n      swap1\n      pop\n        /* \"#utility.yul\":19547:19966   */\n      swap2\n      swap1\n      pop\n      jump\t// out\n        /* \"#utility.yul\":19972:20152   */\n    tag_300:\n        /* \"#utility.yul\":20020:20097   */\n      0x4e487b7100000000000000000000000000000000000000000000000000000000\n        /* \"#utility.yul\":20017:20018   */\n      0x00\n        /* \"#utility.yul\":20010:20098   */\n      mstore\n        /* \"#utility.yul\":20117:20121   */\n      0x11\n        /* \"#utility.yul\":20114:20115   */\n      0x04\n        /* \"#utility.yul\":20107:20122   */\n      mstore\n        /* \"#utility.yul\":20141:20145   */\n      0x24\n        /* \"#utility.yul\":20138:20139   */\n      0x00\n        /* \"#utility.yul\":20131:20146   */\n      revert\n        /* \"#utility.yul\":20158:20391   */\n    tag_67:\n        /* \"#utility.yul\":20197:20200   */\n      0x00\n        /* \"#utility.yul\":20220:20244   */\n      tag_500\n        /* \"#utility.yul\":20238:20243   */\n      dup3\n        /* \"#utility.yul\":20220:20244   */\n      tag_250\n      jump\t// in\n    tag_500:\n        /* \"#utility.yul\":20211:20244   */\n      swap2\n      pop\n        /* \"#utility.yul\":20266:20332   */\n      0xffffffffffffffffffffffffffffffffffffffffffffffffffffffffffffffff\n        /* \"#utility.yul\":20259:20264   */\n      dup3\n        /* \"#utility.yul\":20256:20333   */\n      sub\n        /* \"#utility.yul\":20253:20356   */\n      tag_501\n      jumpi\n        /* \"#utility.yul\":20336:20354   */\n      tag_502\n      tag_300\n      jump\t// in\n    tag_502:\n        /* \"#utility.yul\":20253:20356   */\n    tag_501:\n        /* \"#utility.yul\":20383:20384   */\n      0x01\n        /* \"#utility.yul\":20376:20381   */\n      dup3\n        /* \"#utility.yul\":20372:20385   */\n      add\n        /* \"#utility.yul\":20365:20385   */\n      swap1\n      pop\n        /* \"#utility.yul\":20158:20391   */\n      swap2\n      swap1\n      pop\n      jump\t// out\n        /* \"#utility.yul\":20397:20633   */\n    tag_301:\n        /* \"#utility.yul\":20537:20571   */\n      0x4f6e6c7920456c656374696f6e20436f6d6d697373696f6e2063616e2063616c\n        /* \"#utility.yul\":20533:20534   */\n      0x00\n        /* \"#utility.yul\":20525:20531   */\n      dup3\n        /* \"#utility.yul\":20521:20535   */\n      add\n        /* \"#utility.yul\":20514:20572   */\n      mstore\n        /* \"#utility.yul\":20606:20625   */\n      0x6c20746869732066756e6374696f6e2021000000000000000000000000000000\n        /* \"#utility.yul\":20601:20603   */\n      0x20\n        /* \"#utility.yul\":20593:20599   */\n      dup3\n        /* \"#utility.yul\":20589:20604   */\n      add\n        /* \"#utility.yul\":20582:20626   */\n      mstore\n        /* \"#utility.yul\":20397:20633   */\n      pop\n      jump\t// out\n        /* \"#utility.yul\":20639:21005   */\n    tag_302:\n        /* \"#utility.yul\":20781:20784   */\n      0x00\n        /* \"#utility.yul\":20802:20869   */\n      tag_505\n        /* \"#utility.yul\":20866:20868   */\n      0x31\n        /* \"#utility.yul\":20861:20864   */\n      dup4\n        /* \"#utility.yul\":20802:20869   */\n      tag_291\n      jump\t// in\n    tag_505:\n        /* \"#utility.yul\":20795:20869   */\n      swap2\n      pop\n        /* \"#utility.yul\":20878:20971   */\n      tag_506\n        /* \"#utility.yul\":20967:20970   */\n      dup3\n        /* \"#utility.yul\":20878:20971   */\n      tag_301\n      jump\t// in\n    tag_506:\n        /* \"#utility.yul\":20996:20998   */\n      0x40\n        /* \"#utility.yul\":20991:20994   */\n      dup3\n        /* \"#utility.yul\":20987:20999   */\n      add\n        /* \"#utility.yul\":20980:20999   */\n      swap1\n      pop\n        /* \"#utility.yul\":20639:21005   */\n      swap2\n      swap1\n      pop\n      jump\t// out\n        /* \"#utility.yul\":21011:21430   */\n    tag_77:\n        /* \"#utility.yul\":21177:21181   */\n      0x00\n        /* \"#utility.yul\":21215:21217   */\n      0x20\n        /* \"#utility.yul\":21204:21213   */\n      dup3\n        /* \"#utility.yul\":21200:21218   */\n      add\n        /* \"#utility.yul\":21192:21218   */\n      swap1\n      pop\n        /* \"#utility.yul\":21264:21273   */\n      dup2\n        /* \"#utility.yul\":21258:21262   */\n      dup2\n        /* \"#utility.yul\":21254:21274   */\n      sub\n        /* \"#utility.yul\":21250:21251   */\n      0x00\n        /* \"#utility.yul\":21239:21248   */\n      dup4\n        /* \"#utility.yul\":21235:21252   */\n      add\n        /* \"#utility.yul\":21228:21275   */\n      mstore\n        /* \"#utility.yul\":21292:21423   */\n      tag_508\n        /* \"#utility.yul\":21418:21422   */\n      dup2\n        /* \"#utility.yul\":21292:21423   */\n      tag_302\n      jump\t// in\n    tag_508:\n        /* \"#utility.yul\":21284:21423   */\n      swap1\n      pop\n        /* \"#utility.yul\":21011:21430   */\n      swap2\n      swap1\n      pop\n      jump\t// out\n        /* \"#utility.yul\":21436:21657   */\n    tag_303:\n        /* \"#utility.yul\":21576:21610   */\n      0x4e6f7420656e6f7567682063616e646964617465732072656769737465726564\n        /* \"#utility.yul\":21572:21573   */\n      0x00\n        /* \"#utility.yul\":21564:21570   */\n      dup3\n        /* \"#utility.yul\":21560:21574   */\n      add\n        /* \"#utility.yul\":21553:21611   */\n      mstore\n        /* \"#utility.yul\":21645:21649   */\n      0x2021000000000000000000000000000000000000000000000000000000000000\n        /* \"#utility.yul\":21640:21642   */\n      0x20\n        /* \"#utility.yul\":21632:21638   */\n      dup3\n        /* \"#utility.yul\":21628:21643   */\n      add\n        /* \"#utility.yul\":21621:21650   */\n      mstore\n        /* \"#utility.yul\":21436:21657   */\n      pop\n      jump\t// out\n        /* \"#utility.yul\":21663:22029   */\n    tag_304:\n        /* \"#utility.yul\":21805:21808   */\n      0x00\n        /* \"#utility.yul\":21826:21893   */\n      tag_511\n        /* \"#utility.yul\":21890:21892   */\n      0x22\n        /* \"#utility.yul\":21885:21888   */\n      dup4\n        /* \"#utility.yul\":21826:21893   */\n      tag_291\n      jump\t// in\n    tag_511:\n        /* \"#utility.yul\":21819:21893   */\n      swap2\n      pop\n        /* \"#utility.yul\":21902:21995   */\n      tag_512\n        /* \"#utility.yul\":21991:21994   */\n      dup3\n        /* \"#utility.yul\":21902:21995   */\n      tag_303\n      jump\t// in\n    tag_512:\n        /* \"#utility.yul\":22020:22022   */\n      0x40\n        /* \"#utility.yul\":22015:22018   */\n      dup3\n        /* \"#utility.yul\":22011:22023   */\n      add\n        /* \"#utility.yul\":22004:22023   */\n      swap1\n      pop\n        /* \"#utility.yul\":21663:22029   */\n      swap2\n      swap1\n      pop\n      jump\t// out\n        /* \"#utility.yul\":22035:22454   */\n    tag_81:\n        /* \"#utility.yul\":22201:22205   */\n      0x00\n        /* \"#utility.yul\":22239:22241   */\n      0x20\n        /* \"#utility.yul\":22228:22237   */\n      dup3\n        /* \"#utility.yul\":22224:22242   */\n      add\n        /* \"#utility.yul\":22216:22242   */\n      swap1\n      pop\n        /* \"#utility.yul\":22288:22297   */\n      dup2\n        /* \"#utility.yul\":22282:22286   */\n      dup2\n        /* \"#utility.yul\":22278:22298   */\n      sub\n        /* \"#utility.yul\":22274:22275   */\n      0x00\n        /* \"#utility.yul\":22263:22272   */\n      dup4\n        /* \"#utility.yul\":22259:22276   */\n      add\n        /* \"#utility.yul\":22252:22299   */\n      mstore\n        /* \"#utility.yul\":22316:22447   */\n      tag_514\n        /* \"#utility.yul\":22442:22446   */\n      dup2\n        /* \"#utility.yul\":22316:22447   */\n      tag_304\n      jump\t// in\n    tag_514:\n        /* \"#utility.yul\":22308:22447   */\n      swap1\n      pop\n        /* \"#utility.yul\":22035:22454   */\n      swap2\n      swap1\n      pop\n      jump\t// out\n        /* \"#utility.yul\":22460:22640   */\n    tag_305:\n        /* \"#utility.yul\":22508:22585   */\n      0x4e487b7100000000000000000000000000000000000000000000000000000000\n        /* \"#utility.yul\":22505:22506   */\n      0x00\n        /* \"#utility.yul\":22498:22586   */\n      mstore\n        /* \"#utility.yul\":22605:22609   */\n      0x22\n        /* \"#utility.yul\":22602:22603   */\n      0x04\n        /* \"#utility.yul\":22595:22610   */\n      mstore\n        /* \"#utility.yul\":22629:22633   */\n      0x24\n        /* \"#utility.yul\":22626:22627   */\n      0x00\n        /* \"#utility.yul\":22619:22634   */\n      revert\n        /* \"#utility.yul\":22646:22966   */\n    tag_83:\n        /* \"#utility.yul\":22690:22696   */\n      0x00\n        /* \"#utility.yul\":22727:22728   */\n      0x02\n        /* \"#utility.yul\":22721:22725   */\n      dup3\n        /* \"#utility.yul\":22717:22729   */\n      div\n        /* \"#utility.yul\":22707:22729   */\n      swap1\n      pop\n        /* \"#utility.yul\":22774:22775   */\n      0x01\n        /* \"#utility.yul\":22768:22772   */\n      dup3\n        /* \"#utility.yul\":22764:22776   */\n      and\n        /* \"#utility.yul\":22795:22813   */\n      dup1\n        /* \"#utility.yul\":22785:22866   */\n      tag_517\n      jumpi\n        /* \"#utility.yul\":22851:22855   */\n      0x7f\n        /* \"#utility.yul\":22843:22849   */\n      dup3\n        /* \"#utility.yul\":22839:22856   */\n      and\n        /* \"#utility.yul\":22829:22856   */\n      swap2\n      pop\n        /* \"#utility.yul\":22785:22866   */\n    tag_517:\n        /* \"#utility.yul\":22913:22915   */\n      0x20\n        /* \"#utility.yul\":22905:22911   */\n      dup3\n        /* \"#utility.yul\":22902:22916   */\n      lt\n        /* \"#utility.yul\":22882:22900   */\n      dup2\n        /* \"#utility.yul\":22879:22917   */\n      sub\n        /* \"#utility.yul\":22876:22960   */\n      tag_518\n      jumpi\n        /* \"#utility.yul\":22932:22950   */\n      tag_519\n      tag_305\n      jump\t// in\n    tag_519:\n        /* \"#utility.yul\":22876:22960   */\n    tag_518:\n        /* \"#utility.yul\":22697:22966   */\n      pop\n        /* \"#utility.yul\":22646:22966   */\n      swap2\n      swap1\n      pop\n      jump\t// out\n        /* \"#utility.yul\":22972:23153   */\n    tag_306:\n        /* \"#utility.yul\":23112:23145   */\n      0x596f752061726520756e646561676520746f206265206120766f746572202100\n        /* \"#utility.yul\":23108:23109   */\n      0x00\n        /* \"#utility.yul\":23100:23106   */\n      dup3\n        /* \"#utility.yul\":23096:23110   */\n      add\n        /* \"#utility.yul\":23089:23146   */\n      mstore\n        /* \"#utility.yul\":22972:23153   */\n      pop\n      jump\t// out\n        /* \"#utility.yul\":23159:23525   */\n    tag_307:\n        /* \"#utility.yul\":23301:23304   */\n      0x00\n        /* \"#utility.yul\":23322:23389   */\n      tag_522\n        /* \"#utility.yul\":23386:23388   */\n      0x1f\n        /* \"#utility.yul\":23381:23384   */\n      dup4\n        /* \"#utility.yul\":23322:23389   */\n      tag_291\n      jump\t// in\n    tag_522:\n        /* \"#utility.yul\":23315:23389   */\n      swap2\n      pop\n        /* \"#utility.yul\":23398:23491   */\n      tag_523\n        /* \"#utility.yul\":23487:23490   */\n      dup3\n        /* \"#utility.yul\":23398:23491   */\n      tag_306\n      jump\t// in\n    tag_523:\n        /* \"#utility.yul\":23516:23518   */\n      0x20\n        /* \"#utility.yul\":23511:23514   */\n      dup3\n        /* \"#utility.yul\":23507:23519   */\n      add\n        /* \"#utility.yul\":23500:23519   */\n      swap1\n      pop\n        /* \"#utility.yul\":23159:23525   */\n      swap2\n      swap1\n      pop\n      jump\t// out\n        /* \"#utility.yul\":23531:23950   */\n    tag_117:\n        /* \"#utility.yul\":23697:23701   */\n      0x00\n        /* \"#utility.yul\":23735:23737   */\n      0x20\n        /* \"#utility.yul\":23724:23733   */\n      dup3\n        /* \"#utility.yul\":23720:23738   */\n      add\n        /* \"#utility.yul\":23712:23738   */\n      swap1\n      pop\n        /* \"#utility.yul\":23784:23793   */\n      dup2\n        /* \"#utility.yul\":23778:23782   */\n      dup2\n        /* \"#utility.yul\":23774:23794   */\n      sub\n        /* \"#utility.yul\":23770:23771   */\n      0x00\n        /* \"#utility.yul\":23759:23768   */\n      dup4\n        /* \"#utility.yul\":23755:23772   */\n      add\n        /* \"#utility.yul\":23748:23795   */\n      mstore\n        /* \"#utility.yul\":23812:23943   */\n      tag_525\n        /* \"#utility.yul\":23938:23942   */\n      dup2\n        /* \"#utility.yul\":23812:23943   */\n      tag_307\n      jump\t// in\n    tag_525:\n        /* \"#utility.yul\":23804:23943   */\n      swap1\n      pop\n        /* \"#utility.yul\":23531:23950   */\n      swap2\n      swap1\n      pop\n      jump\t// out\n        /* \"#utility.yul\":23956:24185   */\n    tag_308:\n        /* \"#utility.yul\":24096:24130   */\n      0x596f75206861766520616c726561647920726567697374657265642061732074\n        /* \"#utility.yul\":24092:24093   */\n      0x00\n        /* \"#utility.yul\":24084:24090   */\n      dup3\n        /* \"#utility.yul\":24080:24094   */\n      add\n        /* \"#utility.yul\":24073:24131   */\n      mstore\n        /* \"#utility.yul\":24165:24177   */\n      0x686520766f746572202100000000000000000000000000000000000000000000\n        /* \"#utility.yul\":24160:24162   */\n      0x20\n        /* \"#utility.yul\":24152:24158   */\n      dup3\n        /* \"#utility.yul\":24148:24163   */\n      add\n        /* \"#utility.yul\":24141:24178   */\n      mstore\n        /* \"#utility.yul\":23956:24185   */\n      pop\n      jump\t// out\n        /* \"#utility.yul\":24191:24557   */\n    tag_309:\n        /* \"#utility.yul\":24333:24336   */\n      0x00\n        /* \"#utility.yul\":24354:24421   */\n      tag_528\n        /* \"#utility.yul\":24418:24420   */\n      0x2a\n        /* \"#utility.yul\":24413:24416   */\n      dup4\n        /* \"#utility.yul\":24354:24421   */\n      tag_291\n      jump\t// in\n    tag_528:\n        /* \"#utility.yul\":24347:24421   */\n      swap2\n      pop\n        /* \"#utility.yul\":24430:24523   */\n      tag_529\n        /* \"#utility.yul\":24519:24522   */\n      dup3\n        /* \"#utility.yul\":24430:24523   */\n      tag_308\n      jump\t// in\n    tag_529:\n        /* \"#utility.yul\":24548:24550   */\n      0x40\n        /* \"#utility.yul\":24543:24546   */\n      dup3\n        /* \"#utility.yul\":24539:24551   */\n      add\n        /* \"#utility.yul\":24532:24551   */\n      swap1\n      pop\n        /* \"#utility.yul\":24191:24557   */\n      swap2\n      swap1\n      pop\n      jump\t// out\n        /* \"#utility.yul\":24563:24982   */\n    tag_122:\n        /* \"#utility.yul\":24729:24733   */\n      0x00\n        /* \"#utility.yul\":24767:24769   */\n      0x20\n        /* \"#utility.yul\":24756:24765   */\n      dup3\n        /* \"#utility.yul\":24752:24770   */\n      add\n        /* \"#utility.yul\":24744:24770   */\n      swap1\n      pop\n        /* \"#utility.yul\":24816:24825   */\n      dup2\n        /* \"#utility.yul\":24810:24814   */\n      dup2\n        /* \"#utility.yul\":24806:24826   */\n      sub\n        /* \"#utility.yul\":24802:24803   */\n      0x00\n        /* \"#utility.yul\":24791:24800   */\n      dup4\n        /* \"#utility.yul\":24787:24804   */\n      add\n        /* \"#utility.yul\":24780:24827   */\n      mstore\n        /* \"#utility.yul\":24844:24975   */\n      tag_531\n        /* \"#utility.yul\":24970:24974   */\n      dup2\n        /* \"#utility.yul\":24844:24975   */\n      tag_309\n      jump\t// in\n    tag_531:\n        /* \"#utility.yul\":24836:24975   */\n      swap1\n      pop\n        /* \"#utility.yul\":24563:24982   */\n      swap2\n      swap1\n      pop\n      jump\t// out\n        /* \"#utility.yul\":24988:25168   */\n    tag_179:\n        /* \"#utility.yul\":25036:25113   */\n      0x4e487b7100000000000000000000000000000000000000000000000000000000\n        /* \"#utility.yul\":25033:25034   */\n      0x00\n        /* \"#utility.yul\":25026:25114   */\n      mstore\n        /* \"#utility.yul\":25133:25137   */\n      0x41\n        /* \"#utility.yul\":25130:25131   */\n      0x04\n        /* \"#utility.yul\":25123:25138   */\n      mstore\n        /* \"#utility.yul\":25157:25161   */\n      0x24\n        /* \"#utility.yul\":25154:25155   */\n      0x00\n        /* \"#utility.yul\":25147:25162   */\n      revert\n        /* \"#utility.yul\":25174:25315   */\n    tag_310:\n        /* \"#utility.yul\":25223:25227   */\n      0x00\n        /* \"#utility.yul\":25246:25249   */\n      dup2\n        /* \"#utility.yul\":25238:25249   */\n      swap1\n      pop\n        /* \"#utility.yul\":25269:25272   */\n      dup2\n        /* \"#utility.yul\":25266:25267   */\n      0x00\n        /* \"#utility.yul\":25259:25273   */\n      mstore\n        /* \"#utility.yul\":25303:25307   */\n      0x20\n        /* \"#utility.yul\":25300:25301   */\n      0x00\n        /* \"#utility.yul\":25290:25308   */\n      keccak256\n        /* \"#utility.yul\":25282:25308   */\n      swap1\n      pop\n        /* \"#utility.yul\":25174:25315   */\n      swap2\n      swap1\n      pop\n      jump\t// out\n        /* \"#utility.yul\":25321:25414   */\n    tag_311:\n        /* \"#utility.yul\":25358:25364   */\n      0x00\n        /* \"#utility.yul\":25405:25407   */\n      0x20\n        /* \"#utility.yul\":25400:25402   */\n      0x1f\n        /* \"#utility.yul\":25393:25398   */\n      dup4\n        /* \"#utility.yul\":25389:25403   */\n      add\n        /* \"#utility.yul\":25385:25408   */\n      div\n        /* \"#utility.yul\":25375:25408   */\n      swap1\n      pop\n        /* \"#utility.yul\":25321:25414   */\n      swap2\n      swap1\n      pop\n      jump\t// out\n        /* \"#utility.yul\":25420:25527   */\n    tag_312:\n        /* \"#utility.yul\":25464:25472   */\n      0x00\n        /* \"#utility.yul\":25514:25519   */\n      dup3\n        /* \"#utility.yul\":25508:25512   */\n      dup3\n        /* \"#utility.yul\":25504:25520   */\n      shl\n        /* \"#utility.yul\":25483:25520   */\n      swap1\n      pop\n        /* \"#utility.yul\":25420:25527   */\n      swap3\n      swap2\n      pop\n      pop\n      jump\t// out\n        /* \"#utility.yul\":25533:25926   */\n    tag_313:\n        /* \"#utility.yul\":25602:25608   */\n      0x00\n        /* \"#utility.yul\":25652:25653   */\n      0x08\n        /* \"#utility.yul\":25640:25650   */\n      dup4\n        /* \"#utility.yul\":25636:25654   */\n      mul\n        /* \"#utility.yul\":25675:25772   */\n      tag_537\n        /* \"#utility.yul\":25705:25771   */\n      0xffffffffffffffffffffffffffffffffffffffffffffffffffffffffffffffff\n        /* \"#utility.yul\":25694:25703   */\n      dup3\n        /* \"#utility.yul\":25675:25772   */\n      tag_312\n      jump\t// in\n    tag_537:\n        /* \"#utility.yul\":25793:25832   */\n      tag_538\n        /* \"#utility.yul\":25823:25831   */\n      dup7\n        /* \"#utility.yul\":25812:25821   */\n      dup4\n        /* \"#utility.yul\":25793:25832   */\n      tag_312\n      jump\t// in\n    tag_538:\n        /* \"#utility.yul\":25781:25832   */\n      swap6\n      pop\n        /* \"#utility.yul\":25865:25869   */\n      dup1\n        /* \"#utility.yul\":25861:25870   */\n      not\n        /* \"#utility.yul\":25854:25859   */\n      dup5\n        /* \"#utility.yul\":25850:25871   */\n      and\n        /* \"#utility.yul\":25841:25871   */\n      swap4\n      pop\n        /* \"#utility.yul\":25914:25918   */\n      dup1\n        /* \"#utility.yul\":25904:25912   */\n      dup7\n        /* \"#utility.yul\":25900:25919   */\n      and\n        /* \"#utility.yul\":25893:25898   */\n      dup5\n        /* \"#utility.yul\":25890:25920   */\n      or\n        /* \"#utility.yul\":25880:25920   */\n      swap3\n      pop\n        /* \"#utility.yul\":25609:25926   */\n      pop\n      pop\n        /* \"#utility.yul\":25533:25926   */\n      swap4\n      swap3\n      pop\n      pop\n      pop\n      jump\t// out\n        /* \"#utility.yul\":25932:25992   */\n    tag_314:\n        /* \"#utility.yul\":25960:25963   */\n      0x00\n        /* \"#utility.yul\":25981:25986   */\n      dup2\n        /* \"#utility.yul\":25974:25986   */\n      swap1\n      pop\n        /* \"#utility.yul\":25932:25992   */\n      swap2\n      swap1\n      pop\n      jump\t// out\n        /* \"#utility.yul\":25998:26140   */\n    tag_315:\n        /* \"#utility.yul\":26048:26057   */\n      0x00\n        /* \"#utility.yul\":26081:26134   */\n      tag_541\n        /* \"#utility.yul\":26099:26133   */\n      tag_542\n        /* \"#utility.yul\":26108:26132   */\n      tag_543\n        /* \"#utility.yul\":26126:26131   */\n      dup5\n        /* \"#utility.yul\":26108:26132   */\n      tag_250\n      jump\t// in\n    tag_543:\n        /* \"#utility.yul\":26099:26133   */\n      tag_314\n      jump\t// in\n    tag_542:\n        /* \"#utility.yul\":26081:26134   */\n      tag_250\n      jump\t// in\n    tag_541:\n        /* \"#utility.yul\":26068:26134   */\n      swap1\n      pop\n        /* \"#utility.yul\":25998:26140   */\n      swap2\n      swap1\n      pop\n      jump\t// out\n        /* \"#utility.yul\":26146:26221   */\n    tag_316:\n        /* \"#utility.yul\":26189:26192   */\n      0x00\n        /* \"#utility.yul\":26210:26215   */\n      dup2\n        /* \"#utility.yul\":26203:26215   */\n      swap1\n      pop\n        /* \"#utility.yul\":26146:26221   */\n      swap2\n      swap1\n      pop\n      jump\t// out\n        /* \"#utility.yul\":26227:26496   */\n    tag_317:\n        /* \"#utility.yul\":26337:26376   */\n      tag_546\n        /* \"#utility.yul\":26368:26375   */\n      dup4\n        /* \"#utility.yul\":26337:26376   */\n      tag_315\n      jump\t// in\n    tag_546:\n        /* \"#utility.yul\":26398:26489   */\n      tag_547\n        /* \"#utility.yul\":26447:26488   */\n      tag_548\n        /* \"#utility.yul\":26471:26487   */\n      dup3\n        /* \"#utility.yul\":26447:26488   */\n      tag_316\n      jump\t// in\n    tag_548:\n        /* \"#utility.yul\":26439:26445   */\n      dup5\n        /* \"#utility.yul\":26432:26436   */\n      dup5\n        /* \"#utility.yul\":26426:26437   */\n      sload\n        /* \"#utility.yul\":26398:26489   */\n      tag_313\n      jump\t// in\n    tag_547:\n        /* \"#utility.yul\":26392:26396   */\n      dup3\n        /* \"#utility.yul\":26385:26490   */\n      sstore\n        /* \"#utility.yul\":26303:26496   */\n      pop\n        /* \"#utility.yul\":26227:26496   */\n      pop\n      pop\n      pop\n      jump\t// out\n        /* \"#utility.yul\":26502:26575   */\n    tag_318:\n        /* \"#utility.yul\":26547:26550   */\n      0x00\n        /* \"#utility.yul\":26502:26575   */\n      swap1\n      jump\t// out\n        /* \"#utility.yul\":26581:26770   */\n    tag_319:\n        /* \"#utility.yul\":26658:26690   */\n      tag_551\n      tag_318\n      jump\t// in\n    tag_551:\n        /* \"#utility.yul\":26699:26764   */\n      tag_552\n        /* \"#utility.yul\":26757:26763   */\n      dup2\n        /* \"#utility.yul\":26749:26755   */\n      dup5\n        /* \"#utility.yul\":26743:26747   */\n      dup5\n        /* \"#utility.yul\":26699:26764   */\n      tag_317\n      jump\t// in\n    tag_552:\n        /* \"#utility.yul\":26634:26770   */\n      pop\n        /* \"#utility.yul\":26581:26770   */\n      pop\n      pop\n      jump\t// out\n        /* \"#utility.yul\":26776:26962   */\n    tag_320:\n        /* \"#utility.yul\":26836:26956   */\n    tag_554:\n        /* \"#utility.yul\":26853:26856   */\n      dup2\n        /* \"#utility.yul\":26846:26851   */\n      dup2\n        /* \"#utility.yul\":26843:26857   */\n      lt\n        /* \"#utility.yul\":26836:26956   */\n      iszero\n      tag_556\n      jumpi\n        /* \"#utility.yul\":26907:26946   */\n      tag_557\n        /* \"#utility.yul\":26944:26945   */\n      0x00\n        /* \"#utility.yul\":26937:26942   */\n      dup3\n        /* \"#utility.yul\":26907:26946   */\n      tag_319\n      jump\t// in\n    tag_557:\n        /* \"#utility.yul\":26880:26881   */\n      0x01\n        /* \"#utility.yul\":26873:26878   */\n      dup2\n        /* \"#utility.yul\":26869:26882   */\n      add\n        /* \"#utility.yul\":26860:26882   */\n      swap1\n      pop\n        /* \"#utility.yul\":26836:26956   */\n      jump(tag_554)\n    tag_556:\n        /* \"#utility.yul\":26776:26962   */\n      pop\n      pop\n      jump\t// out\n        /* \"#utility.yul\":26968:27511   */\n    tag_321:\n        /* \"#utility.yul\":27069:27071   */\n      0x1f\n        /* \"#utility.yul\":27064:27067   */\n      dup3\n        /* \"#utility.yul\":27061:27072   */\n      gt\n        /* \"#utility.yul\":27058:27504   */\n      iszero\n      tag_559\n      jumpi\n        /* \"#utility.yul\":27103:27141   */\n      tag_560\n        /* \"#utility.yul\":27135:27140   */\n      dup2\n        /* \"#utility.yul\":27103:27141   */\n      tag_310\n      jump\t// in\n    tag_560:\n        /* \"#utility.yul\":27187:27216   */\n      tag_561\n        /* \"#utility.yul\":27205:27215   */\n      dup5\n        /* \"#utility.yul\":27187:27216   */\n      tag_311\n      jump\t// in\n    tag_561:\n        /* \"#utility.yul\":27177:27185   */\n      dup2\n        /* \"#utility.yul\":27173:27217   */\n      add\n        /* \"#utility.yul\":27370:27372   */\n      0x20\n        /* \"#utility.yul\":27358:27368   */\n      dup6\n        /* \"#utility.yul\":27355:27373   */\n      lt\n        /* \"#utility.yul\":27352:27401   */\n      iszero\n      tag_562\n      jumpi\n        /* \"#utility.yul\":27391:27399   */\n      dup2\n        /* \"#utility.yul\":27376:27399   */\n      swap1\n      pop\n        /* \"#utility.yul\":27352:27401   */\n    tag_562:\n        /* \"#utility.yul\":27414:27494   */\n      tag_563\n        /* \"#utility.yul\":27470:27492   */\n      tag_564\n        /* \"#utility.yul\":27488:27491   */\n      dup6\n        /* \"#utility.yul\":27470:27492   */\n      tag_311\n      jump\t// in\n    tag_564:\n        /* \"#utility.yul\":27460:27468   */\n      dup4\n        /* \"#utility.yul\":27456:27493   */\n      add\n        /* \"#utility.yul\":27443:27454   */\n      dup3\n        /* \"#utility.yul\":27414:27494   */\n      tag_320\n      jump\t// in\n    tag_563:\n        /* \"#utility.yul\":27073:27504   */\n      pop\n      pop\n        /* \"#utility.yul\":27058:27504   */\n    tag_559:\n        /* \"#utility.yul\":26968:27511   */\n      pop\n      pop\n      pop\n      jump\t// out\n        /* \"#utility.yul\":27517:27634   */\n    tag_322:\n        /* \"#utility.yul\":27571:27579   */\n      0x00\n        /* \"#utility.yul\":27621:27626   */\n      dup3\n        /* \"#utility.yul\":27615:27619   */\n      dup3\n        /* \"#utility.yul\":27611:27627   */\n      shr\n        /* \"#utility.yul\":27590:27627   */\n      swap1\n      pop\n        /* \"#utility.yul\":27517:27634   */\n      swap3\n      swap2\n      pop\n      pop\n      jump\t// out\n        /* \"#utility.yul\":27640:27809   */\n    tag_323:\n        /* \"#utility.yul\":27684:27690   */\n      0x00\n        /* \"#utility.yul\":27717:27768   */\n      tag_567\n        /* \"#utility.yul\":27765:27766   */\n      0x00\n        /* \"#utility.yul\":27761:27767   */\n      not\n        /* \"#utility.yul\":27753:27758   */\n      dup5\n        /* \"#utility.yul\":27750:27751   */\n      0x08\n        /* \"#utility.yul\":27746:27759   */\n      mul\n        /* \"#utility.yul\":27717:27768   */\n      tag_322\n      jump\t// in\n    tag_567:\n        /* \"#utility.yul\":27713:27769   */\n      not\n        /* \"#utility.yul\":27798:27802   */\n      dup1\n        /* \"#utility.yul\":27792:27796   */\n      dup4\n        /* \"#utility.yul\":27788:27803   */\n      and\n        /* \"#utility.yul\":27778:27803   */\n      swap2\n      pop\n        /* \"#utility.yul\":27691:27809   */\n      pop\n        /* \"#utility.yul\":27640:27809   */\n      swap3\n      swap2\n      pop\n      pop\n      jump\t// out\n        /* \"#utility.yul\":27814:28109   */\n    tag_324:\n        /* \"#utility.yul\":27890:27894   */\n      0x00\n        /* \"#utility.yul\":28036:28065   */\n      tag_569\n        /* \"#utility.yul\":28061:28064   */\n      dup4\n        /* \"#utility.yul\":28055:28059   */\n      dup4\n        /* \"#utility.yul\":28036:28065   */\n      tag_323\n      jump\t// in\n    tag_569:\n        /* \"#utility.yul\":28028:28065   */\n      swap2\n      pop\n        /* \"#utility.yul\":28098:28101   */\n      dup3\n        /* \"#utility.yul\":28095:28096   */\n      0x02\n        /* \"#utility.yul\":28091:28102   */\n      mul\n        /* \"#utility.yul\":28085:28089   */\n      dup3\n        /* \"#utility.yul\":28082:28103   */\n      or\n        /* \"#utility.yul\":28074:28103   */\n      swap1\n      pop\n        /* \"#utility.yul\":27814:28109   */\n      swap3\n      swap2\n      pop\n      pop\n      jump\t// out\n        /* \"#utility.yul\":28114:29509   */\n    tag_126:\n        /* \"#utility.yul\":28231:28268   */\n      tag_571\n        /* \"#utility.yul\":28264:28267   */\n      dup3\n        /* \"#utility.yul\":28231:28268   */\n      tag_266\n      jump\t// in\n    tag_571:\n        /* \"#utility.yul\":28333:28351   */\n      0xffffffffffffffff\n        /* \"#utility.yul\":28325:28331   */\n      dup2\n        /* \"#utility.yul\":28322:28352   */\n      gt\n        /* \"#utility.yul\":28319:28375   */\n      iszero\n      tag_572\n      jumpi\n        /* \"#utility.yul\":28355:28373   */\n      tag_573\n      tag_179\n      jump\t// in\n    tag_573:\n        /* \"#utility.yul\":28319:28375   */\n    tag_572:\n        /* \"#utility.yul\":28399:28437   */\n      tag_574\n        /* \"#utility.yul\":28431:28435   */\n      dup3\n        /* \"#utility.yul\":28425:28436   */\n      sload\n        /* \"#utility.yul\":28399:28437   */\n      tag_83\n      jump\t// in\n    tag_574:\n        /* \"#utility.yul\":28484:28551   */\n      tag_575\n        /* \"#utility.yul\":28544:28550   */\n      dup3\n        /* \"#utility.yul\":28536:28542   */\n      dup3\n        /* \"#utility.yul\":28530:28534   */\n      dup6\n        /* \"#utility.yul\":28484:28551   */\n      tag_321\n      jump\t// in\n    tag_575:\n        /* \"#utility.yul\":28578:28579   */\n      0x00\n        /* \"#utility.yul\":28602:28606   */\n      0x20\n        /* \"#utility.yul\":28589:28606   */\n      swap1\n      pop\n        /* \"#utility.yul\":28634:28636   */\n      0x1f\n        /* \"#utility.yul\":28626:28632   */\n      dup4\n        /* \"#utility.yul\":28623:28637   */\n      gt\n        /* \"#utility.yul\":28651:28652   */\n      0x01\n        /* \"#utility.yul\":28646:29264   */\n      dup2\n      eq\n      tag_577\n      jumpi\n        /* \"#utility.yul\":29308:29309   */\n      0x00\n        /* \"#utility.yul\":29325:29331   */\n      dup5\n        /* \"#utility.yul\":29322:29399   */\n      iszero\n      tag_578\n      jumpi\n        /* \"#utility.yul\":29374:29383   */\n      dup3\n        /* \"#utility.yul\":29369:29372   */\n      dup8\n        /* \"#utility.yul\":29365:29384   */\n      add\n        /* \"#utility.yul\":29359:29385   */\n      mload\n        /* \"#utility.yul\":29350:29385   */\n      swap1\n      pop\n        /* \"#utility.yul\":29322:29399   */\n    tag_578:\n        /* \"#utility.yul\":29425:29492   */\n      tag_579\n        /* \"#utility.yul\":29485:29491   */\n      dup6\n        /* \"#utility.yul\":29478:29483   */\n      dup3\n        /* \"#utility.yul\":29425:29492   */\n      tag_324\n      jump\t// in\n    tag_579:\n        /* \"#utility.yul\":29419:29423   */\n      dup7\n        /* \"#utility.yul\":29412:29493   */\n      sstore\n        /* \"#utility.yul\":29281:29503   */\n      pop\n        /* \"#utility.yul\":28616:29503   */\n      jump(tag_576)\n        /* \"#utility.yul\":28646:29264   */\n    tag_577:\n        /* \"#utility.yul\":28698:28702   */\n      0x1f\n        /* \"#utility.yul\":28694:28703   */\n      not\n        /* \"#utility.yul\":28686:28692   */\n      dup5\n        /* \"#utility.yul\":28682:28704   */\n      and\n        /* \"#utility.yul\":28732:28769   */\n      tag_580\n        /* \"#utility.yul\":28764:28768   */\n      dup7\n        /* \"#utility.yul\":28732:28769   */\n      tag_310\n      jump\t// in\n    tag_580:\n        /* \"#utility.yul\":28791:28792   */\n      0x00\n        /* \"#utility.yul\":28805:29013   */\n    tag_581:\n        /* \"#utility.yul\":28819:28826   */\n      dup3\n        /* \"#utility.yul\":28816:28817   */\n      dup2\n        /* \"#utility.yul\":28813:28827   */\n      lt\n        /* \"#utility.yul\":28805:29013   */\n      iszero\n      tag_583\n      jumpi\n        /* \"#utility.yul\":28898:28907   */\n      dup5\n        /* \"#utility.yul\":28893:28896   */\n      dup10\n        /* \"#utility.yul\":28889:28908   */\n      add\n        /* \"#utility.yul\":28883:28909   */\n      mload\n        /* \"#utility.yul\":28875:28881   */\n      dup3\n        /* \"#utility.yul\":28868:28910   */\n      sstore\n        /* \"#utility.yul\":28949:28950   */\n      0x01\n        /* \"#utility.yul\":28941:28947   */\n      dup3\n        /* \"#utility.yul\":28937:28951   */\n      add\n        /* \"#utility.yul\":28927:28951   */\n      swap2\n      pop\n        /* \"#utility.yul\":28996:28998   */\n      0x20\n        /* \"#utility.yul\":28985:28994   */\n      dup6\n        /* \"#utility.yul\":28981:28999   */\n      add\n        /* \"#utility.yul\":28968:28999   */\n      swap5\n      pop\n        /* \"#utility.yul\":28842:28846   */\n      0x20\n        /* \"#utility.yul\":28839:28840   */\n      dup2\n        /* \"#utility.yul\":28835:28847   */\n      add\n        /* \"#utility.yul\":28830:28847   */\n      swap1\n      pop\n        /* \"#utility.yul\":28805:29013   */\n      jump(tag_581)\n    tag_583:\n        /* \"#utility.yul\":29041:29047   */\n      dup7\n        /* \"#utility.yul\":29032:29039   */\n      dup4\n        /* \"#utility.yul\":29029:29048   */\n      lt\n        /* \"#utility.yul\":29026:29205   */\n      iszero\n      tag_584\n      jumpi\n        /* \"#utility.yul\":29099:29108   */\n      dup5\n        /* \"#utility.yul\":29094:29097   */\n      dup10\n        /* \"#utility.yul\":29090:29109   */\n      add\n        /* \"#utility.yul\":29084:29110   */\n      mload\n        /* \"#utility.yul\":29142:29190   */\n      tag_585\n        /* \"#utility.yul\":29184:29188   */\n      0x1f\n        /* \"#utility.yul\":29176:29182   */\n      dup10\n        /* \"#utility.yul\":29172:29189   */\n      and\n        /* \"#utility.yul\":29161:29170   */\n      dup3\n        /* \"#utility.yul\":29142:29190   */\n      tag_323\n      jump\t// in\n    tag_585:\n        /* \"#utility.yul\":29134:29140   */\n      dup4\n        /* \"#utility.yul\":29127:29191   */\n      sstore\n        /* \"#utility.yul\":29049:29205   */\n      pop\n        /* \"#utility.yul\":29026:29205   */\n    tag_584:\n        /* \"#utility.yul\":29251:29252   */\n      0x01\n        /* \"#utility.yul\":29247:29248   */\n      0x02\n        /* \"#utility.yul\":29239:29245   */\n      dup9\n        /* \"#utility.yul\":29235:29249   */\n      mul\n        /* \"#utility.yul\":29231:29253   */\n      add\n        /* \"#utility.yul\":29225:29229   */\n      dup9\n        /* \"#utility.yul\":29218:29254   */\n      sstore\n        /* \"#utility.yul\":28653:29264   */\n      pop\n      pop\n      pop\n        /* \"#utility.yul\":28616:29503   */\n    tag_576:\n      pop\n        /* \"#utility.yul\":28206:29509   */\n      pop\n      pop\n      pop\n        /* \"#utility.yul\":28114:29509   */\n      pop\n      pop\n      jump\t// out\n        /* \"#utility.yul\":29515:29747   */\n    tag_325:\n        /* \"#utility.yul\":29655:29689   */\n      0x596f752061726520746f6f20796f756e67206f72206167656420746f20626520\n        /* \"#utility.yul\":29651:29652   */\n      0x00\n        /* \"#utility.yul\":29643:29649   */\n      dup3\n        /* \"#utility.yul\":29639:29653   */\n      add\n        /* \"#utility.yul\":29632:29690   */\n      mstore\n        /* \"#utility.yul\":29724:29739   */\n      0x612063616e646964617465202100000000000000000000000000000000000000\n        /* \"#utility.yul\":29719:29721   */\n      0x20\n        /* \"#utility.yul\":29711:29717   */\n      dup3\n        /* \"#utility.yul\":29707:29722   */\n      add\n        /* \"#utility.yul\":29700:29740   */\n      mstore\n        /* \"#utility.yul\":29515:29747   */\n      pop\n      jump\t// out\n        /* \"#utility.yul\":29753:30119   */\n    tag_326:\n        /* \"#utility.yul\":29895:29898   */\n      0x00\n        /* \"#utility.yul\":29916:29983   */\n      tag_588\n        /* \"#utility.yul\":29980:29982   */\n      0x2d\n        /* \"#utility.yul\":29975:29978   */\n      dup4\n        /* \"#utility.yul\":29916:29983   */\n      tag_291\n      jump\t// in\n    tag_588:\n        /* \"#utility.yul\":29909:29983   */\n      swap2\n      pop\n        /* \"#utility.yul\":29992:30085   */\n      tag_589\n        /* \"#utility.yul\":30081:30084   */\n      dup3\n        /* \"#utility.yul\":29992:30085   */\n      tag_325\n      jump\t// in\n    tag_589:\n        /* \"#utility.yul\":30110:30112   */\n      0x40\n        /* \"#utility.yul\":30105:30108   */\n      dup3\n        /* \"#utility.yul\":30101:30113   */\n      add\n        /* \"#utility.yul\":30094:30113   */\n      swap1\n      pop\n        /* \"#utility.yul\":29753:30119   */\n      swap2\n      swap1\n      pop\n      jump\t// out\n        /* \"#utility.yul\":30125:30544   */\n    tag_138:\n        /* \"#utility.yul\":30291:30295   */\n      0x00\n        /* \"#utility.yul\":30329:30331   */\n      0x20\n        /* \"#utility.yul\":30318:30327   */\n      dup3\n        /* \"#utility.yul\":30314:30332   */\n      add\n        /* \"#utility.yul\":30306:30332   */\n      swap1\n      pop\n        /* \"#utility.yul\":30378:30387   */\n      dup2\n        /* \"#utility.yul\":30372:30376   */\n      dup2\n        /* \"#utility.yul\":30368:30388   */\n      sub\n        /* \"#utility.yul\":30364:30365   */\n      0x00\n        /* \"#utility.yul\":30353:30362   */\n      dup4\n        /* \"#utility.yul\":30349:30366   */\n      add\n        /* \"#utility.yul\":30342:30389   */\n      mstore\n        /* \"#utility.yul\":30406:30537   */\n      tag_591\n        /* \"#utility.yul\":30532:30536   */\n      dup2\n        /* \"#utility.yul\":30406:30537   */\n      tag_326\n      jump\t// in\n    tag_591:\n        /* \"#utility.yul\":30398:30537   */\n      swap1\n      pop\n        /* \"#utility.yul\":30125:30544   */\n      swap2\n      swap1\n      pop\n      jump\t// out\n        /* \"#utility.yul\":30550:30729   */\n    tag_327:\n        /* \"#utility.yul\":30690:30721   */\n      0x596f75206861766520616c726561647920726567697374657265642021000000\n        /* \"#utility.yul\":30686:30687   */\n      0x00\n        /* \"#utility.yul\":30678:30684   */\n      dup3\n        /* \"#utility.yul\":30674:30688   */\n      add\n        /* \"#utility.yul\":30667:30722   */\n      mstore\n        /* \"#utility.yul\":30550:30729   */\n      pop\n      jump\t// out\n        /* \"#utility.yul\":30735:31101   */\n    tag_328:\n        /* \"#utility.yul\":30877:30880   */\n      0x00\n        /* \"#utility.yul\":30898:30965   */\n      tag_594\n        /* \"#utility.yul\":30962:30964   */\n      0x1d\n        /* \"#utility.yul\":30957:30960   */\n      dup4\n        /* \"#utility.yul\":30898:30965   */\n      tag_291\n      jump\t// in\n    tag_594:\n        /* \"#utility.yul\":30891:30965   */\n      swap2\n      pop\n        /* \"#utility.yul\":30974:31067   */\n      tag_595\n        /* \"#utility.yul\":31063:31066   */\n      dup3\n        /* \"#utility.yul\":30974:31067   */\n      tag_327\n      jump\t// in\n    tag_595:\n        /* \"#utility.yul\":31092:31094   */\n      0x20\n        /* \"#utility.yul\":31087:31090   */\n      dup3\n        /* \"#utility.yul\":31083:31095   */\n      add\n        /* \"#utility.yul\":31076:31095   */\n      swap1\n      pop\n        /* \"#utility.yul\":30735:31101   */\n      swap2\n      swap1\n      pop\n      jump\t// out\n        /* \"#utility.yul\":31107:31526   */\n    tag_142:\n        /* \"#utility.yul\":31273:31277   */\n      0x00\n        /* \"#utility.yul\":31311:31313   */\n      0x20\n        /* \"#utility.yul\":31300:31309   */\n      dup3\n        /* \"#utility.yul\":31296:31314   */\n      add\n        /* \"#utility.yul\":31288:31314   */\n      swap1\n      pop\n        /* \"#utility.yul\":31360:31369   */\n      dup2\n        /* \"#utility.yul\":31354:31358   */\n      dup2\n        /* \"#utility.yul\":31350:31370   */\n      sub\n        /* \"#utility.yul\":31346:31347   */\n      0x00\n        /* \"#utility.yul\":31335:31344   */\n      dup4\n        /* \"#utility.yul\":31331:31348   */\n      add\n        /* \"#utility.yul\":31324:31371   */\n      mstore\n        /* \"#utility.yul\":31388:31519   */\n      tag_597\n        /* \"#utility.yul\":31514:31518   */\n      dup2\n        /* \"#utility.yul\":31388:31519   */\n      tag_328\n      jump\t// in\n    tag_597:\n        /* \"#utility.yul\":31380:31519   */\n      swap1\n      pop\n        /* \"#utility.yul\":31107:31526   */\n      swap2\n      swap1\n      pop\n      jump\t// out\n        /* \"#utility.yul\":31532:31714   */\n    tag_329:\n        /* \"#utility.yul\":31672:31706   */\n      0x43616e64696461746520726567697374726174696f6e2069732066756c6c2021\n        /* \"#utility.yul\":31668:31669   */\n      0x00\n        /* \"#utility.yul\":31660:31666   */\n      dup3\n        /* \"#utility.yul\":31656:31670   */\n      add\n        /* \"#utility.yul\":31649:31707   */\n      mstore\n        /* \"#utility.yul\":31532:31714   */\n      pop\n      jump\t// out\n        /* \"#utility.yul\":31720:32086   */\n    tag_330:\n        /* \"#utility.yul\":31862:31865   */\n      0x00\n        /* \"#utility.yul\":31883:31950   */\n      tag_600\n        /* \"#utility.yul\":31947:31949   */\n      0x20\n        /* \"#utility.yul\":31942:31945   */\n      dup4\n        /* \"#utility.yul\":31883:31950   */\n      tag_291\n      jump\t// in\n    tag_600:\n        /* \"#utility.yul\":31876:31950   */\n      swap2\n      pop\n        /* \"#utility.yul\":31959:32052   */\n      tag_601\n        /* \"#utility.yul\":32048:32051   */\n      dup3\n        /* \"#utility.yul\":31959:32052   */\n      tag_329\n      jump\t// in\n    tag_601:\n        /* \"#utility.yul\":32077:32079   */\n      0x20\n        /* \"#utility.yul\":32072:32075   */\n      dup3\n        /* \"#utility.yul\":32068:32080   */\n      add\n        /* \"#utility.yul\":32061:32080   */\n      swap1\n      pop\n        /* \"#utility.yul\":31720:32086   */\n      swap2\n      swap1\n      pop\n      jump\t// out\n        /* \"#utility.yul\":32092:32511   */\n    tag_145:\n        /* \"#utility.yul\":32258:32262   */\n      0x00\n        /* \"#utility.yul\":32296:32298   */\n      0x20\n        /* \"#utility.yul\":32285:32294   */\n      dup3\n        /* \"#utility.yul\":32281:32299   */\n      add\n        /* \"#utility.yul\":32273:32299   */\n      swap1\n      pop\n        /* \"#utility.yul\":32345:32354   */\n      dup2\n        /* \"#utility.yul\":32339:32343   */\n      dup2\n        /* \"#utility.yul\":32335:32355   */\n      sub\n        /* \"#utility.yul\":32331:32332   */\n      0x00\n        /* \"#utility.yul\":32320:32329   */\n      dup4\n        /* \"#utility.yul\":32316:32333   */\n      add\n        /* \"#utility.yul\":32309:32356   */\n      mstore\n        /* \"#utility.yul\":32373:32504   */\n      tag_603\n        /* \"#utility.yul\":32499:32503   */\n      dup2\n        /* \"#utility.yul\":32373:32504   */\n      tag_330\n      jump\t// in\n    tag_603:\n        /* \"#utility.yul\":32365:32504   */\n      swap1\n      pop\n        /* \"#utility.yul\":32092:32511   */\n      swap2\n      swap1\n      pop\n      jump\t// out\n        /* \"#utility.yul\":32517:32747   */\n    tag_331:\n        /* \"#utility.yul\":32657:32691   */\n      0x456c656374696f6e20436f6d6d6973696f6e65722063616e2774206265206120\n        /* \"#utility.yul\":32653:32654   */\n      0x00\n        /* \"#utility.yul\":32645:32651   */\n      dup3\n        /* \"#utility.yul\":32641:32655   */\n      add\n        /* \"#utility.yul\":32634:32692   */\n      mstore\n        /* \"#utility.yul\":32726:32739   */\n      0x63616e6469646174652021000000000000000000000000000000000000000000\n        /* \"#utility.yul\":32721:32723   */\n      0x20\n        /* \"#utility.yul\":32713:32719   */\n      dup3\n        /* \"#utility.yul\":32709:32724   */\n      add\n        /* \"#utility.yul\":32702:32740   */\n      mstore\n        /* \"#utility.yul\":32517:32747   */\n      pop\n      jump\t// out\n        /* \"#utility.yul\":32753:33119   */\n    tag_332:\n        /* \"#utility.yul\":32895:32898   */\n      0x00\n        /* \"#utility.yul\":32916:32983   */\n      tag_606\n        /* \"#utility.yul\":32980:32982   */\n      0x2b\n        /* \"#utility.yul\":32975:32978   */\n      dup4\n        /* \"#utility.yul\":32916:32983   */\n      tag_291\n      jump\t// in\n    tag_606:\n        /* \"#utility.yul\":32909:32983   */\n      swap2\n      pop\n        /* \"#utility.yul\":32992:33085   */\n      tag_607\n        /* \"#utility.yul\":33081:33084   */\n      dup3\n        /* \"#utility.yul\":32992:33085   */\n      tag_331\n      jump\t// in\n    tag_607:\n        /* \"#utility.yul\":33110:33112   */\n      0x40\n        /* \"#utility.yul\":33105:33108   */\n      dup3\n        /* \"#utility.yul\":33101:33113   */\n      add\n        /* \"#utility.yul\":33094:33113   */\n      swap1\n      pop\n        /* \"#utility.yul\":32753:33119   */\n      swap2\n      swap1\n      pop\n      jump\t// out\n        /* \"#utility.yul\":33125:33544   */\n    tag_148:\n        /* \"#utility.yul\":33291:33295   */\n      0x00\n        /* \"#utility.yul\":33329:33331   */\n      0x20\n        /* \"#utility.yul\":33318:33327   */\n      dup3\n        /* \"#utility.yul\":33314:33332   */\n      add\n        /* \"#utility.yul\":33306:33332   */\n      swap1\n      pop\n        /* \"#utility.yul\":33378:33387   */\n      dup2\n        /* \"#utility.yul\":33372:33376   */\n      dup2\n        /* \"#utility.yul\":33368:33388   */\n      sub\n        /* \"#utility.yul\":33364:33365   */\n      0x00\n        /* \"#utility.yul\":33353:33362   */\n      dup4\n        /* \"#utility.yul\":33349:33366   */\n      add\n        /* \"#utility.yul\":33342:33389   */\n      mstore\n        /* \"#utility.yul\":33406:33537   */\n      tag_609\n        /* \"#utility.yul\":33532:33536   */\n      dup2\n        /* \"#utility.yul\":33406:33537   */\n      tag_332\n      jump\t// in\n    tag_609:\n        /* \"#utility.yul\":33398:33537   */\n      swap1\n      pop\n        /* \"#utility.yul\":33125:33544   */\n      swap2\n      swap1\n      pop\n      jump\t// out\n        /* \"#utility.yul\":33550:33780   */\n    tag_333:\n        /* \"#utility.yul\":33690:33724   */\n      0x456e6474696d65206475726174696f6e206d757374206265206d6f7265207468\n        /* \"#utility.yul\":33686:33687   */\n      0x00\n        /* \"#utility.yul\":33678:33684   */\n      dup3\n        /* \"#utility.yul\":33674:33688   */\n      add\n        /* \"#utility.yul\":33667:33725   */\n      mstore\n        /* \"#utility.yul\":33759:33772   */\n      0x616e203120686f75722021000000000000000000000000000000000000000000\n        /* \"#utility.yul\":33754:33756   */\n      0x20\n        /* \"#utility.yul\":33746:33752   */\n      dup3\n        /* \"#utility.yul\":33742:33757   */\n      add\n        /* \"#utility.yul\":33735:33773   */\n      mstore\n        /* \"#utility.yul\":33550:33780   */\n      pop\n      jump\t// out\n        /* \"#utility.yul\":33786:34152   */\n    tag_334:\n        /* \"#utility.yul\":33928:33931   */\n      0x00\n        /* \"#utility.yul\":33949:34016   */\n      tag_612\n        /* \"#utility.yul\":34013:34015   */\n      0x2b\n        /* \"#utility.yul\":34008:34011   */\n      dup4\n        /* \"#utility.yul\":33949:34016   */\n      tag_291\n      jump\t// in\n    tag_612:\n        /* \"#utility.yul\":33942:34016   */\n      swap2\n      pop\n        /* \"#utility.yul\":34025:34118   */\n      tag_613\n        /* \"#utility.yul\":34114:34117   */\n      dup3\n        /* \"#utility.yul\":34025:34118   */\n      tag_333\n      jump\t// in\n    tag_613:\n        /* \"#utility.yul\":34143:34145   */\n      0x40\n        /* \"#utility.yul\":34138:34141   */\n      dup3\n        /* \"#utility.yul\":34134:34146   */\n      add\n        /* \"#utility.yul\":34127:34146   */\n      swap1\n      pop\n        /* \"#utility.yul\":33786:34152   */\n      swap2\n      swap1\n      pop\n      jump\t// out\n        /* \"#utility.yul\":34158:34577   */\n    tag_170:\n        /* \"#utility.yul\":34324:34328   */\n      0x00\n        /* \"#utility.yul\":34362:34364   */\n      0x20\n        /* \"#utility.yul\":34351:34360   */\n      dup3\n        /* \"#utility.yul\":34347:34365   */\n      add\n        /* \"#utility.yul\":34339:34365   */\n      swap1\n      pop\n        /* \"#utility.yul\":34411:34420   */\n      dup2\n        /* \"#utility.yul\":34405:34409   */\n      dup2\n        /* \"#utility.yul\":34401:34421   */\n      sub\n        /* \"#utility.yul\":34397:34398   */\n      0x00\n        /* \"#utility.yul\":34386:34395   */\n      dup4\n        /* \"#utility.yul\":34382:34399   */\n      add\n        /* \"#utility.yul\":34375:34422   */\n      mstore\n        /* \"#utility.yul\":34439:34570   */\n      tag_615\n        /* \"#utility.yul\":34565:34569   */\n      dup2\n        /* \"#utility.yul\":34439:34570   */\n      tag_334\n      jump\t// in\n    tag_615:\n        /* \"#utility.yul\":34431:34570   */\n      swap1\n      pop\n        /* \"#utility.yul\":34158:34577   */\n      swap2\n      swap1\n      pop\n      jump\t// out\n        /* \"#utility.yul\":34583:34774   */\n    tag_172:\n        /* \"#utility.yul\":34623:34626   */\n      0x00\n        /* \"#utility.yul\":34642:34662   */\n      tag_617\n        /* \"#utility.yul\":34660:34661   */\n      dup3\n        /* \"#utility.yul\":34642:34662   */\n      tag_250\n      jump\t// in\n    tag_617:\n        /* \"#utility.yul\":34637:34662   */\n      swap2\n      pop\n        /* \"#utility.yul\":34676:34696   */\n      tag_618\n        /* \"#utility.yul\":34694:34695   */\n      dup4\n        /* \"#utility.yul\":34676:34696   */\n      tag_250\n      jump\t// in\n    tag_618:\n        /* \"#utility.yul\":34671:34696   */\n      swap3\n      pop\n        /* \"#utility.yul\":34719:34720   */\n      dup3\n        /* \"#utility.yul\":34716:34717   */\n      dup3\n        /* \"#utility.yul\":34712:34721   */\n      add\n        /* \"#utility.yul\":34705:34721   */\n      swap1\n      pop\n        /* \"#utility.yul\":34740:34743   */\n      dup1\n        /* \"#utility.yul\":34737:34738   */\n      dup3\n        /* \"#utility.yul\":34734:34744   */\n      gt\n        /* \"#utility.yul\":34731:34767   */\n      iszero\n      tag_619\n      jumpi\n        /* \"#utility.yul\":34747:34765   */\n      tag_620\n      tag_300\n      jump\t// in\n    tag_620:\n        /* \"#utility.yul\":34731:34767   */\n    tag_619:\n        /* \"#utility.yul\":34583:34774   */\n      swap3\n      swap2\n      pop\n      pop\n      jump\t// out\n        /* \"#utility.yul\":34780:34974   */\n    tag_176:\n        /* \"#utility.yul\":34820:34824   */\n      0x00\n        /* \"#utility.yul\":34840:34860   */\n      tag_622\n        /* \"#utility.yul\":34858:34859   */\n      dup3\n        /* \"#utility.yul\":34840:34860   */\n      tag_250\n      jump\t// in\n    tag_622:\n        /* \"#utility.yul\":34835:34860   */\n      swap2\n      pop\n        /* \"#utility.yul\":34874:34894   */\n      tag_623\n        /* \"#utility.yul\":34892:34893   */\n      dup4\n        /* \"#utility.yul\":34874:34894   */\n      tag_250\n      jump\t// in\n    tag_623:\n        /* \"#utility.yul\":34869:34894   */\n      swap3\n      pop\n        /* \"#utility.yul\":34918:34919   */\n      dup3\n        /* \"#utility.yul\":34915:34916   */\n      dup3\n        /* \"#utility.yul\":34911:34920   */\n      sub\n        /* \"#utility.yul\":34903:34920   */\n      swap1\n      pop\n        /* \"#utility.yul\":34942:34943   */\n      dup2\n        /* \"#utility.yul\":34936:34940   */\n      dup2\n        /* \"#utility.yul\":34933:34944   */\n      gt\n        /* \"#utility.yul\":34930:34967   */\n      iszero\n      tag_624\n      jumpi\n        /* \"#utility.yul\":34947:34965   */\n      tag_625\n      tag_300\n      jump\t// in\n    tag_625:\n        /* \"#utility.yul\":34930:34967   */\n    tag_624:\n        /* \"#utility.yul\":34780:34974   */\n      swap3\n      swap2\n      pop\n      pop\n      jump\t// out\n        /* \"#utility.yul\":34980:35160   */\n    tag_200:\n        /* \"#utility.yul\":35028:35105   */\n      0x4e487b7100000000000000000000000000000000000000000000000000000000\n        /* \"#utility.yul\":35025:35026   */\n      0x00\n        /* \"#utility.yul\":35018:35106   */\n      mstore\n        /* \"#utility.yul\":35125:35129   */\n      0x32\n        /* \"#utility.yul\":35122:35123   */\n      0x04\n        /* \"#utility.yul\":35115:35130   */\n      mstore\n        /* \"#utility.yul\":35149:35153   */\n      0x24\n        /* \"#utility.yul\":35146:35147   */\n      0x00\n        /* \"#utility.yul\":35139:35154   */\n      revert\n\n    auxdata: 0xa2646970667358221220f42d03d737bb0071bf35a804b5db7782bcebc15d262c7f5afc878ab4451e331364736f6c634300081a0033\n}\n",
				"bytecode": {
					"linkReferences": {},
					"object": "6080604052600160025560016003553480156018575f80fd5b50335f806101000a81548173ffffffffffffffffffffffffffffffffffffffff021916908373ffffffffffffffffffffffffffffffffffffffff1602179055506129a2806100655f395ff3fe608060405234801561000f575f80fd5b506004361061009c575f3560e01c80639fa4e440116100645780639fa4e4401461011c578063a15a36c714610126578063b28d92ae14610142578063dfbf53ae14610160578063fdbc40061461017e5761009c565b80632c0a3f89146100a0578063581c281c146100bc5780636ce2ccc0146100da57806381ba732f146100e4578063982c777d14610100575b5f80fd5b6100ba60048036038101906100b59190611857565b61019c565b005b6100c46103b4565b6040516100d19190611908565b60405180910390f35b6100e26103f9565b005b6100fe60048036038101906100f991906119a5565b610944565b005b61011a60048036038101906101159190611a16565b610b44565b005b610124610edd565b005b610140600480360381019061013b9190611857565b610f86565b005b61014a6110dc565b6040516101579190611cfe565b60405180910390f35b6101686112f2565b6040516101759190611d2d565b60405180910390f35b610186611317565b6040516101939190611ea1565b60405180910390f35b6005544210806101b8575060065f9054906101000a900460ff16155b6101f7576040517f08c379a00000000000000000000000000000000000000000000000000000000081526004016101ee90611f1b565b60405180910390fd5b5f60085f8381526020019081526020015f206005015f9054906101000a900473ffffffffffffffffffffffffffffffffffffffff1690505f60075f8581526020019081526020015f206004015414610284576040517f08c379a000000000000000000000000000000000000000000000000000000000815260040161027b90611fa9565b60405180910390fd5b3373ffffffffffffffffffffffffffffffffffffffff1660075f8581526020019081526020015f206005015f9054906101000a900473ffffffffffffffffffffffffffffffffffffffff1673ffffffffffffffffffffffffffffffffffffffff1614610325576040517f08c379a000000000000000000000000000000000000000000000000000000000815260040161031c90612037565b60405180910390fd5b61032e816115bd565b61036d576040517f08c379a0000000000000000000000000000000000000000000000000000000008152600401610364906120c5565b60405180910390fd5b8160075f8581526020019081526020015f206004018190555060085f8381526020019081526020015f206006015f8154809291906103aa90612110565b9190505550505050565b5f80600454036103c6575f90506103f6565b426005541180156103e3575060065f9054906101000a900460ff16155b156103f157600190506103f6565b600290505b90565b5f8054906101000a900473ffffffffffffffffffffffffffffffffffffffff1673ffffffffffffffffffffffffffffffffffffffff163373ffffffffffffffffffffffffffffffffffffffff1614610486576040517f08c379a000000000000000000000000000000000000000000000000000000000815260040161047d906121c7565b60405180910390fd5b60038054146104ca576040517f08c379a00000000000000000000000000000000000000000000000000000000081526004016104c190612255565b60405180910390fd5b5f60085f600181526020019081526020015f206040518060e00160405290815f820180546104f7906122a0565b80601f0160208091040260200160405190810160405280929190818152602001828054610523906122a0565b801561056e5780601f106105455761010080835404028352916020019161056e565b820191905f5260205f20905b81548152906001019060200180831161055157829003601f168201915b50505050508152602001600182018054610587906122a0565b80601f01602080910402602001604051908101604052809291908181526020018280546105b3906122a0565b80156105fe5780601f106105d5576101008083540402835291602001916105fe565b820191905f5260205f20905b8154815290600101906020018083116105e157829003601f168201915b5050505050815260200160028201548152602001600382015f9054906101000a900460ff16600381111561063557610634611895565b5b600381111561064757610646611895565b5b815260200160048201548152602001600582015f9054906101000a900473ffffffffffffffffffffffffffffffffffffffff1673ffffffffffffffffffffffffffffffffffffffff1673ffffffffffffffffffffffffffffffffffffffff16815260200160068201548152505090505f60085f600281526020019081526020015f206040518060e00160405290815f820180546106e3906122a0565b80601f016020809104026020016040519081016040528092919081815260200182805461070f906122a0565b801561075a5780601f106107315761010080835404028352916020019161075a565b820191905f5260205f20905b81548152906001019060200180831161073d57829003601f168201915b50505050508152602001600182018054610773906122a0565b80601f016020809104026020016040519081016040528092919081815260200182805461079f906122a0565b80156107ea5780601f106107c1576101008083540402835291602001916107ea565b820191905f5260205f20905b8154815290600101906020018083116107cd57829003601f168201915b5050505050815260200160028201548152602001600382015f9054906101000a900460ff16600381111561082157610820611895565b5b600381111561083357610832611895565b5b815260200160048201548152602001600582015f9054906101000a900473ffffffffffffffffffffffffffffffffffffffff1673ffffffffffffffffffffffffffffffffffffffff1673ffffffffffffffffffffffffffffffffffffffff16815260200160068201548152505090508060c001518260c0015111156108fb578160a0015160015f6101000a81548173ffffffffffffffffffffffffffffffffffffffff021916908373ffffffffffffffffffffffffffffffffffffffff160217905550610940565b8060a0015160015f6101000a81548173ffffffffffffffffffffffffffffffffffffffff021916908373ffffffffffffffffffffffffffffffffffffffff1602179055505b5050565b60128211610987576040517f08c379a000000000000000000000000000000000000000000000000000000000815260040161097e9061231a565b60405180910390fd5b610990336116c6565b156109d0576040517f08c379a00000000000000000000000000000000000000000000000000000000081526004016109c7906123a8565b60405180910390fd5b6040518060c0016040528085858080601f0160208091040260200160405190810160405280939291908181526020018383808284375f81840152601f19601f8201169050808301925050505050505081526020018381526020016002548152602001826003811115610a4557610a44611895565b5b81526020015f81526020013373ffffffffffffffffffffffffffffffffffffffff1681525060075f60025481526020019081526020015f205f820151815f019081610a909190612590565b5060208201518160010155604082015181600201556060820151816003015f6101000a81548160ff02191690836003811115610acf57610ace611895565b5b02179055506080820151816004015560a0820151816005015f6101000a81548173ffffffffffffffffffffffffffffffffffffffff021916908373ffffffffffffffffffffffffffffffffffffffff16021790555090505060025f815480929190610b3990612110565b919050555050505050565b600554421080610b60575060065f9054906101000a900460ff16155b610b9f576040517f08c379a0000000000000000000000000000000000000000000000000000000008152600401610b9690611f1b565b60405180910390fd5b601282118015610baf5750603c82105b610bee576040517f08c379a0000000000000000000000000000000000000000000000000000000008152600401610be5906126cf565b60405180910390fd5b610bf7336115bd565b15610c37576040517f08c379a0000000000000000000000000000000000000000000000000000000008152600401610c2e90612737565b60405180910390fd5b6003805410610c7b576040517f08c379a0000000000000000000000000000000000000000000000000000000008152600401610c729061279f565b60405180910390fd5b5f8054906101000a900473ffffffffffffffffffffffffffffffffffffffff1673ffffffffffffffffffffffffffffffffffffffff163373ffffffffffffffffffffffffffffffffffffffff1603610d08576040517f08c379a0000000000000000000000000000000000000000000000000000000008152600401610cff9061282d565b60405180910390fd5b6040518060e0016040528087878080601f0160208091040260200160405190810160405280939291908181526020018383808284375f81840152601f19601f82011690508083019250505050505050815260200185858080601f0160208091040260200160405190810160405280939291908181526020018383808284375f81840152601f19601f820116905080830192505050505050508152602001838152602001826003811115610dbe57610dbd611895565b5b815260200160035481526020013373ffffffffffffffffffffffffffffffffffffffff1681526020015f81525060085f60035481526020019081526020015f205f820151815f019081610e119190612590565b506020820151816001019081610e279190612590565b50604082015181600201556060820151816003015f6101000a81548160ff02191690836003811115610e5c57610e5b611895565b5b02179055506080820151816004015560a0820151816005015f6101000a81548173ffffffffffffffffffffffffffffffffffffffff021916908373ffffffffffffffffffffffffffffffffffffffff16021790555060c0820151816006015590505060035f815480929190610ed090612110565b9190505550505050505050565b5f8054906101000a900473ffffffffffffffffffffffffffffffffffffffff1673ffffffffffffffffffffffffffffffffffffffff163373ffffffffffffffffffffffffffffffffffffffff1614610f6a576040517f08c379a0000000000000000000000000000000000000000000000000000000008152600401610f61906121c7565b60405180910390fd5b600160065f6101000a81548160ff021916908315150217905550565b5f8054906101000a900473ffffffffffffffffffffffffffffffffffffffff1673ffffffffffffffffffffffffffffffffffffffff163373ffffffffffffffffffffffffffffffffffffffff1614611013576040517f08c379a000000000000000000000000000000000000000000000000000000000815260040161100a906121c7565b60405180910390fd5b60055442108061102f575060065f9054906101000a900460ff16155b61106e576040517f08c379a000000000000000000000000000000000000000000000000000000000815260040161106590611f1b565b60405180910390fd5b610e1081116110b2576040517f08c379a00000000000000000000000000000000000000000000000000000000081526004016110a9906128bb565b60405180910390fd5b81426110be91906128d9565b600481905550806004546110d291906128d9565b6005819055505050565b60605f60016002546110ee919061290c565b67ffffffffffffffff811115611107576111066123c6565b5b60405190808252806020026020018201604052801561114057816020015b61112d611763565b8152602001906001900390816111255790505b5090505f5b6001600354611154919061290c565b8110156112ea5760075f60018361116b91906128d9565b81526020019081526020015f206040518060c00160405290815f82018054611192906122a0565b80601f01602080910402602001604051908101604052809291908181526020018280546111be906122a0565b80156112095780601f106111e057610100808354040283529160200191611209565b820191905f5260205f20905b8154815290600101906020018083116111ec57829003601f168201915b505050505081526020016001820154815260200160028201548152602001600382015f9054906101000a900460ff16600381111561124a57611249611895565b5b600381111561125c5761125b611895565b5b815260200160048201548152602001600582015f9054906101000a900473ffffffffffffffffffffffffffffffffffffffff1673ffffffffffffffffffffffffffffffffffffffff1673ffffffffffffffffffffffffffffffffffffffff16815250508282815181106112d2576112d161293f565b5b60200260200101819052508080600101915050611145565b508091505090565b60015f9054906101000a900473ffffffffffffffffffffffffffffffffffffffff1681565b60605f6001600354611329919061290c565b67ffffffffffffffff811115611342576113416123c6565b5b60405190808252806020026020018201604052801561137b57816020015b6113686117bc565b8152602001906001900390816113605790505b5090505f5b600160035461138f919061290c565b8110156115b55760085f6001836113a691906128d9565b81526020019081526020015f206040518060e00160405290815f820180546113cd906122a0565b80601f01602080910402602001604051908101604052809291908181526020018280546113f9906122a0565b80156114445780601f1061141b57610100808354040283529160200191611444565b820191905f5260205f20905b81548152906001019060200180831161142757829003601f168201915b5050505050815260200160018201805461145d906122a0565b80601f0160208091040260200160405190810160405280929190818152602001828054611489906122a0565b80156114d45780601f106114ab576101008083540402835291602001916114d4565b820191905f5260205f20905b8154815290600101906020018083116114b757829003601f168201915b5050505050815260200160028201548152602001600382015f9054906101000a900460ff16600381111561150b5761150a611895565b5b600381111561151d5761151c611895565b5b815260200160048201548152602001600582015f9054906101000a900473ffffffffffffffffffffffffffffffffffffffff1673ffffffffffffffffffffffffffffffffffffffff1673ffffffffffffffffffffffffffffffffffffffff16815260200160068201548152505082828151811061159d5761159c61293f565b5b60200260200101819052508080600101915050611380565b508091505090565b5f80600190505b60035481116116bc578273ffffffffffffffffffffffffffffffffffffffff1660085f8381526020019081526020015f206005015f9054906101000a900473ffffffffffffffffffffffffffffffffffffffff1673ffffffffffffffffffffffffffffffffffffffff1614801561169a57505f73ffffffffffffffffffffffffffffffffffffffff1660085f8381526020019081526020015f206005015f9054906101000a900473ffffffffffffffffffffffffffffffffffffffff1673ffffffffffffffffffffffffffffffffffffffff1614155b156116a95760019150506116c1565b80806116b490612110565b9150506115c4565b505f90505b919050565b5f80600190505b6002548111611759578273ffffffffffffffffffffffffffffffffffffffff1660075f8381526020019081526020015f206005015f9054906101000a900473ffffffffffffffffffffffffffffffffffffffff1673ffffffffffffffffffffffffffffffffffffffff160361174657600191505061175e565b808061175190612110565b9150506116cd565b505f90505b919050565b6040518060c00160405280606081526020015f81526020015f81526020015f600381111561179457611793611895565b5b81526020015f81526020015f73ffffffffffffffffffffffffffffffffffffffff1681525090565b6040518060e0016040528060608152602001606081526020015f81526020015f60038111156117ee576117ed611895565b5b81526020015f81526020015f73ffffffffffffffffffffffffffffffffffffffff1681526020015f81525090565b5f80fd5b5f80fd5b5f819050919050565b61183681611824565b8114611840575f80fd5b50565b5f813590506118518161182d565b92915050565b5f806040838503121561186d5761186c61181c565b5b5f61187a85828601611843565b925050602061188b85828601611843565b9150509250929050565b7f4e487b71000000000000000000000000000000000000000000000000000000005f52602160045260245ffd5b600381106118d3576118d2611895565b5b50565b5f8190506118e3826118c2565b919050565b5f6118f2826118d6565b9050919050565b611902816118e8565b82525050565b5f60208201905061191b5f8301846118f9565b92915050565b5f80fd5b5f80fd5b5f80fd5b5f8083601f84011261194257611941611921565b5b8235905067ffffffffffffffff81111561195f5761195e611925565b5b60208301915083600182028301111561197b5761197a611929565b5b9250929050565b6004811061198e575f80fd5b50565b5f8135905061199f81611982565b92915050565b5f805f80606085870312156119bd576119bc61181c565b5b5f85013567ffffffffffffffff8111156119da576119d9611820565b5b6119e68782880161192d565b945094505060206119f987828801611843565b9250506040611a0a87828801611991565b91505092959194509250565b5f805f805f8060808789031215611a3057611a2f61181c565b5b5f87013567ffffffffffffffff811115611a4d57611a4c611820565b5b611a5989828a0161192d565b9650965050602087013567ffffffffffffffff811115611a7c57611a7b611820565b5b611a8889828a0161192d565b94509450506040611a9b89828a01611843565b9250506060611aac89828a01611991565b9150509295509295509295565b5f81519050919050565b5f82825260208201905092915050565b5f819050602082019050919050565b5f81519050919050565b5f82825260208201905092915050565b8281835e5f83830152505050565b5f601f19601f8301169050919050565b5f611b2482611ae2565b611b2e8185611aec565b9350611b3e818560208601611afc565b611b4781611b0a565b840191505092915050565b611b5b81611824565b82525050565b60048110611b7257611b71611895565b5b50565b5f819050611b8282611b61565b919050565b5f611b9182611b75565b9050919050565b611ba181611b87565b82525050565b5f73ffffffffffffffffffffffffffffffffffffffff82169050919050565b5f611bd082611ba7565b9050919050565b611be081611bc6565b82525050565b5f60c083015f8301518482035f860152611c008282611b1a565b9150506020830151611c156020860182611b52565b506040830151611c286040860182611b52565b506060830151611c3b6060860182611b98565b506080830151611c4e6080860182611b52565b5060a0830151611c6160a0860182611bd7565b508091505092915050565b5f611c778383611be6565b905092915050565b5f602082019050919050565b5f611c9582611ab9565b611c9f8185611ac3565b935083602082028501611cb185611ad3565b805f5b85811015611cec5784840389528151611ccd8582611c6c565b9450611cd883611c7f565b925060208a01995050600181019050611cb4565b50829750879550505050505092915050565b5f6020820190508181035f830152611d168184611c8b565b905092915050565b611d2781611bc6565b82525050565b5f602082019050611d405f830184611d1e565b92915050565b5f81519050919050565b5f82825260208201905092915050565b5f819050602082019050919050565b5f60e083015f8301518482035f860152611d898282611b1a565b91505060208301518482036020860152611da38282611b1a565b9150506040830151611db86040860182611b52565b506060830151611dcb6060860182611b98565b506080830151611dde6080860182611b52565b5060a0830151611df160a0860182611bd7565b5060c0830151611e0460c0860182611b52565b508091505092915050565b5f611e1a8383611d6f565b905092915050565b5f602082019050919050565b5f611e3882611d46565b611e428185611d50565b935083602082028501611e5485611d60565b805f5b85811015611e8f5784840389528151611e708582611e0f565b9450611e7b83611e22565b925060208a01995050600181019050611e57565b50829750879550505050505092915050565b5f6020820190508181035f830152611eb98184611e2e565b905092915050565b5f82825260208201905092915050565b7f566f74696e67206973204f7665722021000000000000000000000000000000005f82015250565b5f611f05601083611ec1565b9150611f1082611ed1565b602082019050919050565b5f6020820190508181035f830152611f3281611ef9565b9050919050565b7f596f75206861766520616c72656164792063617374656420616e20766f7465205f8201527f2100000000000000000000000000000000000000000000000000000000000000602082015250565b5f611f93602183611ec1565b9150611f9e82611f39565b604082019050919050565b5f6020820190508181035f830152611fc081611f87565b9050919050565b7f506c6561736520566f74652077697468207468652073616d65207265676973745f8201527f6572656420766f7465722069642e000000000000000000000000000000000000602082015250565b5f612021602e83611ec1565b915061202c82611fc7565b604082019050919050565b5f6020820190508181035f83015261204e81612015565b9050919050565b7f546869732043616e646964617465206973206e6f7420726567697374657265645f8201527f2021000000000000000000000000000000000000000000000000000000000000602082015250565b5f6120af602283611ec1565b91506120ba82612055565b604082019050919050565b5f6020820190508181035f8301526120dc816120a3565b9050919050565b7f4e487b71000000000000000000000000000000000000000000000000000000005f52601160045260245ffd5b5f61211a82611824565b91507fffffffffffffffffffffffffffffffffffffffffffffffffffffffffffffffff820361214c5761214b6120e3565b5b600182019050919050565b7f4f6e6c7920456c656374696f6e20436f6d6d697373696f6e2063616e2063616c5f8201527f6c20746869732066756e6374696f6e2021000000000000000000000000000000602082015250565b5f6121b1603183611ec1565b91506121bc82612157565b604082019050919050565b5f6020820190508181035f8301526121de816121a5565b9050919050565b7f4e6f7420656e6f7567682063616e6469646174657320726567697374657265645f8201527f2021000000000000000000000000000000000000000000000000000000000000602082015250565b5f61223f602283611ec1565b915061224a826121e5565b604082019050919050565b5f6020820190508181035f83015261226c81612233565b9050919050565b7f4e487b71000000000000000000000000000000000000000000000000000000005f52602260045260245ffd5b5f60028204905060018216806122b757607f821691505b6020821081036122ca576122c9612273565b5b50919050565b7f596f752061726520756e646561676520746f206265206120766f7465722021005f82015250565b5f612304601f83611ec1565b915061230f826122d0565b602082019050919050565b5f6020820190508181035f830152612331816122f8565b9050919050565b7f596f75206861766520616c7265616479207265676973746572656420617320745f8201527f686520766f746572202100000000000000000000000000000000000000000000602082015250565b5f612392602a83611ec1565b915061239d82612338565b604082019050919050565b5f6020820190508181035f8301526123bf81612386565b9050919050565b7f4e487b71000000000000000000000000000000000000000000000000000000005f52604160045260245ffd5b5f819050815f5260205f209050919050565b5f6020601f8301049050919050565b5f82821b905092915050565b5f6008830261244f7fffffffffffffffffffffffffffffffffffffffffffffffffffffffffffffffff82612414565b6124598683612414565b95508019841693508086168417925050509392505050565b5f819050919050565b5f61249461248f61248a84611824565b612471565b611824565b9050919050565b5f819050919050565b6124ad8361247a565b6124c16124b98261249b565b848454612420565b825550505050565b5f90565b6124d56124c9565b6124e08184846124a4565b505050565b5b81811015612503576124f85f826124cd565b6001810190506124e6565b5050565b601f82111561254857612519816123f3565b61252284612405565b81016020851015612531578190505b61254561253d85612405565b8301826124e5565b50505b505050565b5f82821c905092915050565b5f6125685f198460080261254d565b1980831691505092915050565b5f6125808383612559565b9150826002028217905092915050565b61259982611ae2565b67ffffffffffffffff8111156125b2576125b16123c6565b5b6125bc82546122a0565b6125c7828285612507565b5f60209050601f8311600181146125f8575f84156125e6578287015190505b6125f08582612575565b865550612657565b601f198416612606866123f3565b5f5b8281101561262d57848901518255600182019150602085019450602081019050612608565b8683101561264a5784890151612646601f891682612559565b8355505b6001600288020188555050505b505050505050565b7f596f752061726520746f6f20796f756e67206f72206167656420746f206265205f8201527f612063616e646964617465202100000000000000000000000000000000000000602082015250565b5f6126b9602d83611ec1565b91506126c48261265f565b604082019050919050565b5f6020820190508181035f8301526126e6816126ad565b9050919050565b7f596f75206861766520616c7265616479207265676973746572656420210000005f82015250565b5f612721601d83611ec1565b915061272c826126ed565b602082019050919050565b5f6020820190508181035f83015261274e81612715565b9050919050565b7f43616e64696461746520726567697374726174696f6e2069732066756c6c20215f82015250565b5f612789602083611ec1565b915061279482612755565b602082019050919050565b5f6020820190508181035f8301526127b68161277d565b9050919050565b7f456c656374696f6e20436f6d6d6973696f6e65722063616e27742062652061205f8201527f63616e6469646174652021000000000000000000000000000000000000000000602082015250565b5f612817602b83611ec1565b9150612822826127bd565b604082019050919050565b5f6020820190508181035f8301526128448161280b565b9050919050565b7f456e6474696d65206475726174696f6e206d757374206265206d6f72652074685f8201527f616e203120686f75722021000000000000000000000000000000000000000000602082015250565b5f6128a5602b83611ec1565b91506128b08261284b565b604082019050919050565b5f6020820190508181035f8301526128d281612899565b9050919050565b5f6128e382611824565b91506128ee83611824565b9250828201905080821115612906576129056120e3565b5b92915050565b5f61291682611824565b915061292183611824565b9250828203905081811115612939576129386120e3565b5b92915050565b7f4e487b71000000000000000000000000000000000000000000000000000000005f52603260045260245ffdfea2646970667358221220f42d03d737bb0071bf35a804b5db7782bcebc15d262c7f5afc878ab4451e331364736f6c634300081a0033",
					"opcodes": "PUSH1 0x80 PUSH1 0x40 MSTORE PUSH1 0x1 PUSH1 0x2 SSTORE PUSH1 0x1 PUSH1 0x3 SSTORE CALLVALUE DUP1 ISZERO PUSH1 0x18 JUMPI PUSH0 DUP1 REVERT JUMPDEST POP CALLER PUSH0 DUP1 PUSH2 0x100 EXP DUP2 SLOAD DUP2 PUSH20 0xFFFFFFFFFFFFFFFFFFFFFFFFFFFFFFFFFFFFFFFF MUL NOT AND SWAP1 DUP4 PUSH20 0xFFFFFFFFFFFFFFFFFFFFFFFFFFFFFFFFFFFFFFFF AND MUL OR SWAP1 SSTORE POP PUSH2 0x29A2 DUP1 PUSH2 0x65 PUSH0 CODECOPY PUSH0 RETURN INVALID PUSH1 0x80 PUSH1 0x40 MSTORE CALLVALUE DUP1 ISZERO PUSH2 0xF JUMPI PUSH0 DUP1 REVERT JUMPDEST POP PUSH1 0x4 CALLDATASIZE LT PUSH2 0x9C JUMPI PUSH0 CALLDATALOAD PUSH1 0xE0 SHR DUP1 PUSH4 0x9FA4E440 GT PUSH2 0x64 JUMPI DUP1 PUSH4 0x9FA4E440 EQ PUSH2 0x11C JUMPI DUP1 PUSH4 0xA15A36C7 EQ PUSH2 0x126 JUMPI DUP1 PUSH4 0xB28D92AE EQ PUSH2 0x142 JUMPI DUP1 PUSH4 0xDFBF53AE EQ PUSH2 0x160 JUMPI DUP1 PUSH4 0xFDBC4006 EQ PUSH2 0x17E JUMPI PUSH2 0x9C JUMP JUMPDEST DUP1 PUSH4 0x2C0A3F89 EQ PUSH2 0xA0 JUMPI DUP1 PUSH4 0x581C281C EQ PUSH2 0xBC JUMPI DUP1 PUSH4 0x6CE2CCC0 EQ PUSH2 0xDA JUMPI DUP1 PUSH4 0x81BA732F EQ PUSH2 0xE4 JUMPI DUP1 PUSH4 0x982C777D EQ PUSH2 0x100 JUMPI JUMPDEST PUSH0 DUP1 REVERT JUMPDEST PUSH2 0xBA PUSH1 0x4 DUP1 CALLDATASIZE SUB DUP2 ADD SWAP1 PUSH2 0xB5 SWAP2 SWAP1 PUSH2 0x1857 JUMP JUMPDEST PUSH2 0x19C JUMP JUMPDEST STOP JUMPDEST PUSH2 0xC4 PUSH2 0x3B4 JUMP JUMPDEST PUSH1 0x40 MLOAD PUSH2 0xD1 SWAP2 SWAP1 PUSH2 0x1908 JUMP JUMPDEST PUSH1 0x40 MLOAD DUP1 SWAP2 SUB SWAP1 RETURN JUMPDEST PUSH2 0xE2 PUSH2 0x3F9 JUMP JUMPDEST STOP JUMPDEST PUSH2 0xFE PUSH1 0x4 DUP1 CALLDATASIZE SUB DUP2 ADD SWAP1 PUSH2 0xF9 SWAP2 SWAP1 PUSH2 0x19A5 JUMP JUMPDEST PUSH2 0x944 JUMP JUMPDEST STOP JUMPDEST PUSH2 0x11A PUSH1 0x4 DUP1 CALLDATASIZE SUB DUP2 ADD SWAP1 PUSH2 0x115 SWAP2 SWAP1 PUSH2 0x1A16 JUMP JUMPDEST PUSH2 0xB44 JUMP JUMPDEST STOP JUMPDEST PUSH2 0x124 PUSH2 0xEDD JUMP JUMPDEST STOP JUMPDEST PUSH2 0x140 PUSH1 0x4 DUP1 CALLDATASIZE SUB DUP2 ADD SWAP1 PUSH2 0x13B SWAP2 SWAP1 PUSH2 0x1857 JUMP JUMPDEST PUSH2 0xF86 JUMP JUMPDEST STOP JUMPDEST PUSH2 0x14A PUSH2 0x10DC JUMP JUMPDEST PUSH1 0x40 MLOAD PUSH2 0x157 SWAP2 SWAP1 PUSH2 0x1CFE JUMP JUMPDEST PUSH1 0x40 MLOAD DUP1 SWAP2 SUB SWAP1 RETURN JUMPDEST PUSH2 0x168 PUSH2 0x12F2 JUMP JUMPDEST PUSH1 0x40 MLOAD PUSH2 0x175 SWAP2 SWAP1 PUSH2 0x1D2D JUMP JUMPDEST PUSH1 0x40 MLOAD DUP1 SWAP2 SUB SWAP1 RETURN JUMPDEST PUSH2 0x186 PUSH2 0x1317 JUMP JUMPDEST PUSH1 0x40 MLOAD PUSH2 0x193 SWAP2 SWAP1 PUSH2 0x1EA1 JUMP JUMPDEST PUSH1 0x40 MLOAD DUP1 SWAP2 SUB SWAP1 RETURN JUMPDEST PUSH1 0x5 SLOAD TIMESTAMP LT DUP1 PUSH2 0x1B8 JUMPI POP PUSH1 0x6 PUSH0 SWAP1 SLOAD SWAP1 PUSH2 0x100 EXP SWAP1 DIV PUSH1 0xFF AND ISZERO JUMPDEST PUSH2 0x1F7 JUMPI PUSH1 0x40 MLOAD PUSH32 0x8C379A000000000000000000000000000000000000000000000000000000000 DUP2 MSTORE PUSH1 0x4 ADD PUSH2 0x1EE SWAP1 PUSH2 0x1F1B JUMP JUMPDEST PUSH1 0x40 MLOAD DUP1 SWAP2 SUB SWAP1 REVERT JUMPDEST PUSH0 PUSH1 0x8 PUSH0 DUP4 DUP2 MSTORE PUSH1 0x20 ADD SWAP1 DUP2 MSTORE PUSH1 0x20 ADD PUSH0 KECCAK256 PUSH1 0x5 ADD PUSH0 SWAP1 SLOAD SWAP1 PUSH2 0x100 EXP SWAP1 DIV PUSH20 0xFFFFFFFFFFFFFFFFFFFFFFFFFFFFFFFFFFFFFFFF AND SWAP1 POP PUSH0 PUSH1 0x7 PUSH0 DUP6 DUP2 MSTORE PUSH1 0x20 ADD SWAP1 DUP2 MSTORE PUSH1 0x20 ADD PUSH0 KECCAK256 PUSH1 0x4 ADD SLOAD EQ PUSH2 0x284 JUMPI PUSH1 0x40 MLOAD PUSH32 0x8C379A000000000000000000000000000000000000000000000000000000000 DUP2 MSTORE PUSH1 0x4 ADD PUSH2 0x27B SWAP1 PUSH2 0x1FA9 JUMP JUMPDEST PUSH1 0x40 MLOAD DUP1 SWAP2 SUB SWAP1 REVERT JUMPDEST CALLER PUSH20 0xFFFFFFFFFFFFFFFFFFFFFFFFFFFFFFFFFFFFFFFF AND PUSH1 0x7 PUSH0 DUP6 DUP2 MSTORE PUSH1 0x20 ADD SWAP1 DUP2 MSTORE PUSH1 0x20 ADD PUSH0 KECCAK256 PUSH1 0x5 ADD PUSH0 SWAP1 SLOAD SWAP1 PUSH2 0x100 EXP SWAP1 DIV PUSH20 0xFFFFFFFFFFFFFFFFFFFFFFFFFFFFFFFFFFFFFFFF AND PUSH20 0xFFFFFFFFFFFFFFFFFFFFFFFFFFFFFFFFFFFFFFFF AND EQ PUSH2 0x325 JUMPI PUSH1 0x40 MLOAD PUSH32 0x8C379A000000000000000000000000000000000000000000000000000000000 DUP2 MSTORE PUSH1 0x4 ADD PUSH2 0x31C SWAP1 PUSH2 0x2037 JUMP JUMPDEST PUSH1 0x40 MLOAD DUP1 SWAP2 SUB SWAP1 REVERT JUMPDEST PUSH2 0x32E DUP2 PUSH2 0x15BD JUMP JUMPDEST PUSH2 0x36D JUMPI PUSH1 0x40 MLOAD PUSH32 0x8C379A000000000000000000000000000000000000000000000000000000000 DUP2 MSTORE PUSH1 0x4 ADD PUSH2 0x364 SWAP1 PUSH2 0x20C5 JUMP JUMPDEST PUSH1 0x40 MLOAD DUP1 SWAP2 SUB SWAP1 REVERT JUMPDEST DUP2 PUSH1 0x7 PUSH0 DUP6 DUP2 MSTORE PUSH1 0x20 ADD SWAP1 DUP2 MSTORE PUSH1 0x20 ADD PUSH0 KECCAK256 PUSH1 0x4 ADD DUP2 SWAP1 SSTORE POP PUSH1 0x8 PUSH0 DUP4 DUP2 MSTORE PUSH1 0x20 ADD SWAP1 DUP2 MSTORE PUSH1 0x20 ADD PUSH0 KECCAK256 PUSH1 0x6 ADD PUSH0 DUP2 SLOAD DUP1 SWAP3 SWAP2 SWAP1 PUSH2 0x3AA SWAP1 PUSH2 0x2110 JUMP JUMPDEST SWAP2 SWAP1 POP SSTORE POP POP POP POP JUMP JUMPDEST PUSH0 DUP1 PUSH1 0x4 SLOAD SUB PUSH2 0x3C6 JUMPI PUSH0 SWAP1 POP PUSH2 0x3F6 JUMP JUMPDEST TIMESTAMP PUSH1 0x5 SLOAD GT DUP1 ISZERO PUSH2 0x3E3 JUMPI POP PUSH1 0x6 PUSH0 SWAP1 SLOAD SWAP1 PUSH2 0x100 EXP SWAP1 DIV PUSH1 0xFF AND ISZERO JUMPDEST ISZERO PUSH2 0x3F1 JUMPI PUSH1 0x1 SWAP1 POP PUSH2 0x3F6 JUMP JUMPDEST PUSH1 0x2 SWAP1 POP JUMPDEST SWAP1 JUMP JUMPDEST PUSH0 DUP1 SLOAD SWAP1 PUSH2 0x100 EXP SWAP1 DIV PUSH20 0xFFFFFFFFFFFFFFFFFFFFFFFFFFFFFFFFFFFFFFFF AND PUSH20 0xFFFFFFFFFFFFFFFFFFFFFFFFFFFFFFFFFFFFFFFF AND CALLER PUSH20 0xFFFFFFFFFFFFFFFFFFFFFFFFFFFFFFFFFFFFFFFF AND EQ PUSH2 0x486 JUMPI PUSH1 0x40 MLOAD PUSH32 0x8C379A000000000000000000000000000000000000000000000000000000000 DUP2 MSTORE PUSH1 0x4 ADD PUSH2 0x47D SWAP1 PUSH2 0x21C7 JUMP JUMPDEST PUSH1 0x40 MLOAD DUP1 SWAP2 SUB SWAP1 REVERT JUMPDEST PUSH1 0x3 DUP1 SLOAD EQ PUSH2 0x4CA JUMPI PUSH1 0x40 MLOAD PUSH32 0x8C379A000000000000000000000000000000000000000000000000000000000 DUP2 MSTORE PUSH1 0x4 ADD PUSH2 0x4C1 SWAP1 PUSH2 0x2255 JUMP JUMPDEST PUSH1 0x40 MLOAD DUP1 SWAP2 SUB SWAP1 REVERT JUMPDEST PUSH0 PUSH1 0x8 PUSH0 PUSH1 0x1 DUP2 MSTORE PUSH1 0x20 ADD SWAP1 DUP2 MSTORE PUSH1 0x20 ADD PUSH0 KECCAK256 PUSH1 0x40 MLOAD DUP1 PUSH1 0xE0 ADD PUSH1 0x40 MSTORE SWAP1 DUP2 PUSH0 DUP3 ADD DUP1 SLOAD PUSH2 0x4F7 SWAP1 PUSH2 0x22A0 JUMP JUMPDEST DUP1 PUSH1 0x1F ADD PUSH1 0x20 DUP1 SWAP2 DIV MUL PUSH1 0x20 ADD PUSH1 0x40 MLOAD SWAP1 DUP2 ADD PUSH1 0x40 MSTORE DUP1 SWAP3 SWAP2 SWAP1 DUP2 DUP2 MSTORE PUSH1 0x20 ADD DUP3 DUP1 SLOAD PUSH2 0x523 SWAP1 PUSH2 0x22A0 JUMP JUMPDEST DUP1 ISZERO PUSH2 0x56E JUMPI DUP1 PUSH1 0x1F LT PUSH2 0x545 JUMPI PUSH2 0x100 DUP1 DUP4 SLOAD DIV MUL DUP4 MSTORE SWAP2 PUSH1 0x20 ADD SWAP2 PUSH2 0x56E JUMP JUMPDEST DUP3 ADD SWAP2 SWAP1 PUSH0 MSTORE PUSH1 0x20 PUSH0 KECCAK256 SWAP1 JUMPDEST DUP2 SLOAD DUP2 MSTORE SWAP1 PUSH1 0x1 ADD SWAP1 PUSH1 0x20 ADD DUP1 DUP4 GT PUSH2 0x551 JUMPI DUP3 SWAP1 SUB PUSH1 0x1F AND DUP3 ADD SWAP2 JUMPDEST POP POP POP POP POP DUP2 MSTORE PUSH1 0x20 ADD PUSH1 0x1 DUP3 ADD DUP1 SLOAD PUSH2 0x587 SWAP1 PUSH2 0x22A0 JUMP JUMPDEST DUP1 PUSH1 0x1F ADD PUSH1 0x20 DUP1 SWAP2 DIV MUL PUSH1 0x20 ADD PUSH1 0x40 MLOAD SWAP1 DUP2 ADD PUSH1 0x40 MSTORE DUP1 SWAP3 SWAP2 SWAP1 DUP2 DUP2 MSTORE PUSH1 0x20 ADD DUP3 DUP1 SLOAD PUSH2 0x5B3 SWAP1 PUSH2 0x22A0 JUMP JUMPDEST DUP1 ISZERO PUSH2 0x5FE JUMPI DUP1 PUSH1 0x1F LT PUSH2 0x5D5 JUMPI PUSH2 0x100 DUP1 DUP4 SLOAD DIV MUL DUP4 MSTORE SWAP2 PUSH1 0x20 ADD SWAP2 PUSH2 0x5FE JUMP JUMPDEST DUP3 ADD SWAP2 SWAP1 PUSH0 MSTORE PUSH1 0x20 PUSH0 KECCAK256 SWAP1 JUMPDEST DUP2 SLOAD DUP2 MSTORE SWAP1 PUSH1 0x1 ADD SWAP1 PUSH1 0x20 ADD DUP1 DUP4 GT PUSH2 0x5E1 JUMPI DUP3 SWAP1 SUB PUSH1 0x1F AND DUP3 ADD SWAP2 JUMPDEST POP POP POP POP POP DUP2 MSTORE PUSH1 0x20 ADD PUSH1 0x2 DUP3 ADD SLOAD DUP2 MSTORE PUSH1 0x20 ADD PUSH1 0x3 DUP3 ADD PUSH0 SWAP1 SLOAD SWAP1 PUSH2 0x100 EXP SWAP1 DIV PUSH1 0xFF AND PUSH1 0x3 DUP2 GT ISZERO PUSH2 0x635 JUMPI PUSH2 0x634 PUSH2 0x1895 JUMP JUMPDEST JUMPDEST PUSH1 0x3 DUP2 GT ISZERO PUSH2 0x647 JUMPI PUSH2 0x646 PUSH2 0x1895 JUMP JUMPDEST JUMPDEST DUP2 MSTORE PUSH1 0x20 ADD PUSH1 0x4 DUP3 ADD SLOAD DUP2 MSTORE PUSH1 0x20 ADD PUSH1 0x5 DUP3 ADD PUSH0 SWAP1 SLOAD SWAP1 PUSH2 0x100 EXP SWAP1 DIV PUSH20 0xFFFFFFFFFFFFFFFFFFFFFFFFFFFFFFFFFFFFFFFF AND PUSH20 0xFFFFFFFFFFFFFFFFFFFFFFFFFFFFFFFFFFFFFFFF AND PUSH20 0xFFFFFFFFFFFFFFFFFFFFFFFFFFFFFFFFFFFFFFFF AND DUP2 MSTORE PUSH1 0x20 ADD PUSH1 0x6 DUP3 ADD SLOAD DUP2 MSTORE POP POP SWAP1 POP PUSH0 PUSH1 0x8 PUSH0 PUSH1 0x2 DUP2 MSTORE PUSH1 0x20 ADD SWAP1 DUP2 MSTORE PUSH1 0x20 ADD PUSH0 KECCAK256 PUSH1 0x40 MLOAD DUP1 PUSH1 0xE0 ADD PUSH1 0x40 MSTORE SWAP1 DUP2 PUSH0 DUP3 ADD DUP1 SLOAD PUSH2 0x6E3 SWAP1 PUSH2 0x22A0 JUMP JUMPDEST DUP1 PUSH1 0x1F ADD PUSH1 0x20 DUP1 SWAP2 DIV MUL PUSH1 0x20 ADD PUSH1 0x40 MLOAD SWAP1 DUP2 ADD PUSH1 0x40 MSTORE DUP1 SWAP3 SWAP2 SWAP1 DUP2 DUP2 MSTORE PUSH1 0x20 ADD DUP3 DUP1 SLOAD PUSH2 0x70F SWAP1 PUSH2 0x22A0 JUMP JUMPDEST DUP1 ISZERO PUSH2 0x75A JUMPI DUP1 PUSH1 0x1F LT PUSH2 0x731 JUMPI PUSH2 0x100 DUP1 DUP4 SLOAD DIV MUL DUP4 MSTORE SWAP2 PUSH1 0x20 ADD SWAP2 PUSH2 0x75A JUMP JUMPDEST DUP3 ADD SWAP2 SWAP1 PUSH0 MSTORE PUSH1 0x20 PUSH0 KECCAK256 SWAP1 JUMPDEST DUP2 SLOAD DUP2 MSTORE SWAP1 PUSH1 0x1 ADD SWAP1 PUSH1 0x20 ADD DUP1 DUP4 GT PUSH2 0x73D JUMPI DUP3 SWAP1 SUB PUSH1 0x1F AND DUP3 ADD SWAP2 JUMPDEST POP POP POP POP POP DUP2 MSTORE PUSH1 0x20 ADD PUSH1 0x1 DUP3 ADD DUP1 SLOAD PUSH2 0x773 SWAP1 PUSH2 0x22A0 JUMP JUMPDEST DUP1 PUSH1 0x1F ADD PUSH1 0x20 DUP1 SWAP2 DIV MUL PUSH1 0x20 ADD PUSH1 0x40 MLOAD SWAP1 DUP2 ADD PUSH1 0x40 MSTORE DUP1 SWAP3 SWAP2 SWAP1 DUP2 DUP2 MSTORE PUSH1 0x20 ADD DUP3 DUP1 SLOAD PUSH2 0x79F SWAP1 PUSH2 0x22A0 JUMP JUMPDEST DUP1 ISZERO PUSH2 0x7EA JUMPI DUP1 PUSH1 0x1F LT PUSH2 0x7C1 JUMPI PUSH2 0x100 DUP1 DUP4 SLOAD DIV MUL DUP4 MSTORE SWAP2 PUSH1 0x20 ADD SWAP2 PUSH2 0x7EA JUMP JUMPDEST DUP3 ADD SWAP2 SWAP1 PUSH0 MSTORE PUSH1 0x20 PUSH0 KECCAK256 SWAP1 JUMPDEST DUP2 SLOAD DUP2 MSTORE SWAP1 PUSH1 0x1 ADD SWAP1 PUSH1 0x20 ADD DUP1 DUP4 GT PUSH2 0x7CD JUMPI DUP3 SWAP1 SUB PUSH1 0x1F AND DUP3 ADD SWAP2 JUMPDEST POP POP POP POP POP DUP2 MSTORE PUSH1 0x20 ADD PUSH1 0x2 DUP3 ADD SLOAD DUP2 MSTORE PUSH1 0x20 ADD PUSH1 0x3 DUP3 ADD PUSH0 SWAP1 SLOAD SWAP1 PUSH2 0x100 EXP SWAP1 DIV PUSH1 0xFF AND PUSH1 0x3 DUP2 GT ISZERO PUSH2 0x821 JUMPI PUSH2 0x820 PUSH2 0x1895 JUMP JUMPDEST JUMPDEST PUSH1 0x3 DUP2 GT ISZERO PUSH2 0x833 JUMPI PUSH2 0x832 PUSH2 0x1895 JUMP JUMPDEST JUMPDEST DUP2 MSTORE PUSH1 0x20 ADD PUSH1 0x4 DUP3 ADD SLOAD DUP2 MSTORE PUSH1 0x20 ADD PUSH1 0x5 DUP3 ADD PUSH0 SWAP1 SLOAD SWAP1 PUSH2 0x100 EXP SWAP1 DIV PUSH20 0xFFFFFFFFFFFFFFFFFFFFFFFFFFFFFFFFFFFFFFFF AND PUSH20 0xFFFFFFFFFFFFFFFFFFFFFFFFFFFFFFFFFFFFFFFF AND PUSH20 0xFFFFFFFFFFFFFFFFFFFFFFFFFFFFFFFFFFFFFFFF AND DUP2 MSTORE PUSH1 0x20 ADD PUSH1 0x6 DUP3 ADD SLOAD DUP2 MSTORE POP POP SWAP1 POP DUP1 PUSH1 0xC0 ADD MLOAD DUP3 PUSH1 0xC0 ADD MLOAD GT ISZERO PUSH2 0x8FB JUMPI DUP2 PUSH1 0xA0 ADD MLOAD PUSH1 0x1 PUSH0 PUSH2 0x100 EXP DUP2 SLOAD DUP2 PUSH20 0xFFFFFFFFFFFFFFFFFFFFFFFFFFFFFFFFFFFFFFFF MUL NOT AND SWAP1 DUP4 PUSH20 0xFFFFFFFFFFFFFFFFFFFFFFFFFFFFFFFFFFFFFFFF AND MUL OR SWAP1 SSTORE POP PUSH2 0x940 JUMP JUMPDEST DUP1 PUSH1 0xA0 ADD MLOAD PUSH1 0x1 PUSH0 PUSH2 0x100 EXP DUP2 SLOAD DUP2 PUSH20 0xFFFFFFFFFFFFFFFFFFFFFFFFFFFFFFFFFFFFFFFF MUL NOT AND SWAP1 DUP4 PUSH20 0xFFFFFFFFFFFFFFFFFFFFFFFFFFFFFFFFFFFFFFFF AND MUL OR SWAP1 SSTORE POP JUMPDEST POP POP JUMP JUMPDEST PUSH1 0x12 DUP3 GT PUSH2 0x987 JUMPI PUSH1 0x40 MLOAD PUSH32 0x8C379A000000000000000000000000000000000000000000000000000000000 DUP2 MSTORE PUSH1 0x4 ADD PUSH2 0x97E SWAP1 PUSH2 0x231A JUMP JUMPDEST PUSH1 0x40 MLOAD DUP1 SWAP2 SUB SWAP1 REVERT JUMPDEST PUSH2 0x990 CALLER PUSH2 0x16C6 JUMP JUMPDEST ISZERO PUSH2 0x9D0 JUMPI PUSH1 0x40 MLOAD PUSH32 0x8C379A000000000000000000000000000000000000000000000000000000000 DUP2 MSTORE PUSH1 0x4 ADD PUSH2 0x9C7 SWAP1 PUSH2 0x23A8 JUMP JUMPDEST PUSH1 0x40 MLOAD DUP1 SWAP2 SUB SWAP1 REVERT JUMPDEST PUSH1 0x40 MLOAD DUP1 PUSH1 0xC0 ADD PUSH1 0x40 MSTORE DUP1 DUP6 DUP6 DUP1 DUP1 PUSH1 0x1F ADD PUSH1 0x20 DUP1 SWAP2 DIV MUL PUSH1 0x20 ADD PUSH1 0x40 MLOAD SWAP1 DUP2 ADD PUSH1 0x40 MSTORE DUP1 SWAP4 SWAP3 SWAP2 SWAP1 DUP2 DUP2 MSTORE PUSH1 0x20 ADD DUP4 DUP4 DUP1 DUP3 DUP5 CALLDATACOPY PUSH0 DUP2 DUP5 ADD MSTORE PUSH1 0x1F NOT PUSH1 0x1F DUP3 ADD AND SWAP1 POP DUP1 DUP4 ADD SWAP3 POP POP POP POP POP POP POP DUP2 MSTORE PUSH1 0x20 ADD DUP4 DUP2 MSTORE PUSH1 0x20 ADD PUSH1 0x2 SLOAD DUP2 MSTORE PUSH1 0x20 ADD DUP3 PUSH1 0x3 DUP2 GT ISZERO PUSH2 0xA45 JUMPI PUSH2 0xA44 PUSH2 0x1895 JUMP JUMPDEST JUMPDEST DUP2 MSTORE PUSH1 0x20 ADD PUSH0 DUP2 MSTORE PUSH1 0x20 ADD CALLER PUSH20 0xFFFFFFFFFFFFFFFFFFFFFFFFFFFFFFFFFFFFFFFF AND DUP2 MSTORE POP PUSH1 0x7 PUSH0 PUSH1 0x2 SLOAD DUP2 MSTORE PUSH1 0x20 ADD SWAP1 DUP2 MSTORE PUSH1 0x20 ADD PUSH0 KECCAK256 PUSH0 DUP3 ADD MLOAD DUP2 PUSH0 ADD SWAP1 DUP2 PUSH2 0xA90 SWAP2 SWAP1 PUSH2 0x2590 JUMP JUMPDEST POP PUSH1 0x20 DUP3 ADD MLOAD DUP2 PUSH1 0x1 ADD SSTORE PUSH1 0x40 DUP3 ADD MLOAD DUP2 PUSH1 0x2 ADD SSTORE PUSH1 0x60 DUP3 ADD MLOAD DUP2 PUSH1 0x3 ADD PUSH0 PUSH2 0x100 EXP DUP2 SLOAD DUP2 PUSH1 0xFF MUL NOT AND SWAP1 DUP4 PUSH1 0x3 DUP2 GT ISZERO PUSH2 0xACF JUMPI PUSH2 0xACE PUSH2 0x1895 JUMP JUMPDEST JUMPDEST MUL OR SWAP1 SSTORE POP PUSH1 0x80 DUP3 ADD MLOAD DUP2 PUSH1 0x4 ADD SSTORE PUSH1 0xA0 DUP3 ADD MLOAD DUP2 PUSH1 0x5 ADD PUSH0 PUSH2 0x100 EXP DUP2 SLOAD DUP2 PUSH20 0xFFFFFFFFFFFFFFFFFFFFFFFFFFFFFFFFFFFFFFFF MUL NOT AND SWAP1 DUP4 PUSH20 0xFFFFFFFFFFFFFFFFFFFFFFFFFFFFFFFFFFFFFFFF AND MUL OR SWAP1 SSTORE POP SWAP1 POP POP PUSH1 0x2 PUSH0 DUP2 SLOAD DUP1 SWAP3 SWAP2 SWAP1 PUSH2 0xB39 SWAP1 PUSH2 0x2110 JUMP JUMPDEST SWAP2 SWAP1 POP SSTORE POP POP POP POP POP JUMP JUMPDEST PUSH1 0x5 SLOAD TIMESTAMP LT DUP1 PUSH2 0xB60 JUMPI POP PUSH1 0x6 PUSH0 SWAP1 SLOAD SWAP1 PUSH2 0x100 EXP SWAP1 DIV PUSH1 0xFF AND ISZERO JUMPDEST PUSH2 0xB9F JUMPI PUSH1 0x40 MLOAD PUSH32 0x8C379A000000000000000000000000000000000000000000000000000000000 DUP2 MSTORE PUSH1 0x4 ADD PUSH2 0xB96 SWAP1 PUSH2 0x1F1B JUMP JUMPDEST PUSH1 0x40 MLOAD DUP1 SWAP2 SUB SWAP1 REVERT JUMPDEST PUSH1 0x12 DUP3 GT DUP1 ISZERO PUSH2 0xBAF JUMPI POP PUSH1 0x3C DUP3 LT JUMPDEST PUSH2 0xBEE JUMPI PUSH1 0x40 MLOAD PUSH32 0x8C379A000000000000000000000000000000000000000000000000000000000 DUP2 MSTORE PUSH1 0x4 ADD PUSH2 0xBE5 SWAP1 PUSH2 0x26CF JUMP JUMPDEST PUSH1 0x40 MLOAD DUP1 SWAP2 SUB SWAP1 REVERT JUMPDEST PUSH2 0xBF7 CALLER PUSH2 0x15BD JUMP JUMPDEST ISZERO PUSH2 0xC37 JUMPI PUSH1 0x40 MLOAD PUSH32 0x8C379A000000000000000000000000000000000000000000000000000000000 DUP2 MSTORE PUSH1 0x4 ADD PUSH2 0xC2E SWAP1 PUSH2 0x2737 JUMP JUMPDEST PUSH1 0x40 MLOAD DUP1 SWAP2 SUB SWAP1 REVERT JUMPDEST PUSH1 0x3 DUP1 SLOAD LT PUSH2 0xC7B JUMPI PUSH1 0x40 MLOAD PUSH32 0x8C379A000000000000000000000000000000000000000000000000000000000 DUP2 MSTORE PUSH1 0x4 ADD PUSH2 0xC72 SWAP1 PUSH2 0x279F JUMP JUMPDEST PUSH1 0x40 MLOAD DUP1 SWAP2 SUB SWAP1 REVERT JUMPDEST PUSH0 DUP1 SLOAD SWAP1 PUSH2 0x100 EXP SWAP1 DIV PUSH20 0xFFFFFFFFFFFFFFFFFFFFFFFFFFFFFFFFFFFFFFFF AND PUSH20 0xFFFFFFFFFFFFFFFFFFFFFFFFFFFFFFFFFFFFFFFF AND CALLER PUSH20 0xFFFFFFFFFFFFFFFFFFFFFFFFFFFFFFFFFFFFFFFF AND SUB PUSH2 0xD08 JUMPI PUSH1 0x40 MLOAD PUSH32 0x8C379A000000000000000000000000000000000000000000000000000000000 DUP2 MSTORE PUSH1 0x4 ADD PUSH2 0xCFF SWAP1 PUSH2 0x282D JUMP JUMPDEST PUSH1 0x40 MLOAD DUP1 SWAP2 SUB SWAP1 REVERT JUMPDEST PUSH1 0x40 MLOAD DUP1 PUSH1 0xE0 ADD PUSH1 0x40 MSTORE DUP1 DUP8 DUP8 DUP1 DUP1 PUSH1 0x1F ADD PUSH1 0x20 DUP1 SWAP2 DIV MUL PUSH1 0x20 ADD PUSH1 0x40 MLOAD SWAP1 DUP2 ADD PUSH1 0x40 MSTORE DUP1 SWAP4 SWAP3 SWAP2 SWAP1 DUP2 DUP2 MSTORE PUSH1 0x20 ADD DUP4 DUP4 DUP1 DUP3 DUP5 CALLDATACOPY PUSH0 DUP2 DUP5 ADD MSTORE PUSH1 0x1F NOT PUSH1 0x1F DUP3 ADD AND SWAP1 POP DUP1 DUP4 ADD SWAP3 POP POP POP POP POP POP POP DUP2 MSTORE PUSH1 0x20 ADD DUP6 DUP6 DUP1 DUP1 PUSH1 0x1F ADD PUSH1 0x20 DUP1 SWAP2 DIV MUL PUSH1 0x20 ADD PUSH1 0x40 MLOAD SWAP1 DUP2 ADD PUSH1 0x40 MSTORE DUP1 SWAP4 SWAP3 SWAP2 SWAP1 DUP2 DUP2 MSTORE PUSH1 0x20 ADD DUP4 DUP4 DUP1 DUP3 DUP5 CALLDATACOPY PUSH0 DUP2 DUP5 ADD MSTORE PUSH1 0x1F NOT PUSH1 0x1F DUP3 ADD AND SWAP1 POP DUP1 DUP4 ADD SWAP3 POP POP POP POP POP POP POP DUP2 MSTORE PUSH1 0x20 ADD DUP4 DUP2 MSTORE PUSH1 0x20 ADD DUP3 PUSH1 0x3 DUP2 GT ISZERO PUSH2 0xDBE JUMPI PUSH2 0xDBD PUSH2 0x1895 JUMP JUMPDEST JUMPDEST DUP2 MSTORE PUSH1 0x20 ADD PUSH1 0x3 SLOAD DUP2 MSTORE PUSH1 0x20 ADD CALLER PUSH20 0xFFFFFFFFFFFFFFFFFFFFFFFFFFFFFFFFFFFFFFFF AND DUP2 MSTORE PUSH1 0x20 ADD PUSH0 DUP2 MSTORE POP PUSH1 0x8 PUSH0 PUSH1 0x3 SLOAD DUP2 MSTORE PUSH1 0x20 ADD SWAP1 DUP2 MSTORE PUSH1 0x20 ADD PUSH0 KECCAK256 PUSH0 DUP3 ADD MLOAD DUP2 PUSH0 ADD SWAP1 DUP2 PUSH2 0xE11 SWAP2 SWAP1 PUSH2 0x2590 JUMP JUMPDEST POP PUSH1 0x20 DUP3 ADD MLOAD DUP2 PUSH1 0x1 ADD SWAP1 DUP2 PUSH2 0xE27 SWAP2 SWAP1 PUSH2 0x2590 JUMP JUMPDEST POP PUSH1 0x40 DUP3 ADD MLOAD DUP2 PUSH1 0x2 ADD SSTORE PUSH1 0x60 DUP3 ADD MLOAD DUP2 PUSH1 0x3 ADD PUSH0 PUSH2 0x100 EXP DUP2 SLOAD DUP2 PUSH1 0xFF MUL NOT AND SWAP1 DUP4 PUSH1 0x3 DUP2 GT ISZERO PUSH2 0xE5C JUMPI PUSH2 0xE5B PUSH2 0x1895 JUMP JUMPDEST JUMPDEST MUL OR SWAP1 SSTORE POP PUSH1 0x80 DUP3 ADD MLOAD DUP2 PUSH1 0x4 ADD SSTORE PUSH1 0xA0 DUP3 ADD MLOAD DUP2 PUSH1 0x5 ADD PUSH0 PUSH2 0x100 EXP DUP2 SLOAD DUP2 PUSH20 0xFFFFFFFFFFFFFFFFFFFFFFFFFFFFFFFFFFFFFFFF MUL NOT AND SWAP1 DUP4 PUSH20 0xFFFFFFFFFFFFFFFFFFFFFFFFFFFFFFFFFFFFFFFF AND MUL OR SWAP1 SSTORE POP PUSH1 0xC0 DUP3 ADD MLOAD DUP2 PUSH1 0x6 ADD SSTORE SWAP1 POP POP PUSH1 0x3 PUSH0 DUP2 SLOAD DUP1 SWAP3 SWAP2 SWAP1 PUSH2 0xED0 SWAP1 PUSH2 0x2110 JUMP JUMPDEST SWAP2 SWAP1 POP SSTORE POP POP POP POP POP POP POP JUMP JUMPDEST PUSH0 DUP1 SLOAD SWAP1 PUSH2 0x100 EXP SWAP1 DIV PUSH20 0xFFFFFFFFFFFFFFFFFFFFFFFFFFFFFFFFFFFFFFFF AND PUSH20 0xFFFFFFFFFFFFFFFFFFFFFFFFFFFFFFFFFFFFFFFF AND CALLER PUSH20 0xFFFFFFFFFFFFFFFFFFFFFFFFFFFFFFFFFFFFFFFF AND EQ PUSH2 0xF6A JUMPI PUSH1 0x40 MLOAD PUSH32 0x8C379A000000000000000000000000000000000000000000000000000000000 DUP2 MSTORE PUSH1 0x4 ADD PUSH2 0xF61 SWAP1 PUSH2 0x21C7 JUMP JUMPDEST PUSH1 0x40 MLOAD DUP1 SWAP2 SUB SWAP1 REVERT JUMPDEST PUSH1 0x1 PUSH1 0x6 PUSH0 PUSH2 0x100 EXP DUP2 SLOAD DUP2 PUSH1 0xFF MUL NOT AND SWAP1 DUP4 ISZERO ISZERO MUL OR SWAP1 SSTORE POP JUMP JUMPDEST PUSH0 DUP1 SLOAD SWAP1 PUSH2 0x100 EXP SWAP1 DIV PUSH20 0xFFFFFFFFFFFFFFFFFFFFFFFFFFFFFFFFFFFFFFFF AND PUSH20 0xFFFFFFFFFFFFFFFFFFFFFFFFFFFFFFFFFFFFFFFF AND CALLER PUSH20 0xFFFFFFFFFFFFFFFFFFFFFFFFFFFFFFFFFFFFFFFF AND EQ PUSH2 0x1013 JUMPI PUSH1 0x40 MLOAD PUSH32 0x8C379A000000000000000000000000000000000000000000000000000000000 DUP2 MSTORE PUSH1 0x4 ADD PUSH2 0x100A SWAP1 PUSH2 0x21C7 JUMP JUMPDEST PUSH1 0x40 MLOAD DUP1 SWAP2 SUB SWAP1 REVERT JUMPDEST PUSH1 0x5 SLOAD TIMESTAMP LT DUP1 PUSH2 0x102F JUMPI POP PUSH1 0x6 PUSH0 SWAP1 SLOAD SWAP1 PUSH2 0x100 EXP SWAP1 DIV PUSH1 0xFF AND ISZERO JUMPDEST PUSH2 0x106E JUMPI PUSH1 0x40 MLOAD PUSH32 0x8C379A000000000000000000000000000000000000000000000000000000000 DUP2 MSTORE PUSH1 0x4 ADD PUSH2 0x1065 SWAP1 PUSH2 0x1F1B JUMP JUMPDEST PUSH1 0x40 MLOAD DUP1 SWAP2 SUB SWAP1 REVERT JUMPDEST PUSH2 0xE10 DUP2 GT PUSH2 0x10B2 JUMPI PUSH1 0x40 MLOAD PUSH32 0x8C379A000000000000000000000000000000000000000000000000000000000 DUP2 MSTORE PUSH1 0x4 ADD PUSH2 0x10A9 SWAP1 PUSH2 0x28BB JUMP JUMPDEST PUSH1 0x40 MLOAD DUP1 SWAP2 SUB SWAP1 REVERT JUMPDEST DUP2 TIMESTAMP PUSH2 0x10BE SWAP2 SWAP1 PUSH2 0x28D9 JUMP JUMPDEST PUSH1 0x4 DUP2 SWAP1 SSTORE POP DUP1 PUSH1 0x4 SLOAD PUSH2 0x10D2 SWAP2 SWAP1 PUSH2 0x28D9 JUMP JUMPDEST PUSH1 0x5 DUP2 SWAP1 SSTORE POP POP POP JUMP JUMPDEST PUSH1 0x60 PUSH0 PUSH1 0x1 PUSH1 0x2 SLOAD PUSH2 0x10EE SWAP2 SWAP1 PUSH2 0x290C JUMP JUMPDEST PUSH8 0xFFFFFFFFFFFFFFFF DUP2 GT ISZERO PUSH2 0x1107 JUMPI PUSH2 0x1106 PUSH2 0x23C6 JUMP JUMPDEST JUMPDEST PUSH1 0x40 MLOAD SWAP1 DUP1 DUP3 MSTORE DUP1 PUSH1 0x20 MUL PUSH1 0x20 ADD DUP3 ADD PUSH1 0x40 MSTORE DUP1 ISZERO PUSH2 0x1140 JUMPI DUP2 PUSH1 0x20 ADD JUMPDEST PUSH2 0x112D PUSH2 0x1763 JUMP JUMPDEST DUP2 MSTORE PUSH1 0x20 ADD SWAP1 PUSH1 0x1 SWAP1 SUB SWAP1 DUP2 PUSH2 0x1125 JUMPI SWAP1 POP JUMPDEST POP SWAP1 POP PUSH0 JUMPDEST PUSH1 0x1 PUSH1 0x3 SLOAD PUSH2 0x1154 SWAP2 SWAP1 PUSH2 0x290C JUMP JUMPDEST DUP2 LT ISZERO PUSH2 0x12EA JUMPI PUSH1 0x7 PUSH0 PUSH1 0x1 DUP4 PUSH2 0x116B SWAP2 SWAP1 PUSH2 0x28D9 JUMP JUMPDEST DUP2 MSTORE PUSH1 0x20 ADD SWAP1 DUP2 MSTORE PUSH1 0x20 ADD PUSH0 KECCAK256 PUSH1 0x40 MLOAD DUP1 PUSH1 0xC0 ADD PUSH1 0x40 MSTORE SWAP1 DUP2 PUSH0 DUP3 ADD DUP1 SLOAD PUSH2 0x1192 SWAP1 PUSH2 0x22A0 JUMP JUMPDEST DUP1 PUSH1 0x1F ADD PUSH1 0x20 DUP1 SWAP2 DIV MUL PUSH1 0x20 ADD PUSH1 0x40 MLOAD SWAP1 DUP2 ADD PUSH1 0x40 MSTORE DUP1 SWAP3 SWAP2 SWAP1 DUP2 DUP2 MSTORE PUSH1 0x20 ADD DUP3 DUP1 SLOAD PUSH2 0x11BE SWAP1 PUSH2 0x22A0 JUMP JUMPDEST DUP1 ISZERO PUSH2 0x1209 JUMPI DUP1 PUSH1 0x1F LT PUSH2 0x11E0 JUMPI PUSH2 0x100 DUP1 DUP4 SLOAD DIV MUL DUP4 MSTORE SWAP2 PUSH1 0x20 ADD SWAP2 PUSH2 0x1209 JUMP JUMPDEST DUP3 ADD SWAP2 SWAP1 PUSH0 MSTORE PUSH1 0x20 PUSH0 KECCAK256 SWAP1 JUMPDEST DUP2 SLOAD DUP2 MSTORE SWAP1 PUSH1 0x1 ADD SWAP1 PUSH1 0x20 ADD DUP1 DUP4 GT PUSH2 0x11EC JUMPI DUP3 SWAP1 SUB PUSH1 0x1F AND DUP3 ADD SWAP2 JUMPDEST POP POP POP POP POP DUP2 MSTORE PUSH1 0x20 ADD PUSH1 0x1 DUP3 ADD SLOAD DUP2 MSTORE PUSH1 0x20 ADD PUSH1 0x2 DUP3 ADD SLOAD DUP2 MSTORE PUSH1 0x20 ADD PUSH1 0x3 DUP3 ADD PUSH0 SWAP1 SLOAD SWAP1 PUSH2 0x100 EXP SWAP1 DIV PUSH1 0xFF AND PUSH1 0x3 DUP2 GT ISZERO PUSH2 0x124A JUMPI PUSH2 0x1249 PUSH2 0x1895 JUMP JUMPDEST JUMPDEST PUSH1 0x3 DUP2 GT ISZERO PUSH2 0x125C JUMPI PUSH2 0x125B PUSH2 0x1895 JUMP JUMPDEST JUMPDEST DUP2 MSTORE PUSH1 0x20 ADD PUSH1 0x4 DUP3 ADD SLOAD DUP2 MSTORE PUSH1 0x20 ADD PUSH1 0x5 DUP3 ADD PUSH0 SWAP1 SLOAD SWAP1 PUSH2 0x100 EXP SWAP1 DIV PUSH20 0xFFFFFFFFFFFFFFFFFFFFFFFFFFFFFFFFFFFFFFFF AND PUSH20 0xFFFFFFFFFFFFFFFFFFFFFFFFFFFFFFFFFFFFFFFF AND PUSH20 0xFFFFFFFFFFFFFFFFFFFFFFFFFFFFFFFFFFFFFFFF AND DUP2 MSTORE POP POP DUP3 DUP3 DUP2 MLOAD DUP2 LT PUSH2 0x12D2 JUMPI PUSH2 0x12D1 PUSH2 0x293F JUMP JUMPDEST JUMPDEST PUSH1 0x20 MUL PUSH1 0x20 ADD ADD DUP2 SWAP1 MSTORE POP DUP1 DUP1 PUSH1 0x1 ADD SWAP2 POP POP PUSH2 0x1145 JUMP JUMPDEST POP DUP1 SWAP2 POP POP SWAP1 JUMP JUMPDEST PUSH1 0x1 PUSH0 SWAP1 SLOAD SWAP1 PUSH2 0x100 EXP SWAP1 DIV PUSH20 0xFFFFFFFFFFFFFFFFFFFFFFFFFFFFFFFFFFFFFFFF AND DUP2 JUMP JUMPDEST PUSH1 0x60 PUSH0 PUSH1 0x1 PUSH1 0x3 SLOAD PUSH2 0x1329 SWAP2 SWAP1 PUSH2 0x290C JUMP JUMPDEST PUSH8 0xFFFFFFFFFFFFFFFF DUP2 GT ISZERO PUSH2 0x1342 JUMPI PUSH2 0x1341 PUSH2 0x23C6 JUMP JUMPDEST JUMPDEST PUSH1 0x40 MLOAD SWAP1 DUP1 DUP3 MSTORE DUP1 PUSH1 0x20 MUL PUSH1 0x20 ADD DUP3 ADD PUSH1 0x40 MSTORE DUP1 ISZERO PUSH2 0x137B JUMPI DUP2 PUSH1 0x20 ADD JUMPDEST PUSH2 0x1368 PUSH2 0x17BC JUMP JUMPDEST DUP2 MSTORE PUSH1 0x20 ADD SWAP1 PUSH1 0x1 SWAP1 SUB SWAP1 DUP2 PUSH2 0x1360 JUMPI SWAP1 POP JUMPDEST POP SWAP1 POP PUSH0 JUMPDEST PUSH1 0x1 PUSH1 0x3 SLOAD PUSH2 0x138F SWAP2 SWAP1 PUSH2 0x290C JUMP JUMPDEST DUP2 LT ISZERO PUSH2 0x15B5 JUMPI PUSH1 0x8 PUSH0 PUSH1 0x1 DUP4 PUSH2 0x13A6 SWAP2 SWAP1 PUSH2 0x28D9 JUMP JUMPDEST DUP2 MSTORE PUSH1 0x20 ADD SWAP1 DUP2 MSTORE PUSH1 0x20 ADD PUSH0 KECCAK256 PUSH1 0x40 MLOAD DUP1 PUSH1 0xE0 ADD PUSH1 0x40 MSTORE SWAP1 DUP2 PUSH0 DUP3 ADD DUP1 SLOAD PUSH2 0x13CD SWAP1 PUSH2 0x22A0 JUMP JUMPDEST DUP1 PUSH1 0x1F ADD PUSH1 0x20 DUP1 SWAP2 DIV MUL PUSH1 0x20 ADD PUSH1 0x40 MLOAD SWAP1 DUP2 ADD PUSH1 0x40 MSTORE DUP1 SWAP3 SWAP2 SWAP1 DUP2 DUP2 MSTORE PUSH1 0x20 ADD DUP3 DUP1 SLOAD PUSH2 0x13F9 SWAP1 PUSH2 0x22A0 JUMP JUMPDEST DUP1 ISZERO PUSH2 0x1444 JUMPI DUP1 PUSH1 0x1F LT PUSH2 0x141B JUMPI PUSH2 0x100 DUP1 DUP4 SLOAD DIV MUL DUP4 MSTORE SWAP2 PUSH1 0x20 ADD SWAP2 PUSH2 0x1444 JUMP JUMPDEST DUP3 ADD SWAP2 SWAP1 PUSH0 MSTORE PUSH1 0x20 PUSH0 KECCAK256 SWAP1 JUMPDEST DUP2 SLOAD DUP2 MSTORE SWAP1 PUSH1 0x1 ADD SWAP1 PUSH1 0x20 ADD DUP1 DUP4 GT PUSH2 0x1427 JUMPI DUP3 SWAP1 SUB PUSH1 0x1F AND DUP3 ADD SWAP2 JUMPDEST POP POP POP POP POP DUP2 MSTORE PUSH1 0x20 ADD PUSH1 0x1 DUP3 ADD DUP1 SLOAD PUSH2 0x145D SWAP1 PUSH2 0x22A0 JUMP JUMPDEST DUP1 PUSH1 0x1F ADD PUSH1 0x20 DUP1 SWAP2 DIV MUL PUSH1 0x20 ADD PUSH1 0x40 MLOAD SWAP1 DUP2 ADD PUSH1 0x40 MSTORE DUP1 SWAP3 SWAP2 SWAP1 DUP2 DUP2 MSTORE PUSH1 0x20 ADD DUP3 DUP1 SLOAD PUSH2 0x1489 SWAP1 PUSH2 0x22A0 JUMP JUMPDEST DUP1 ISZERO PUSH2 0x14D4 JUMPI DUP1 PUSH1 0x1F LT PUSH2 0x14AB JUMPI PUSH2 0x100 DUP1 DUP4 SLOAD DIV MUL DUP4 MSTORE SWAP2 PUSH1 0x20 ADD SWAP2 PUSH2 0x14D4 JUMP JUMPDEST DUP3 ADD SWAP2 SWAP1 PUSH0 MSTORE PUSH1 0x20 PUSH0 KECCAK256 SWAP1 JUMPDEST DUP2 SLOAD DUP2 MSTORE SWAP1 PUSH1 0x1 ADD SWAP1 PUSH1 0x20 ADD DUP1 DUP4 GT PUSH2 0x14B7 JUMPI DUP3 SWAP1 SUB PUSH1 0x1F AND DUP3 ADD SWAP2 JUMPDEST POP POP POP POP POP DUP2 MSTORE PUSH1 0x20 ADD PUSH1 0x2 DUP3 ADD SLOAD DUP2 MSTORE PUSH1 0x20 ADD PUSH1 0x3 DUP3 ADD PUSH0 SWAP1 SLOAD SWAP1 PUSH2 0x100 EXP SWAP1 DIV PUSH1 0xFF AND PUSH1 0x3 DUP2 GT ISZERO PUSH2 0x150B JUMPI PUSH2 0x150A PUSH2 0x1895 JUMP JUMPDEST JUMPDEST PUSH1 0x3 DUP2 GT ISZERO PUSH2 0x151D JUMPI PUSH2 0x151C PUSH2 0x1895 JUMP JUMPDEST JUMPDEST DUP2 MSTORE PUSH1 0x20 ADD PUSH1 0x4 DUP3 ADD SLOAD DUP2 MSTORE PUSH1 0x20 ADD PUSH1 0x5 DUP3 ADD PUSH0 SWAP1 SLOAD SWAP1 PUSH2 0x100 EXP SWAP1 DIV PUSH20 0xFFFFFFFFFFFFFFFFFFFFFFFFFFFFFFFFFFFFFFFF AND PUSH20 0xFFFFFFFFFFFFFFFFFFFFFFFFFFFFFFFFFFFFFFFF AND PUSH20 0xFFFFFFFFFFFFFFFFFFFFFFFFFFFFFFFFFFFFFFFF AND DUP2 MSTORE PUSH1 0x20 ADD PUSH1 0x6 DUP3 ADD SLOAD DUP2 MSTORE POP POP DUP3 DUP3 DUP2 MLOAD DUP2 LT PUSH2 0x159D JUMPI PUSH2 0x159C PUSH2 0x293F JUMP JUMPDEST JUMPDEST PUSH1 0x20 MUL PUSH1 0x20 ADD ADD DUP2 SWAP1 MSTORE POP DUP1 DUP1 PUSH1 0x1 ADD SWAP2 POP POP PUSH2 0x1380 JUMP JUMPDEST POP DUP1 SWAP2 POP POP SWAP1 JUMP JUMPDEST PUSH0 DUP1 PUSH1 0x1 SWAP1 POP JUMPDEST PUSH1 0x3 SLOAD DUP2 GT PUSH2 0x16BC JUMPI DUP3 PUSH20 0xFFFFFFFFFFFFFFFFFFFFFFFFFFFFFFFFFFFFFFFF AND PUSH1 0x8 PUSH0 DUP4 DUP2 MSTORE PUSH1 0x20 ADD SWAP1 DUP2 MSTORE PUSH1 0x20 ADD PUSH0 KECCAK256 PUSH1 0x5 ADD PUSH0 SWAP1 SLOAD SWAP1 PUSH2 0x100 EXP SWAP1 DIV PUSH20 0xFFFFFFFFFFFFFFFFFFFFFFFFFFFFFFFFFFFFFFFF AND PUSH20 0xFFFFFFFFFFFFFFFFFFFFFFFFFFFFFFFFFFFFFFFF AND EQ DUP1 ISZERO PUSH2 0x169A JUMPI POP PUSH0 PUSH20 0xFFFFFFFFFFFFFFFFFFFFFFFFFFFFFFFFFFFFFFFF AND PUSH1 0x8 PUSH0 DUP4 DUP2 MSTORE PUSH1 0x20 ADD SWAP1 DUP2 MSTORE PUSH1 0x20 ADD PUSH0 KECCAK256 PUSH1 0x5 ADD PUSH0 SWAP1 SLOAD SWAP1 PUSH2 0x100 EXP SWAP1 DIV PUSH20 0xFFFFFFFFFFFFFFFFFFFFFFFFFFFFFFFFFFFFFFFF AND PUSH20 0xFFFFFFFFFFFFFFFFFFFFFFFFFFFFFFFFFFFFFFFF AND EQ ISZERO JUMPDEST ISZERO PUSH2 0x16A9 JUMPI PUSH1 0x1 SWAP2 POP POP PUSH2 0x16C1 JUMP JUMPDEST DUP1 DUP1 PUSH2 0x16B4 SWAP1 PUSH2 0x2110 JUMP JUMPDEST SWAP2 POP POP PUSH2 0x15C4 JUMP JUMPDEST POP PUSH0 SWAP1 POP JUMPDEST SWAP2 SWAP1 POP JUMP JUMPDEST PUSH0 DUP1 PUSH1 0x1 SWAP1 POP JUMPDEST PUSH1 0x2 SLOAD DUP2 GT PUSH2 0x1759 JUMPI DUP3 PUSH20 0xFFFFFFFFFFFFFFFFFFFFFFFFFFFFFFFFFFFFFFFF AND PUSH1 0x7 PUSH0 DUP4 DUP2 MSTORE PUSH1 0x20 ADD SWAP1 DUP2 MSTORE PUSH1 0x20 ADD PUSH0 KECCAK256 PUSH1 0x5 ADD PUSH0 SWAP1 SLOAD SWAP1 PUSH2 0x100 EXP SWAP1 DIV PUSH20 0xFFFFFFFFFFFFFFFFFFFFFFFFFFFFFFFFFFFFFFFF AND PUSH20 0xFFFFFFFFFFFFFFFFFFFFFFFFFFFFFFFFFFFFFFFF AND SUB PUSH2 0x1746 JUMPI PUSH1 0x1 SWAP2 POP POP PUSH2 0x175E JUMP JUMPDEST DUP1 DUP1 PUSH2 0x1751 SWAP1 PUSH2 0x2110 JUMP JUMPDEST SWAP2 POP POP PUSH2 0x16CD JUMP JUMPDEST POP PUSH0 SWAP1 POP JUMPDEST SWAP2 SWAP1 POP JUMP JUMPDEST PUSH1 0x40 MLOAD DUP1 PUSH1 0xC0 ADD PUSH1 0x40 MSTORE DUP1 PUSH1 0x60 DUP2 MSTORE PUSH1 0x20 ADD PUSH0 DUP2 MSTORE PUSH1 0x20 ADD PUSH0 DUP2 MSTORE PUSH1 0x20 ADD PUSH0 PUSH1 0x3 DUP2 GT ISZERO PUSH2 0x1794 JUMPI PUSH2 0x1793 PUSH2 0x1895 JUMP JUMPDEST JUMPDEST DUP2 MSTORE PUSH1 0x20 ADD PUSH0 DUP2 MSTORE PUSH1 0x20 ADD PUSH0 PUSH20 0xFFFFFFFFFFFFFFFFFFFFFFFFFFFFFFFFFFFFFFFF AND DUP2 MSTORE POP SWAP1 JUMP JUMPDEST PUSH1 0x40 MLOAD DUP1 PUSH1 0xE0 ADD PUSH1 0x40 MSTORE DUP1 PUSH1 0x60 DUP2 MSTORE PUSH1 0x20 ADD PUSH1 0x60 DUP2 MSTORE PUSH1 0x20 ADD PUSH0 DUP2 MSTORE PUSH1 0x20 ADD PUSH0 PUSH1 0x3 DUP2 GT ISZERO PUSH2 0x17EE JUMPI PUSH2 0x17ED PUSH2 0x1895 JUMP JUMPDEST JUMPDEST DUP2 MSTORE PUSH1 0x20 ADD PUSH0 DUP2 MSTORE PUSH1 0x20 ADD PUSH0 PUSH20 0xFFFFFFFFFFFFFFFFFFFFFFFFFFFFFFFFFFFFFFFF AND DUP2 MSTORE PUSH1 0x20 ADD PUSH0 DUP2 MSTORE POP SWAP1 JUMP JUMPDEST PUSH0 DUP1 REVERT JUMPDEST PUSH0 DUP1 REVERT JUMPDEST PUSH0 DUP2 SWAP1 POP SWAP2 SWAP1 POP JUMP JUMPDEST PUSH2 0x1836 DUP2 PUSH2 0x1824 JUMP JUMPDEST DUP2 EQ PUSH2 0x1840 JUMPI PUSH0 DUP1 REVERT JUMPDEST POP JUMP JUMPDEST PUSH0 DUP2 CALLDATALOAD SWAP1 POP PUSH2 0x1851 DUP2 PUSH2 0x182D JUMP JUMPDEST SWAP3 SWAP2 POP POP JUMP JUMPDEST PUSH0 DUP1 PUSH1 0x40 DUP4 DUP6 SUB SLT ISZERO PUSH2 0x186D JUMPI PUSH2 0x186C PUSH2 0x181C JUMP JUMPDEST JUMPDEST PUSH0 PUSH2 0x187A DUP6 DUP3 DUP7 ADD PUSH2 0x1843 JUMP JUMPDEST SWAP3 POP POP PUSH1 0x20 PUSH2 0x188B DUP6 DUP3 DUP7 ADD PUSH2 0x1843 JUMP JUMPDEST SWAP2 POP POP SWAP3 POP SWAP3 SWAP1 POP JUMP JUMPDEST PUSH32 0x4E487B7100000000000000000000000000000000000000000000000000000000 PUSH0 MSTORE PUSH1 0x21 PUSH1 0x4 MSTORE PUSH1 0x24 PUSH0 REVERT JUMPDEST PUSH1 0x3 DUP2 LT PUSH2 0x18D3 JUMPI PUSH2 0x18D2 PUSH2 0x1895 JUMP JUMPDEST JUMPDEST POP JUMP JUMPDEST PUSH0 DUP2 SWAP1 POP PUSH2 0x18E3 DUP3 PUSH2 0x18C2 JUMP JUMPDEST SWAP2 SWAP1 POP JUMP JUMPDEST PUSH0 PUSH2 0x18F2 DUP3 PUSH2 0x18D6 JUMP JUMPDEST SWAP1 POP SWAP2 SWAP1 POP JUMP JUMPDEST PUSH2 0x1902 DUP2 PUSH2 0x18E8 JUMP JUMPDEST DUP3 MSTORE POP POP JUMP JUMPDEST PUSH0 PUSH1 0x20 DUP3 ADD SWAP1 POP PUSH2 0x191B PUSH0 DUP4 ADD DUP5 PUSH2 0x18F9 JUMP JUMPDEST SWAP3 SWAP2 POP POP JUMP JUMPDEST PUSH0 DUP1 REVERT JUMPDEST PUSH0 DUP1 REVERT JUMPDEST PUSH0 DUP1 REVERT JUMPDEST PUSH0 DUP1 DUP4 PUSH1 0x1F DUP5 ADD SLT PUSH2 0x1942 JUMPI PUSH2 0x1941 PUSH2 0x1921 JUMP JUMPDEST JUMPDEST DUP3 CALLDATALOAD SWAP1 POP PUSH8 0xFFFFFFFFFFFFFFFF DUP2 GT ISZERO PUSH2 0x195F JUMPI PUSH2 0x195E PUSH2 0x1925 JUMP JUMPDEST JUMPDEST PUSH1 0x20 DUP4 ADD SWAP2 POP DUP4 PUSH1 0x1 DUP3 MUL DUP4 ADD GT ISZERO PUSH2 0x197B JUMPI PUSH2 0x197A PUSH2 0x1929 JUMP JUMPDEST JUMPDEST SWAP3 POP SWAP3 SWAP1 POP JUMP JUMPDEST PUSH1 0x4 DUP2 LT PUSH2 0x198E JUMPI PUSH0 DUP1 REVERT JUMPDEST POP JUMP JUMPDEST PUSH0 DUP2 CALLDATALOAD SWAP1 POP PUSH2 0x199F DUP2 PUSH2 0x1982 JUMP JUMPDEST SWAP3 SWAP2 POP POP JUMP JUMPDEST PUSH0 DUP1 PUSH0 DUP1 PUSH1 0x60 DUP6 DUP8 SUB SLT ISZERO PUSH2 0x19BD JUMPI PUSH2 0x19BC PUSH2 0x181C JUMP JUMPDEST JUMPDEST PUSH0 DUP6 ADD CALLDATALOAD PUSH8 0xFFFFFFFFFFFFFFFF DUP2 GT ISZERO PUSH2 0x19DA JUMPI PUSH2 0x19D9 PUSH2 0x1820 JUMP JUMPDEST JUMPDEST PUSH2 0x19E6 DUP8 DUP3 DUP9 ADD PUSH2 0x192D JUMP JUMPDEST SWAP5 POP SWAP5 POP POP PUSH1 0x20 PUSH2 0x19F9 DUP8 DUP3 DUP9 ADD PUSH2 0x1843 JUMP JUMPDEST SWAP3 POP POP PUSH1 0x40 PUSH2 0x1A0A DUP8 DUP3 DUP9 ADD PUSH2 0x1991 JUMP JUMPDEST SWAP2 POP POP SWAP3 SWAP6 SWAP2 SWAP5 POP SWAP3 POP JUMP JUMPDEST PUSH0 DUP1 PUSH0 DUP1 PUSH0 DUP1 PUSH1 0x80 DUP8 DUP10 SUB SLT ISZERO PUSH2 0x1A30 JUMPI PUSH2 0x1A2F PUSH2 0x181C JUMP JUMPDEST JUMPDEST PUSH0 DUP8 ADD CALLDATALOAD PUSH8 0xFFFFFFFFFFFFFFFF DUP2 GT ISZERO PUSH2 0x1A4D JUMPI PUSH2 0x1A4C PUSH2 0x1820 JUMP JUMPDEST JUMPDEST PUSH2 0x1A59 DUP10 DUP3 DUP11 ADD PUSH2 0x192D JUMP JUMPDEST SWAP7 POP SWAP7 POP POP PUSH1 0x20 DUP8 ADD CALLDATALOAD PUSH8 0xFFFFFFFFFFFFFFFF DUP2 GT ISZERO PUSH2 0x1A7C JUMPI PUSH2 0x1A7B PUSH2 0x1820 JUMP JUMPDEST JUMPDEST PUSH2 0x1A88 DUP10 DUP3 DUP11 ADD PUSH2 0x192D JUMP JUMPDEST SWAP5 POP SWAP5 POP POP PUSH1 0x40 PUSH2 0x1A9B DUP10 DUP3 DUP11 ADD PUSH2 0x1843 JUMP JUMPDEST SWAP3 POP POP PUSH1 0x60 PUSH2 0x1AAC DUP10 DUP3 DUP11 ADD PUSH2 0x1991 JUMP JUMPDEST SWAP2 POP POP SWAP3 SWAP6 POP SWAP3 SWAP6 POP SWAP3 SWAP6 JUMP JUMPDEST PUSH0 DUP2 MLOAD SWAP1 POP SWAP2 SWAP1 POP JUMP JUMPDEST PUSH0 DUP3 DUP3 MSTORE PUSH1 0x20 DUP3 ADD SWAP1 POP SWAP3 SWAP2 POP POP JUMP JUMPDEST PUSH0 DUP2 SWAP1 POP PUSH1 0x20 DUP3 ADD SWAP1 POP SWAP2 SWAP1 POP JUMP JUMPDEST PUSH0 DUP2 MLOAD SWAP1 POP SWAP2 SWAP1 POP JUMP JUMPDEST PUSH0 DUP3 DUP3 MSTORE PUSH1 0x20 DUP3 ADD SWAP1 POP SWAP3 SWAP2 POP POP JUMP JUMPDEST DUP3 DUP2 DUP4 MCOPY PUSH0 DUP4 DUP4 ADD MSTORE POP POP POP JUMP JUMPDEST PUSH0 PUSH1 0x1F NOT PUSH1 0x1F DUP4 ADD AND SWAP1 POP SWAP2 SWAP1 POP JUMP JUMPDEST PUSH0 PUSH2 0x1B24 DUP3 PUSH2 0x1AE2 JUMP JUMPDEST PUSH2 0x1B2E DUP2 DUP6 PUSH2 0x1AEC JUMP JUMPDEST SWAP4 POP PUSH2 0x1B3E DUP2 DUP6 PUSH1 0x20 DUP7 ADD PUSH2 0x1AFC JUMP JUMPDEST PUSH2 0x1B47 DUP2 PUSH2 0x1B0A JUMP JUMPDEST DUP5 ADD SWAP2 POP POP SWAP3 SWAP2 POP POP JUMP JUMPDEST PUSH2 0x1B5B DUP2 PUSH2 0x1824 JUMP JUMPDEST DUP3 MSTORE POP POP JUMP JUMPDEST PUSH1 0x4 DUP2 LT PUSH2 0x1B72 JUMPI PUSH2 0x1B71 PUSH2 0x1895 JUMP JUMPDEST JUMPDEST POP JUMP JUMPDEST PUSH0 DUP2 SWAP1 POP PUSH2 0x1B82 DUP3 PUSH2 0x1B61 JUMP JUMPDEST SWAP2 SWAP1 POP JUMP JUMPDEST PUSH0 PUSH2 0x1B91 DUP3 PUSH2 0x1B75 JUMP JUMPDEST SWAP1 POP SWAP2 SWAP1 POP JUMP JUMPDEST PUSH2 0x1BA1 DUP2 PUSH2 0x1B87 JUMP JUMPDEST DUP3 MSTORE POP POP JUMP JUMPDEST PUSH0 PUSH20 0xFFFFFFFFFFFFFFFFFFFFFFFFFFFFFFFFFFFFFFFF DUP3 AND SWAP1 POP SWAP2 SWAP1 POP JUMP JUMPDEST PUSH0 PUSH2 0x1BD0 DUP3 PUSH2 0x1BA7 JUMP JUMPDEST SWAP1 POP SWAP2 SWAP1 POP JUMP JUMPDEST PUSH2 0x1BE0 DUP2 PUSH2 0x1BC6 JUMP JUMPDEST DUP3 MSTORE POP POP JUMP JUMPDEST PUSH0 PUSH1 0xC0 DUP4 ADD PUSH0 DUP4 ADD MLOAD DUP5 DUP3 SUB PUSH0 DUP7 ADD MSTORE PUSH2 0x1C00 DUP3 DUP3 PUSH2 0x1B1A JUMP JUMPDEST SWAP2 POP POP PUSH1 0x20 DUP4 ADD MLOAD PUSH2 0x1C15 PUSH1 0x20 DUP7 ADD DUP3 PUSH2 0x1B52 JUMP JUMPDEST POP PUSH1 0x40 DUP4 ADD MLOAD PUSH2 0x1C28 PUSH1 0x40 DUP7 ADD DUP3 PUSH2 0x1B52 JUMP JUMPDEST POP PUSH1 0x60 DUP4 ADD MLOAD PUSH2 0x1C3B PUSH1 0x60 DUP7 ADD DUP3 PUSH2 0x1B98 JUMP JUMPDEST POP PUSH1 0x80 DUP4 ADD MLOAD PUSH2 0x1C4E PUSH1 0x80 DUP7 ADD DUP3 PUSH2 0x1B52 JUMP JUMPDEST POP PUSH1 0xA0 DUP4 ADD MLOAD PUSH2 0x1C61 PUSH1 0xA0 DUP7 ADD DUP3 PUSH2 0x1BD7 JUMP JUMPDEST POP DUP1 SWAP2 POP POP SWAP3 SWAP2 POP POP JUMP JUMPDEST PUSH0 PUSH2 0x1C77 DUP4 DUP4 PUSH2 0x1BE6 JUMP JUMPDEST SWAP1 POP SWAP3 SWAP2 POP POP JUMP JUMPDEST PUSH0 PUSH1 0x20 DUP3 ADD SWAP1 POP SWAP2 SWAP1 POP JUMP JUMPDEST PUSH0 PUSH2 0x1C95 DUP3 PUSH2 0x1AB9 JUMP JUMPDEST PUSH2 0x1C9F DUP2 DUP6 PUSH2 0x1AC3 JUMP JUMPDEST SWAP4 POP DUP4 PUSH1 0x20 DUP3 MUL DUP6 ADD PUSH2 0x1CB1 DUP6 PUSH2 0x1AD3 JUMP JUMPDEST DUP1 PUSH0 JUMPDEST DUP6 DUP2 LT ISZERO PUSH2 0x1CEC JUMPI DUP5 DUP5 SUB DUP10 MSTORE DUP2 MLOAD PUSH2 0x1CCD DUP6 DUP3 PUSH2 0x1C6C JUMP JUMPDEST SWAP5 POP PUSH2 0x1CD8 DUP4 PUSH2 0x1C7F JUMP JUMPDEST SWAP3 POP PUSH1 0x20 DUP11 ADD SWAP10 POP POP PUSH1 0x1 DUP2 ADD SWAP1 POP PUSH2 0x1CB4 JUMP JUMPDEST POP DUP3 SWAP8 POP DUP8 SWAP6 POP POP POP POP POP POP SWAP3 SWAP2 POP POP JUMP JUMPDEST PUSH0 PUSH1 0x20 DUP3 ADD SWAP1 POP DUP2 DUP2 SUB PUSH0 DUP4 ADD MSTORE PUSH2 0x1D16 DUP2 DUP5 PUSH2 0x1C8B JUMP JUMPDEST SWAP1 POP SWAP3 SWAP2 POP POP JUMP JUMPDEST PUSH2 0x1D27 DUP2 PUSH2 0x1BC6 JUMP JUMPDEST DUP3 MSTORE POP POP JUMP JUMPDEST PUSH0 PUSH1 0x20 DUP3 ADD SWAP1 POP PUSH2 0x1D40 PUSH0 DUP4 ADD DUP5 PUSH2 0x1D1E JUMP JUMPDEST SWAP3 SWAP2 POP POP JUMP JUMPDEST PUSH0 DUP2 MLOAD SWAP1 POP SWAP2 SWAP1 POP JUMP JUMPDEST PUSH0 DUP3 DUP3 MSTORE PUSH1 0x20 DUP3 ADD SWAP1 POP SWAP3 SWAP2 POP POP JUMP JUMPDEST PUSH0 DUP2 SWAP1 POP PUSH1 0x20 DUP3 ADD SWAP1 POP SWAP2 SWAP1 POP JUMP JUMPDEST PUSH0 PUSH1 0xE0 DUP4 ADD PUSH0 DUP4 ADD MLOAD DUP5 DUP3 SUB PUSH0 DUP7 ADD MSTORE PUSH2 0x1D89 DUP3 DUP3 PUSH2 0x1B1A JUMP JUMPDEST SWAP2 POP POP PUSH1 0x20 DUP4 ADD MLOAD DUP5 DUP3 SUB PUSH1 0x20 DUP7 ADD MSTORE PUSH2 0x1DA3 DUP3 DUP3 PUSH2 0x1B1A JUMP JUMPDEST SWAP2 POP POP PUSH1 0x40 DUP4 ADD MLOAD PUSH2 0x1DB8 PUSH1 0x40 DUP7 ADD DUP3 PUSH2 0x1B52 JUMP JUMPDEST POP PUSH1 0x60 DUP4 ADD MLOAD PUSH2 0x1DCB PUSH1 0x60 DUP7 ADD DUP3 PUSH2 0x1B98 JUMP JUMPDEST POP PUSH1 0x80 DUP4 ADD MLOAD PUSH2 0x1DDE PUSH1 0x80 DUP7 ADD DUP3 PUSH2 0x1B52 JUMP JUMPDEST POP PUSH1 0xA0 DUP4 ADD MLOAD PUSH2 0x1DF1 PUSH1 0xA0 DUP7 ADD DUP3 PUSH2 0x1BD7 JUMP JUMPDEST POP PUSH1 0xC0 DUP4 ADD MLOAD PUSH2 0x1E04 PUSH1 0xC0 DUP7 ADD DUP3 PUSH2 0x1B52 JUMP JUMPDEST POP DUP1 SWAP2 POP POP SWAP3 SWAP2 POP POP JUMP JUMPDEST PUSH0 PUSH2 0x1E1A DUP4 DUP4 PUSH2 0x1D6F JUMP JUMPDEST SWAP1 POP SWAP3 SWAP2 POP POP JUMP JUMPDEST PUSH0 PUSH1 0x20 DUP3 ADD SWAP1 POP SWAP2 SWAP1 POP JUMP JUMPDEST PUSH0 PUSH2 0x1E38 DUP3 PUSH2 0x1D46 JUMP JUMPDEST PUSH2 0x1E42 DUP2 DUP6 PUSH2 0x1D50 JUMP JUMPDEST SWAP4 POP DUP4 PUSH1 0x20 DUP3 MUL DUP6 ADD PUSH2 0x1E54 DUP6 PUSH2 0x1D60 JUMP JUMPDEST DUP1 PUSH0 JUMPDEST DUP6 DUP2 LT ISZERO PUSH2 0x1E8F JUMPI DUP5 DUP5 SUB DUP10 MSTORE DUP2 MLOAD PUSH2 0x1E70 DUP6 DUP3 PUSH2 0x1E0F JUMP JUMPDEST SWAP5 POP PUSH2 0x1E7B DUP4 PUSH2 0x1E22 JUMP JUMPDEST SWAP3 POP PUSH1 0x20 DUP11 ADD SWAP10 POP POP PUSH1 0x1 DUP2 ADD SWAP1 POP PUSH2 0x1E57 JUMP JUMPDEST POP DUP3 SWAP8 POP DUP8 SWAP6 POP POP POP POP POP POP SWAP3 SWAP2 POP POP JUMP JUMPDEST PUSH0 PUSH1 0x20 DUP3 ADD SWAP1 POP DUP2 DUP2 SUB PUSH0 DUP4 ADD MSTORE PUSH2 0x1EB9 DUP2 DUP5 PUSH2 0x1E2E JUMP JUMPDEST SWAP1 POP SWAP3 SWAP2 POP POP JUMP JUMPDEST PUSH0 DUP3 DUP3 MSTORE PUSH1 0x20 DUP3 ADD SWAP1 POP SWAP3 SWAP2 POP POP JUMP JUMPDEST PUSH32 0x566F74696E67206973204F766572202100000000000000000000000000000000 PUSH0 DUP3 ADD MSTORE POP JUMP JUMPDEST PUSH0 PUSH2 0x1F05 PUSH1 0x10 DUP4 PUSH2 0x1EC1 JUMP JUMPDEST SWAP2 POP PUSH2 0x1F10 DUP3 PUSH2 0x1ED1 JUMP JUMPDEST PUSH1 0x20 DUP3 ADD SWAP1 POP SWAP2 SWAP1 POP JUMP JUMPDEST PUSH0 PUSH1 0x20 DUP3 ADD SWAP1 POP DUP2 DUP2 SUB PUSH0 DUP4 ADD MSTORE PUSH2 0x1F32 DUP2 PUSH2 0x1EF9 JUMP JUMPDEST SWAP1 POP SWAP2 SWAP1 POP JUMP JUMPDEST PUSH32 0x596F75206861766520616C72656164792063617374656420616E20766F746520 PUSH0 DUP3 ADD MSTORE PUSH32 0x2100000000000000000000000000000000000000000000000000000000000000 PUSH1 0x20 DUP3 ADD MSTORE POP JUMP JUMPDEST PUSH0 PUSH2 0x1F93 PUSH1 0x21 DUP4 PUSH2 0x1EC1 JUMP JUMPDEST SWAP2 POP PUSH2 0x1F9E DUP3 PUSH2 0x1F39 JUMP JUMPDEST PUSH1 0x40 DUP3 ADD SWAP1 POP SWAP2 SWAP1 POP JUMP JUMPDEST PUSH0 PUSH1 0x20 DUP3 ADD SWAP1 POP DUP2 DUP2 SUB PUSH0 DUP4 ADD MSTORE PUSH2 0x1FC0 DUP2 PUSH2 0x1F87 JUMP JUMPDEST SWAP1 POP SWAP2 SWAP1 POP JUMP JUMPDEST PUSH32 0x506C6561736520566F74652077697468207468652073616D6520726567697374 PUSH0 DUP3 ADD MSTORE PUSH32 0x6572656420766F7465722069642E000000000000000000000000000000000000 PUSH1 0x20 DUP3 ADD MSTORE POP JUMP JUMPDEST PUSH0 PUSH2 0x2021 PUSH1 0x2E DUP4 PUSH2 0x1EC1 JUMP JUMPDEST SWAP2 POP PUSH2 0x202C DUP3 PUSH2 0x1FC7 JUMP JUMPDEST PUSH1 0x40 DUP3 ADD SWAP1 POP SWAP2 SWAP1 POP JUMP JUMPDEST PUSH0 PUSH1 0x20 DUP3 ADD SWAP1 POP DUP2 DUP2 SUB PUSH0 DUP4 ADD MSTORE PUSH2 0x204E DUP2 PUSH2 0x2015 JUMP JUMPDEST SWAP1 POP SWAP2 SWAP1 POP JUMP JUMPDEST PUSH32 0x546869732043616E646964617465206973206E6F742072656769737465726564 PUSH0 DUP3 ADD MSTORE PUSH32 0x2021000000000000000000000000000000000000000000000000000000000000 PUSH1 0x20 DUP3 ADD MSTORE POP JUMP JUMPDEST PUSH0 PUSH2 0x20AF PUSH1 0x22 DUP4 PUSH2 0x1EC1 JUMP JUMPDEST SWAP2 POP PUSH2 0x20BA DUP3 PUSH2 0x2055 JUMP JUMPDEST PUSH1 0x40 DUP3 ADD SWAP1 POP SWAP2 SWAP1 POP JUMP JUMPDEST PUSH0 PUSH1 0x20 DUP3 ADD SWAP1 POP DUP2 DUP2 SUB PUSH0 DUP4 ADD MSTORE PUSH2 0x20DC DUP2 PUSH2 0x20A3 JUMP JUMPDEST SWAP1 POP SWAP2 SWAP1 POP JUMP JUMPDEST PUSH32 0x4E487B7100000000000000000000000000000000000000000000000000000000 PUSH0 MSTORE PUSH1 0x11 PUSH1 0x4 MSTORE PUSH1 0x24 PUSH0 REVERT JUMPDEST PUSH0 PUSH2 0x211A DUP3 PUSH2 0x1824 JUMP JUMPDEST SWAP2 POP PUSH32 0xFFFFFFFFFFFFFFFFFFFFFFFFFFFFFFFFFFFFFFFFFFFFFFFFFFFFFFFFFFFFFFFF DUP3 SUB PUSH2 0x214C JUMPI PUSH2 0x214B PUSH2 0x20E3 JUMP JUMPDEST JUMPDEST PUSH1 0x1 DUP3 ADD SWAP1 POP SWAP2 SWAP1 POP JUMP JUMPDEST PUSH32 0x4F6E6C7920456C656374696F6E20436F6D6D697373696F6E2063616E2063616C PUSH0 DUP3 ADD MSTORE PUSH32 0x6C20746869732066756E6374696F6E2021000000000000000000000000000000 PUSH1 0x20 DUP3 ADD MSTORE POP JUMP JUMPDEST PUSH0 PUSH2 0x21B1 PUSH1 0x31 DUP4 PUSH2 0x1EC1 JUMP JUMPDEST SWAP2 POP PUSH2 0x21BC DUP3 PUSH2 0x2157 JUMP JUMPDEST PUSH1 0x40 DUP3 ADD SWAP1 POP SWAP2 SWAP1 POP JUMP JUMPDEST PUSH0 PUSH1 0x20 DUP3 ADD SWAP1 POP DUP2 DUP2 SUB PUSH0 DUP4 ADD MSTORE PUSH2 0x21DE DUP2 PUSH2 0x21A5 JUMP JUMPDEST SWAP1 POP SWAP2 SWAP1 POP JUMP JUMPDEST PUSH32 0x4E6F7420656E6F7567682063616E646964617465732072656769737465726564 PUSH0 DUP3 ADD MSTORE PUSH32 0x2021000000000000000000000000000000000000000000000000000000000000 PUSH1 0x20 DUP3 ADD MSTORE POP JUMP JUMPDEST PUSH0 PUSH2 0x223F PUSH1 0x22 DUP4 PUSH2 0x1EC1 JUMP JUMPDEST SWAP2 POP PUSH2 0x224A DUP3 PUSH2 0x21E5 JUMP JUMPDEST PUSH1 0x40 DUP3 ADD SWAP1 POP SWAP2 SWAP1 POP JUMP JUMPDEST PUSH0 PUSH1 0x20 DUP3 ADD SWAP1 POP DUP2 DUP2 SUB PUSH0 DUP4 ADD MSTORE PUSH2 0x226C DUP2 PUSH2 0x2233 JUMP JUMPDEST SWAP1 POP SWAP2 SWAP1 POP JUMP JUMPDEST PUSH32 0x4E487B7100000000000000000000000000000000000000000000000000000000 PUSH0 MSTORE PUSH1 0x22 PUSH1 0x4 MSTORE PUSH1 0x24 PUSH0 REVERT JUMPDEST PUSH0 PUSH1 0x2 DUP3 DIV SWAP1 POP PUSH1 0x1 DUP3 AND DUP1 PUSH2 0x22B7 JUMPI PUSH1 0x7F DUP3 AND SWAP2 POP JUMPDEST PUSH1 0x20 DUP3 LT DUP2 SUB PUSH2 0x22CA JUMPI PUSH2 0x22C9 PUSH2 0x2273 JUMP JUMPDEST JUMPDEST POP SWAP2 SWAP1 POP JUMP JUMPDEST PUSH32 0x596F752061726520756E646561676520746F206265206120766F746572202100 PUSH0 DUP3 ADD MSTORE POP JUMP JUMPDEST PUSH0 PUSH2 0x2304 PUSH1 0x1F DUP4 PUSH2 0x1EC1 JUMP JUMPDEST SWAP2 POP PUSH2 0x230F DUP3 PUSH2 0x22D0 JUMP JUMPDEST PUSH1 0x20 DUP3 ADD SWAP1 POP SWAP2 SWAP1 POP JUMP JUMPDEST PUSH0 PUSH1 0x20 DUP3 ADD SWAP1 POP DUP2 DUP2 SUB PUSH0 DUP4 ADD MSTORE PUSH2 0x2331 DUP2 PUSH2 0x22F8 JUMP JUMPDEST SWAP1 POP SWAP2 SWAP1 POP JUMP JUMPDEST PUSH32 0x596F75206861766520616C726561647920726567697374657265642061732074 PUSH0 DUP3 ADD MSTORE PUSH32 0x686520766F746572202100000000000000000000000000000000000000000000 PUSH1 0x20 DUP3 ADD MSTORE POP JUMP JUMPDEST PUSH0 PUSH2 0x2392 PUSH1 0x2A DUP4 PUSH2 0x1EC1 JUMP JUMPDEST SWAP2 POP PUSH2 0x239D DUP3 PUSH2 0x2338 JUMP JUMPDEST PUSH1 0x40 DUP3 ADD SWAP1 POP SWAP2 SWAP1 POP JUMP JUMPDEST PUSH0 PUSH1 0x20 DUP3 ADD SWAP1 POP DUP2 DUP2 SUB PUSH0 DUP4 ADD MSTORE PUSH2 0x23BF DUP2 PUSH2 0x2386 JUMP JUMPDEST SWAP1 POP SWAP2 SWAP1 POP JUMP JUMPDEST PUSH32 0x4E487B7100000000000000000000000000000000000000000000000000000000 PUSH0 MSTORE PUSH1 0x41 PUSH1 0x4 MSTORE PUSH1 0x24 PUSH0 REVERT JUMPDEST PUSH0 DUP2 SWAP1 POP DUP2 PUSH0 MSTORE PUSH1 0x20 PUSH0 KECCAK256 SWAP1 POP SWAP2 SWAP1 POP JUMP JUMPDEST PUSH0 PUSH1 0x20 PUSH1 0x1F DUP4 ADD DIV SWAP1 POP SWAP2 SWAP1 POP JUMP JUMPDEST PUSH0 DUP3 DUP3 SHL SWAP1 POP SWAP3 SWAP2 POP POP JUMP JUMPDEST PUSH0 PUSH1 0x8 DUP4 MUL PUSH2 0x244F PUSH32 0xFFFFFFFFFFFFFFFFFFFFFFFFFFFFFFFFFFFFFFFFFFFFFFFFFFFFFFFFFFFFFFFF DUP3 PUSH2 0x2414 JUMP JUMPDEST PUSH2 0x2459 DUP7 DUP4 PUSH2 0x2414 JUMP JUMPDEST SWAP6 POP DUP1 NOT DUP5 AND SWAP4 POP DUP1 DUP7 AND DUP5 OR SWAP3 POP POP POP SWAP4 SWAP3 POP POP POP JUMP JUMPDEST PUSH0 DUP2 SWAP1 POP SWAP2 SWAP1 POP JUMP JUMPDEST PUSH0 PUSH2 0x2494 PUSH2 0x248F PUSH2 0x248A DUP5 PUSH2 0x1824 JUMP JUMPDEST PUSH2 0x2471 JUMP JUMPDEST PUSH2 0x1824 JUMP JUMPDEST SWAP1 POP SWAP2 SWAP1 POP JUMP JUMPDEST PUSH0 DUP2 SWAP1 POP SWAP2 SWAP1 POP JUMP JUMPDEST PUSH2 0x24AD DUP4 PUSH2 0x247A JUMP JUMPDEST PUSH2 0x24C1 PUSH2 0x24B9 DUP3 PUSH2 0x249B JUMP JUMPDEST DUP5 DUP5 SLOAD PUSH2 0x2420 JUMP JUMPDEST DUP3 SSTORE POP POP POP POP JUMP JUMPDEST PUSH0 SWAP1 JUMP JUMPDEST PUSH2 0x24D5 PUSH2 0x24C9 JUMP JUMPDEST PUSH2 0x24E0 DUP2 DUP5 DUP5 PUSH2 0x24A4 JUMP JUMPDEST POP POP POP JUMP JUMPDEST JUMPDEST DUP2 DUP2 LT ISZERO PUSH2 0x2503 JUMPI PUSH2 0x24F8 PUSH0 DUP3 PUSH2 0x24CD JUMP JUMPDEST PUSH1 0x1 DUP2 ADD SWAP1 POP PUSH2 0x24E6 JUMP JUMPDEST POP POP JUMP JUMPDEST PUSH1 0x1F DUP3 GT ISZERO PUSH2 0x2548 JUMPI PUSH2 0x2519 DUP2 PUSH2 0x23F3 JUMP JUMPDEST PUSH2 0x2522 DUP5 PUSH2 0x2405 JUMP JUMPDEST DUP2 ADD PUSH1 0x20 DUP6 LT ISZERO PUSH2 0x2531 JUMPI DUP2 SWAP1 POP JUMPDEST PUSH2 0x2545 PUSH2 0x253D DUP6 PUSH2 0x2405 JUMP JUMPDEST DUP4 ADD DUP3 PUSH2 0x24E5 JUMP JUMPDEST POP POP JUMPDEST POP POP POP JUMP JUMPDEST PUSH0 DUP3 DUP3 SHR SWAP1 POP SWAP3 SWAP2 POP POP JUMP JUMPDEST PUSH0 PUSH2 0x2568 PUSH0 NOT DUP5 PUSH1 0x8 MUL PUSH2 0x254D JUMP JUMPDEST NOT DUP1 DUP4 AND SWAP2 POP POP SWAP3 SWAP2 POP POP JUMP JUMPDEST PUSH0 PUSH2 0x2580 DUP4 DUP4 PUSH2 0x2559 JUMP JUMPDEST SWAP2 POP DUP3 PUSH1 0x2 MUL DUP3 OR SWAP1 POP SWAP3 SWAP2 POP POP JUMP JUMPDEST PUSH2 0x2599 DUP3 PUSH2 0x1AE2 JUMP JUMPDEST PUSH8 0xFFFFFFFFFFFFFFFF DUP2 GT ISZERO PUSH2 0x25B2 JUMPI PUSH2 0x25B1 PUSH2 0x23C6 JUMP JUMPDEST JUMPDEST PUSH2 0x25BC DUP3 SLOAD PUSH2 0x22A0 JUMP JUMPDEST PUSH2 0x25C7 DUP3 DUP3 DUP6 PUSH2 0x2507 JUMP JUMPDEST PUSH0 PUSH1 0x20 SWAP1 POP PUSH1 0x1F DUP4 GT PUSH1 0x1 DUP2 EQ PUSH2 0x25F8 JUMPI PUSH0 DUP5 ISZERO PUSH2 0x25E6 JUMPI DUP3 DUP8 ADD MLOAD SWAP1 POP JUMPDEST PUSH2 0x25F0 DUP6 DUP3 PUSH2 0x2575 JUMP JUMPDEST DUP7 SSTORE POP PUSH2 0x2657 JUMP JUMPDEST PUSH1 0x1F NOT DUP5 AND PUSH2 0x2606 DUP7 PUSH2 0x23F3 JUMP JUMPDEST PUSH0 JUMPDEST DUP3 DUP2 LT ISZERO PUSH2 0x262D JUMPI DUP5 DUP10 ADD MLOAD DUP3 SSTORE PUSH1 0x1 DUP3 ADD SWAP2 POP PUSH1 0x20 DUP6 ADD SWAP5 POP PUSH1 0x20 DUP2 ADD SWAP1 POP PUSH2 0x2608 JUMP JUMPDEST DUP7 DUP4 LT ISZERO PUSH2 0x264A JUMPI DUP5 DUP10 ADD MLOAD PUSH2 0x2646 PUSH1 0x1F DUP10 AND DUP3 PUSH2 0x2559 JUMP JUMPDEST DUP4 SSTORE POP JUMPDEST PUSH1 0x1 PUSH1 0x2 DUP9 MUL ADD DUP9 SSTORE POP POP POP JUMPDEST POP POP POP POP POP POP JUMP JUMPDEST PUSH32 0x596F752061726520746F6F20796F756E67206F72206167656420746F20626520 PUSH0 DUP3 ADD MSTORE PUSH32 0x612063616E646964617465202100000000000000000000000000000000000000 PUSH1 0x20 DUP3 ADD MSTORE POP JUMP JUMPDEST PUSH0 PUSH2 0x26B9 PUSH1 0x2D DUP4 PUSH2 0x1EC1 JUMP JUMPDEST SWAP2 POP PUSH2 0x26C4 DUP3 PUSH2 0x265F JUMP JUMPDEST PUSH1 0x40 DUP3 ADD SWAP1 POP SWAP2 SWAP1 POP JUMP JUMPDEST PUSH0 PUSH1 0x20 DUP3 ADD SWAP1 POP DUP2 DUP2 SUB PUSH0 DUP4 ADD MSTORE PUSH2 0x26E6 DUP2 PUSH2 0x26AD JUMP JUMPDEST SWAP1 POP SWAP2 SWAP1 POP JUMP JUMPDEST PUSH32 0x596F75206861766520616C726561647920726567697374657265642021000000 PUSH0 DUP3 ADD MSTORE POP JUMP JUMPDEST PUSH0 PUSH2 0x2721 PUSH1 0x1D DUP4 PUSH2 0x1EC1 JUMP JUMPDEST SWAP2 POP PUSH2 0x272C DUP3 PUSH2 0x26ED JUMP JUMPDEST PUSH1 0x20 DUP3 ADD SWAP1 POP SWAP2 SWAP1 POP JUMP JUMPDEST PUSH0 PUSH1 0x20 DUP3 ADD SWAP1 POP DUP2 DUP2 SUB PUSH0 DUP4 ADD MSTORE PUSH2 0x274E DUP2 PUSH2 0x2715 JUMP JUMPDEST SWAP1 POP SWAP2 SWAP1 POP JUMP JUMPDEST PUSH32 0x43616E64696461746520726567697374726174696F6E2069732066756C6C2021 PUSH0 DUP3 ADD MSTORE POP JUMP JUMPDEST PUSH0 PUSH2 0x2789 PUSH1 0x20 DUP4 PUSH2 0x1EC1 JUMP JUMPDEST SWAP2 POP PUSH2 0x2794 DUP3 PUSH2 0x2755 JUMP JUMPDEST PUSH1 0x20 DUP3 ADD SWAP1 POP SWAP2 SWAP1 POP JUMP JUMPDEST PUSH0 PUSH1 0x20 DUP3 ADD SWAP1 POP DUP2 DUP2 SUB PUSH0 DUP4 ADD MSTORE PUSH2 0x27B6 DUP2 PUSH2 0x277D JUMP JUMPDEST SWAP1 POP SWAP2 SWAP1 POP JUMP JUMPDEST PUSH32 0x456C656374696F6E20436F6D6D6973696F6E65722063616E2774206265206120 PUSH0 DUP3 ADD MSTORE PUSH32 0x63616E6469646174652021000000000000000000000000000000000000000000 PUSH1 0x20 DUP3 ADD MSTORE POP JUMP JUMPDEST PUSH0 PUSH2 0x2817 PUSH1 0x2B DUP4 PUSH2 0x1EC1 JUMP JUMPDEST SWAP2 POP PUSH2 0x2822 DUP3 PUSH2 0x27BD JUMP JUMPDEST PUSH1 0x40 DUP3 ADD SWAP1 POP SWAP2 SWAP1 POP JUMP JUMPDEST PUSH0 PUSH1 0x20 DUP3 ADD SWAP1 POP DUP2 DUP2 SUB PUSH0 DUP4 ADD MSTORE PUSH2 0x2844 DUP2 PUSH2 0x280B JUMP JUMPDEST SWAP1 POP SWAP2 SWAP1 POP JUMP JUMPDEST PUSH32 0x456E6474696D65206475726174696F6E206D757374206265206D6F7265207468 PUSH0 DUP3 ADD MSTORE PUSH32 0x616E203120686F75722021000000000000000000000000000000000000000000 PUSH1 0x20 DUP3 ADD MSTORE POP JUMP JUMPDEST PUSH0 PUSH2 0x28A5 PUSH1 0x2B DUP4 PUSH2 0x1EC1 JUMP JUMPDEST SWAP2 POP PUSH2 0x28B0 DUP3 PUSH2 0x284B JUMP JUMPDEST PUSH1 0x40 DUP3 ADD SWAP1 POP SWAP2 SWAP1 POP JUMP JUMPDEST PUSH0 PUSH1 0x20 DUP3 ADD SWAP1 POP DUP2 DUP2 SUB PUSH0 DUP4 ADD MSTORE PUSH2 0x28D2 DUP2 PUSH2 0x2899 JUMP JUMPDEST SWAP1 POP SWAP2 SWAP1 POP JUMP JUMPDEST PUSH0 PUSH2 0x28E3 DUP3 PUSH2 0x1824 JUMP JUMPDEST SWAP2 POP PUSH2 0x28EE DUP4 PUSH2 0x1824 JUMP JUMPDEST SWAP3 POP DUP3 DUP3 ADD SWAP1 POP DUP1 DUP3 GT ISZERO PUSH2 0x2906 JUMPI PUSH2 0x2905 PUSH2 0x20E3 JUMP JUMPDEST JUMPDEST SWAP3 SWAP2 POP POP JUMP JUMPDEST PUSH0 PUSH2 0x2916 DUP3 PUSH2 0x1824 JUMP JUMPDEST SWAP2 POP PUSH2 0x2921 DUP4 PUSH2 0x1824 JUMP JUMPDEST SWAP3 POP DUP3 DUP3 SUB SWAP1 POP DUP2 DUP2 GT ISZERO PUSH2 0x2939 JUMPI PUSH2 0x2938 PUSH2 0x20E3 JUMP JUMPDEST JUMPDEST SWAP3 SWAP2 POP POP JUMP JUMPDEST PUSH32 0x4E487B7100000000000000000000000000000000000000000000000000000000 PUSH0 MSTORE PUSH1 0x32 PUSH1 0x4 MSTORE PUSH1 0x24 PUSH0 REVERT INVALID LOG2 PUSH5 0x6970667358 0x22 SLT KECCAK256 DELEGATECALL 0x2D SUB 0xD7 CALLDATACOPY 0xBB STOP PUSH18 0xBF35A804B5DB7782BCEBC15D262C7F5AFC87 DUP11 0xB4 GASLIMIT 0x1E CALLER SGT PUSH5 0x736F6C6343 STOP ADDMOD BYTE STOP CALLER "
				},
				"gasEstimates": {
					"creation": {
						"codeDepositCost": "2131600",
						"executionCost": "70747",
						"totalCost": "2202347"
					},
					"external": {
						"announceVotingResult()": "infinite",
						"castVote(uint256,uint256)": "infinite",
						"emergencyStopVoting()": "26575",
						"getCandidateList()": "infinite",
						"getVoterList()": "infinite",
						"getVotingStatus()": "6871",
						"registerCandidate(string,string,uint256,uint8)": "infinite",
						"registerVoter(string,uint256,uint8)": "infinite",
						"setVotingPeriod(uint256,uint256)": "infinite",
						"winner()": "2574"
					},
					"internal": {
						"isCandidateRegistered(address)": "infinite",
						"isVoterRegistered(address)": "infinite"
					}
				},
				"methodIdentifiers": {
					"announceVotingResult()": "6ce2ccc0",
					"castVote(uint256,uint256)": "2c0a3f89",
					"emergencyStopVoting()": "9fa4e440",
					"getCandidateList()": "fdbc4006",
					"getVoterList()": "b28d92ae",
					"getVotingStatus()": "581c281c",
					"registerCandidate(string,string,uint256,uint8)": "982c777d",
					"registerVoter(string,uint256,uint8)": "81ba732f",
					"setVotingPeriod(uint256,uint256)": "a15a36c7",
					"winner()": "dfbf53ae"
				}
			},
			"storageLayout": {
				"storage": [
					{
						"astId": 33,
						"contract": "contracts/voting.sol:Vote",
						"label": "electionCommission",
						"offset": 0,
						"slot": "0",
						"type": "t_address"
					},
					{
						"astId": 35,
						"contract": "contracts/voting.sol:Vote",
						"label": "winner",
						"offset": 0,
						"slot": "1",
						"type": "t_address"
					},
					{
						"astId": 38,
						"contract": "contracts/voting.sol:Vote",
						"label": "nextVoterId",
						"offset": 0,
						"slot": "2",
						"type": "t_uint256"
					},
					{
						"astId": 41,
						"contract": "contracts/voting.sol:Vote",
						"label": "nextCandidateId",
						"offset": 0,
						"slot": "3",
						"type": "t_uint256"
					},
					{
						"astId": 43,
						"contract": "contracts/voting.sol:Vote",
						"label": "startTime",
						"offset": 0,
						"slot": "4",
						"type": "t_uint256"
					},
					{
						"astId": 45,
						"contract": "contracts/voting.sol:Vote",
						"label": "endTime",
						"offset": 0,
						"slot": "5",
						"type": "t_uint256"
					},
					{
						"astId": 47,
						"contract": "contracts/voting.sol:Vote",
						"label": "stopVoting",
						"offset": 0,
						"slot": "6",
						"type": "t_bool"
					},
					{
						"astId": 50,
						"contract": "contracts/voting.sol:Vote",
						"label": "votingStatus",
						"offset": 1,
						"slot": "6",
						"type": "t_enum(VotingStatus)64"
					},
					{
						"astId": 55,
						"contract": "contracts/voting.sol:Vote",
						"label": "voterDetails",
						"offset": 0,
						"slot": "7",
						"type": "t_mapping(t_uint256,t_struct(Voter)15_storage)"
					},
					{
						"astId": 60,
						"contract": "contracts/voting.sol:Vote",
						"label": "candidateDetails",
						"offset": 0,
						"slot": "8",
						"type": "t_mapping(t_uint256,t_struct(Candidate)31_storage)"
					}
				],
				"types": {
					"t_address": {
						"encoding": "inplace",
						"label": "address",
						"numberOfBytes": "20"
					},
					"t_bool": {
						"encoding": "inplace",
						"label": "bool",
						"numberOfBytes": "1"
					},
					"t_enum(Gender)69": {
						"encoding": "inplace",
						"label": "enum Vote.Gender",
						"numberOfBytes": "1"
					},
					"t_enum(VotingStatus)64": {
						"encoding": "inplace",
						"label": "enum Vote.VotingStatus",
						"numberOfBytes": "1"
					},
					"t_mapping(t_uint256,t_struct(Candidate)31_storage)": {
						"encoding": "mapping",
						"key": "t_uint256",
						"label": "mapping(uint256 => struct Vote.Candidate)",
						"numberOfBytes": "32",
						"value": "t_struct(Candidate)31_storage"
					},
					"t_mapping(t_uint256,t_struct(Voter)15_storage)": {
						"encoding": "mapping",
						"key": "t_uint256",
						"label": "mapping(uint256 => struct Vote.Voter)",
						"numberOfBytes": "32",
						"value": "t_struct(Voter)15_storage"
					},
					"t_string_storage": {
						"encoding": "bytes",
						"label": "string",
						"numberOfBytes": "32"
					},
					"t_struct(Candidate)31_storage": {
						"encoding": "inplace",
						"label": "struct Vote.Candidate",
						"members": [
							{
								"astId": 17,
								"contract": "contracts/voting.sol:Vote",
								"label": "name",
								"offset": 0,
								"slot": "0",
								"type": "t_string_storage"
							},
							{
								"astId": 19,
								"contract": "contracts/voting.sol:Vote",
								"label": "party",
								"offset": 0,
								"slot": "1",
								"type": "t_string_storage"
							},
							{
								"astId": 21,
								"contract": "contracts/voting.sol:Vote",
								"label": "age",
								"offset": 0,
								"slot": "2",
								"type": "t_uint256"
							},
							{
								"astId": 24,
								"contract": "contracts/voting.sol:Vote",
								"label": "gender",
								"offset": 0,
								"slot": "3",
								"type": "t_enum(Gender)69"
							},
							{
								"astId": 26,
								"contract": "contracts/voting.sol:Vote",
								"label": "candidateId",
								"offset": 0,
								"slot": "4",
								"type": "t_uint256"
							},
							{
								"astId": 28,
								"contract": "contracts/voting.sol:Vote",
								"label": "candidateAddress",
								"offset": 0,
								"slot": "5",
								"type": "t_address"
							},
							{
								"astId": 30,
								"contract": "contracts/voting.sol:Vote",
								"label": "votes",
								"offset": 0,
								"slot": "6",
								"type": "t_uint256"
							}
						],
						"numberOfBytes": "224"
					},
					"t_struct(Voter)15_storage": {
						"encoding": "inplace",
						"label": "struct Vote.Voter",
						"members": [
							{
								"astId": 3,
								"contract": "contracts/voting.sol:Vote",
								"label": "name",
								"offset": 0,
								"slot": "0",
								"type": "t_string_storage"
							},
							{
								"astId": 5,
								"contract": "contracts/voting.sol:Vote",
								"label": "age",
								"offset": 0,
								"slot": "1",
								"type": "t_uint256"
							},
							{
								"astId": 7,
								"contract": "contracts/voting.sol:Vote",
								"label": "voterId",
								"offset": 0,
								"slot": "2",
								"type": "t_uint256"
							},
							{
								"astId": 10,
								"contract": "contracts/voting.sol:Vote",
								"label": "gender",
								"offset": 0,
								"slot": "3",
								"type": "t_enum(Gender)69"
							},
							{
								"astId": 12,
								"contract": "contracts/voting.sol:Vote",
								"label": "voteCandidateId",
								"offset": 0,
								"slot": "4",
								"type": "t_uint256"
							},
							{
								"astId": 14,
								"contract": "contracts/voting.sol:Vote",
								"label": "voterAddress",
								"offset": 0,
								"slot": "5",
								"type": "t_address"
							}
						],
						"numberOfBytes": "192"
					},
					"t_uint256": {
						"encoding": "inplace",
						"label": "uint256",
						"numberOfBytes": "32"
					}
				}
			},
			"userdoc": {
				"kind": "user",
				"methods": {},
				"version": 1
			}
		}
	}
}