{
	"contracts/abi.sol": {
		"AbiEncode": {
			"abi": [
				{
					"inputs": [
						{
							"internalType": "address",
							"name": "_recipent",
							"type": "address"
						},
						{
							"internalType": "uint256",
							"name": "_amount",
							"type": "uint256"
						}
					],
					"name": "abiEncodeCall",
					"outputs": [
						{
							"internalType": "bytes",
							"name": "",
							"type": "bytes"
						}
					],
					"stateMutability": "pure",
					"type": "function"
				},
				{
					"inputs": [
						{
							"internalType": "address",
							"name": "_recipent",
							"type": "address"
						},
						{
							"internalType": "uint256",
							"name": "_amount",
							"type": "uint256"
						}
					],
					"name": "abiEncodeWithSelector",
					"outputs": [
						{
							"internalType": "bytes",
							"name": "",
							"type": "bytes"
						}
					],
					"stateMutability": "pure",
					"type": "function"
				},
				{
					"inputs": [
						{
							"internalType": "address",
							"name": "_recipent",
							"type": "address"
						},
						{
							"internalType": "uint256",
							"name": "_amount",
							"type": "uint256"
						}
					],
					"name": "abiEncodeWithSignature",
					"outputs": [
						{
							"internalType": "bytes",
							"name": "",
							"type": "bytes"
						}
					],
					"stateMutability": "pure",
					"type": "function"
				},
				{
					"inputs": [
						{
							"internalType": "address",
							"name": "_tokenAddr",
							"type": "address"
						},
						{
							"internalType": "bytes",
							"name": "_data",
							"type": "bytes"
						}
					],
					"name": "tokenContractTransferEncode",
					"outputs": [
						{
							"internalType": "bool",
							"name": "",
							"type": "bool"
						}
					],
					"stateMutability": "nonpayable",
					"type": "function"
				},
				{
					"inputs": [
						{
							"internalType": "address",
							"name": "_tokenAddr",
							"type": "address"
						},
						{
							"internalType": "address",
							"name": "_recipent",
							"type": "address"
						},
						{
							"internalType": "uint256",
							"name": "_amount",
							"type": "uint256"
						}
					],
					"name": "tokenContractTransferInshort",
					"outputs": [
						{
							"internalType": "bytes",
							"name": "",
							"type": "bytes"
						}
					],
					"stateMutability": "nonpayable",
					"type": "function"
				}
			],
			"devdoc": {
				"kind": "dev",
				"methods": {},
				"version": 1
			},
			"evm": {
				"assembly": "    /* \"contracts/abi.sol\":348:1797  contract AbiEncode {... */\n  mstore(0x40, 0x80)\n  callvalue\n  dup1\n  iszero\n  tag_1\n  jumpi\n  0x00\n  dup1\n  revert\ntag_1:\n  pop\n  dataSize(sub_0)\n  dup1\n  dataOffset(sub_0)\n  0x00\n  codecopy\n  0x00\n  return\nstop\n\nsub_0: assembly {\n        /* \"contracts/abi.sol\":348:1797  contract AbiEncode {... */\n      mstore(0x40, 0x80)\n      callvalue\n      dup1\n      iszero\n      tag_1\n      jumpi\n      0x00\n      dup1\n      revert\n    tag_1:\n      pop\n      jumpi(tag_2, lt(calldatasize, 0x04))\n      shr(0xe0, calldataload(0x00))\n      dup1\n      0x268fe504\n      eq\n      tag_3\n      jumpi\n      dup1\n      0x3d6c432a\n      eq\n      tag_4\n      jumpi\n      dup1\n      0x45395932\n      eq\n      tag_5\n      jumpi\n      dup1\n      0x822f4aab\n      eq\n      tag_6\n      jumpi\n      dup1\n      0xcc7a9b6d\n      eq\n      tag_7\n      jumpi\n    tag_2:\n      0x00\n      dup1\n      revert\n        /* \"contracts/abi.sol\":1294:1590  function abiEncodeWithSelector(address _recipent, uint256 _amount)... */\n    tag_3:\n      tag_8\n      0x04\n      dup1\n      calldatasize\n      sub\n      dup2\n      add\n      swap1\n      tag_9\n      swap2\n      swap1\n      tag_10\n      jump\t// in\n    tag_9:\n      tag_11\n      jump\t// in\n    tag_8:\n      mload(0x40)\n      tag_12\n      swap2\n      swap1\n      tag_13\n      jump\t// in\n    tag_12:\n      mload(0x40)\n      dup1\n      swap2\n      sub\n      swap1\n      return\n        /* \"contracts/abi.sol\":986:1288  function abiEncodeWithSignature(address _recipent, uint256 _amount)... */\n    tag_4:\n      tag_14\n      0x04\n      dup1\n      calldatasize\n      sub\n      dup2\n      add\n      swap1\n      tag_15\n      swap2\n      swap1\n      tag_10\n      jump\t// in\n    tag_15:\n      tag_16\n      jump\t// in\n    tag_14:\n      mload(0x40)\n      tag_17\n      swap2\n      swap1\n      tag_13\n      jump\t// in\n    tag_17:\n      mload(0x40)\n      dup1\n      swap2\n      sub\n      swap1\n      return\n        /* \"contracts/abi.sol\":570:980  function tokenContractTransferInshort(... */\n    tag_5:\n      tag_18\n      0x04\n      dup1\n      calldatasize\n      sub\n      dup2\n      add\n      swap1\n      tag_19\n      swap2\n      swap1\n      tag_20\n      jump\t// in\n    tag_19:\n      tag_21\n      jump\t// in\n    tag_18:\n      mload(0x40)\n      tag_22\n      swap2\n      swap1\n      tag_13\n      jump\t// in\n    tag_22:\n      mload(0x40)\n      dup1\n      swap2\n      sub\n      swap1\n      return\n        /* \"contracts/abi.sol\":1596:1795  function abiEncodeCall(address _recipent, uint256 _amount)... */\n    tag_6:\n      tag_23\n      0x04\n      dup1\n      calldatasize\n      sub\n      dup2\n      add\n      swap1\n      tag_24\n      swap2\n      swap1\n      tag_10\n      jump\t// in\n    tag_24:\n      tag_25\n      jump\t// in\n    tag_23:\n      mload(0x40)\n      tag_26\n      swap2\n      swap1\n      tag_13\n      jump\t// in\n    tag_26:\n      mload(0x40)\n      dup1\n      swap2\n      sub\n      swap1\n      return\n        /* \"contracts/abi.sol\":373:564  function tokenContractTransferEncode(address _tokenAddr, bytes memory _data)... */\n    tag_7:\n      tag_27\n      0x04\n      dup1\n      calldatasize\n      sub\n      dup2\n      add\n      swap1\n      tag_28\n      swap2\n      swap1\n      tag_29\n      jump\t// in\n    tag_28:\n      tag_30\n      jump\t// in\n    tag_27:\n      mload(0x40)\n      tag_31\n      swap2\n      swap1\n      tag_32\n      jump\t// in\n    tag_31:\n      mload(0x40)\n      dup1\n      swap2\n      sub\n      swap1\n      return\n        /* \"contracts/abi.sol\":1294:1590  function abiEncodeWithSelector(address _recipent, uint256 _amount)... */\n    tag_11:\n        /* \"contracts/abi.sol\":1406:1418  bytes memory */\n      0x60\n        /* \"contracts/abi.sol\":1493:1517  IERC20.transfer.selector */\n      shl(0xe0, 0xa9059cbb)\n        /* \"contracts/abi.sol\":1535:1544  _recipent */\n      dup4\n        /* \"contracts/abi.sol\":1562:1569  _amount */\n      dup4\n        /* \"contracts/abi.sol\":1453:1583  abi.encodeWithSelector(... */\n      add(0x24, mload(0x40))\n      tag_34\n      swap3\n      swap2\n      swap1\n      tag_35\n      jump\t// in\n    tag_34:\n      mload(0x40)\n      0x20\n      dup2\n      dup4\n      sub\n      sub\n      dup2\n      mstore\n      swap1\n      0x40\n      mstore\n      swap1\n      not(0xffffffffffffffffffffffffffffffffffffffffffffffffffffffff)\n      and\n      0x20\n      dup3\n      add\n      dup1\n      mload\n      0xffffffffffffffffffffffffffffffffffffffffffffffffffffffff\n      dup4\n      dup2\n      dup4\n      and\n      or\n      dup4\n      mstore\n      pop\n      pop\n      pop\n      pop\n        /* \"contracts/abi.sol\":1434:1583  return... */\n      swap1\n      pop\n        /* \"contracts/abi.sol\":1294:1590  function abiEncodeWithSelector(address _recipent, uint256 _amount)... */\n      swap3\n      swap2\n      pop\n      pop\n      jump\t// out\n        /* \"contracts/abi.sol\":986:1288  function abiEncodeWithSignature(address _recipent, uint256 _amount)... */\n    tag_16:\n        /* \"contracts/abi.sol\":1099:1111  bytes memory */\n      0x60\n        /* \"contracts/abi.sol\":1233:1242  _recipent */\n      dup3\n        /* \"contracts/abi.sol\":1260:1267  _amount */\n      dup3\n        /* \"contracts/abi.sol\":1146:1281  abi.encodeWithSignature(... */\n      add(0x24, mload(0x40))\n      tag_37\n      swap3\n      swap2\n      swap1\n      tag_35\n      jump\t// in\n    tag_37:\n      mload(0x40)\n      0x20\n      dup2\n      dup4\n      sub\n      sub\n      dup2\n      mstore\n      swap1\n      0x40\n      mstore\n      and(not(0xffffffffffffffffffffffffffffffffffffffffffffffffffffffff), 0x9d61d23400000000000000000000000000000000000000000000000000000000)\n      0x20\n      dup3\n      add\n      dup1\n      mload\n      0xffffffffffffffffffffffffffffffffffffffffffffffffffffffff\n      dup4\n      dup2\n      dup4\n      and\n      or\n      dup4\n      mstore\n      pop\n      pop\n      pop\n      pop\n        /* \"contracts/abi.sol\":1127:1281  return... */\n      swap1\n      pop\n        /* \"contracts/abi.sol\":986:1288  function abiEncodeWithSignature(address _recipent, uint256 _amount)... */\n      swap3\n      swap2\n      pop\n      pop\n      jump\t// out\n        /* \"contracts/abi.sol\":570:980  function tokenContractTransferInshort(... */\n    tag_21:\n        /* \"contracts/abi.sol\":710:722  bytes memory */\n      0x60\n        /* \"contracts/abi.sol\":734:751  bytes memory data */\n      0x00\n        /* \"contracts/abi.sol\":812:821  _recipent */\n      dup4\n        /* \"contracts/abi.sol\":823:830  _amount */\n      dup4\n        /* \"contracts/abi.sol\":754:841  abi.encodeCall(... */\n      add(0x24, mload(0x40))\n      tag_39\n      swap3\n      swap2\n      swap1\n      tag_35\n      jump\t// in\n    tag_39:\n      mload(0x40)\n      0x20\n      dup2\n      dup4\n      sub\n      sub\n      dup2\n      mstore\n      swap1\n      0x40\n      mstore\n      shl(0xe0, 0xa9059cbb)\n      0x20\n      dup3\n      add\n      dup1\n      mload\n      0xffffffffffffffffffffffffffffffffffffffffffffffffffffffff\n      dup4\n      dup2\n      dup4\n      and\n      or\n      dup4\n      mstore\n      pop\n      pop\n      pop\n      pop\n        /* \"contracts/abi.sol\":734:841  bytes memory data = abi.encodeCall(... */\n      swap1\n      pop\n        /* \"contracts/abi.sol\":852:859  bool ok */\n      0x00\n        /* \"contracts/abi.sol\":861:880  bytes memory result */\n      dup1\n        /* \"contracts/abi.sol\":884:894  _tokenAddr */\n      dup7\n        /* \"contracts/abi.sol\":884:899  _tokenAddr.call */\n      0xffffffffffffffffffffffffffffffffffffffff\n      and\n        /* \"contracts/abi.sol\":900:904  data */\n      dup4\n        /* \"contracts/abi.sol\":884:905  _tokenAddr.call(data) */\n      mload(0x40)\n      tag_40\n      swap2\n      swap1\n      tag_41\n      jump\t// in\n    tag_40:\n      0x00\n      mload(0x40)\n      dup1\n      dup4\n      sub\n      dup2\n      0x00\n      dup7\n      gas\n      call\n      swap2\n      pop\n      pop\n      returndatasize\n      dup1\n      0x00\n      dup2\n      eq\n      tag_44\n      jumpi\n      mload(0x40)\n      swap2\n      pop\n      and(add(returndatasize, 0x3f), not(0x1f))\n      dup3\n      add\n      0x40\n      mstore\n      returndatasize\n      dup3\n      mstore\n      returndatasize\n      0x00\n      0x20\n      dup5\n      add\n      returndatacopy\n      jump(tag_43)\n    tag_44:\n      0x60\n      swap2\n      pop\n    tag_43:\n      pop\n        /* \"contracts/abi.sol\":851:905  (bool ok, bytes memory result) = _tokenAddr.call(data) */\n      swap2\n      pop\n      swap2\n      pop\n        /* \"contracts/abi.sol\":923:925  ok */\n      dup2\n        /* \"contracts/abi.sol\":915:950  require(ok, \"Transaction Failed !\") */\n      tag_45\n      jumpi\n      mload(0x40)\n      0x08c379a000000000000000000000000000000000000000000000000000000000\n      dup2\n      mstore\n      0x04\n      add\n      tag_46\n      swap1\n      tag_47\n      jump\t// in\n    tag_46:\n      mload(0x40)\n      dup1\n      swap2\n      sub\n      swap1\n      revert\n    tag_45:\n        /* \"contracts/abi.sol\":967:973  result */\n      dup1\n        /* \"contracts/abi.sol\":960:973  return result */\n      swap4\n      pop\n      pop\n      pop\n      pop\n        /* \"contracts/abi.sol\":570:980  function tokenContractTransferInshort(... */\n      swap4\n      swap3\n      pop\n      pop\n      pop\n      jump\t// out\n        /* \"contracts/abi.sol\":1596:1795  function abiEncodeCall(address _recipent, uint256 _amount)... */\n    tag_25:\n        /* \"contracts/abi.sol\":1700:1712  bytes memory */\n      0x60\n        /* \"contracts/abi.sol\":1768:1777  _recipent */\n      dup3\n        /* \"contracts/abi.sol\":1779:1786  _amount */\n      dup3\n        /* \"contracts/abi.sol\":1735:1788  abi.encodeCall(IERC20.transfer, (_recipent, _amount)) */\n      add(0x24, mload(0x40))\n      tag_49\n      swap3\n      swap2\n      swap1\n      tag_35\n      jump\t// in\n    tag_49:\n      mload(0x40)\n      0x20\n      dup2\n      dup4\n      sub\n      sub\n      dup2\n      mstore\n      swap1\n      0x40\n      mstore\n      shl(0xe0, 0xa9059cbb)\n      0x20\n      dup3\n      add\n      dup1\n      mload\n      0xffffffffffffffffffffffffffffffffffffffffffffffffffffffff\n      dup4\n      dup2\n      dup4\n      and\n      or\n      dup4\n      mstore\n      pop\n      pop\n      pop\n      pop\n        /* \"contracts/abi.sol\":1728:1788  return abi.encodeCall(IERC20.transfer, (_recipent, _amount)) */\n      swap1\n      pop\n        /* \"contracts/abi.sol\":1596:1795  function abiEncodeCall(address _recipent, uint256 _amount)... */\n      swap3\n      swap2\n      pop\n      pop\n      jump\t// out\n        /* \"contracts/abi.sol\":373:564  function tokenContractTransferEncode(address _tokenAddr, bytes memory _data)... */\n    tag_30:\n        /* \"contracts/abi.sol\":482:486  bool */\n      0x00\n        /* \"contracts/abi.sol\":503:510  bool ok */\n      dup1\n        /* \"contracts/abi.sol\":516:526  _tokenAddr */\n      dup4\n        /* \"contracts/abi.sol\":516:531  _tokenAddr.call */\n      0xffffffffffffffffffffffffffffffffffffffff\n      and\n        /* \"contracts/abi.sol\":532:537  _data */\n      dup4\n        /* \"contracts/abi.sol\":516:538  _tokenAddr.call(_data) */\n      mload(0x40)\n      tag_51\n      swap2\n      swap1\n      tag_41\n      jump\t// in\n    tag_51:\n      0x00\n      mload(0x40)\n      dup1\n      dup4\n      sub\n      dup2\n      0x00\n      dup7\n      gas\n      call\n      swap2\n      pop\n      pop\n      returndatasize\n      dup1\n      0x00\n      dup2\n      eq\n      tag_54\n      jumpi\n      mload(0x40)\n      swap2\n      pop\n      and(add(returndatasize, 0x3f), not(0x1f))\n      dup3\n      add\n      0x40\n      mstore\n      returndatasize\n      dup3\n      mstore\n      returndatasize\n      0x00\n      0x20\n      dup5\n      add\n      returndatacopy\n      jump(tag_53)\n    tag_54:\n      0x60\n      swap2\n      pop\n    tag_53:\n      pop\n        /* \"contracts/abi.sol\":502:538  (bool ok, ) = _tokenAddr.call(_data) */\n      pop\n      swap1\n      pop\n        /* \"contracts/abi.sol\":555:557  ok */\n      dup1\n        /* \"contracts/abi.sol\":548:557  return ok */\n      swap2\n      pop\n      pop\n        /* \"contracts/abi.sol\":373:564  function tokenContractTransferEncode(address _tokenAddr, bytes memory _data)... */\n      swap3\n      swap2\n      pop\n      pop\n      jump\t// out\n        /* \"#utility.yul\":7:82   */\n    tag_55:\n        /* \"#utility.yul\":40:46   */\n      0x00\n        /* \"#utility.yul\":73:75   */\n      0x40\n        /* \"#utility.yul\":67:76   */\n      mload\n        /* \"#utility.yul\":57:76   */\n      swap1\n      pop\n        /* \"#utility.yul\":7:82   */\n      swap1\n      jump\t// out\n        /* \"#utility.yul\":88:205   */\n    tag_56:\n        /* \"#utility.yul\":197:198   */\n      0x00\n        /* \"#utility.yul\":194:195   */\n      dup1\n        /* \"#utility.yul\":187:199   */\n      revert\n        /* \"#utility.yul\":211:328   */\n    tag_57:\n        /* \"#utility.yul\":320:321   */\n      0x00\n        /* \"#utility.yul\":317:318   */\n      dup1\n        /* \"#utility.yul\":310:322   */\n      revert\n        /* \"#utility.yul\":334:460   */\n    tag_58:\n        /* \"#utility.yul\":371:378   */\n      0x00\n        /* \"#utility.yul\":411:453   */\n      0xffffffffffffffffffffffffffffffffffffffff\n        /* \"#utility.yul\":404:409   */\n      dup3\n        /* \"#utility.yul\":400:454   */\n      and\n        /* \"#utility.yul\":389:454   */\n      swap1\n      pop\n        /* \"#utility.yul\":334:460   */\n      swap2\n      swap1\n      pop\n      jump\t// out\n        /* \"#utility.yul\":466:562   */\n    tag_59:\n        /* \"#utility.yul\":503:510   */\n      0x00\n        /* \"#utility.yul\":532:556   */\n      tag_94\n        /* \"#utility.yul\":550:555   */\n      dup3\n        /* \"#utility.yul\":532:556   */\n      tag_58\n      jump\t// in\n    tag_94:\n        /* \"#utility.yul\":521:556   */\n      swap1\n      pop\n        /* \"#utility.yul\":466:562   */\n      swap2\n      swap1\n      pop\n      jump\t// out\n        /* \"#utility.yul\":568:690   */\n    tag_60:\n        /* \"#utility.yul\":641:665   */\n      tag_96\n        /* \"#utility.yul\":659:664   */\n      dup2\n        /* \"#utility.yul\":641:665   */\n      tag_59\n      jump\t// in\n    tag_96:\n        /* \"#utility.yul\":634:639   */\n      dup2\n        /* \"#utility.yul\":631:666   */\n      eq\n        /* \"#utility.yul\":621:684   */\n      tag_97\n      jumpi\n        /* \"#utility.yul\":680:681   */\n      0x00\n        /* \"#utility.yul\":677:678   */\n      dup1\n        /* \"#utility.yul\":670:682   */\n      revert\n        /* \"#utility.yul\":621:684   */\n    tag_97:\n        /* \"#utility.yul\":568:690   */\n      pop\n      jump\t// out\n        /* \"#utility.yul\":696:835   */\n    tag_61:\n        /* \"#utility.yul\":742:747   */\n      0x00\n        /* \"#utility.yul\":780:786   */\n      dup2\n        /* \"#utility.yul\":767:787   */\n      calldataload\n        /* \"#utility.yul\":758:787   */\n      swap1\n      pop\n        /* \"#utility.yul\":796:829   */\n      tag_99\n        /* \"#utility.yul\":823:828   */\n      dup2\n        /* \"#utility.yul\":796:829   */\n      tag_60\n      jump\t// in\n    tag_99:\n        /* \"#utility.yul\":696:835   */\n      swap3\n      swap2\n      pop\n      pop\n      jump\t// out\n        /* \"#utility.yul\":841:918   */\n    tag_62:\n        /* \"#utility.yul\":878:885   */\n      0x00\n        /* \"#utility.yul\":907:912   */\n      dup2\n        /* \"#utility.yul\":896:912   */\n      swap1\n      pop\n        /* \"#utility.yul\":841:918   */\n      swap2\n      swap1\n      pop\n      jump\t// out\n        /* \"#utility.yul\":924:1046   */\n    tag_63:\n        /* \"#utility.yul\":997:1021   */\n      tag_102\n        /* \"#utility.yul\":1015:1020   */\n      dup2\n        /* \"#utility.yul\":997:1021   */\n      tag_62\n      jump\t// in\n    tag_102:\n        /* \"#utility.yul\":990:995   */\n      dup2\n        /* \"#utility.yul\":987:1022   */\n      eq\n        /* \"#utility.yul\":977:1040   */\n      tag_103\n      jumpi\n        /* \"#utility.yul\":1036:1037   */\n      0x00\n        /* \"#utility.yul\":1033:1034   */\n      dup1\n        /* \"#utility.yul\":1026:1038   */\n      revert\n        /* \"#utility.yul\":977:1040   */\n    tag_103:\n        /* \"#utility.yul\":924:1046   */\n      pop\n      jump\t// out\n        /* \"#utility.yul\":1052:1191   */\n    tag_64:\n        /* \"#utility.yul\":1098:1103   */\n      0x00\n        /* \"#utility.yul\":1136:1142   */\n      dup2\n        /* \"#utility.yul\":1123:1143   */\n      calldataload\n        /* \"#utility.yul\":1114:1143   */\n      swap1\n      pop\n        /* \"#utility.yul\":1152:1185   */\n      tag_105\n        /* \"#utility.yul\":1179:1184   */\n      dup2\n        /* \"#utility.yul\":1152:1185   */\n      tag_63\n      jump\t// in\n    tag_105:\n        /* \"#utility.yul\":1052:1191   */\n      swap3\n      swap2\n      pop\n      pop\n      jump\t// out\n        /* \"#utility.yul\":1197:1671   */\n    tag_10:\n        /* \"#utility.yul\":1265:1271   */\n      0x00\n        /* \"#utility.yul\":1273:1279   */\n      dup1\n        /* \"#utility.yul\":1322:1324   */\n      0x40\n        /* \"#utility.yul\":1310:1319   */\n      dup4\n        /* \"#utility.yul\":1301:1308   */\n      dup6\n        /* \"#utility.yul\":1297:1320   */\n      sub\n        /* \"#utility.yul\":1293:1325   */\n      slt\n        /* \"#utility.yul\":1290:1409   */\n      iszero\n      tag_107\n      jumpi\n        /* \"#utility.yul\":1328:1407   */\n      tag_108\n      tag_56\n      jump\t// in\n    tag_108:\n        /* \"#utility.yul\":1290:1409   */\n    tag_107:\n        /* \"#utility.yul\":1448:1449   */\n      0x00\n        /* \"#utility.yul\":1473:1526   */\n      tag_109\n        /* \"#utility.yul\":1518:1525   */\n      dup6\n        /* \"#utility.yul\":1509:1515   */\n      dup3\n        /* \"#utility.yul\":1498:1507   */\n      dup7\n        /* \"#utility.yul\":1494:1516   */\n      add\n        /* \"#utility.yul\":1473:1526   */\n      tag_61\n      jump\t// in\n    tag_109:\n        /* \"#utility.yul\":1463:1526   */\n      swap3\n      pop\n        /* \"#utility.yul\":1419:1536   */\n      pop\n        /* \"#utility.yul\":1575:1577   */\n      0x20\n        /* \"#utility.yul\":1601:1654   */\n      tag_110\n        /* \"#utility.yul\":1646:1653   */\n      dup6\n        /* \"#utility.yul\":1637:1643   */\n      dup3\n        /* \"#utility.yul\":1626:1635   */\n      dup7\n        /* \"#utility.yul\":1622:1644   */\n      add\n        /* \"#utility.yul\":1601:1654   */\n      tag_64\n      jump\t// in\n    tag_110:\n        /* \"#utility.yul\":1591:1654   */\n      swap2\n      pop\n        /* \"#utility.yul\":1546:1664   */\n      pop\n        /* \"#utility.yul\":1197:1671   */\n      swap3\n      pop\n      swap3\n      swap1\n      pop\n      jump\t// out\n        /* \"#utility.yul\":1677:1775   */\n    tag_65:\n        /* \"#utility.yul\":1728:1734   */\n      0x00\n        /* \"#utility.yul\":1762:1767   */\n      dup2\n        /* \"#utility.yul\":1756:1768   */\n      mload\n        /* \"#utility.yul\":1746:1768   */\n      swap1\n      pop\n        /* \"#utility.yul\":1677:1775   */\n      swap2\n      swap1\n      pop\n      jump\t// out\n        /* \"#utility.yul\":1781:1949   */\n    tag_66:\n        /* \"#utility.yul\":1864:1875   */\n      0x00\n        /* \"#utility.yul\":1898:1904   */\n      dup3\n        /* \"#utility.yul\":1893:1896   */\n      dup3\n        /* \"#utility.yul\":1886:1905   */\n      mstore\n        /* \"#utility.yul\":1938:1942   */\n      0x20\n        /* \"#utility.yul\":1933:1936   */\n      dup3\n        /* \"#utility.yul\":1929:1943   */\n      add\n        /* \"#utility.yul\":1914:1943   */\n      swap1\n      pop\n        /* \"#utility.yul\":1781:1949   */\n      swap3\n      swap2\n      pop\n      pop\n      jump\t// out\n        /* \"#utility.yul\":1955:2201   */\n    tag_67:\n        /* \"#utility.yul\":2036:2037   */\n      0x00\n        /* \"#utility.yul\":2046:2159   */\n    tag_114:\n        /* \"#utility.yul\":2060:2066   */\n      dup4\n        /* \"#utility.yul\":2057:2058   */\n      dup2\n        /* \"#utility.yul\":2054:2067   */\n      lt\n        /* \"#utility.yul\":2046:2159   */\n      iszero\n      tag_116\n      jumpi\n        /* \"#utility.yul\":2145:2146   */\n      dup1\n        /* \"#utility.yul\":2140:2143   */\n      dup3\n        /* \"#utility.yul\":2136:2147   */\n      add\n        /* \"#utility.yul\":2130:2148   */\n      mload\n        /* \"#utility.yul\":2126:2127   */\n      dup2\n        /* \"#utility.yul\":2121:2124   */\n      dup5\n        /* \"#utility.yul\":2117:2128   */\n      add\n        /* \"#utility.yul\":2110:2149   */\n      mstore\n        /* \"#utility.yul\":2082:2084   */\n      0x20\n        /* \"#utility.yul\":2079:2080   */\n      dup2\n        /* \"#utility.yul\":2075:2085   */\n      add\n        /* \"#utility.yul\":2070:2085   */\n      swap1\n      pop\n        /* \"#utility.yul\":2046:2159   */\n      jump(tag_114)\n    tag_116:\n        /* \"#utility.yul\":2193:2194   */\n      0x00\n        /* \"#utility.yul\":2184:2190   */\n      dup5\n        /* \"#utility.yul\":2179:2182   */\n      dup5\n        /* \"#utility.yul\":2175:2191   */\n      add\n        /* \"#utility.yul\":2168:2195   */\n      mstore\n        /* \"#utility.yul\":2017:2201   */\n      pop\n        /* \"#utility.yul\":1955:2201   */\n      pop\n      pop\n      pop\n      jump\t// out\n        /* \"#utility.yul\":2207:2309   */\n    tag_68:\n        /* \"#utility.yul\":2248:2254   */\n      0x00\n        /* \"#utility.yul\":2299:2301   */\n      0x1f\n        /* \"#utility.yul\":2295:2302   */\n      not\n        /* \"#utility.yul\":2290:2292   */\n      0x1f\n        /* \"#utility.yul\":2283:2288   */\n      dup4\n        /* \"#utility.yul\":2279:2293   */\n      add\n        /* \"#utility.yul\":2275:2303   */\n      and\n        /* \"#utility.yul\":2265:2303   */\n      swap1\n      pop\n        /* \"#utility.yul\":2207:2309   */\n      swap2\n      swap1\n      pop\n      jump\t// out\n        /* \"#utility.yul\":2315:2688   */\n    tag_69:\n        /* \"#utility.yul\":2401:2404   */\n      0x00\n        /* \"#utility.yul\":2429:2467   */\n      tag_119\n        /* \"#utility.yul\":2461:2466   */\n      dup3\n        /* \"#utility.yul\":2429:2467   */\n      tag_65\n      jump\t// in\n    tag_119:\n        /* \"#utility.yul\":2483:2553   */\n      tag_120\n        /* \"#utility.yul\":2546:2552   */\n      dup2\n        /* \"#utility.yul\":2541:2544   */\n      dup6\n        /* \"#utility.yul\":2483:2553   */\n      tag_66\n      jump\t// in\n    tag_120:\n        /* \"#utility.yul\":2476:2553   */\n      swap4\n      pop\n        /* \"#utility.yul\":2562:2627   */\n      tag_121\n        /* \"#utility.yul\":2620:2626   */\n      dup2\n        /* \"#utility.yul\":2615:2618   */\n      dup6\n        /* \"#utility.yul\":2608:2612   */\n      0x20\n        /* \"#utility.yul\":2601:2606   */\n      dup7\n        /* \"#utility.yul\":2597:2613   */\n      add\n        /* \"#utility.yul\":2562:2627   */\n      tag_67\n      jump\t// in\n    tag_121:\n        /* \"#utility.yul\":2652:2681   */\n      tag_122\n        /* \"#utility.yul\":2674:2680   */\n      dup2\n        /* \"#utility.yul\":2652:2681   */\n      tag_68\n      jump\t// in\n    tag_122:\n        /* \"#utility.yul\":2647:2650   */\n      dup5\n        /* \"#utility.yul\":2643:2682   */\n      add\n        /* \"#utility.yul\":2636:2682   */\n      swap2\n      pop\n        /* \"#utility.yul\":2405:2688   */\n      pop\n        /* \"#utility.yul\":2315:2688   */\n      swap3\n      swap2\n      pop\n      pop\n      jump\t// out\n        /* \"#utility.yul\":2694:3003   */\n    tag_13:\n        /* \"#utility.yul\":2805:2809   */\n      0x00\n        /* \"#utility.yul\":2843:2845   */\n      0x20\n        /* \"#utility.yul\":2832:2841   */\n      dup3\n        /* \"#utility.yul\":2828:2846   */\n      add\n        /* \"#utility.yul\":2820:2846   */\n      swap1\n      pop\n        /* \"#utility.yul\":2892:2901   */\n      dup2\n        /* \"#utility.yul\":2886:2890   */\n      dup2\n        /* \"#utility.yul\":2882:2902   */\n      sub\n        /* \"#utility.yul\":2878:2879   */\n      0x00\n        /* \"#utility.yul\":2867:2876   */\n      dup4\n        /* \"#utility.yul\":2863:2880   */\n      add\n        /* \"#utility.yul\":2856:2903   */\n      mstore\n        /* \"#utility.yul\":2920:2996   */\n      tag_124\n        /* \"#utility.yul\":2991:2995   */\n      dup2\n        /* \"#utility.yul\":2982:2988   */\n      dup5\n        /* \"#utility.yul\":2920:2996   */\n      tag_69\n      jump\t// in\n    tag_124:\n        /* \"#utility.yul\":2912:2996   */\n      swap1\n      pop\n        /* \"#utility.yul\":2694:3003   */\n      swap3\n      swap2\n      pop\n      pop\n      jump\t// out\n        /* \"#utility.yul\":3009:3628   */\n    tag_20:\n        /* \"#utility.yul\":3086:3092   */\n      0x00\n        /* \"#utility.yul\":3094:3100   */\n      dup1\n        /* \"#utility.yul\":3102:3108   */\n      0x00\n        /* \"#utility.yul\":3151:3153   */\n      0x60\n        /* \"#utility.yul\":3139:3148   */\n      dup5\n        /* \"#utility.yul\":3130:3137   */\n      dup7\n        /* \"#utility.yul\":3126:3149   */\n      sub\n        /* \"#utility.yul\":3122:3154   */\n      slt\n        /* \"#utility.yul\":3119:3238   */\n      iszero\n      tag_126\n      jumpi\n        /* \"#utility.yul\":3157:3236   */\n      tag_127\n      tag_56\n      jump\t// in\n    tag_127:\n        /* \"#utility.yul\":3119:3238   */\n    tag_126:\n        /* \"#utility.yul\":3277:3278   */\n      0x00\n        /* \"#utility.yul\":3302:3355   */\n      tag_128\n        /* \"#utility.yul\":3347:3354   */\n      dup7\n        /* \"#utility.yul\":3338:3344   */\n      dup3\n        /* \"#utility.yul\":3327:3336   */\n      dup8\n        /* \"#utility.yul\":3323:3345   */\n      add\n        /* \"#utility.yul\":3302:3355   */\n      tag_61\n      jump\t// in\n    tag_128:\n        /* \"#utility.yul\":3292:3355   */\n      swap4\n      pop\n        /* \"#utility.yul\":3248:3365   */\n      pop\n        /* \"#utility.yul\":3404:3406   */\n      0x20\n        /* \"#utility.yul\":3430:3483   */\n      tag_129\n        /* \"#utility.yul\":3475:3482   */\n      dup7\n        /* \"#utility.yul\":3466:3472   */\n      dup3\n        /* \"#utility.yul\":3455:3464   */\n      dup8\n        /* \"#utility.yul\":3451:3473   */\n      add\n        /* \"#utility.yul\":3430:3483   */\n      tag_61\n      jump\t// in\n    tag_129:\n        /* \"#utility.yul\":3420:3483   */\n      swap3\n      pop\n        /* \"#utility.yul\":3375:3493   */\n      pop\n        /* \"#utility.yul\":3532:3534   */\n      0x40\n        /* \"#utility.yul\":3558:3611   */\n      tag_130\n        /* \"#utility.yul\":3603:3610   */\n      dup7\n        /* \"#utility.yul\":3594:3600   */\n      dup3\n        /* \"#utility.yul\":3583:3592   */\n      dup8\n        /* \"#utility.yul\":3579:3601   */\n      add\n        /* \"#utility.yul\":3558:3611   */\n      tag_64\n      jump\t// in\n    tag_130:\n        /* \"#utility.yul\":3548:3611   */\n      swap2\n      pop\n        /* \"#utility.yul\":3503:3621   */\n      pop\n        /* \"#utility.yul\":3009:3628   */\n      swap3\n      pop\n      swap3\n      pop\n      swap3\n      jump\t// out\n        /* \"#utility.yul\":3634:3751   */\n    tag_70:\n        /* \"#utility.yul\":3743:3744   */\n      0x00\n        /* \"#utility.yul\":3740:3741   */\n      dup1\n        /* \"#utility.yul\":3733:3745   */\n      revert\n        /* \"#utility.yul\":3757:3874   */\n    tag_71:\n        /* \"#utility.yul\":3866:3867   */\n      0x00\n        /* \"#utility.yul\":3863:3864   */\n      dup1\n        /* \"#utility.yul\":3856:3868   */\n      revert\n        /* \"#utility.yul\":3880:4060   */\n    tag_72:\n        /* \"#utility.yul\":3928:4005   */\n      0x4e487b7100000000000000000000000000000000000000000000000000000000\n        /* \"#utility.yul\":3925:3926   */\n      0x00\n        /* \"#utility.yul\":3918:4006   */\n      mstore\n        /* \"#utility.yul\":4025:4029   */\n      0x41\n        /* \"#utility.yul\":4022:4023   */\n      0x04\n        /* \"#utility.yul\":4015:4030   */\n      mstore\n        /* \"#utility.yul\":4049:4053   */\n      0x24\n        /* \"#utility.yul\":4046:4047   */\n      0x00\n        /* \"#utility.yul\":4039:4054   */\n      revert\n        /* \"#utility.yul\":4066:4347   */\n    tag_73:\n        /* \"#utility.yul\":4149:4176   */\n      tag_135\n        /* \"#utility.yul\":4171:4175   */\n      dup3\n        /* \"#utility.yul\":4149:4176   */\n      tag_68\n      jump\t// in\n    tag_135:\n        /* \"#utility.yul\":4141:4147   */\n      dup2\n        /* \"#utility.yul\":4137:4177   */\n      add\n        /* \"#utility.yul\":4279:4285   */\n      dup2\n        /* \"#utility.yul\":4267:4277   */\n      dup2\n        /* \"#utility.yul\":4264:4286   */\n      lt\n        /* \"#utility.yul\":4243:4261   */\n      0xffffffffffffffff\n        /* \"#utility.yul\":4231:4241   */\n      dup3\n        /* \"#utility.yul\":4228:4262   */\n      gt\n        /* \"#utility.yul\":4225:4287   */\n      or\n        /* \"#utility.yul\":4222:4310   */\n      iszero\n      tag_136\n      jumpi\n        /* \"#utility.yul\":4290:4308   */\n      tag_137\n      tag_72\n      jump\t// in\n    tag_137:\n        /* \"#utility.yul\":4222:4310   */\n    tag_136:\n        /* \"#utility.yul\":4330:4340   */\n      dup1\n        /* \"#utility.yul\":4326:4328   */\n      0x40\n        /* \"#utility.yul\":4319:4341   */\n      mstore\n        /* \"#utility.yul\":4109:4347   */\n      pop\n        /* \"#utility.yul\":4066:4347   */\n      pop\n      pop\n      jump\t// out\n        /* \"#utility.yul\":4353:4482   */\n    tag_74:\n        /* \"#utility.yul\":4387:4393   */\n      0x00\n        /* \"#utility.yul\":4414:4434   */\n      tag_139\n      tag_55\n      jump\t// in\n    tag_139:\n        /* \"#utility.yul\":4404:4434   */\n      swap1\n      pop\n        /* \"#utility.yul\":4443:4476   */\n      tag_140\n        /* \"#utility.yul\":4471:4475   */\n      dup3\n        /* \"#utility.yul\":4463:4469   */\n      dup3\n        /* \"#utility.yul\":4443:4476   */\n      tag_73\n      jump\t// in\n    tag_140:\n        /* \"#utility.yul\":4353:4482   */\n      swap2\n      swap1\n      pop\n      jump\t// out\n        /* \"#utility.yul\":4488:4795   */\n    tag_75:\n        /* \"#utility.yul\":4549:4553   */\n      0x00\n        /* \"#utility.yul\":4639:4657   */\n      0xffffffffffffffff\n        /* \"#utility.yul\":4631:4637   */\n      dup3\n        /* \"#utility.yul\":4628:4658   */\n      gt\n        /* \"#utility.yul\":4625:4681   */\n      iszero\n      tag_142\n      jumpi\n        /* \"#utility.yul\":4661:4679   */\n      tag_143\n      tag_72\n      jump\t// in\n    tag_143:\n        /* \"#utility.yul\":4625:4681   */\n    tag_142:\n        /* \"#utility.yul\":4699:4728   */\n      tag_144\n        /* \"#utility.yul\":4721:4727   */\n      dup3\n        /* \"#utility.yul\":4699:4728   */\n      tag_68\n      jump\t// in\n    tag_144:\n        /* \"#utility.yul\":4691:4728   */\n      swap1\n      pop\n        /* \"#utility.yul\":4783:4787   */\n      0x20\n        /* \"#utility.yul\":4777:4781   */\n      dup2\n        /* \"#utility.yul\":4773:4788   */\n      add\n        /* \"#utility.yul\":4765:4788   */\n      swap1\n      pop\n        /* \"#utility.yul\":4488:4795   */\n      swap2\n      swap1\n      pop\n      jump\t// out\n        /* \"#utility.yul\":4801:4947   */\n    tag_76:\n        /* \"#utility.yul\":4898:4904   */\n      dup3\n        /* \"#utility.yul\":4893:4896   */\n      dup2\n        /* \"#utility.yul\":4888:4891   */\n      dup4\n        /* \"#utility.yul\":4875:4905   */\n      calldatacopy\n        /* \"#utility.yul\":4939:4940   */\n      0x00\n        /* \"#utility.yul\":4930:4936   */\n      dup4\n        /* \"#utility.yul\":4925:4928   */\n      dup4\n        /* \"#utility.yul\":4921:4937   */\n      add\n        /* \"#utility.yul\":4914:4941   */\n      mstore\n        /* \"#utility.yul\":4801:4947   */\n      pop\n      pop\n      pop\n      jump\t// out\n        /* \"#utility.yul\":4953:5376   */\n    tag_77:\n        /* \"#utility.yul\":5030:5035   */\n      0x00\n        /* \"#utility.yul\":5055:5120   */\n      tag_147\n        /* \"#utility.yul\":5071:5119   */\n      tag_148\n        /* \"#utility.yul\":5112:5118   */\n      dup5\n        /* \"#utility.yul\":5071:5119   */\n      tag_75\n      jump\t// in\n    tag_148:\n        /* \"#utility.yul\":5055:5120   */\n      tag_74\n      jump\t// in\n    tag_147:\n        /* \"#utility.yul\":5046:5120   */\n      swap1\n      pop\n        /* \"#utility.yul\":5143:5149   */\n      dup3\n        /* \"#utility.yul\":5136:5141   */\n      dup2\n        /* \"#utility.yul\":5129:5150   */\n      mstore\n        /* \"#utility.yul\":5181:5185   */\n      0x20\n        /* \"#utility.yul\":5174:5179   */\n      dup2\n        /* \"#utility.yul\":5170:5186   */\n      add\n        /* \"#utility.yul\":5219:5222   */\n      dup5\n        /* \"#utility.yul\":5210:5216   */\n      dup5\n        /* \"#utility.yul\":5205:5208   */\n      dup5\n        /* \"#utility.yul\":5201:5217   */\n      add\n        /* \"#utility.yul\":5198:5223   */\n      gt\n        /* \"#utility.yul\":5195:5307   */\n      iszero\n      tag_149\n      jumpi\n        /* \"#utility.yul\":5226:5305   */\n      tag_150\n      tag_71\n      jump\t// in\n    tag_150:\n        /* \"#utility.yul\":5195:5307   */\n    tag_149:\n        /* \"#utility.yul\":5316:5370   */\n      tag_151\n        /* \"#utility.yul\":5363:5369   */\n      dup5\n        /* \"#utility.yul\":5358:5361   */\n      dup3\n        /* \"#utility.yul\":5353:5356   */\n      dup6\n        /* \"#utility.yul\":5316:5370   */\n      tag_76\n      jump\t// in\n    tag_151:\n        /* \"#utility.yul\":5036:5376   */\n      pop\n        /* \"#utility.yul\":4953:5376   */\n      swap4\n      swap3\n      pop\n      pop\n      pop\n      jump\t// out\n        /* \"#utility.yul\":5395:5733   */\n    tag_78:\n        /* \"#utility.yul\":5450:5455   */\n      0x00\n        /* \"#utility.yul\":5499:5502   */\n      dup3\n        /* \"#utility.yul\":5492:5496   */\n      0x1f\n        /* \"#utility.yul\":5484:5490   */\n      dup4\n        /* \"#utility.yul\":5480:5497   */\n      add\n        /* \"#utility.yul\":5476:5503   */\n      slt\n        /* \"#utility.yul\":5466:5588   */\n      tag_153\n      jumpi\n        /* \"#utility.yul\":5507:5586   */\n      tag_154\n      tag_70\n      jump\t// in\n    tag_154:\n        /* \"#utility.yul\":5466:5588   */\n    tag_153:\n        /* \"#utility.yul\":5624:5630   */\n      dup2\n        /* \"#utility.yul\":5611:5631   */\n      calldataload\n        /* \"#utility.yul\":5649:5727   */\n      tag_155\n        /* \"#utility.yul\":5723:5726   */\n      dup5\n        /* \"#utility.yul\":5715:5721   */\n      dup3\n        /* \"#utility.yul\":5708:5712   */\n      0x20\n        /* \"#utility.yul\":5700:5706   */\n      dup7\n        /* \"#utility.yul\":5696:5713   */\n      add\n        /* \"#utility.yul\":5649:5727   */\n      tag_77\n      jump\t// in\n    tag_155:\n        /* \"#utility.yul\":5640:5727   */\n      swap2\n      pop\n        /* \"#utility.yul\":5456:5733   */\n      pop\n        /* \"#utility.yul\":5395:5733   */\n      swap3\n      swap2\n      pop\n      pop\n      jump\t// out\n        /* \"#utility.yul\":5739:6391   */\n    tag_29:\n        /* \"#utility.yul\":5816:5822   */\n      0x00\n        /* \"#utility.yul\":5824:5830   */\n      dup1\n        /* \"#utility.yul\":5873:5875   */\n      0x40\n        /* \"#utility.yul\":5861:5870   */\n      dup4\n        /* \"#utility.yul\":5852:5859   */\n      dup6\n        /* \"#utility.yul\":5848:5871   */\n      sub\n        /* \"#utility.yul\":5844:5876   */\n      slt\n        /* \"#utility.yul\":5841:5960   */\n      iszero\n      tag_157\n      jumpi\n        /* \"#utility.yul\":5879:5958   */\n      tag_158\n      tag_56\n      jump\t// in\n    tag_158:\n        /* \"#utility.yul\":5841:5960   */\n    tag_157:\n        /* \"#utility.yul\":5999:6000   */\n      0x00\n        /* \"#utility.yul\":6024:6077   */\n      tag_159\n        /* \"#utility.yul\":6069:6076   */\n      dup6\n        /* \"#utility.yul\":6060:6066   */\n      dup3\n        /* \"#utility.yul\":6049:6058   */\n      dup7\n        /* \"#utility.yul\":6045:6067   */\n      add\n        /* \"#utility.yul\":6024:6077   */\n      tag_61\n      jump\t// in\n    tag_159:\n        /* \"#utility.yul\":6014:6077   */\n      swap3\n      pop\n        /* \"#utility.yul\":5970:6087   */\n      pop\n        /* \"#utility.yul\":6154:6156   */\n      0x20\n        /* \"#utility.yul\":6143:6152   */\n      dup4\n        /* \"#utility.yul\":6139:6157   */\n      add\n        /* \"#utility.yul\":6126:6158   */\n      calldataload\n        /* \"#utility.yul\":6185:6203   */\n      0xffffffffffffffff\n        /* \"#utility.yul\":6177:6183   */\n      dup2\n        /* \"#utility.yul\":6174:6204   */\n      gt\n        /* \"#utility.yul\":6171:6288   */\n      iszero\n      tag_160\n      jumpi\n        /* \"#utility.yul\":6207:6286   */\n      tag_161\n      tag_57\n      jump\t// in\n    tag_161:\n        /* \"#utility.yul\":6171:6288   */\n    tag_160:\n        /* \"#utility.yul\":6312:6374   */\n      tag_162\n        /* \"#utility.yul\":6366:6373   */\n      dup6\n        /* \"#utility.yul\":6357:6363   */\n      dup3\n        /* \"#utility.yul\":6346:6355   */\n      dup7\n        /* \"#utility.yul\":6342:6364   */\n      add\n        /* \"#utility.yul\":6312:6374   */\n      tag_78\n      jump\t// in\n    tag_162:\n        /* \"#utility.yul\":6302:6374   */\n      swap2\n      pop\n        /* \"#utility.yul\":6097:6384   */\n      pop\n        /* \"#utility.yul\":5739:6391   */\n      swap3\n      pop\n      swap3\n      swap1\n      pop\n      jump\t// out\n        /* \"#utility.yul\":6397:6487   */\n    tag_79:\n        /* \"#utility.yul\":6431:6438   */\n      0x00\n        /* \"#utility.yul\":6474:6479   */\n      dup2\n        /* \"#utility.yul\":6467:6480   */\n      iszero\n        /* \"#utility.yul\":6460:6481   */\n      iszero\n        /* \"#utility.yul\":6449:6481   */\n      swap1\n      pop\n        /* \"#utility.yul\":6397:6487   */\n      swap2\n      swap1\n      pop\n      jump\t// out\n        /* \"#utility.yul\":6493:6602   */\n    tag_80:\n        /* \"#utility.yul\":6574:6595   */\n      tag_165\n        /* \"#utility.yul\":6589:6594   */\n      dup2\n        /* \"#utility.yul\":6574:6595   */\n      tag_79\n      jump\t// in\n    tag_165:\n        /* \"#utility.yul\":6569:6572   */\n      dup3\n        /* \"#utility.yul\":6562:6596   */\n      mstore\n        /* \"#utility.yul\":6493:6602   */\n      pop\n      pop\n      jump\t// out\n        /* \"#utility.yul\":6608:6818   */\n    tag_32:\n        /* \"#utility.yul\":6695:6699   */\n      0x00\n        /* \"#utility.yul\":6733:6735   */\n      0x20\n        /* \"#utility.yul\":6722:6731   */\n      dup3\n        /* \"#utility.yul\":6718:6736   */\n      add\n        /* \"#utility.yul\":6710:6736   */\n      swap1\n      pop\n        /* \"#utility.yul\":6746:6811   */\n      tag_167\n        /* \"#utility.yul\":6808:6809   */\n      0x00\n        /* \"#utility.yul\":6797:6806   */\n      dup4\n        /* \"#utility.yul\":6793:6810   */\n      add\n        /* \"#utility.yul\":6784:6790   */\n      dup5\n        /* \"#utility.yul\":6746:6811   */\n      tag_80\n      jump\t// in\n    tag_167:\n        /* \"#utility.yul\":6608:6818   */\n      swap3\n      swap2\n      pop\n      pop\n      jump\t// out\n        /* \"#utility.yul\":6824:6942   */\n    tag_81:\n        /* \"#utility.yul\":6911:6935   */\n      tag_169\n        /* \"#utility.yul\":6929:6934   */\n      dup2\n        /* \"#utility.yul\":6911:6935   */\n      tag_59\n      jump\t// in\n    tag_169:\n        /* \"#utility.yul\":6906:6909   */\n      dup3\n        /* \"#utility.yul\":6899:6936   */\n      mstore\n        /* \"#utility.yul\":6824:6942   */\n      pop\n      pop\n      jump\t// out\n        /* \"#utility.yul\":6948:7066   */\n    tag_82:\n        /* \"#utility.yul\":7035:7059   */\n      tag_171\n        /* \"#utility.yul\":7053:7058   */\n      dup2\n        /* \"#utility.yul\":7035:7059   */\n      tag_62\n      jump\t// in\n    tag_171:\n        /* \"#utility.yul\":7030:7033   */\n      dup3\n        /* \"#utility.yul\":7023:7060   */\n      mstore\n        /* \"#utility.yul\":6948:7066   */\n      pop\n      pop\n      jump\t// out\n        /* \"#utility.yul\":7072:7404   */\n    tag_35:\n        /* \"#utility.yul\":7193:7197   */\n      0x00\n        /* \"#utility.yul\":7231:7233   */\n      0x40\n        /* \"#utility.yul\":7220:7229   */\n      dup3\n        /* \"#utility.yul\":7216:7234   */\n      add\n        /* \"#utility.yul\":7208:7234   */\n      swap1\n      pop\n        /* \"#utility.yul\":7244:7315   */\n      tag_173\n        /* \"#utility.yul\":7312:7313   */\n      0x00\n        /* \"#utility.yul\":7301:7310   */\n      dup4\n        /* \"#utility.yul\":7297:7314   */\n      add\n        /* \"#utility.yul\":7288:7294   */\n      dup6\n        /* \"#utility.yul\":7244:7315   */\n      tag_81\n      jump\t// in\n    tag_173:\n        /* \"#utility.yul\":7325:7397   */\n      tag_174\n        /* \"#utility.yul\":7393:7395   */\n      0x20\n        /* \"#utility.yul\":7382:7391   */\n      dup4\n        /* \"#utility.yul\":7378:7396   */\n      add\n        /* \"#utility.yul\":7369:7375   */\n      dup5\n        /* \"#utility.yul\":7325:7397   */\n      tag_82\n      jump\t// in\n    tag_174:\n        /* \"#utility.yul\":7072:7404   */\n      swap4\n      swap3\n      pop\n      pop\n      pop\n      jump\t// out\n        /* \"#utility.yul\":7410:7557   */\n    tag_83:\n        /* \"#utility.yul\":7511:7522   */\n      0x00\n        /* \"#utility.yul\":7548:7551   */\n      dup2\n        /* \"#utility.yul\":7533:7551   */\n      swap1\n      pop\n        /* \"#utility.yul\":7410:7557   */\n      swap3\n      swap2\n      pop\n      pop\n      jump\t// out\n        /* \"#utility.yul\":7563:7949   */\n    tag_84:\n        /* \"#utility.yul\":7667:7670   */\n      0x00\n        /* \"#utility.yul\":7695:7733   */\n      tag_177\n        /* \"#utility.yul\":7727:7732   */\n      dup3\n        /* \"#utility.yul\":7695:7733   */\n      tag_65\n      jump\t// in\n    tag_177:\n        /* \"#utility.yul\":7749:7837   */\n      tag_178\n        /* \"#utility.yul\":7830:7836   */\n      dup2\n        /* \"#utility.yul\":7825:7828   */\n      dup6\n        /* \"#utility.yul\":7749:7837   */\n      tag_83\n      jump\t// in\n    tag_178:\n        /* \"#utility.yul\":7742:7837   */\n      swap4\n      pop\n        /* \"#utility.yul\":7846:7911   */\n      tag_179\n        /* \"#utility.yul\":7904:7910   */\n      dup2\n        /* \"#utility.yul\":7899:7902   */\n      dup6\n        /* \"#utility.yul\":7892:7896   */\n      0x20\n        /* \"#utility.yul\":7885:7890   */\n      dup7\n        /* \"#utility.yul\":7881:7897   */\n      add\n        /* \"#utility.yul\":7846:7911   */\n      tag_67\n      jump\t// in\n    tag_179:\n        /* \"#utility.yul\":7936:7942   */\n      dup1\n        /* \"#utility.yul\":7931:7934   */\n      dup5\n        /* \"#utility.yul\":7927:7943   */\n      add\n        /* \"#utility.yul\":7920:7943   */\n      swap2\n      pop\n        /* \"#utility.yul\":7671:7949   */\n      pop\n        /* \"#utility.yul\":7563:7949   */\n      swap3\n      swap2\n      pop\n      pop\n      jump\t// out\n        /* \"#utility.yul\":7955:8226   */\n    tag_41:\n        /* \"#utility.yul\":8085:8088   */\n      0x00\n        /* \"#utility.yul\":8107:8200   */\n      tag_181\n        /* \"#utility.yul\":8196:8199   */\n      dup3\n        /* \"#utility.yul\":8187:8193   */\n      dup5\n        /* \"#utility.yul\":8107:8200   */\n      tag_84\n      jump\t// in\n    tag_181:\n        /* \"#utility.yul\":8100:8200   */\n      swap2\n      pop\n        /* \"#utility.yul\":8217:8220   */\n      dup2\n        /* \"#utility.yul\":8210:8220   */\n      swap1\n      pop\n        /* \"#utility.yul\":7955:8226   */\n      swap3\n      swap2\n      pop\n      pop\n      jump\t// out\n        /* \"#utility.yul\":8232:8401   */\n    tag_85:\n        /* \"#utility.yul\":8316:8327   */\n      0x00\n        /* \"#utility.yul\":8350:8356   */\n      dup3\n        /* \"#utility.yul\":8345:8348   */\n      dup3\n        /* \"#utility.yul\":8338:8357   */\n      mstore\n        /* \"#utility.yul\":8390:8394   */\n      0x20\n        /* \"#utility.yul\":8385:8388   */\n      dup3\n        /* \"#utility.yul\":8381:8395   */\n      add\n        /* \"#utility.yul\":8366:8395   */\n      swap1\n      pop\n        /* \"#utility.yul\":8232:8401   */\n      swap3\n      swap2\n      pop\n      pop\n      jump\t// out\n        /* \"#utility.yul\":8407:8577   */\n    tag_86:\n        /* \"#utility.yul\":8547:8569   */\n      0x5472616e73616374696f6e204661696c65642021000000000000000000000000\n        /* \"#utility.yul\":8543:8544   */\n      0x00\n        /* \"#utility.yul\":8535:8541   */\n      dup3\n        /* \"#utility.yul\":8531:8545   */\n      add\n        /* \"#utility.yul\":8524:8570   */\n      mstore\n        /* \"#utility.yul\":8407:8577   */\n      pop\n      jump\t// out\n        /* \"#utility.yul\":8583:8949   */\n    tag_87:\n        /* \"#utility.yul\":8725:8728   */\n      0x00\n        /* \"#utility.yul\":8746:8813   */\n      tag_185\n        /* \"#utility.yul\":8810:8812   */\n      0x14\n        /* \"#utility.yul\":8805:8808   */\n      dup4\n        /* \"#utility.yul\":8746:8813   */\n      tag_85\n      jump\t// in\n    tag_185:\n        /* \"#utility.yul\":8739:8813   */\n      swap2\n      pop\n        /* \"#utility.yul\":8822:8915   */\n      tag_186\n        /* \"#utility.yul\":8911:8914   */\n      dup3\n        /* \"#utility.yul\":8822:8915   */\n      tag_86\n      jump\t// in\n    tag_186:\n        /* \"#utility.yul\":8940:8942   */\n      0x20\n        /* \"#utility.yul\":8935:8938   */\n      dup3\n        /* \"#utility.yul\":8931:8943   */\n      add\n        /* \"#utility.yul\":8924:8943   */\n      swap1\n      pop\n        /* \"#utility.yul\":8583:8949   */\n      swap2\n      swap1\n      pop\n      jump\t// out\n        /* \"#utility.yul\":8955:9374   */\n    tag_47:\n        /* \"#utility.yul\":9121:9125   */\n      0x00\n        /* \"#utility.yul\":9159:9161   */\n      0x20\n        /* \"#utility.yul\":9148:9157   */\n      dup3\n        /* \"#utility.yul\":9144:9162   */\n      add\n        /* \"#utility.yul\":9136:9162   */\n      swap1\n      pop\n        /* \"#utility.yul\":9208:9217   */\n      dup2\n        /* \"#utility.yul\":9202:9206   */\n      dup2\n        /* \"#utility.yul\":9198:9218   */\n      sub\n        /* \"#utility.yul\":9194:9195   */\n      0x00\n        /* \"#utility.yul\":9183:9192   */\n      dup4\n        /* \"#utility.yul\":9179:9196   */\n      add\n        /* \"#utility.yul\":9172:9219   */\n      mstore\n        /* \"#utility.yul\":9236:9367   */\n      tag_188\n        /* \"#utility.yul\":9362:9366   */\n      dup2\n        /* \"#utility.yul\":9236:9367   */\n      tag_87\n      jump\t// in\n    tag_188:\n        /* \"#utility.yul\":9228:9367   */\n      swap1\n      pop\n        /* \"#utility.yul\":8955:9374   */\n      swap2\n      swap1\n      pop\n      jump\t// out\n\n    auxdata: 0xa2646970667358221220a13cfa577240f861e4459bf9f64bd93ff5c4cffa65411422cee58155844be04464736f6c63430008140033\n}\n",
				"bytecode": {
					"linkReferences": {},
					"object": "608060405234801561000f575f80fd5b506109208061001d5f395ff3fe608060405234801561000f575f80fd5b5060043610610055575f3560e01c8063268fe504146100595780633d6c432a1461008957806345395932146100b9578063822f4aab146100e9578063cc7a9b6d14610119575b5f80fd5b610073600480360381019061006e91906104ec565b610149565b60405161008091906105b4565b60405180910390f35b6100a3600480360381019061009e91906104ec565b6101cb565b6040516100b091906105b4565b60405180910390f35b6100d360048036038101906100ce91906105d4565b610265565b6040516100e091906105b4565b60405180910390f35b61010360048036038101906100fe91906104ec565b610379565b60405161011091906105b4565b60405180910390f35b610133600480360381019061012e9190610750565b6103db565b60405161014091906107c4565b60405180910390f35b606063a9059cbb60e01b83836040516024016101669291906107fb565b604051602081830303815290604052907bffffffffffffffffffffffffffffffffffffffffffffffffffffffff19166020820180517bffffffffffffffffffffffffffffffffffffffffffffffffffffffff8381831617835250505050905092915050565b606082826040516024016101e09291906107fb565b6040516020818303038152906040527f9d61d234000000000000000000000000000000000000000000000000000000007bffffffffffffffffffffffffffffffffffffffffffffffffffffffff19166020820180517bffffffffffffffffffffffffffffffffffffffffffffffffffffffff8381831617835250505050905092915050565b60605f838360405160240161027b9291906107fb565b60405160208183030381529060405263a9059cbb60e01b6020820180517bffffffffffffffffffffffffffffffffffffffffffffffffffffffff838183161783525050505090505f808673ffffffffffffffffffffffffffffffffffffffff16836040516102e9919061085c565b5f604051808303815f865af19150503d805f8114610322576040519150601f19603f3d011682016040523d82523d5f602084013e610327565b606091505b50915091508161036c576040517f08c379a0000000000000000000000000000000000000000000000000000000008152600401610363906108cc565b60405180910390fd5b8093505050509392505050565b6060828260405160240161038e9291906107fb565b60405160208183030381529060405263a9059cbb60e01b6020820180517bffffffffffffffffffffffffffffffffffffffffffffffffffffffff8381831617835250505050905092915050565b5f808373ffffffffffffffffffffffffffffffffffffffff1683604051610402919061085c565b5f604051808303815f865af19150503d805f811461043b576040519150601f19603f3d011682016040523d82523d5f602084013e610440565b606091505b505090508091505092915050565b5f604051905090565b5f80fd5b5f80fd5b5f73ffffffffffffffffffffffffffffffffffffffff82169050919050565b5f6104888261045f565b9050919050565b6104988161047e565b81146104a2575f80fd5b50565b5f813590506104b38161048f565b92915050565b5f819050919050565b6104cb816104b9565b81146104d5575f80fd5b50565b5f813590506104e6816104c2565b92915050565b5f806040838503121561050257610501610457565b5b5f61050f858286016104a5565b9250506020610520858286016104d8565b9150509250929050565b5f81519050919050565b5f82825260208201905092915050565b5f5b83811015610561578082015181840152602081019050610546565b5f8484015250505050565b5f601f19601f8301169050919050565b5f6105868261052a565b6105908185610534565b93506105a0818560208601610544565b6105a98161056c565b840191505092915050565b5f6020820190508181035f8301526105cc818461057c565b905092915050565b5f805f606084860312156105eb576105ea610457565b5b5f6105f8868287016104a5565b9350506020610609868287016104a5565b925050604061061a868287016104d8565b9150509250925092565b5f80fd5b5f80fd5b7f4e487b71000000000000000000000000000000000000000000000000000000005f52604160045260245ffd5b6106628261056c565b810181811067ffffffffffffffff821117156106815761068061062c565b5b80604052505050565b5f61069361044e565b905061069f8282610659565b919050565b5f67ffffffffffffffff8211156106be576106bd61062c565b5b6106c78261056c565b9050602081019050919050565b828183375f83830152505050565b5f6106f46106ef846106a4565b61068a565b9050828152602081018484840111156107105761070f610628565b5b61071b8482856106d4565b509392505050565b5f82601f83011261073757610736610624565b5b81356107478482602086016106e2565b91505092915050565b5f806040838503121561076657610765610457565b5b5f610773858286016104a5565b925050602083013567ffffffffffffffff8111156107945761079361045b565b5b6107a085828601610723565b9150509250929050565b5f8115159050919050565b6107be816107aa565b82525050565b5f6020820190506107d75f8301846107b5565b92915050565b6107e68161047e565b82525050565b6107f5816104b9565b82525050565b5f60408201905061080e5f8301856107dd565b61081b60208301846107ec565b9392505050565b5f81905092915050565b5f6108368261052a565b6108408185610822565b9350610850818560208601610544565b80840191505092915050565b5f610867828461082c565b915081905092915050565b5f82825260208201905092915050565b7f5472616e73616374696f6e204661696c656420210000000000000000000000005f82015250565b5f6108b6601483610872565b91506108c182610882565b602082019050919050565b5f6020820190508181035f8301526108e3816108aa565b905091905056fea2646970667358221220a13cfa577240f861e4459bf9f64bd93ff5c4cffa65411422cee58155844be04464736f6c63430008140033",
					"opcodes": "PUSH1 0x80 PUSH1 0x40 MSTORE CALLVALUE DUP1 ISZERO PUSH2 0xF JUMPI PUSH0 DUP1 REVERT JUMPDEST POP PUSH2 0x920 DUP1 PUSH2 0x1D PUSH0 CODECOPY PUSH0 RETURN INVALID PUSH1 0x80 PUSH1 0x40 MSTORE CALLVALUE DUP1 ISZERO PUSH2 0xF JUMPI PUSH0 DUP1 REVERT JUMPDEST POP PUSH1 0x4 CALLDATASIZE LT PUSH2 0x55 JUMPI PUSH0 CALLDATALOAD PUSH1 0xE0 SHR DUP1 PUSH4 0x268FE504 EQ PUSH2 0x59 JUMPI DUP1 PUSH4 0x3D6C432A EQ PUSH2 0x89 JUMPI DUP1 PUSH4 0x45395932 EQ PUSH2 0xB9 JUMPI DUP1 PUSH4 0x822F4AAB EQ PUSH2 0xE9 JUMPI DUP1 PUSH4 0xCC7A9B6D EQ PUSH2 0x119 JUMPI JUMPDEST PUSH0 DUP1 REVERT JUMPDEST PUSH2 0x73 PUSH1 0x4 DUP1 CALLDATASIZE SUB DUP2 ADD SWAP1 PUSH2 0x6E SWAP2 SWAP1 PUSH2 0x4EC JUMP JUMPDEST PUSH2 0x149 JUMP JUMPDEST PUSH1 0x40 MLOAD PUSH2 0x80 SWAP2 SWAP1 PUSH2 0x5B4 JUMP JUMPDEST PUSH1 0x40 MLOAD DUP1 SWAP2 SUB SWAP1 RETURN JUMPDEST PUSH2 0xA3 PUSH1 0x4 DUP1 CALLDATASIZE SUB DUP2 ADD SWAP1 PUSH2 0x9E SWAP2 SWAP1 PUSH2 0x4EC JUMP JUMPDEST PUSH2 0x1CB JUMP JUMPDEST PUSH1 0x40 MLOAD PUSH2 0xB0 SWAP2 SWAP1 PUSH2 0x5B4 JUMP JUMPDEST PUSH1 0x40 MLOAD DUP1 SWAP2 SUB SWAP1 RETURN JUMPDEST PUSH2 0xD3 PUSH1 0x4 DUP1 CALLDATASIZE SUB DUP2 ADD SWAP1 PUSH2 0xCE SWAP2 SWAP1 PUSH2 0x5D4 JUMP JUMPDEST PUSH2 0x265 JUMP JUMPDEST PUSH1 0x40 MLOAD PUSH2 0xE0 SWAP2 SWAP1 PUSH2 0x5B4 JUMP JUMPDEST PUSH1 0x40 MLOAD DUP1 SWAP2 SUB SWAP1 RETURN JUMPDEST PUSH2 0x103 PUSH1 0x4 DUP1 CALLDATASIZE SUB DUP2 ADD SWAP1 PUSH2 0xFE SWAP2 SWAP1 PUSH2 0x4EC JUMP JUMPDEST PUSH2 0x379 JUMP JUMPDEST PUSH1 0x40 MLOAD PUSH2 0x110 SWAP2 SWAP1 PUSH2 0x5B4 JUMP JUMPDEST PUSH1 0x40 MLOAD DUP1 SWAP2 SUB SWAP1 RETURN JUMPDEST PUSH2 0x133 PUSH1 0x4 DUP1 CALLDATASIZE SUB DUP2 ADD SWAP1 PUSH2 0x12E SWAP2 SWAP1 PUSH2 0x750 JUMP JUMPDEST PUSH2 0x3DB JUMP JUMPDEST PUSH1 0x40 MLOAD PUSH2 0x140 SWAP2 SWAP1 PUSH2 0x7C4 JUMP JUMPDEST PUSH1 0x40 MLOAD DUP1 SWAP2 SUB SWAP1 RETURN JUMPDEST PUSH1 0x60 PUSH4 0xA9059CBB PUSH1 0xE0 SHL DUP4 DUP4 PUSH1 0x40 MLOAD PUSH1 0x24 ADD PUSH2 0x166 SWAP3 SWAP2 SWAP1 PUSH2 0x7FB JUMP JUMPDEST PUSH1 0x40 MLOAD PUSH1 0x20 DUP2 DUP4 SUB SUB DUP2 MSTORE SWAP1 PUSH1 0x40 MSTORE SWAP1 PUSH28 0xFFFFFFFFFFFFFFFFFFFFFFFFFFFFFFFFFFFFFFFFFFFFFFFFFFFFFFFF NOT AND PUSH1 0x20 DUP3 ADD DUP1 MLOAD PUSH28 0xFFFFFFFFFFFFFFFFFFFFFFFFFFFFFFFFFFFFFFFFFFFFFFFFFFFFFFFF DUP4 DUP2 DUP4 AND OR DUP4 MSTORE POP POP POP POP SWAP1 POP SWAP3 SWAP2 POP POP JUMP JUMPDEST PUSH1 0x60 DUP3 DUP3 PUSH1 0x40 MLOAD PUSH1 0x24 ADD PUSH2 0x1E0 SWAP3 SWAP2 SWAP1 PUSH2 0x7FB JUMP JUMPDEST PUSH1 0x40 MLOAD PUSH1 0x20 DUP2 DUP4 SUB SUB DUP2 MSTORE SWAP1 PUSH1 0x40 MSTORE PUSH32 0x9D61D23400000000000000000000000000000000000000000000000000000000 PUSH28 0xFFFFFFFFFFFFFFFFFFFFFFFFFFFFFFFFFFFFFFFFFFFFFFFFFFFFFFFF NOT AND PUSH1 0x20 DUP3 ADD DUP1 MLOAD PUSH28 0xFFFFFFFFFFFFFFFFFFFFFFFFFFFFFFFFFFFFFFFFFFFFFFFFFFFFFFFF DUP4 DUP2 DUP4 AND OR DUP4 MSTORE POP POP POP POP SWAP1 POP SWAP3 SWAP2 POP POP JUMP JUMPDEST PUSH1 0x60 PUSH0 DUP4 DUP4 PUSH1 0x40 MLOAD PUSH1 0x24 ADD PUSH2 0x27B SWAP3 SWAP2 SWAP1 PUSH2 0x7FB JUMP JUMPDEST PUSH1 0x40 MLOAD PUSH1 0x20 DUP2 DUP4 SUB SUB DUP2 MSTORE SWAP1 PUSH1 0x40 MSTORE PUSH4 0xA9059CBB PUSH1 0xE0 SHL PUSH1 0x20 DUP3 ADD DUP1 MLOAD PUSH28 0xFFFFFFFFFFFFFFFFFFFFFFFFFFFFFFFFFFFFFFFFFFFFFFFFFFFFFFFF DUP4 DUP2 DUP4 AND OR DUP4 MSTORE POP POP POP POP SWAP1 POP PUSH0 DUP1 DUP7 PUSH20 0xFFFFFFFFFFFFFFFFFFFFFFFFFFFFFFFFFFFFFFFF AND DUP4 PUSH1 0x40 MLOAD PUSH2 0x2E9 SWAP2 SWAP1 PUSH2 0x85C JUMP JUMPDEST PUSH0 PUSH1 0x40 MLOAD DUP1 DUP4 SUB DUP2 PUSH0 DUP7 GAS CALL SWAP2 POP POP RETURNDATASIZE DUP1 PUSH0 DUP2 EQ PUSH2 0x322 JUMPI PUSH1 0x40 MLOAD SWAP2 POP PUSH1 0x1F NOT PUSH1 0x3F RETURNDATASIZE ADD AND DUP3 ADD PUSH1 0x40 MSTORE RETURNDATASIZE DUP3 MSTORE RETURNDATASIZE PUSH0 PUSH1 0x20 DUP5 ADD RETURNDATACOPY PUSH2 0x327 JUMP JUMPDEST PUSH1 0x60 SWAP2 POP JUMPDEST POP SWAP2 POP SWAP2 POP DUP2 PUSH2 0x36C JUMPI PUSH1 0x40 MLOAD PUSH32 0x8C379A000000000000000000000000000000000000000000000000000000000 DUP2 MSTORE PUSH1 0x4 ADD PUSH2 0x363 SWAP1 PUSH2 0x8CC JUMP JUMPDEST PUSH1 0x40 MLOAD DUP1 SWAP2 SUB SWAP1 REVERT JUMPDEST DUP1 SWAP4 POP POP POP POP SWAP4 SWAP3 POP POP POP JUMP JUMPDEST PUSH1 0x60 DUP3 DUP3 PUSH1 0x40 MLOAD PUSH1 0x24 ADD PUSH2 0x38E SWAP3 SWAP2 SWAP1 PUSH2 0x7FB JUMP JUMPDEST PUSH1 0x40 MLOAD PUSH1 0x20 DUP2 DUP4 SUB SUB DUP2 MSTORE SWAP1 PUSH1 0x40 MSTORE PUSH4 0xA9059CBB PUSH1 0xE0 SHL PUSH1 0x20 DUP3 ADD DUP1 MLOAD PUSH28 0xFFFFFFFFFFFFFFFFFFFFFFFFFFFFFFFFFFFFFFFFFFFFFFFFFFFFFFFF DUP4 DUP2 DUP4 AND OR DUP4 MSTORE POP POP POP POP SWAP1 POP SWAP3 SWAP2 POP POP JUMP JUMPDEST PUSH0 DUP1 DUP4 PUSH20 0xFFFFFFFFFFFFFFFFFFFFFFFFFFFFFFFFFFFFFFFF AND DUP4 PUSH1 0x40 MLOAD PUSH2 0x402 SWAP2 SWAP1 PUSH2 0x85C JUMP JUMPDEST PUSH0 PUSH1 0x40 MLOAD DUP1 DUP4 SUB DUP2 PUSH0 DUP7 GAS CALL SWAP2 POP POP RETURNDATASIZE DUP1 PUSH0 DUP2 EQ PUSH2 0x43B JUMPI PUSH1 0x40 MLOAD SWAP2 POP PUSH1 0x1F NOT PUSH1 0x3F RETURNDATASIZE ADD AND DUP3 ADD PUSH1 0x40 MSTORE RETURNDATASIZE DUP3 MSTORE RETURNDATASIZE PUSH0 PUSH1 0x20 DUP5 ADD RETURNDATACOPY PUSH2 0x440 JUMP JUMPDEST PUSH1 0x60 SWAP2 POP JUMPDEST POP POP SWAP1 POP DUP1 SWAP2 POP POP SWAP3 SWAP2 POP POP JUMP JUMPDEST PUSH0 PUSH1 0x40 MLOAD SWAP1 POP SWAP1 JUMP JUMPDEST PUSH0 DUP1 REVERT JUMPDEST PUSH0 DUP1 REVERT JUMPDEST PUSH0 PUSH20 0xFFFFFFFFFFFFFFFFFFFFFFFFFFFFFFFFFFFFFFFF DUP3 AND SWAP1 POP SWAP2 SWAP1 POP JUMP JUMPDEST PUSH0 PUSH2 0x488 DUP3 PUSH2 0x45F JUMP JUMPDEST SWAP1 POP SWAP2 SWAP1 POP JUMP JUMPDEST PUSH2 0x498 DUP2 PUSH2 0x47E JUMP JUMPDEST DUP2 EQ PUSH2 0x4A2 JUMPI PUSH0 DUP1 REVERT JUMPDEST POP JUMP JUMPDEST PUSH0 DUP2 CALLDATALOAD SWAP1 POP PUSH2 0x4B3 DUP2 PUSH2 0x48F JUMP JUMPDEST SWAP3 SWAP2 POP POP JUMP JUMPDEST PUSH0 DUP2 SWAP1 POP SWAP2 SWAP1 POP JUMP JUMPDEST PUSH2 0x4CB DUP2 PUSH2 0x4B9 JUMP JUMPDEST DUP2 EQ PUSH2 0x4D5 JUMPI PUSH0 DUP1 REVERT JUMPDEST POP JUMP JUMPDEST PUSH0 DUP2 CALLDATALOAD SWAP1 POP PUSH2 0x4E6 DUP2 PUSH2 0x4C2 JUMP JUMPDEST SWAP3 SWAP2 POP POP JUMP JUMPDEST PUSH0 DUP1 PUSH1 0x40 DUP4 DUP6 SUB SLT ISZERO PUSH2 0x502 JUMPI PUSH2 0x501 PUSH2 0x457 JUMP JUMPDEST JUMPDEST PUSH0 PUSH2 0x50F DUP6 DUP3 DUP7 ADD PUSH2 0x4A5 JUMP JUMPDEST SWAP3 POP POP PUSH1 0x20 PUSH2 0x520 DUP6 DUP3 DUP7 ADD PUSH2 0x4D8 JUMP JUMPDEST SWAP2 POP POP SWAP3 POP SWAP3 SWAP1 POP JUMP JUMPDEST PUSH0 DUP2 MLOAD SWAP1 POP SWAP2 SWAP1 POP JUMP JUMPDEST PUSH0 DUP3 DUP3 MSTORE PUSH1 0x20 DUP3 ADD SWAP1 POP SWAP3 SWAP2 POP POP JUMP JUMPDEST PUSH0 JUMPDEST DUP4 DUP2 LT ISZERO PUSH2 0x561 JUMPI DUP1 DUP3 ADD MLOAD DUP2 DUP5 ADD MSTORE PUSH1 0x20 DUP2 ADD SWAP1 POP PUSH2 0x546 JUMP JUMPDEST PUSH0 DUP5 DUP5 ADD MSTORE POP POP POP POP JUMP JUMPDEST PUSH0 PUSH1 0x1F NOT PUSH1 0x1F DUP4 ADD AND SWAP1 POP SWAP2 SWAP1 POP JUMP JUMPDEST PUSH0 PUSH2 0x586 DUP3 PUSH2 0x52A JUMP JUMPDEST PUSH2 0x590 DUP2 DUP6 PUSH2 0x534 JUMP JUMPDEST SWAP4 POP PUSH2 0x5A0 DUP2 DUP6 PUSH1 0x20 DUP7 ADD PUSH2 0x544 JUMP JUMPDEST PUSH2 0x5A9 DUP2 PUSH2 0x56C JUMP JUMPDEST DUP5 ADD SWAP2 POP POP SWAP3 SWAP2 POP POP JUMP JUMPDEST PUSH0 PUSH1 0x20 DUP3 ADD SWAP1 POP DUP2 DUP2 SUB PUSH0 DUP4 ADD MSTORE PUSH2 0x5CC DUP2 DUP5 PUSH2 0x57C JUMP JUMPDEST SWAP1 POP SWAP3 SWAP2 POP POP JUMP JUMPDEST PUSH0 DUP1 PUSH0 PUSH1 0x60 DUP5 DUP7 SUB SLT ISZERO PUSH2 0x5EB JUMPI PUSH2 0x5EA PUSH2 0x457 JUMP JUMPDEST JUMPDEST PUSH0 PUSH2 0x5F8 DUP7 DUP3 DUP8 ADD PUSH2 0x4A5 JUMP JUMPDEST SWAP4 POP POP PUSH1 0x20 PUSH2 0x609 DUP7 DUP3 DUP8 ADD PUSH2 0x4A5 JUMP JUMPDEST SWAP3 POP POP PUSH1 0x40 PUSH2 0x61A DUP7 DUP3 DUP8 ADD PUSH2 0x4D8 JUMP JUMPDEST SWAP2 POP POP SWAP3 POP SWAP3 POP SWAP3 JUMP JUMPDEST PUSH0 DUP1 REVERT JUMPDEST PUSH0 DUP1 REVERT JUMPDEST PUSH32 0x4E487B7100000000000000000000000000000000000000000000000000000000 PUSH0 MSTORE PUSH1 0x41 PUSH1 0x4 MSTORE PUSH1 0x24 PUSH0 REVERT JUMPDEST PUSH2 0x662 DUP3 PUSH2 0x56C JUMP JUMPDEST DUP2 ADD DUP2 DUP2 LT PUSH8 0xFFFFFFFFFFFFFFFF DUP3 GT OR ISZERO PUSH2 0x681 JUMPI PUSH2 0x680 PUSH2 0x62C JUMP JUMPDEST JUMPDEST DUP1 PUSH1 0x40 MSTORE POP POP POP JUMP JUMPDEST PUSH0 PUSH2 0x693 PUSH2 0x44E JUMP JUMPDEST SWAP1 POP PUSH2 0x69F DUP3 DUP3 PUSH2 0x659 JUMP JUMPDEST SWAP2 SWAP1 POP JUMP JUMPDEST PUSH0 PUSH8 0xFFFFFFFFFFFFFFFF DUP3 GT ISZERO PUSH2 0x6BE JUMPI PUSH2 0x6BD PUSH2 0x62C JUMP JUMPDEST JUMPDEST PUSH2 0x6C7 DUP3 PUSH2 0x56C JUMP JUMPDEST SWAP1 POP PUSH1 0x20 DUP2 ADD SWAP1 POP SWAP2 SWAP1 POP JUMP JUMPDEST DUP3 DUP2 DUP4 CALLDATACOPY PUSH0 DUP4 DUP4 ADD MSTORE POP POP POP JUMP JUMPDEST PUSH0 PUSH2 0x6F4 PUSH2 0x6EF DUP5 PUSH2 0x6A4 JUMP JUMPDEST PUSH2 0x68A JUMP JUMPDEST SWAP1 POP DUP3 DUP2 MSTORE PUSH1 0x20 DUP2 ADD DUP5 DUP5 DUP5 ADD GT ISZERO PUSH2 0x710 JUMPI PUSH2 0x70F PUSH2 0x628 JUMP JUMPDEST JUMPDEST PUSH2 0x71B DUP5 DUP3 DUP6 PUSH2 0x6D4 JUMP JUMPDEST POP SWAP4 SWAP3 POP POP POP JUMP JUMPDEST PUSH0 DUP3 PUSH1 0x1F DUP4 ADD SLT PUSH2 0x737 JUMPI PUSH2 0x736 PUSH2 0x624 JUMP JUMPDEST JUMPDEST DUP2 CALLDATALOAD PUSH2 0x747 DUP5 DUP3 PUSH1 0x20 DUP7 ADD PUSH2 0x6E2 JUMP JUMPDEST SWAP2 POP POP SWAP3 SWAP2 POP POP JUMP JUMPDEST PUSH0 DUP1 PUSH1 0x40 DUP4 DUP6 SUB SLT ISZERO PUSH2 0x766 JUMPI PUSH2 0x765 PUSH2 0x457 JUMP JUMPDEST JUMPDEST PUSH0 PUSH2 0x773 DUP6 DUP3 DUP7 ADD PUSH2 0x4A5 JUMP JUMPDEST SWAP3 POP POP PUSH1 0x20 DUP4 ADD CALLDATALOAD PUSH8 0xFFFFFFFFFFFFFFFF DUP2 GT ISZERO PUSH2 0x794 JUMPI PUSH2 0x793 PUSH2 0x45B JUMP JUMPDEST JUMPDEST PUSH2 0x7A0 DUP6 DUP3 DUP7 ADD PUSH2 0x723 JUMP JUMPDEST SWAP2 POP POP SWAP3 POP SWAP3 SWAP1 POP JUMP JUMPDEST PUSH0 DUP2 ISZERO ISZERO SWAP1 POP SWAP2 SWAP1 POP JUMP JUMPDEST PUSH2 0x7BE DUP2 PUSH2 0x7AA JUMP JUMPDEST DUP3 MSTORE POP POP JUMP JUMPDEST PUSH0 PUSH1 0x20 DUP3 ADD SWAP1 POP PUSH2 0x7D7 PUSH0 DUP4 ADD DUP5 PUSH2 0x7B5 JUMP JUMPDEST SWAP3 SWAP2 POP POP JUMP JUMPDEST PUSH2 0x7E6 DUP2 PUSH2 0x47E JUMP JUMPDEST DUP3 MSTORE POP POP JUMP JUMPDEST PUSH2 0x7F5 DUP2 PUSH2 0x4B9 JUMP JUMPDEST DUP3 MSTORE POP POP JUMP JUMPDEST PUSH0 PUSH1 0x40 DUP3 ADD SWAP1 POP PUSH2 0x80E PUSH0 DUP4 ADD DUP6 PUSH2 0x7DD JUMP JUMPDEST PUSH2 0x81B PUSH1 0x20 DUP4 ADD DUP5 PUSH2 0x7EC JUMP JUMPDEST SWAP4 SWAP3 POP POP POP JUMP JUMPDEST PUSH0 DUP2 SWAP1 POP SWAP3 SWAP2 POP POP JUMP JUMPDEST PUSH0 PUSH2 0x836 DUP3 PUSH2 0x52A JUMP JUMPDEST PUSH2 0x840 DUP2 DUP6 PUSH2 0x822 JUMP JUMPDEST SWAP4 POP PUSH2 0x850 DUP2 DUP6 PUSH1 0x20 DUP7 ADD PUSH2 0x544 JUMP JUMPDEST DUP1 DUP5 ADD SWAP2 POP POP SWAP3 SWAP2 POP POP JUMP JUMPDEST PUSH0 PUSH2 0x867 DUP3 DUP5 PUSH2 0x82C JUMP JUMPDEST SWAP2 POP DUP2 SWAP1 POP SWAP3 SWAP2 POP POP JUMP JUMPDEST PUSH0 DUP3 DUP3 MSTORE PUSH1 0x20 DUP3 ADD SWAP1 POP SWAP3 SWAP2 POP POP JUMP JUMPDEST PUSH32 0x5472616E73616374696F6E204661696C65642021000000000000000000000000 PUSH0 DUP3 ADD MSTORE POP JUMP JUMPDEST PUSH0 PUSH2 0x8B6 PUSH1 0x14 DUP4 PUSH2 0x872 JUMP JUMPDEST SWAP2 POP PUSH2 0x8C1 DUP3 PUSH2 0x882 JUMP JUMPDEST PUSH1 0x20 DUP3 ADD SWAP1 POP SWAP2 SWAP1 POP JUMP JUMPDEST PUSH0 PUSH1 0x20 DUP3 ADD SWAP1 POP DUP2 DUP2 SUB PUSH0 DUP4 ADD MSTORE PUSH2 0x8E3 DUP2 PUSH2 0x8AA JUMP JUMPDEST SWAP1 POP SWAP2 SWAP1 POP JUMP INVALID LOG2 PUSH5 0x6970667358 0x22 SLT KECCAK256 LOG1 EXTCODECOPY STATICCALL JUMPI PUSH19 0x40F861E4459BF9F64BD93FF5C4CFFA65411422 0xCE 0xE5 DUP2 SSTORE DUP5 0x4B 0xE0 PREVRANDAO PUSH5 0x736F6C6343 STOP ADDMOD EQ STOP CALLER "
				},
				"gasEstimates": {
					"creation": {
						"codeDepositCost": "467200",
						"executionCost": "497",
						"totalCost": "467697"
					},
					"external": {
						"abiEncodeCall(address,uint256)": "infinite",
						"abiEncodeWithSelector(address,uint256)": "infinite",
						"abiEncodeWithSignature(address,uint256)": "infinite",
						"tokenContractTransferEncode(address,bytes)": "infinite",
						"tokenContractTransferInshort(address,address,uint256)": "infinite"
					}
				},
				"methodIdentifiers": {
					"abiEncodeCall(address,uint256)": "822f4aab",
					"abiEncodeWithSelector(address,uint256)": "268fe504",
					"abiEncodeWithSignature(address,uint256)": "3d6c432a",
					"tokenContractTransferEncode(address,bytes)": "cc7a9b6d",
					"tokenContractTransferInshort(address,address,uint256)": "45395932"
				}
			},
			"storageLayout": {
				"storage": [],
				"types": null
			},
			"userdoc": {
				"kind": "user",
				"methods": {},
				"version": 1
			}
		}
	}
}